{
	"ARY/SwapPro.sol": {
		"SwapPro": {
			"abi": [
				{
					"inputs": [],
					"stateMutability": "nonpayable",
					"type": "constructor"
				},
				{
					"inputs": [
						{
							"internalType": "address",
							"name": "owner",
							"type": "address"
						}
					],
					"name": "OwnableInvalidOwner",
					"type": "error"
				},
				{
					"inputs": [
						{
							"internalType": "address",
							"name": "account",
							"type": "address"
						}
					],
					"name": "OwnableUnauthorizedAccount",
					"type": "error"
				},
				{
					"anonymous": false,
					"inputs": [
						{
							"indexed": true,
							"internalType": "address",
							"name": "previousOwner",
							"type": "address"
						},
						{
							"indexed": true,
							"internalType": "address",
							"name": "newOwner",
							"type": "address"
						}
					],
					"name": "OwnershipTransferred",
					"type": "event"
				},
				{
					"inputs": [],
					"name": "ARY",
					"outputs": [
						{
							"internalType": "address",
							"name": "",
							"type": "address"
						}
					],
					"stateMutability": "view",
					"type": "function"
				},
				{
					"inputs": [],
					"name": "CUSDC",
					"outputs": [
						{
							"internalType": "address",
							"name": "",
							"type": "address"
						}
					],
					"stateMutability": "view",
					"type": "function"
				},
				{
					"inputs": [],
					"name": "CUSDT",
					"outputs": [
						{
							"internalType": "address",
							"name": "",
							"type": "address"
						}
					],
					"stateMutability": "view",
					"type": "function"
				},
				{
					"inputs": [],
					"name": "DEXFACTORY",
					"outputs": [
						{
							"internalType": "address",
							"name": "",
							"type": "address"
						}
					],
					"stateMutability": "view",
					"type": "function"
				},
				{
					"inputs": [],
					"name": "DEXROUTER",
					"outputs": [
						{
							"internalType": "address",
							"name": "",
							"type": "address"
						}
					],
					"stateMutability": "view",
					"type": "function"
				},
				{
					"inputs": [],
					"name": "MERY",
					"outputs": [
						{
							"internalType": "address",
							"name": "",
							"type": "address"
						}
					],
					"stateMutability": "view",
					"type": "function"
				},
				{
					"inputs": [],
					"name": "WCRO",
					"outputs": [
						{
							"internalType": "address",
							"name": "",
							"type": "address"
						}
					],
					"stateMutability": "view",
					"type": "function"
				},
				{
					"inputs": [
						{
							"internalType": "uint256",
							"name": "",
							"type": "uint256"
						}
					],
					"name": "addresses",
					"outputs": [
						{
							"internalType": "address",
							"name": "",
							"type": "address"
						}
					],
					"stateMutability": "view",
					"type": "function"
				},
				{
					"inputs": [],
					"name": "clearVolume",
					"outputs": [],
					"stateMutability": "nonpayable",
					"type": "function"
				},
				{
					"inputs": [],
					"name": "competition_started",
					"outputs": [
						{
							"internalType": "bool",
							"name": "",
							"type": "bool"
						}
					],
					"stateMutability": "view",
					"type": "function"
				},
				{
					"inputs": [],
					"name": "deposit",
					"outputs": [],
					"stateMutability": "payable",
					"type": "function"
				},
				{
					"inputs": [],
					"name": "feePercent",
					"outputs": [
						{
							"internalType": "uint256",
							"name": "",
							"type": "uint256"
						}
					],
					"stateMutability": "view",
					"type": "function"
				},
				{
					"inputs": [],
					"name": "feeReceiver",
					"outputs": [
						{
							"internalType": "address",
							"name": "",
							"type": "address"
						}
					],
					"stateMutability": "view",
					"type": "function"
				},
				{
					"inputs": [],
					"name": "getUserVolumes",
					"outputs": [
						{
							"components": [
								{
									"internalType": "address",
									"name": "user",
									"type": "address"
								},
								{
									"internalType": "uint256",
									"name": "volume",
									"type": "uint256"
								}
							],
							"internalType": "struct Volume[]",
							"name": "",
							"type": "tuple[]"
						}
					],
					"stateMutability": "view",
					"type": "function"
				},
				{
					"inputs": [],
					"name": "owner",
					"outputs": [
						{
							"internalType": "address",
							"name": "",
							"type": "address"
						}
					],
					"stateMutability": "view",
					"type": "function"
				},
				{
					"inputs": [],
					"name": "renounceOwnership",
					"outputs": [],
					"stateMutability": "nonpayable",
					"type": "function"
				},
				{
					"inputs": [
						{
							"internalType": "address",
							"name": "_feeReceiver",
							"type": "address"
						},
						{
							"internalType": "uint256",
							"name": "_feePercent",
							"type": "uint256"
						}
					],
					"name": "setFeeData",
					"outputs": [],
					"stateMutability": "nonpayable",
					"type": "function"
				},
				{
					"inputs": [],
					"name": "startCompetition",
					"outputs": [],
					"stateMutability": "nonpayable",
					"type": "function"
				},
				{
					"inputs": [],
					"name": "stopCompetition",
					"outputs": [],
					"stateMutability": "nonpayable",
					"type": "function"
				},
				{
					"inputs": [
						{
							"internalType": "address",
							"name": "toToken",
							"type": "address"
						},
						{
							"internalType": "uint256",
							"name": "amountOutMin",
							"type": "uint256"
						}
					],
					"name": "swapCROForToken",
					"outputs": [],
					"stateMutability": "payable",
					"type": "function"
				},
				{
					"inputs": [
						{
							"internalType": "address",
							"name": "fromToken",
							"type": "address"
						},
						{
							"internalType": "uint256",
							"name": "amountIn",
							"type": "uint256"
						},
						{
							"internalType": "uint256",
							"name": "amountOutMin",
							"type": "uint256"
						}
					],
					"name": "swapTokenForCRO",
					"outputs": [],
					"stateMutability": "nonpayable",
					"type": "function"
				},
				{
					"inputs": [
						{
							"internalType": "address",
							"name": "fromToken",
							"type": "address"
						},
						{
							"internalType": "address",
							"name": "toToken",
							"type": "address"
						},
						{
							"internalType": "uint256",
							"name": "amountIn",
							"type": "uint256"
						},
						{
							"internalType": "uint256",
							"name": "amountOutMin",
							"type": "uint256"
						}
					],
					"name": "swapTokenForToken",
					"outputs": [],
					"stateMutability": "nonpayable",
					"type": "function"
				},
				{
					"inputs": [
						{
							"internalType": "address",
							"name": "newOwner",
							"type": "address"
						}
					],
					"name": "transferOwnership",
					"outputs": [],
					"stateMutability": "nonpayable",
					"type": "function"
				},
				{
					"inputs": [
						{
							"internalType": "address",
							"name": "",
							"type": "address"
						}
					],
					"name": "userVolume",
					"outputs": [
						{
							"internalType": "uint256",
							"name": "",
							"type": "uint256"
						}
					],
					"stateMutability": "view",
					"type": "function"
				},
				{
					"inputs": [
						{
							"internalType": "uint256",
							"name": "wad",
							"type": "uint256"
						}
					],
					"name": "withdraw",
					"outputs": [],
					"stateMutability": "nonpayable",
					"type": "function"
				},
				{
					"stateMutability": "payable",
					"type": "receive"
				}
			],
			"devdoc": {
				"errors": {
					"OwnableInvalidOwner(address)": [
						{
							"details": "The owner is not a valid owner account. (eg. `address(0)`)"
						}
					],
					"OwnableUnauthorizedAccount(address)": [
						{
							"details": "The caller account is not authorized to perform an operation."
						}
					]
				},
				"kind": "dev",
				"methods": {
					"owner()": {
						"details": "Returns the address of the current owner."
					},
					"renounceOwnership()": {
						"details": "Leaves the contract without owner. It will not be possible to call `onlyOwner` functions. Can only be called by the current owner. NOTE: Renouncing ownership will leave the contract without an owner, thereby disabling any functionality that is only available to the owner."
					},
					"transferOwnership(address)": {
						"details": "Transfers ownership of the contract to a new account (`newOwner`). Can only be called by the current owner."
					}
				},
				"version": 1
			},
			"evm": {
				"assembly": "    /* \"ARY/SwapPro.sol\":2107:10094  contract SwapPro is Ownable {... */\n  mstore(0x40, 0x80)\n    /* \"ARY/SwapPro.sol\":2797:2836  bool public competition_started = false */\n  0x03\n  dup1\n  sload\n  not(0xff)\n  and\n  swap1\n  sstore\n    /* \"ARY/SwapPro.sol\":3118:3760  constructor() Ownable(msg.sender) {... */\n  callvalue\n  dup1\n  iszero\n  tag_1\n  jumpi\n  0x00\n  dup1\n  revert\ntag_1:\n  pop\n    /* \"ARY/SwapPro.sol\":3140:3150  msg.sender */\n  caller\n  dup1\n    /* \"@openzeppelin/contracts/access/Ownable.sol\":1269:1364  if (initialOwner == address(0)) {... */\n  tag_5\n  jumpi\n    /* \"@openzeppelin/contracts/access/Ownable.sol\":1322:1353  OwnableInvalidOwner(address(0)) */\n  mload(0x40)\n  shl(0xe0, 0x1e4fbdf7)\n  dup2\n  mstore\n    /* \"@openzeppelin/contracts/access/Ownable.sol\":1350:1351  0 */\n  0x00\n    /* \"@openzeppelin/contracts/access/Ownable.sol\":1322:1353  OwnableInvalidOwner(address(0)) */\n  0x04\n  dup3\n  add\n    /* \"#utility.yul\":160:211   */\n  mstore\n    /* \"#utility.yul\":133:151   */\n  0x24\n  add\n    /* \"@openzeppelin/contracts/access/Ownable.sol\":1322:1353  OwnableInvalidOwner(address(0)) */\n  mload(0x40)\n  dup1\n  swap2\n  sub\n  swap1\n  revert\n    /* \"@openzeppelin/contracts/access/Ownable.sol\":1269:1364  if (initialOwner == address(0)) {... */\ntag_5:\n    /* \"@openzeppelin/contracts/access/Ownable.sol\":1373:1405  _transferOwnership(initialOwner) */\n  tag_8\n    /* \"@openzeppelin/contracts/access/Ownable.sol\":1392:1404  initialOwner */\n  dup2\n    /* \"@openzeppelin/contracts/access/Ownable.sol\":1373:1391  _transferOwnership */\n  tag_9\n    /* \"@openzeppelin/contracts/access/Ownable.sol\":1373:1405  _transferOwnership(initialOwner) */\n  jump\t// in\ntag_8:\n  pop\n    /* \"ARY/SwapPro.sol\":3163:3170  factory */\n  0x07\n    /* \"ARY/SwapPro.sol\":3163:3196  factory = IDEXFactory(DEXFACTORY) */\n  dup1\n  sload\n  not(sub(shl(0xa0, 0x01), 0x01))\n  swap1\n  dup2\n  and\n    /* \"ARY/SwapPro.sol\":2683:2725  0x3B44B2a187a7b3824131F8db5a74194D0a42Fc15 */\n  0x3b44b2a187a7b3824131f8db5a74194d0a42fc15\n    /* \"ARY/SwapPro.sol\":3163:3196  factory = IDEXFactory(DEXFACTORY) */\n  or\n  swap1\n  swap2\n  sstore\n    /* \"ARY/SwapPro.sol\":3207:3213  router */\n  0x08\n    /* \"ARY/SwapPro.sol\":3207:3237  router = IDEXRouter(DEXROUTER) */\n  dup1\n  sload\n  dup3\n  and\n  0x00\n  dup1\n  mload\n  0x20\n  data_bb9835c734ea2ee08b9eb3f6004f5f118e5b999fbe41c94259ac9a08cb0aff12\n  dup4\n  codecopy\n  dup2\n  mload\n  swap2\n  mstore\n  swap1\n  dup2\n  or\n  swap1\n  swap2\n  sstore\n    /* \"ARY/SwapPro.sol\":3248:3253  cusdc */\n  0x09\n    /* \"ARY/SwapPro.sol\":3248:3269  cusdc = IERC20(CUSDC) */\n  dup1\n  sload\n  dup4\n  and\n    /* \"ARY/SwapPro.sol\":2174:2216  0xc21223249CA28397B4B6541dfFaEcC539BfF0c59 */\n  0xc21223249ca28397b4b6541dffaecc539bff0c59\n    /* \"ARY/SwapPro.sol\":3248:3269  cusdc = IERC20(CUSDC) */\n  swap1\n  dup2\n  or\n  swap1\n  swap2\n  sstore\n    /* \"ARY/SwapPro.sol\":3280:3285  cusdt */\n  0x0a\n    /* \"ARY/SwapPro.sol\":3280:3301  cusdt = IERC20(CUSDT) */\n  dup1\n  sload\n  dup5\n  and\n    /* \"ARY/SwapPro.sol\":2255:2297  0x66e428c3f67a68878562e79A0234c1F83c208770 */\n  0x66e428c3f67a68878562e79a0234c1f83c208770\n    /* \"ARY/SwapPro.sol\":3280:3301  cusdt = IERC20(CUSDT) */\n  or\n  swap1\n  sstore\n    /* \"ARY/SwapPro.sol\":3312:3315  ary */\n  0x0b\n    /* \"ARY/SwapPro.sol\":3312:3329  ary = IERC20(ARY) */\n  dup1\n  sload\n  dup5\n  and\n    /* \"ARY/SwapPro.sol\":2414:2456  0x41bc026dABe978bc2FAfeA1850456511ca4B01bc */\n  0x41bc026dabe978bc2fafea1850456511ca4b01bc\n    /* \"ARY/SwapPro.sol\":3312:3329  ary = IERC20(ARY) */\n  or\n  swap1\n  sstore\n    /* \"ARY/SwapPro.sol\":3340:3344  mery */\n  0x0c\n    /* \"ARY/SwapPro.sol\":3340:3359  mery = IERC20(MERY) */\n  dup1\n  sload\n  dup5\n  and\n    /* \"ARY/SwapPro.sol\":2494:2536  0x3b41B27E74Dd366CE27cB389dc7877D4e1516d4d */\n  0x3b41b27e74dd366ce27cb389dc7877d4e1516d4d\n    /* \"ARY/SwapPro.sol\":3340:3359  mery = IERC20(MERY) */\n  or\n  swap1\n  sstore\n    /* \"ARY/SwapPro.sol\":3370:3374  wcro */\n  0x0d\n    /* \"ARY/SwapPro.sol\":3370:3388  wcro = IWCRO(WCRO) */\n  dup1\n  sload\n  dup5\n  and\n    /* \"ARY/SwapPro.sol\":2335:2377  0x5C7F8A570d578ED84E63fdFA7b1eE72dEae1AE23 */\n  0x5c7f8a570d578ed84e63fdfa7b1ee72deae1ae23\n    /* \"ARY/SwapPro.sol\":3370:3388  wcro = IWCRO(WCRO) */\n  or\n  swap1\n  sstore\n    /* \"ARY/SwapPro.sol\":3163:3196  factory = IDEXFactory(DEXFACTORY) */\n  0x01\n    /* \"ARY/SwapPro.sol\":3399:3423  feeReceiver = msg.sender */\n  dup1\n  sload\n  swap1\n  swap4\n  and\n    /* \"ARY/SwapPro.sol\":3413:3423  msg.sender */\n  caller\n    /* \"ARY/SwapPro.sol\":3399:3423  feeReceiver = msg.sender */\n  or\n  swap1\n  swap3\n  sstore\n    /* \"ARY/SwapPro.sol\":3447:3448  3 */\n  0x03\n    /* \"ARY/SwapPro.sol\":3434:3444  feePercent */\n  0x02\n    /* \"ARY/SwapPro.sol\":3434:3448  feePercent = 3 */\n  sstore\n    /* \"ARY/SwapPro.sol\":3497:3540  cusdc.approve(DEXROUTER, type(uint256).max) */\n  mload(0x40)\n  shl(0xe0, 0x095ea7b3)\n  dup2\n  mstore\n    /* \"ARY/SwapPro.sol\":3497:3510  cusdc.approve */\n  0x095ea7b3\n  swap2\n    /* \"ARY/SwapPro.sol\":3497:3540  cusdc.approve(DEXROUTER, type(uint256).max) */\n  tag_11\n  swap2\n  not(0x00)\n  swap1\n  0x04\n  add\n  sub(shl(0xa0, 0x01), 0x01)\n    /* \"#utility.yul\":414:446   */\n  swap3\n  swap1\n  swap3\n  and\n    /* \"#utility.yul\":396:447   */\n  dup3\n  mstore\n    /* \"#utility.yul\":478:480   */\n  0x20\n    /* \"#utility.yul\":463:481   */\n  dup3\n  add\n    /* \"#utility.yul\":456:490   */\n  mstore\n    /* \"#utility.yul\":384:386   */\n  0x40\n    /* \"#utility.yul\":369:387   */\n  add\n  swap1\n    /* \"#utility.yul\":222:496   */\n  jump\n    /* \"ARY/SwapPro.sol\":3497:3540  cusdc.approve(DEXROUTER, type(uint256).max) */\ntag_11:\n  0x20\n  mload(0x40)\n  dup1\n  dup4\n  sub\n  dup2\n  0x00\n  dup8\n  gas\n  call\n  iszero\n  dup1\n  iszero\n  tag_14\n  jumpi\n  returndatasize\n  0x00\n  dup1\n  returndatacopy\n  revert(0x00, returndatasize)\ntag_14:\n  pop\n  pop\n  pop\n  pop\n  mload(0x40)\n  returndatasize\n  not(0x1f)\n  0x1f\n  dup3\n  add\n  and\n  dup3\n  add\n  dup1\n  0x40\n  mstore\n  pop\n  dup2\n  add\n  swap1\n  tag_15\n  swap2\n  swap1\n  tag_16\n  jump\t// in\ntag_15:\n  pop\n    /* \"ARY/SwapPro.sol\":3551:3556  cusdt */\n  sload(0x0a)\n    /* \"ARY/SwapPro.sol\":3551:3594  cusdt.approve(DEXROUTER, type(uint256).max) */\n  mload(0x40)\n  shl(0xe0, 0x095ea7b3)\n  dup2\n  mstore\n  0x00\n  dup1\n  mload\n  0x20\n  data_bb9835c734ea2ee08b9eb3f6004f5f118e5b999fbe41c94259ac9a08cb0aff12\n  dup4\n  codecopy\n  dup2\n  mload\n  swap2\n  mstore\n  0x04\n  dup3\n  add\n    /* \"#utility.yul\":396:447   */\n  mstore\n  not(0x00)\n    /* \"#utility.yul\":463:481   */\n  0x24\n  dup3\n  add\n    /* \"#utility.yul\":456:490   */\n  mstore\n  sub(shl(0xa0, 0x01), 0x01)\n    /* \"ARY/SwapPro.sol\":3551:3556  cusdt */\n  swap1\n  swap2\n  and\n  swap1\n    /* \"ARY/SwapPro.sol\":3551:3564  cusdt.approve */\n  0x095ea7b3\n  swap1\n    /* \"#utility.yul\":369:387   */\n  0x44\n  add\n    /* \"ARY/SwapPro.sol\":3551:3594  cusdt.approve(DEXROUTER, type(uint256).max) */\n  0x20\n  mload(0x40)\n  dup1\n  dup4\n  sub\n  dup2\n  0x00\n  dup8\n  gas\n  call\n  iszero\n  dup1\n  iszero\n  tag_19\n  jumpi\n  returndatasize\n  0x00\n  dup1\n  returndatacopy\n  revert(0x00, returndatasize)\ntag_19:\n  pop\n  pop\n  pop\n  pop\n  mload(0x40)\n  returndatasize\n  not(0x1f)\n  0x1f\n  dup3\n  add\n  and\n  dup3\n  add\n  dup1\n  0x40\n  mstore\n  pop\n  dup2\n  add\n  swap1\n  tag_20\n  swap2\n  swap1\n  tag_16\n  jump\t// in\ntag_20:\n  pop\n    /* \"ARY/SwapPro.sol\":3605:3608  ary */\n  sload(0x0b)\n    /* \"ARY/SwapPro.sol\":3605:3646  ary.approve(DEXROUTER, type(uint256).max) */\n  mload(0x40)\n  shl(0xe0, 0x095ea7b3)\n  dup2\n  mstore\n  0x00\n  dup1\n  mload\n  0x20\n  data_bb9835c734ea2ee08b9eb3f6004f5f118e5b999fbe41c94259ac9a08cb0aff12\n  dup4\n  codecopy\n  dup2\n  mload\n  swap2\n  mstore\n  0x04\n  dup3\n  add\n    /* \"#utility.yul\":396:447   */\n  mstore\n  not(0x00)\n    /* \"#utility.yul\":463:481   */\n  0x24\n  dup3\n  add\n    /* \"#utility.yul\":456:490   */\n  mstore\n  sub(shl(0xa0, 0x01), 0x01)\n    /* \"ARY/SwapPro.sol\":3605:3608  ary */\n  swap1\n  swap2\n  and\n  swap1\n    /* \"ARY/SwapPro.sol\":3605:3616  ary.approve */\n  0x095ea7b3\n  swap1\n    /* \"#utility.yul\":369:387   */\n  0x44\n  add\n    /* \"ARY/SwapPro.sol\":3605:3646  ary.approve(DEXROUTER, type(uint256).max) */\n  0x20\n  mload(0x40)\n  dup1\n  dup4\n  sub\n  dup2\n  0x00\n  dup8\n  gas\n  call\n  iszero\n  dup1\n  iszero\n  tag_23\n  jumpi\n  returndatasize\n  0x00\n  dup1\n  returndatacopy\n  revert(0x00, returndatasize)\ntag_23:\n  pop\n  pop\n  pop\n  pop\n  mload(0x40)\n  returndatasize\n  not(0x1f)\n  0x1f\n  dup3\n  add\n  and\n  dup3\n  add\n  dup1\n  0x40\n  mstore\n  pop\n  dup2\n  add\n  swap1\n  tag_24\n  swap2\n  swap1\n  tag_16\n  jump\t// in\ntag_24:\n  pop\n    /* \"ARY/SwapPro.sol\":3657:3661  wcro */\n  sload(0x0d)\n    /* \"ARY/SwapPro.sol\":3657:3699  wcro.approve(DEXROUTER, type(uint256).max) */\n  mload(0x40)\n  shl(0xe0, 0x095ea7b3)\n  dup2\n  mstore\n  0x00\n  dup1\n  mload\n  0x20\n  data_bb9835c734ea2ee08b9eb3f6004f5f118e5b999fbe41c94259ac9a08cb0aff12\n  dup4\n  codecopy\n  dup2\n  mload\n  swap2\n  mstore\n  0x04\n  dup3\n  add\n    /* \"#utility.yul\":396:447   */\n  mstore\n  not(0x00)\n    /* \"#utility.yul\":463:481   */\n  0x24\n  dup3\n  add\n    /* \"#utility.yul\":456:490   */\n  mstore\n  sub(shl(0xa0, 0x01), 0x01)\n    /* \"ARY/SwapPro.sol\":3657:3661  wcro */\n  swap1\n  swap2\n  and\n  swap1\n    /* \"ARY/SwapPro.sol\":3657:3669  wcro.approve */\n  0x095ea7b3\n  swap1\n    /* \"#utility.yul\":369:387   */\n  0x44\n  add\n    /* \"ARY/SwapPro.sol\":3657:3699  wcro.approve(DEXROUTER, type(uint256).max) */\n  0x20\n  mload(0x40)\n  dup1\n  dup4\n  sub\n  dup2\n  0x00\n  dup8\n  gas\n  call\n  iszero\n  dup1\n  iszero\n  tag_27\n  jumpi\n  returndatasize\n  0x00\n  dup1\n  returndatacopy\n  revert(0x00, returndatasize)\ntag_27:\n  pop\n  pop\n  pop\n  pop\n  mload(0x40)\n  returndatasize\n  not(0x1f)\n  0x1f\n  dup3\n  add\n  and\n  dup3\n  add\n  dup1\n  0x40\n  mstore\n  pop\n  dup2\n  add\n  swap1\n  tag_28\n  swap2\n  swap1\n  tag_16\n  jump\t// in\ntag_28:\n  pop\n    /* \"ARY/SwapPro.sol\":3710:3714  mery */\n  sload(0x0c)\n    /* \"ARY/SwapPro.sol\":3710:3752  mery.approve(DEXROUTER, type(uint256).max) */\n  mload(0x40)\n  shl(0xe0, 0x095ea7b3)\n  dup2\n  mstore\n  0x00\n  dup1\n  mload\n  0x20\n  data_bb9835c734ea2ee08b9eb3f6004f5f118e5b999fbe41c94259ac9a08cb0aff12\n  dup4\n  codecopy\n  dup2\n  mload\n  swap2\n  mstore\n  0x04\n  dup3\n  add\n    /* \"#utility.yul\":396:447   */\n  mstore\n  not(0x00)\n    /* \"#utility.yul\":463:481   */\n  0x24\n  dup3\n  add\n    /* \"#utility.yul\":456:490   */\n  mstore\n  sub(shl(0xa0, 0x01), 0x01)\n    /* \"ARY/SwapPro.sol\":3710:3714  mery */\n  swap1\n  swap2\n  and\n  swap1\n    /* \"ARY/SwapPro.sol\":3710:3722  mery.approve */\n  0x095ea7b3\n  swap1\n    /* \"#utility.yul\":369:387   */\n  0x44\n  add\n    /* \"ARY/SwapPro.sol\":3710:3752  mery.approve(DEXROUTER, type(uint256).max) */\n  0x20\n  mload(0x40)\n  dup1\n  dup4\n  sub\n  dup2\n  0x00\n  dup8\n  gas\n  call\n  iszero\n  dup1\n  iszero\n  tag_31\n  jumpi\n  returndatasize\n  0x00\n  dup1\n  returndatacopy\n  revert(0x00, returndatasize)\ntag_31:\n  pop\n  pop\n  pop\n  pop\n  mload(0x40)\n  returndatasize\n  not(0x1f)\n  0x1f\n  dup3\n  add\n  and\n  dup3\n  add\n  dup1\n  0x40\n  mstore\n  pop\n  dup2\n  add\n  swap1\n  tag_32\n  swap2\n  swap1\n  tag_16\n  jump\t// in\ntag_32:\n  pop\n    /* \"ARY/SwapPro.sol\":2107:10094  contract SwapPro is Ownable {... */\n  jump(tag_35)\n    /* \"@openzeppelin/contracts/access/Ownable.sol\":2912:3099  function _transferOwnership(address newOwner) internal virtual {... */\ntag_9:\n    /* \"@openzeppelin/contracts/access/Ownable.sol\":2985:3001  address oldOwner */\n  0x00\n    /* \"@openzeppelin/contracts/access/Ownable.sol\":3004:3010  _owner */\n  dup1\n  sload\n  sub(shl(0xa0, 0x01), 0x01)\n    /* \"@openzeppelin/contracts/access/Ownable.sol\":3020:3037  _owner = newOwner */\n  dup4\n  dup2\n  and\n  not(sub(shl(0xa0, 0x01), 0x01))\n  dup4\n  and\n  dup2\n  or\n  dup5\n  sstore\n    /* \"@openzeppelin/contracts/access/Ownable.sol\":3052:3092  OwnershipTransferred(oldOwner, newOwner) */\n  mload(0x40)\n    /* \"@openzeppelin/contracts/access/Ownable.sol\":3004:3010  _owner */\n  swap2\n  swap1\n  swap3\n  and\n  swap3\n  dup4\n  swap2\n    /* \"@openzeppelin/contracts/access/Ownable.sol\":3052:3092  OwnershipTransferred(oldOwner, newOwner) */\n  0x8be0079c531659141344cd1fd0a4f28419497f9722a3daafe3b4186f6b6457e0\n  swap2\n    /* \"@openzeppelin/contracts/access/Ownable.sol\":2985:3001  address oldOwner */\n  swap1\n    /* \"@openzeppelin/contracts/access/Ownable.sol\":3052:3092  OwnershipTransferred(oldOwner, newOwner) */\n  log3\n    /* \"@openzeppelin/contracts/access/Ownable.sol\":2975:3099  {... */\n  pop\n    /* \"@openzeppelin/contracts/access/Ownable.sol\":2912:3099  function _transferOwnership(address newOwner) internal virtual {... */\n  pop\n  jump\t// out\n    /* \"#utility.yul\":501:778   */\ntag_16:\n    /* \"#utility.yul\":568:574   */\n  0x00\n    /* \"#utility.yul\":621:623   */\n  0x20\n    /* \"#utility.yul\":609:618   */\n  dup3\n    /* \"#utility.yul\":600:607   */\n  dup5\n    /* \"#utility.yul\":596:619   */\n  sub\n    /* \"#utility.yul\":592:624   */\n  slt\n    /* \"#utility.yul\":589:641   */\n  iszero\n  tag_39\n  jumpi\n    /* \"#utility.yul\":637:638   */\n  0x00\n    /* \"#utility.yul\":634:635   */\n  dup1\n    /* \"#utility.yul\":627:639   */\n  revert\n    /* \"#utility.yul\":589:641   */\ntag_39:\n    /* \"#utility.yul\":669:678   */\n  dup2\n    /* \"#utility.yul\":663:679   */\n  mload\n    /* \"#utility.yul\":722:727   */\n  dup1\n    /* \"#utility.yul\":715:728   */\n  iszero\n    /* \"#utility.yul\":708:729   */\n  iszero\n    /* \"#utility.yul\":701:706   */\n  dup2\n    /* \"#utility.yul\":698:730   */\n  eq\n    /* \"#utility.yul\":688:748   */\n  tag_40\n  jumpi\n    /* \"#utility.yul\":744:745   */\n  0x00\n    /* \"#utility.yul\":741:742   */\n  dup1\n    /* \"#utility.yul\":734:746   */\n  revert\n    /* \"#utility.yul\":688:748   */\ntag_40:\n    /* \"#utility.yul\":767:772   */\n  swap4\n    /* \"#utility.yul\":501:778   */\n  swap3\n  pop\n  pop\n  pop\n  jump\t// out\ntag_35:\n    /* \"ARY/SwapPro.sol\":2107:10094  contract SwapPro is Ownable {... */\n  dataSize(sub_0)\n  dup1\n  dataOffset(sub_0)\n  0x00\n  codecopy\n  0x00\n  return\nstop\ndata_bb9835c734ea2ee08b9eb3f6004f5f118e5b999fbe41c94259ac9a08cb0aff12 000000000000000000000000145863eb42cf62847a6ca784e6416c1682b1b2ae\n\nsub_0: assembly {\n        /* \"ARY/SwapPro.sol\":2107:10094  contract SwapPro is Ownable {... */\n      mstore(0x40, 0x80)\n      jumpi(tag_1, lt(calldatasize, 0x04))\n      shr(0xe0, calldataload(0x00))\n      dup1\n      0xa37b9e7f\n      gt\n      tag_28\n      jumpi\n      dup1\n      0xb3f00674\n      gt\n      tag_29\n      jumpi\n      dup1\n      0xd3e66a9e\n      gt\n      tag_30\n      jumpi\n      dup1\n      0xd3e66a9e\n      eq\n      tag_24\n      jumpi\n      dup1\n      0xd7b7d3f3\n      eq\n      tag_25\n      jumpi\n      dup1\n      0xedf26d9b\n      eq\n      tag_26\n      jumpi\n      dup1\n      0xf2fde38b\n      eq\n      tag_27\n      jumpi\n      0x00\n      dup1\n      revert\n    tag_30:\n      dup1\n      0xb3f00674\n      eq\n      tag_21\n      jumpi\n      dup1\n      0xd0e30db0\n      eq\n      tag_22\n      jumpi\n      dup1\n      0xd16a4010\n      eq\n      tag_23\n      jumpi\n      0x00\n      dup1\n      revert\n    tag_29:\n      dup1\n      0xa37b9e7f\n      eq\n      tag_15\n      jumpi\n      dup1\n      0xa6769ef8\n      eq\n      tag_16\n      jumpi\n      dup1\n      0xac65334f\n      eq\n      tag_17\n      jumpi\n      dup1\n      0xae38a070\n      eq\n      tag_18\n      jumpi\n      dup1\n      0xafe43b94\n      eq\n      tag_19\n      jumpi\n      dup1\n      0xb0befe63\n      eq\n      tag_20\n      jumpi\n      0x00\n      dup1\n      revert\n    tag_28:\n      dup1\n      0x5f0018cd\n      gt\n      tag_31\n      jumpi\n      dup1\n      0x5f0018cd\n      eq\n      tag_9\n      jumpi\n      dup1\n      0x6504fbad\n      eq\n      tag_10\n      jumpi\n      dup1\n      0x715018a6\n      eq\n      tag_11\n      jumpi\n      dup1\n      0x7c6f8fae\n      eq\n      tag_12\n      jumpi\n      dup1\n      0x7fd6f15c\n      eq\n      tag_13\n      jumpi\n      dup1\n      0x8da5cb5b\n      eq\n      tag_14\n      jumpi\n      0x00\n      dup1\n      revert\n    tag_31:\n      dup1\n      0x16214120\n      eq\n      tag_3\n      jumpi\n      dup1\n      0x1d470cb1\n      eq\n      tag_4\n      jumpi\n      dup1\n      0x2e1a7d4d\n      eq\n      tag_5\n      jumpi\n      dup1\n      0x3977d68d\n      eq\n      tag_6\n      jumpi\n      dup1\n      0x39bda01c\n      eq\n      tag_7\n      jumpi\n      dup1\n      0x53ac861e\n      eq\n      tag_8\n      jumpi\n      0x00\n      dup1\n      revert\n    tag_1:\n      jumpi(tag_2, calldatasize)\n      stop\n    tag_2:\n      0x00\n      dup1\n      revert\n        /* \"ARY/SwapPro.sol\":8894:9636  function swapTokenForCRO(... */\n    tag_3:\n      callvalue\n      dup1\n      iszero\n      tag_34\n      jumpi\n      0x00\n      dup1\n      revert\n    tag_34:\n      pop\n      tag_35\n      tag_36\n      calldatasize\n      0x04\n      tag_37\n      jump\t// in\n    tag_36:\n      tag_38\n      jump\t// in\n    tag_35:\n      stop\n        /* \"ARY/SwapPro.sol\":2304:2377  address public constant WCRO = 0x5C7F8A570d578ED84E63fdFA7b1eE72dEae1AE23 */\n    tag_4:\n      callvalue\n      dup1\n      iszero\n      tag_39\n      jumpi\n      0x00\n      dup1\n      revert\n    tag_39:\n      pop\n      tag_40\n        /* \"ARY/SwapPro.sol\":2335:2377  0x5C7F8A570d578ED84E63fdFA7b1eE72dEae1AE23 */\n      0x5c7f8a570d578ed84e63fdfa7b1ee72deae1ae23\n        /* \"ARY/SwapPro.sol\":2304:2377  address public constant WCRO = 0x5C7F8A570d578ED84E63fdFA7b1eE72dEae1AE23 */\n      dup2\n      jump\n    tag_40:\n      mload(0x40)\n      sub(shl(0xa0, 0x01), 0x01)\n        /* \"#utility.yul\":683:715   */\n      swap1\n      swap2\n      and\n        /* \"#utility.yul\":665:716   */\n      dup2\n      mstore\n        /* \"#utility.yul\":653:655   */\n      0x20\n        /* \"#utility.yul\":638:656   */\n      add\n        /* \"ARY/SwapPro.sol\":2304:2377  address public constant WCRO = 0x5C7F8A570d578ED84E63fdFA7b1eE72dEae1AE23 */\n    tag_42:\n      mload(0x40)\n      dup1\n      swap2\n      sub\n      swap1\n      return\n        /* \"ARY/SwapPro.sol\":9851:10054  function withdraw (... */\n    tag_5:\n      callvalue\n      dup1\n      iszero\n      tag_44\n      jumpi\n      0x00\n      dup1\n      revert\n    tag_44:\n      pop\n      tag_35\n      tag_46\n      calldatasize\n      0x04\n      tag_47\n      jump\t// in\n    tag_46:\n      tag_48\n      jump\t// in\n        /* \"ARY/SwapPro.sol\":4731:4891  function setFeeData(address _feeReceiver, uint256 _feePercent) public onlyOwner {... */\n    tag_6:\n      callvalue\n      dup1\n      iszero\n      tag_49\n      jumpi\n      0x00\n      dup1\n      revert\n    tag_49:\n      pop\n      tag_35\n      tag_51\n      calldatasize\n      0x04\n      tag_52\n      jump\t// in\n    tag_51:\n      tag_53\n      jump\t// in\n        /* \"ARY/SwapPro.sol\":4222:4472  function clearVolume() public onlyOwner{... */\n    tag_7:\n      callvalue\n      dup1\n      iszero\n      tag_54\n      jumpi\n      0x00\n      dup1\n      revert\n    tag_54:\n      pop\n      tag_35\n      tag_56\n      jump\t// in\n        /* \"ARY/SwapPro.sol\":8047:8842  function swapCROForToken (... */\n    tag_8:\n      tag_35\n      tag_58\n      calldatasize\n      0x04\n      tag_52\n      jump\t// in\n    tag_58:\n      tag_59\n      jump\t// in\n        /* \"ARY/SwapPro.sol\":4480:4570  function stopCompetition() public onlyOwner {... */\n    tag_9:\n      callvalue\n      dup1\n      iszero\n      tag_60\n      jumpi\n      0x00\n      dup1\n      revert\n    tag_60:\n      pop\n      tag_35\n      tag_62\n      jump\t// in\n        /* \"ARY/SwapPro.sol\":2223:2297  address public constant CUSDT = 0x66e428c3f67a68878562e79A0234c1F83c208770 */\n    tag_10:\n      callvalue\n      dup1\n      iszero\n      tag_63\n      jumpi\n      0x00\n      dup1\n      revert\n    tag_63:\n      pop\n      tag_40\n        /* \"ARY/SwapPro.sol\":2255:2297  0x66e428c3f67a68878562e79A0234c1F83c208770 */\n      0x66e428c3f67a68878562e79a0234c1f83c208770\n        /* \"ARY/SwapPro.sol\":2223:2297  address public constant CUSDT = 0x66e428c3f67a68878562e79A0234c1F83c208770 */\n      dup2\n      jump\n        /* \"@openzeppelin/contracts/access/Ownable.sol\":2293:2394  function renounceOwnership() public virtual onlyOwner {... */\n    tag_11:\n      callvalue\n      dup1\n      iszero\n      tag_67\n      jumpi\n      0x00\n      dup1\n      revert\n    tag_67:\n      pop\n      tag_35\n      tag_69\n      jump\t// in\n        /* \"ARY/SwapPro.sol\":2637:2725  address public constant DEXFACTORY =... */\n    tag_12:\n      callvalue\n      dup1\n      iszero\n      tag_70\n      jumpi\n      0x00\n      dup1\n      revert\n    tag_70:\n      pop\n      tag_40\n        /* \"ARY/SwapPro.sol\":2683:2725  0x3B44B2a187a7b3824131F8db5a74194D0a42Fc15 */\n      0x3b44b2a187a7b3824131f8db5a74194d0a42fc15\n        /* \"ARY/SwapPro.sol\":2637:2725  address public constant DEXFACTORY =... */\n      dup2\n      jump\n        /* \"ARY/SwapPro.sol\":2765:2790  uint256 public feePercent */\n    tag_13:\n      callvalue\n      dup1\n      iszero\n      tag_74\n      jumpi\n      0x00\n      dup1\n      revert\n    tag_74:\n      pop\n      tag_75\n      sload(0x02)\n      dup2\n      jump\n    tag_75:\n      mload(0x40)\n        /* \"#utility.yul\":1317:1342   */\n      swap1\n      dup2\n      mstore\n        /* \"#utility.yul\":1305:1307   */\n      0x20\n        /* \"#utility.yul\":1290:1308   */\n      add\n        /* \"ARY/SwapPro.sol\":2765:2790  uint256 public feePercent */\n      tag_42\n        /* \"#utility.yul\":1171:1348   */\n      jump\n        /* \"@openzeppelin/contracts/access/Ownable.sol\":1638:1723  function owner() public view virtual returns (address) {... */\n    tag_14:\n      callvalue\n      dup1\n      iszero\n      tag_79\n      jumpi\n      0x00\n      dup1\n      revert\n    tag_79:\n      pop\n        /* \"@openzeppelin/contracts/access/Ownable.sol\":1684:1691  address */\n      0x00\n        /* \"@openzeppelin/contracts/access/Ownable.sol\":1710:1716  _owner */\n      sload\n      sub(shl(0xa0, 0x01), 0x01)\n      and\n        /* \"@openzeppelin/contracts/access/Ownable.sol\":1638:1723  function owner() public view virtual returns (address) {... */\n      jump(tag_40)\n        /* \"ARY/SwapPro.sol\":2142:2216  address public constant CUSDC = 0xc21223249CA28397B4B6541dfFaEcC539BfF0c59 */\n    tag_15:\n      callvalue\n      dup1\n      iszero\n      tag_83\n      jumpi\n      0x00\n      dup1\n      revert\n    tag_83:\n      pop\n      tag_40\n        /* \"ARY/SwapPro.sol\":2174:2216  0xc21223249CA28397B4B6541dfFaEcC539BfF0c59 */\n      0xc21223249ca28397b4b6541dffaecc539bff0c59\n        /* \"ARY/SwapPro.sol\":2142:2216  address public constant CUSDC = 0xc21223249CA28397B4B6541dfFaEcC539BfF0c59 */\n      dup2\n      jump\n        /* \"ARY/SwapPro.sol\":2843:2888  mapping(address => uint256) public userVolume */\n    tag_16:\n      callvalue\n      dup1\n      iszero\n      tag_87\n      jumpi\n      0x00\n      dup1\n      revert\n    tag_87:\n      pop\n      tag_75\n      tag_89\n      calldatasize\n      0x04\n      tag_90\n      jump\t// in\n    tag_89:\n      mstore(0x20, 0x04)\n      0x00\n      swap1\n      dup2\n      mstore\n      0x40\n      swap1\n      keccak256\n      sload\n      dup2\n      jump\n        /* \"ARY/SwapPro.sol\":2797:2836  bool public competition_started = false */\n    tag_17:\n      callvalue\n      dup1\n      iszero\n      tag_93\n      jumpi\n      0x00\n      dup1\n      revert\n    tag_93:\n      pop\n      sload(0x03)\n      tag_94\n      swap1\n      0xff\n      and\n      dup2\n      jump\n    tag_94:\n      mload(0x40)\n        /* \"#utility.yul\":1709:1723   */\n      swap1\n      iszero\n        /* \"#utility.yul\":1702:1724   */\n      iszero\n        /* \"#utility.yul\":1684:1725   */\n      dup2\n      mstore\n        /* \"#utility.yul\":1672:1674   */\n      0x20\n        /* \"#utility.yul\":1657:1675   */\n      add\n        /* \"ARY/SwapPro.sol\":2797:2836  bool public competition_started = false */\n      tag_42\n        /* \"#utility.yul\":1544:1731   */\n      jump\n        /* \"ARY/SwapPro.sol\":3809:4174  function getUserVolumes() external view returns (Volume[] memory) {... */\n    tag_18:\n      callvalue\n      dup1\n      iszero\n      tag_98\n      jumpi\n      0x00\n      dup1\n      revert\n    tag_98:\n      pop\n      tag_99\n      tag_100\n      jump\t// in\n    tag_99:\n      mload(0x40)\n      tag_42\n      swap2\n      swap1\n      tag_102\n      jump\t// in\n        /* \"ARY/SwapPro.sol\":2384:2456  address public constant ARY = 0x41bc026dABe978bc2FAfeA1850456511ca4B01bc */\n    tag_19:\n      callvalue\n      dup1\n      iszero\n      tag_103\n      jumpi\n      0x00\n      dup1\n      revert\n    tag_103:\n      pop\n      tag_40\n        /* \"ARY/SwapPro.sol\":2414:2456  0x41bc026dABe978bc2FAfeA1850456511ca4B01bc */\n      0x41bc026dabe978bc2fafea1850456511ca4b01bc\n        /* \"ARY/SwapPro.sol\":2384:2456  address public constant ARY = 0x41bc026dABe978bc2FAfeA1850456511ca4B01bc */\n      dup2\n      jump\n        /* \"ARY/SwapPro.sol\":2463:2536  address public constant MERY = 0x3b41B27E74Dd366CE27cB389dc7877D4e1516d4d */\n    tag_20:\n      callvalue\n      dup1\n      iszero\n      tag_107\n      jumpi\n      0x00\n      dup1\n      revert\n    tag_107:\n      pop\n      tag_40\n        /* \"ARY/SwapPro.sol\":2494:2536  0x3b41B27E74Dd366CE27cB389dc7877D4e1516d4d */\n      0x3b41b27e74dd366ce27cb389dc7877d4e1516d4d\n        /* \"ARY/SwapPro.sol\":2463:2536  address public constant MERY = 0x3b41B27E74Dd366CE27cB389dc7877D4e1516d4d */\n      dup2\n      jump\n        /* \"ARY/SwapPro.sol\":2732:2758  address public feeReceiver */\n    tag_21:\n      callvalue\n      dup1\n      iszero\n      tag_111\n      jumpi\n      0x00\n      dup1\n      revert\n    tag_111:\n      pop\n      sload(0x01)\n      tag_40\n      swap1\n      sub(shl(0xa0, 0x01), 0x01)\n      and\n      dup2\n      jump\n        /* \"ARY/SwapPro.sol\":9672:9843  function deposit () public payable {... */\n    tag_22:\n      tag_35\n      tag_116\n      jump\t// in\n        /* \"ARY/SwapPro.sol\":5854:7999  function swapTokenForToken(... */\n    tag_23:\n      callvalue\n      dup1\n      iszero\n      tag_117\n      jumpi\n      0x00\n      dup1\n      revert\n    tag_117:\n      pop\n      tag_35\n      tag_119\n      calldatasize\n      0x04\n      tag_120\n      jump\t// in\n    tag_119:\n      tag_121\n      jump\t// in\n        /* \"ARY/SwapPro.sol\":4576:4666  function startCompetition() public onlyOwner {... */\n    tag_24:\n      callvalue\n      dup1\n      iszero\n      tag_122\n      jumpi\n      0x00\n      dup1\n      revert\n    tag_122:\n      pop\n      tag_35\n      tag_124\n      jump\t// in\n        /* \"ARY/SwapPro.sol\":2543:2630  address public constant DEXROUTER =... */\n    tag_25:\n      callvalue\n      dup1\n      iszero\n      tag_125\n      jumpi\n      0x00\n      dup1\n      revert\n    tag_125:\n      pop\n      tag_40\n        /* \"ARY/SwapPro.sol\":2588:2630  0x145863Eb42Cf62847A6Ca784e6416C1682b1b2Ae */\n      0x145863eb42cf62847a6ca784e6416c1682b1b2ae\n        /* \"ARY/SwapPro.sol\":2543:2630  address public constant DEXROUTER =... */\n      dup2\n      jump\n        /* \"ARY/SwapPro.sol\":2941:2967  address[] public addresses */\n    tag_26:\n      callvalue\n      dup1\n      iszero\n      tag_129\n      jumpi\n      0x00\n      dup1\n      revert\n    tag_129:\n      pop\n      tag_40\n      tag_131\n      calldatasize\n      0x04\n      tag_47\n      jump\t// in\n    tag_131:\n      tag_132\n      jump\t// in\n        /* \"@openzeppelin/contracts/access/Ownable.sol\":2543:2758  function transferOwnership(address newOwner) public virtual onlyOwner {... */\n    tag_27:\n      callvalue\n      dup1\n      iszero\n      tag_134\n      jumpi\n      0x00\n      dup1\n      revert\n    tag_134:\n      pop\n      tag_35\n      tag_136\n      calldatasize\n      0x04\n      tag_90\n      jump\t// in\n    tag_136:\n      tag_137\n      jump\t// in\n        /* \"ARY/SwapPro.sol\":8894:9636  function swapTokenForCRO(... */\n    tag_38:\n      sub(shl(0xa0, 0x01), 0x01)\n        /* \"ARY/SwapPro.sol\":9035:9051  fromToken == ARY */\n      dup4\n      and\n        /* \"ARY/SwapPro.sol\":2414:2456  0x41bc026dABe978bc2FAfeA1850456511ca4B01bc */\n      0x41bc026dabe978bc2fafea1850456511ca4b01bc\n        /* \"ARY/SwapPro.sol\":9035:9051  fromToken == ARY */\n      eq\n        /* \"ARY/SwapPro.sol\":9035:9074  fromToken == ARY && competition_started */\n      dup1\n      iszero\n      tag_139\n      jumpi\n      pop\n        /* \"ARY/SwapPro.sol\":9055:9074  competition_started */\n      and(0xff, sload(0x03))\n        /* \"ARY/SwapPro.sol\":9035:9074  fromToken == ARY && competition_started */\n    tag_139:\n        /* \"ARY/SwapPro.sol\":9032:9107  if(fromToken == ARY && competition_started) addVolume(msg.sender, amountIn) */\n      iszero\n      tag_141\n      jumpi\n        /* \"ARY/SwapPro.sol\":9076:9107  addVolume(msg.sender, amountIn) */\n      tag_141\n        /* \"ARY/SwapPro.sol\":9086:9096  msg.sender */\n      caller\n        /* \"ARY/SwapPro.sol\":9098:9106  amountIn */\n      dup4\n        /* \"ARY/SwapPro.sol\":9076:9085  addVolume */\n      tag_142\n        /* \"ARY/SwapPro.sol\":9076:9107  addVolume(msg.sender, amountIn) */\n      jump\t// in\n    tag_141:\n        /* \"ARY/SwapPro.sol\":9118:9185  IERC20(fromToken).transferFrom(msg.sender, address(this), amountIn) */\n      mload(0x40)\n      shl(0xe0, 0x23b872dd)\n      dup2\n      mstore\n        /* \"ARY/SwapPro.sol\":9149:9159  msg.sender */\n      caller\n        /* \"ARY/SwapPro.sol\":9118:9185  IERC20(fromToken).transferFrom(msg.sender, address(this), amountIn) */\n      0x04\n      dup3\n      add\n        /* \"#utility.yul\":3193:3227   */\n      mstore\n        /* \"ARY/SwapPro.sol\":9169:9173  this */\n      address\n        /* \"#utility.yul\":3243:3261   */\n      0x24\n      dup3\n      add\n        /* \"#utility.yul\":3236:3279   */\n      mstore\n        /* \"#utility.yul\":3295:3313   */\n      0x44\n      dup2\n      add\n        /* \"#utility.yul\":3288:3322   */\n      dup4\n      swap1\n      mstore\n      sub(shl(0xa0, 0x01), 0x01)\n        /* \"ARY/SwapPro.sol\":9118:9148  IERC20(fromToken).transferFrom */\n      dup5\n      and\n      swap1\n      0x23b872dd\n      swap1\n        /* \"#utility.yul\":3128:3146   */\n      0x64\n      add\n        /* \"ARY/SwapPro.sol\":9118:9185  IERC20(fromToken).transferFrom(msg.sender, address(this), amountIn) */\n      0x20\n      mload(0x40)\n      dup1\n      dup4\n      sub\n      dup2\n      0x00\n      dup8\n      gas\n      call\n      iszero\n      dup1\n      iszero\n      tag_146\n      jumpi\n      returndatasize\n      0x00\n      dup1\n      returndatacopy\n      revert(0x00, returndatasize)\n    tag_146:\n      pop\n      pop\n      pop\n      pop\n      mload(0x40)\n      returndatasize\n      not(0x1f)\n      0x1f\n      dup3\n      add\n      and\n      dup3\n      add\n      dup1\n      0x40\n      mstore\n      pop\n      dup2\n      add\n      swap1\n      tag_147\n      swap2\n      swap1\n      tag_148\n      jump\t// in\n    tag_147:\n      pop\n        /* \"ARY/SwapPro.sol\":9206:9223  uint256 feeAmount */\n      0x00\n        /* \"ARY/SwapPro.sol\":9250:9254  1000 */\n      0x03e8\n        /* \"ARY/SwapPro.sol\":9237:9247  feePercent */\n      sload(0x02)\n        /* \"ARY/SwapPro.sol\":9226:9234  amountIn */\n      dup5\n        /* \"ARY/SwapPro.sol\":9226:9247  amountIn * feePercent */\n      tag_149\n      swap2\n      swap1\n      tag_150\n      jump\t// in\n    tag_149:\n        /* \"ARY/SwapPro.sol\":9226:9254  amountIn * feePercent / 1000 */\n      tag_151\n      swap2\n      swap1\n      tag_152\n      jump\t// in\n    tag_151:\n        /* \"ARY/SwapPro.sol\":9206:9254  uint256 feeAmount = amountIn * feePercent / 1000 */\n      swap1\n      pop\n        /* \"ARY/SwapPro.sol\":9267:9295  getFee(fromToken, feeAmount) */\n      tag_153\n        /* \"ARY/SwapPro.sol\":9274:9283  fromToken */\n      dup5\n        /* \"ARY/SwapPro.sol\":9285:9294  feeAmount */\n      dup3\n        /* \"ARY/SwapPro.sol\":9267:9273  getFee */\n      tag_154\n        /* \"ARY/SwapPro.sol\":9267:9295  getFee(fromToken, feeAmount) */\n      jump\t// in\n    tag_153:\n        /* \"ARY/SwapPro.sol\":9332:9348  new address[](2) */\n      0x40\n      dup1\n      mload\n        /* \"ARY/SwapPro.sol\":9346:9347  2 */\n      0x02\n        /* \"ARY/SwapPro.sol\":9332:9348  new address[](2) */\n      dup1\n      dup3\n      mstore\n      0x60\n      dup3\n      add\n      dup4\n      mstore\n        /* \"ARY/SwapPro.sol\":9308:9329  address[] memory path */\n      0x00\n      swap3\n        /* \"ARY/SwapPro.sol\":9332:9348  new address[](2) */\n      0x20\n      dup4\n      add\n      swap1\n      dup1\n      calldatasize\n      dup4\n      calldatacopy\n      add\n      swap1\n      pop\n      pop\n        /* \"ARY/SwapPro.sol\":9308:9348  address[] memory path = new address[](2) */\n      swap1\n      pop\n        /* \"ARY/SwapPro.sol\":9369:9378  fromToken */\n      dup5\n        /* \"ARY/SwapPro.sol\":9359:9363  path */\n      dup2\n        /* \"ARY/SwapPro.sol\":9364:9365  0 */\n      0x00\n        /* \"ARY/SwapPro.sol\":9359:9366  path[0] */\n      dup2\n      mload\n      dup2\n      lt\n      tag_160\n      jumpi\n      tag_160\n      tag_161\n      jump\t// in\n    tag_160:\n      0x20\n      mul\n      0x20\n      add\n      add\n        /* \"ARY/SwapPro.sol\":9359:9378  path[0] = fromToken */\n      swap1\n      sub(shl(0xa0, 0x01), 0x01)\n      and\n      swap1\n      dup2\n      sub(shl(0xa0, 0x01), 0x01)\n      and\n      dup2\n      mstore\n      pop\n      pop\n        /* \"ARY/SwapPro.sol\":2335:2377  0x5C7F8A570d578ED84E63fdFA7b1eE72dEae1AE23 */\n      0x5c7f8a570d578ed84e63fdfa7b1ee72deae1ae23\n        /* \"ARY/SwapPro.sol\":9389:9393  path */\n      dup2\n        /* \"ARY/SwapPro.sol\":9394:9395  1 */\n      0x01\n        /* \"ARY/SwapPro.sol\":9389:9396  path[1] */\n      dup2\n      mload\n      dup2\n      lt\n      tag_163\n      jumpi\n      tag_163\n      tag_161\n      jump\t// in\n    tag_163:\n      sub(shl(0xa0, 0x01), 0x01)\n        /* \"ARY/SwapPro.sol\":9389:9403  path[1] = WCRO */\n      swap3\n      dup4\n      and\n        /* \"ARY/SwapPro.sol\":9389:9396  path[1] */\n      0x20\n      swap2\n      dup3\n      mul\n      swap3\n      swap1\n      swap3\n      add\n      add\n        /* \"ARY/SwapPro.sol\":9389:9403  path[1] = WCRO */\n      mstore\n        /* \"ARY/SwapPro.sol\":9414:9420  router */\n      sload(0x08)\n      and\n        /* \"ARY/SwapPro.sol\":9414:9471  router.swapExactTokensForETHSupportingFeeOnTransferTokens */\n      0x791ac947\n        /* \"ARY/SwapPro.sol\":9486:9506  amountIn - feeAmount */\n      tag_164\n        /* \"ARY/SwapPro.sol\":9497:9506  feeAmount */\n      dup5\n        /* \"ARY/SwapPro.sol\":9486:9494  amountIn */\n      dup8\n        /* \"ARY/SwapPro.sol\":9486:9506  amountIn - feeAmount */\n      tag_165\n      jump\t// in\n    tag_164:\n        /* \"ARY/SwapPro.sol\":9521:9533  amountOutMin */\n      dup6\n        /* \"ARY/SwapPro.sol\":9548:9552  path */\n      dup5\n        /* \"ARY/SwapPro.sol\":9567:9577  msg.sender */\n      caller\n        /* \"ARY/SwapPro.sol\":9592:9617  block.timestamp + 1 hours */\n      tag_166\n        /* \"ARY/SwapPro.sol\":9592:9607  block.timestamp */\n      timestamp\n        /* \"ARY/SwapPro.sol\":9610:9617  1 hours */\n      0x0e10\n        /* \"ARY/SwapPro.sol\":9592:9617  block.timestamp + 1 hours */\n      tag_167\n      jump\t// in\n    tag_166:\n        /* \"ARY/SwapPro.sol\":9414:9628  router.swapExactTokensForETHSupportingFeeOnTransferTokens(... */\n      mload(0x40)\n      dup7\n      0xffffffff\n      and\n      0xe0\n      shl\n      dup2\n      mstore\n      0x04\n      add\n      tag_168\n      swap6\n      swap5\n      swap4\n      swap3\n      swap2\n      swap1\n      tag_169\n      jump\t// in\n    tag_168:\n      0x00\n      mload(0x40)\n      dup1\n      dup4\n      sub\n      dup2\n      0x00\n      dup8\n      dup1\n      extcodesize\n      iszero\n      dup1\n      iszero\n      tag_170\n      jumpi\n      0x00\n      dup1\n      revert\n    tag_170:\n      pop\n      gas\n      call\n      iszero\n      dup1\n      iszero\n      tag_172\n      jumpi\n      returndatasize\n      0x00\n      dup1\n      returndatacopy\n      revert(0x00, returndatasize)\n    tag_172:\n      pop\n      pop\n      pop\n      pop\n        /* \"ARY/SwapPro.sol\":9019:9636  {... */\n      pop\n      pop\n        /* \"ARY/SwapPro.sol\":8894:9636  function swapTokenForCRO(... */\n      pop\n      pop\n      pop\n      jump\t// out\n        /* \"ARY/SwapPro.sol\":9851:10054  function withdraw (... */\n    tag_48:\n        /* \"ARY/SwapPro.sol\":9917:9921  wcro */\n      sload(0x0d)\n        /* \"ARY/SwapPro.sol\":9917:9966  wcro.transferFrom(msg.sender, address(this), wad) */\n      mload(0x40)\n      shl(0xe0, 0x23b872dd)\n      dup2\n      mstore\n        /* \"ARY/SwapPro.sol\":9935:9945  msg.sender */\n      caller\n        /* \"ARY/SwapPro.sol\":9917:9966  wcro.transferFrom(msg.sender, address(this), wad) */\n      0x04\n      dup3\n      add\n        /* \"#utility.yul\":3193:3227   */\n      mstore\n        /* \"ARY/SwapPro.sol\":9955:9959  this */\n      address\n        /* \"#utility.yul\":3243:3261   */\n      0x24\n      dup3\n      add\n        /* \"#utility.yul\":3236:3279   */\n      mstore\n        /* \"#utility.yul\":3295:3313   */\n      0x44\n      dup2\n      add\n        /* \"#utility.yul\":3288:3322   */\n      dup4\n      swap1\n      mstore\n      sub(shl(0xa0, 0x01), 0x01)\n        /* \"ARY/SwapPro.sol\":9917:9921  wcro */\n      swap1\n      swap2\n      and\n      swap1\n        /* \"ARY/SwapPro.sol\":9917:9934  wcro.transferFrom */\n      0x23b872dd\n      swap1\n        /* \"#utility.yul\":3128:3146   */\n      0x64\n      add\n        /* \"ARY/SwapPro.sol\":9917:9966  wcro.transferFrom(msg.sender, address(this), wad) */\n      0x20\n      mload(0x40)\n      dup1\n      dup4\n      sub\n      dup2\n      0x00\n      dup8\n      gas\n      call\n      iszero\n      dup1\n      iszero\n      tag_176\n      jumpi\n      returndatasize\n      0x00\n      dup1\n      returndatacopy\n      revert(0x00, returndatasize)\n    tag_176:\n      pop\n      pop\n      pop\n      pop\n      mload(0x40)\n      returndatasize\n      not(0x1f)\n      0x1f\n      dup3\n      add\n      and\n      dup3\n      add\n      dup1\n      0x40\n      mstore\n      pop\n      dup2\n      add\n      swap1\n      tag_177\n      swap2\n      swap1\n      tag_148\n      jump\t// in\n    tag_177:\n      pop\n        /* \"ARY/SwapPro.sol\":9977:9981  wcro */\n      sload(0x0d)\n        /* \"ARY/SwapPro.sol\":9977:9995  wcro.withdraw(wad) */\n      mload(0x40)\n      shl(0xe0, 0x2e1a7d4d)\n      dup2\n      mstore\n      0x04\n      dup2\n      add\n        /* \"#utility.yul\":1317:1342   */\n      dup4\n      swap1\n      mstore\n      sub(shl(0xa0, 0x01), 0x01)\n        /* \"ARY/SwapPro.sol\":9977:9981  wcro */\n      swap1\n      swap2\n      and\n      swap1\n        /* \"ARY/SwapPro.sol\":9977:9990  wcro.withdraw */\n      0x2e1a7d4d\n      swap1\n        /* \"#utility.yul\":1290:1308   */\n      0x24\n      add\n        /* \"ARY/SwapPro.sol\":9977:9995  wcro.withdraw(wad) */\n      0x00\n      mload(0x40)\n      dup1\n      dup4\n      sub\n      dup2\n      0x00\n      dup8\n      dup1\n      extcodesize\n      iszero\n      dup1\n      iszero\n      tag_179\n      jumpi\n      0x00\n      dup1\n      revert\n    tag_179:\n      pop\n      gas\n      call\n      iszero\n      dup1\n      iszero\n      tag_181\n      jumpi\n      returndatasize\n      0x00\n      dup1\n      returndatacopy\n      revert(0x00, returndatasize)\n    tag_181:\n      pop\n      pop\n        /* \"ARY/SwapPro.sol\":10013:10046  payable(msg.sender).transfer(wad) */\n      mload(0x40)\n        /* \"ARY/SwapPro.sol\":10021:10031  msg.sender */\n      caller\n      swap3\n      pop\n        /* \"ARY/SwapPro.sol\":10013:10046  payable(msg.sender).transfer(wad) */\n      dup4\n      iszero\n      0x08fc\n      mul\n      swap2\n      pop\n        /* \"ARY/SwapPro.sol\":10042:10045  wad */\n      dup4\n      swap1\n        /* \"ARY/SwapPro.sol\":10013:10046  payable(msg.sender).transfer(wad) */\n      0x00\n      dup2\n      dup2\n      dup2\n        /* \"ARY/SwapPro.sol\":10042:10045  wad */\n      dup6\n        /* \"ARY/SwapPro.sol\":10021:10031  msg.sender */\n      dup9\n        /* \"ARY/SwapPro.sol\":10013:10046  payable(msg.sender).transfer(wad) */\n      dup9\n      call\n      swap4\n      pop\n      pop\n      pop\n      pop\n      iszero\n      dup1\n      iszero\n      tag_183\n      jumpi\n      returndatasize\n      0x00\n      dup1\n      returndatacopy\n      revert(0x00, returndatasize)\n    tag_183:\n      pop\n        /* \"ARY/SwapPro.sol\":9851:10054  function withdraw (... */\n      pop\n      jump\t// out\n        /* \"ARY/SwapPro.sol\":4731:4891  function setFeeData(address _feeReceiver, uint256 _feePercent) public onlyOwner {... */\n    tag_53:\n        /* \"@openzeppelin/contracts/access/Ownable.sol\":1531:1544  _checkOwner() */\n      tag_185\n        /* \"@openzeppelin/contracts/access/Ownable.sol\":1531:1542  _checkOwner */\n      tag_186\n        /* \"@openzeppelin/contracts/access/Ownable.sol\":1531:1544  _checkOwner() */\n      jump\t// in\n    tag_185:\n        /* \"ARY/SwapPro.sol\":4822:4833  feeReceiver */\n      0x01\n        /* \"ARY/SwapPro.sol\":4822:4848  feeReceiver = _feeReceiver */\n      dup1\n      sload\n      not(sub(shl(0xa0, 0x01), 0x01))\n      and\n      sub(shl(0xa0, 0x01), 0x01)\n      swap4\n      swap1\n      swap4\n      and\n      swap3\n      swap1\n      swap3\n      or\n      swap1\n      swap2\n      sstore\n        /* \"ARY/SwapPro.sol\":4859:4869  feePercent */\n      0x02\n        /* \"ARY/SwapPro.sol\":4859:4883  feePercent = _feePercent */\n      sstore\n        /* \"ARY/SwapPro.sol\":4731:4891  function setFeeData(address _feeReceiver, uint256 _feePercent) public onlyOwner {... */\n      jump\t// out\n        /* \"ARY/SwapPro.sol\":4222:4472  function clearVolume() public onlyOwner{... */\n    tag_56:\n        /* \"@openzeppelin/contracts/access/Ownable.sol\":1531:1544  _checkOwner() */\n      tag_189\n        /* \"@openzeppelin/contracts/access/Ownable.sol\":1531:1542  _checkOwner */\n      tag_186\n        /* \"@openzeppelin/contracts/access/Ownable.sol\":1531:1544  _checkOwner() */\n      jump\t// in\n    tag_189:\n        /* \"ARY/SwapPro.sol\":4284:4293  addresses */\n      0x06\n        /* \"ARY/SwapPro.sol\":4284:4300  addresses.length */\n      sload\n        /* \"ARY/SwapPro.sol\":4272:4281  uint256 n */\n      0x00\n        /* \"ARY/SwapPro.sol\":4311:4400  for(uint256 i = 0; i < n; i++) {... */\n    tag_191:\n        /* \"ARY/SwapPro.sol\":4334:4335  n */\n      dup2\n        /* \"ARY/SwapPro.sol\":4330:4331  i */\n      dup2\n        /* \"ARY/SwapPro.sol\":4330:4335  i < n */\n      lt\n        /* \"ARY/SwapPro.sol\":4311:4400  for(uint256 i = 0; i < n; i++) {... */\n      iszero\n      tag_192\n      jumpi\n        /* \"ARY/SwapPro.sol\":4364:4374  userVolume */\n      0x04\n        /* \"ARY/SwapPro.sol\":4364:4388  userVolume[addresses[i]] */\n      0x00\n        /* \"ARY/SwapPro.sol\":4375:4384  addresses */\n      0x06\n        /* \"ARY/SwapPro.sol\":4385:4386  i */\n      dup4\n        /* \"ARY/SwapPro.sol\":4375:4387  addresses[i] */\n      dup2\n      sload\n      dup2\n      lt\n      tag_195\n      jumpi\n      tag_195\n      tag_161\n      jump\t// in\n    tag_195:\n      0x00\n      swap2\n      dup3\n      mstore\n      0x20\n      dup1\n      dup4\n      keccak256\n      swap1\n      swap2\n      add\n      sload\n      sub(shl(0xa0, 0x01), 0x01)\n      and\n        /* \"ARY/SwapPro.sol\":4364:4388  userVolume[addresses[i]] */\n      dup4\n      mstore\n      dup3\n      add\n      swap3\n      swap1\n      swap3\n      mstore\n      0x40\n      add\n      dup2\n      keccak256\n        /* \"ARY/SwapPro.sol\":4357:4388  delete userVolume[addresses[i]] */\n      sstore\n        /* \"ARY/SwapPro.sol\":4337:4340  i++ */\n      dup1\n      tag_197\n      dup2\n      tag_198\n      jump\t// in\n    tag_197:\n      swap2\n      pop\n      pop\n        /* \"ARY/SwapPro.sol\":4311:4400  for(uint256 i = 0; i < n; i++) {... */\n      jump(tag_191)\n    tag_192:\n      pop\n        /* \"ARY/SwapPro.sol\":4410:4426  delete addresses */\n      tag_199\n        /* \"ARY/SwapPro.sol\":4417:4426  addresses */\n      0x06\n      0x00\n        /* \"ARY/SwapPro.sol\":4410:4426  delete addresses */\n      tag_200\n      jump\t// in\n    tag_199:\n      pop\n        /* \"ARY/SwapPro.sol\":4437:4456  competition_started */\n      0x03\n        /* \"ARY/SwapPro.sol\":4437:4464  competition_started = false */\n      dup1\n      sload\n      not(0xff)\n      and\n      swap1\n      sstore\n        /* \"ARY/SwapPro.sol\":4222:4472  function clearVolume() public onlyOwner{... */\n      jump\t// out\n        /* \"ARY/SwapPro.sol\":8047:8842  function swapCROForToken (... */\n    tag_59:\n        /* \"ARY/SwapPro.sol\":8233:8243  feePercent */\n      sload(0x02)\n        /* \"ARY/SwapPro.sol\":8182:8191  msg.value */\n      callvalue\n      swap1\n        /* \"ARY/SwapPro.sol\":8163:8179  uint256 amountIn */\n      0x00\n      swap1\n        /* \"ARY/SwapPro.sol\":8246:8250  1000 */\n      0x03e8\n      swap1\n        /* \"ARY/SwapPro.sol\":8222:8243  amountIn * feePercent */\n      tag_202\n      swap1\n        /* \"ARY/SwapPro.sol\":8182:8191  msg.value */\n      dup5\n        /* \"ARY/SwapPro.sol\":8222:8243  amountIn * feePercent */\n      tag_150\n      jump\t// in\n    tag_202:\n        /* \"ARY/SwapPro.sol\":8222:8250  amountIn * feePercent / 1000 */\n      tag_203\n      swap2\n      swap1\n      tag_152\n      jump\t// in\n    tag_203:\n        /* \"ARY/SwapPro.sol\":8269:8280  feeReceiver */\n      sload(0x01)\n        /* \"ARY/SwapPro.sol\":8261:8301  payable(feeReceiver).transfer(feeAmount) */\n      mload(0x40)\n        /* \"ARY/SwapPro.sol\":8202:8250  uint256 feeAmount = amountIn * feePercent / 1000 */\n      swap2\n      swap3\n      pop\n      sub(shl(0xa0, 0x01), 0x01)\n        /* \"ARY/SwapPro.sol\":8269:8280  feeReceiver */\n      and\n      swap1\n        /* \"ARY/SwapPro.sol\":8261:8301  payable(feeReceiver).transfer(feeAmount) */\n      dup3\n      iszero\n      0x08fc\n      mul\n      swap1\n        /* \"ARY/SwapPro.sol\":8202:8250  uint256 feeAmount = amountIn * feePercent / 1000 */\n      dup4\n      swap1\n        /* \"ARY/SwapPro.sol\":8269:8280  feeReceiver */\n      0x00\n        /* \"ARY/SwapPro.sol\":8261:8301  payable(feeReceiver).transfer(feeAmount) */\n      dup2\n        /* \"ARY/SwapPro.sol\":8269:8280  feeReceiver */\n      dup2\n        /* \"ARY/SwapPro.sol\":8261:8301  payable(feeReceiver).transfer(feeAmount) */\n      dup2\n        /* \"ARY/SwapPro.sol\":8202:8250  uint256 feeAmount = amountIn * feePercent / 1000 */\n      dup6\n        /* \"ARY/SwapPro.sol\":8269:8280  feeReceiver */\n      dup9\n        /* \"ARY/SwapPro.sol\":8261:8301  payable(feeReceiver).transfer(feeAmount) */\n      dup9\n      call\n      swap4\n      pop\n      pop\n      pop\n      pop\n      iszero\n      dup1\n      iszero\n      tag_205\n      jumpi\n      returndatasize\n      0x00\n      dup1\n      returndatacopy\n      revert(0x00, returndatasize)\n    tag_205:\n      pop\n        /* \"ARY/SwapPro.sol\":8338:8354  new address[](2) */\n      0x40\n      dup1\n      mload\n        /* \"ARY/SwapPro.sol\":8352:8353  2 */\n      0x02\n        /* \"ARY/SwapPro.sol\":8338:8354  new address[](2) */\n      dup1\n      dup3\n      mstore\n      0x60\n      dup3\n      add\n      dup4\n      mstore\n        /* \"ARY/SwapPro.sol\":8314:8335  address[] memory path */\n      0x00\n      swap3\n        /* \"ARY/SwapPro.sol\":8338:8354  new address[](2) */\n      0x20\n      dup4\n      add\n      swap1\n      dup1\n      calldatasize\n      dup4\n      calldatacopy\n      add\n      swap1\n      pop\n      pop\n        /* \"ARY/SwapPro.sol\":8314:8354  address[] memory path = new address[](2) */\n      swap1\n      pop\n        /* \"ARY/SwapPro.sol\":2335:2377  0x5C7F8A570d578ED84E63fdFA7b1eE72dEae1AE23 */\n      0x5c7f8a570d578ed84e63fdfa7b1ee72deae1ae23\n        /* \"ARY/SwapPro.sol\":8365:8369  path */\n      dup2\n        /* \"ARY/SwapPro.sol\":8370:8371  0 */\n      0x00\n        /* \"ARY/SwapPro.sol\":8365:8372  path[0] */\n      dup2\n      mload\n      dup2\n      lt\n      tag_210\n      jumpi\n      tag_210\n      tag_161\n      jump\t// in\n    tag_210:\n      0x20\n      mul\n      0x20\n      add\n      add\n        /* \"ARY/SwapPro.sol\":8365:8379  path[0] = WCRO */\n      swap1\n      sub(shl(0xa0, 0x01), 0x01)\n      and\n      swap1\n      dup2\n      sub(shl(0xa0, 0x01), 0x01)\n      and\n      dup2\n      mstore\n      pop\n      pop\n        /* \"ARY/SwapPro.sol\":8400:8407  toToken */\n      dup5\n        /* \"ARY/SwapPro.sol\":8390:8394  path */\n      dup2\n        /* \"ARY/SwapPro.sol\":8395:8396  1 */\n      0x01\n        /* \"ARY/SwapPro.sol\":8390:8397  path[1] */\n      dup2\n      mload\n      dup2\n      lt\n      tag_212\n      jumpi\n      tag_212\n      tag_161\n      jump\t// in\n    tag_212:\n      sub(shl(0xa0, 0x01), 0x01)\n        /* \"ARY/SwapPro.sol\":8390:8407  path[1] = toToken */\n      swap3\n      dup4\n      and\n        /* \"ARY/SwapPro.sol\":8390:8397  path[1] */\n      0x20\n      swap2\n      dup3\n      mul\n      swap3\n      swap1\n      swap3\n      add\n      add\n        /* \"ARY/SwapPro.sol\":8390:8407  path[1] = toToken */\n      mstore\n        /* \"ARY/SwapPro.sol\":8450:8456  router */\n      sload(0x08)\n        /* \"ARY/SwapPro.sol\":8420:8447  uint256[] memory amountsOut */\n      0x00\n      swap2\n        /* \"ARY/SwapPro.sol\":8450:8456  router */\n      and\n        /* \"ARY/SwapPro.sol\":8450:8470  router.getAmountsOut */\n      0xd06ca61f\n        /* \"ARY/SwapPro.sol\":8471:8491  amountIn - feeAmount */\n      tag_213\n        /* \"ARY/SwapPro.sol\":8482:8491  feeAmount */\n      dup6\n        /* \"ARY/SwapPro.sol\":8471:8479  amountIn */\n      dup8\n        /* \"ARY/SwapPro.sol\":8471:8491  amountIn - feeAmount */\n      tag_165\n      jump\t// in\n    tag_213:\n        /* \"ARY/SwapPro.sol\":8493:8497  path */\n      dup5\n        /* \"ARY/SwapPro.sol\":8450:8498  router.getAmountsOut(amountIn - feeAmount, path) */\n      mload(0x40)\n      dup4\n      0xffffffff\n      and\n      0xe0\n      shl\n      dup2\n      mstore\n      0x04\n      add\n      tag_214\n      swap3\n      swap2\n      swap1\n      tag_215\n      jump\t// in\n    tag_214:\n      0x00\n      mload(0x40)\n      dup1\n      dup4\n      sub\n      dup2\n      dup7\n      gas\n      staticcall\n      iszero\n      dup1\n      iszero\n      tag_217\n      jumpi\n      returndatasize\n      0x00\n      dup1\n      returndatacopy\n      revert(0x00, returndatasize)\n    tag_217:\n      pop\n      pop\n      pop\n      pop\n      mload(0x40)\n      returndatasize\n      0x00\n      dup3\n      returndatacopy\n      0x1f\n      returndatasize\n      swap1\n      dup2\n      add\n      not(0x1f)\n      and\n      dup3\n      add\n      0x40\n      mstore\n      tag_218\n      swap2\n      swap1\n      dup2\n      add\n      swap1\n      tag_219\n      jump\t// in\n    tag_218:\n        /* \"ARY/SwapPro.sol\":8509:8515  router */\n      sload(0x08)\n        /* \"ARY/SwapPro.sol\":8420:8498  uint256[] memory amountsOut = router.getAmountsOut(amountIn - feeAmount, path) */\n      swap1\n      swap2\n      pop\n      sub(shl(0xa0, 0x01), 0x01)\n        /* \"ARY/SwapPro.sol\":8509:8515  router */\n      and\n        /* \"ARY/SwapPro.sol\":8509:8566  router.swapExactETHForTokensSupportingFeeOnTransferTokens */\n      0xb6f9de95\n        /* \"ARY/SwapPro.sol\":8574:8594  amountIn - feeAmount */\n      tag_220\n        /* \"ARY/SwapPro.sol\":8585:8594  feeAmount */\n      dup6\n        /* \"ARY/SwapPro.sol\":8574:8582  amountIn */\n      dup8\n        /* \"ARY/SwapPro.sol\":8574:8594  amountIn - feeAmount */\n      tag_165\n      jump\t// in\n    tag_220:\n        /* \"ARY/SwapPro.sol\":8610:8622  amountOutMin */\n      dup8\n        /* \"ARY/SwapPro.sol\":8637:8641  path */\n      dup6\n        /* \"ARY/SwapPro.sol\":8656:8666  msg.sender */\n      caller\n        /* \"ARY/SwapPro.sol\":8681:8706  block.timestamp + 1 hours */\n      tag_221\n        /* \"ARY/SwapPro.sol\":8681:8696  block.timestamp */\n      timestamp\n        /* \"ARY/SwapPro.sol\":8699:8706  1 hours */\n      0x0e10\n        /* \"ARY/SwapPro.sol\":8681:8706  block.timestamp + 1 hours */\n      tag_167\n      jump\t// in\n    tag_221:\n        /* \"ARY/SwapPro.sol\":8509:8717  router.swapExactETHForTokensSupportingFeeOnTransferTokens{ value:amountIn - feeAmount}(... */\n      mload(0x40)\n      dup7\n      0xffffffff\n      and\n      0xe0\n      shl\n      dup2\n      mstore\n      0x04\n      add\n      tag_222\n      swap5\n      swap4\n      swap3\n      swap2\n      swap1\n      tag_223\n      jump\t// in\n    tag_222:\n      0x00\n      mload(0x40)\n      dup1\n      dup4\n      sub\n      dup2\n      dup6\n      dup9\n      dup1\n      extcodesize\n      iszero\n      dup1\n      iszero\n      tag_224\n      jumpi\n      0x00\n      dup1\n      revert\n    tag_224:\n      pop\n      gas\n      call\n      iszero\n      dup1\n      iszero\n      tag_226\n      jumpi\n      returndatasize\n      0x00\n      dup1\n      returndatacopy\n      revert(0x00, returndatasize)\n    tag_226:\n      pop\n      pop\n      pop\n      pop\n      sub(shl(0xa0, 0x01), 0x01)\n        /* \"ARY/SwapPro.sol\":8733:8747  toToken == ARY */\n      dup8\n      and\n        /* \"ARY/SwapPro.sol\":2414:2456  0x41bc026dABe978bc2FAfeA1850456511ca4B01bc */\n      0x41bc026dabe978bc2fafea1850456511ca4b01bc\n        /* \"ARY/SwapPro.sol\":8733:8747  toToken == ARY */\n      eq\n      swap1\n      pop\n        /* \"ARY/SwapPro.sol\":8733:8770  toToken == ARY && competition_started */\n      dup1\n      iszero\n      tag_227\n      jumpi\n      pop\n        /* \"ARY/SwapPro.sol\":8751:8770  competition_started */\n      and(0xff, sload(0x03))\n        /* \"ARY/SwapPro.sol\":8733:8770  toToken == ARY && competition_started */\n    tag_227:\n        /* \"ARY/SwapPro.sol\":8730:8835  if(toToken == ARY && competition_started) {... */\n      iszero\n      tag_229\n      jumpi\n        /* \"ARY/SwapPro.sol\":8787:8823  addVolume(msg.sender, amountsOut[1]) */\n      tag_229\n        /* \"ARY/SwapPro.sol\":8797:8807  msg.sender */\n      caller\n        /* \"ARY/SwapPro.sol\":8809:8819  amountsOut */\n      dup3\n        /* \"ARY/SwapPro.sol\":8820:8821  1 */\n      0x01\n        /* \"ARY/SwapPro.sol\":8809:8822  amountsOut[1] */\n      dup2\n      mload\n      dup2\n      lt\n      tag_231\n      jumpi\n      tag_231\n      tag_161\n      jump\t// in\n    tag_231:\n      0x20\n      mul\n      0x20\n      add\n      add\n      mload\n        /* \"ARY/SwapPro.sol\":8787:8796  addVolume */\n      tag_142\n        /* \"ARY/SwapPro.sol\":8787:8823  addVolume(msg.sender, amountsOut[1]) */\n      jump\t// in\n    tag_229:\n        /* \"ARY/SwapPro.sol\":8152:8842  {... */\n      pop\n      pop\n      pop\n      pop\n        /* \"ARY/SwapPro.sol\":8047:8842  function swapCROForToken (... */\n      pop\n      pop\n      jump\t// out\n        /* \"ARY/SwapPro.sol\":4480:4570  function stopCompetition() public onlyOwner {... */\n    tag_62:\n        /* \"@openzeppelin/contracts/access/Ownable.sol\":1531:1544  _checkOwner() */\n      tag_233\n        /* \"@openzeppelin/contracts/access/Ownable.sol\":1531:1542  _checkOwner */\n      tag_186\n        /* \"@openzeppelin/contracts/access/Ownable.sol\":1531:1544  _checkOwner() */\n      jump\t// in\n    tag_233:\n        /* \"ARY/SwapPro.sol\":4535:4554  competition_started */\n      0x03\n        /* \"ARY/SwapPro.sol\":4535:4562  competition_started = false */\n      dup1\n      sload\n      not(0xff)\n      and\n      swap1\n      sstore\n        /* \"ARY/SwapPro.sol\":4480:4570  function stopCompetition() public onlyOwner {... */\n      jump\t// out\n        /* \"@openzeppelin/contracts/access/Ownable.sol\":2293:2394  function renounceOwnership() public virtual onlyOwner {... */\n    tag_69:\n        /* \"@openzeppelin/contracts/access/Ownable.sol\":1531:1544  _checkOwner() */\n      tag_236\n        /* \"@openzeppelin/contracts/access/Ownable.sol\":1531:1542  _checkOwner */\n      tag_186\n        /* \"@openzeppelin/contracts/access/Ownable.sol\":1531:1544  _checkOwner() */\n      jump\t// in\n    tag_236:\n        /* \"@openzeppelin/contracts/access/Ownable.sol\":2357:2387  _transferOwnership(address(0)) */\n      tag_238\n        /* \"@openzeppelin/contracts/access/Ownable.sol\":2384:2385  0 */\n      0x00\n        /* \"@openzeppelin/contracts/access/Ownable.sol\":2357:2375  _transferOwnership */\n      tag_239\n        /* \"@openzeppelin/contracts/access/Ownable.sol\":2357:2387  _transferOwnership(address(0)) */\n      jump\t// in\n    tag_238:\n        /* \"@openzeppelin/contracts/access/Ownable.sol\":2293:2394  function renounceOwnership() public virtual onlyOwner {... */\n      jump\t// out\n        /* \"ARY/SwapPro.sol\":3809:4174  function getUserVolumes() external view returns (Volume[] memory) {... */\n    tag_100:\n        /* \"ARY/SwapPro.sol\":3898:3907  addresses */\n      0x06\n        /* \"ARY/SwapPro.sol\":3898:3914  addresses.length */\n      sload\n        /* \"ARY/SwapPro.sol\":3858:3873  Volume[] memory */\n      0x60\n      swap1\n        /* \"ARY/SwapPro.sol\":3886:3895  uint256 n */\n      0x00\n        /* \"ARY/SwapPro.sol\":3898:3914  addresses.length */\n      dup2\n        /* \"ARY/SwapPro.sol\":3951:3966  new Volume[](n) */\n      0xffffffffffffffff\n      dup2\n      gt\n      iszero\n      tag_243\n      jumpi\n      tag_243\n      tag_157\n      jump\t// in\n    tag_243:\n      mload(0x40)\n      swap1\n      dup1\n      dup3\n      mstore\n      dup1\n      0x20\n      mul\n      0x20\n      add\n      dup3\n      add\n      0x40\n      mstore\n      dup1\n      iszero\n      tag_244\n      jumpi\n      dup2\n      0x20\n      add\n    tag_245:\n      0x40\n      dup1\n      mload\n      dup1\n      dup3\n      add\n      swap1\n      swap2\n      mstore\n      0x00\n      dup1\n      dup3\n      mstore\n      0x20\n      dup3\n      add\n      mstore\n      dup2\n      mstore\n      0x20\n      add\n      swap1\n      0x01\n      swap1\n      sub\n      swap1\n      dup2\n      tag_245\n      jumpi\n      swap1\n      pop\n    tag_244:\n      pop\n        /* \"ARY/SwapPro.sol\":3925:3966  Volume[] memory volumes = new Volume[](n) */\n      swap1\n      pop\n        /* \"ARY/SwapPro.sol\":4027:4036  uint256 i */\n      0x00\n        /* \"ARY/SwapPro.sol\":4022:4140  for (uint256 i = 0; i < n; i++) {... */\n    tag_248:\n        /* \"ARY/SwapPro.sol\":4046:4047  n */\n      dup3\n        /* \"ARY/SwapPro.sol\":4042:4043  i */\n      dup2\n        /* \"ARY/SwapPro.sol\":4042:4047  i < n */\n      lt\n        /* \"ARY/SwapPro.sol\":4022:4140  for (uint256 i = 0; i < n; i++) {... */\n      iszero\n      tag_249\n      jumpi\n        /* \"ARY/SwapPro.sol\":4082:4128  Volume(addresses[i], userVolume[addresses[i]]) */\n      mload(0x40)\n      dup1\n      0x40\n      add\n      0x40\n      mstore\n      dup1\n        /* \"ARY/SwapPro.sol\":4089:4098  addresses */\n      0x06\n        /* \"ARY/SwapPro.sol\":4099:4100  i */\n      dup4\n        /* \"ARY/SwapPro.sol\":4089:4101  addresses[i] */\n      dup2\n      sload\n      dup2\n      lt\n      tag_252\n      jumpi\n      tag_252\n      tag_161\n      jump\t// in\n    tag_252:\n      swap1\n      0x00\n      mstore\n      keccak256(0x00, 0x20)\n      add\n      0x00\n      swap1\n      sload\n      swap1\n      0x0100\n      exp\n      swap1\n      div\n      sub(shl(0xa0, 0x01), 0x01)\n      and\n      sub(shl(0xa0, 0x01), 0x01)\n        /* \"ARY/SwapPro.sol\":4082:4128  Volume(addresses[i], userVolume[addresses[i]]) */\n      and\n      dup2\n      mstore\n      0x20\n      add\n        /* \"ARY/SwapPro.sol\":4103:4113  userVolume */\n      0x04\n        /* \"ARY/SwapPro.sol\":4103:4127  userVolume[addresses[i]] */\n      0x00\n        /* \"ARY/SwapPro.sol\":4114:4123  addresses */\n      0x06\n        /* \"ARY/SwapPro.sol\":4124:4125  i */\n      dup6\n        /* \"ARY/SwapPro.sol\":4114:4126  addresses[i] */\n      dup2\n      sload\n      dup2\n      lt\n      tag_255\n      jumpi\n      tag_255\n      tag_161\n      jump\t// in\n    tag_255:\n      0x00\n      swap2\n      dup3\n      mstore\n      0x20\n      dup1\n      dup4\n      keccak256\n      swap1\n      swap2\n      add\n      sload\n      sub(shl(0xa0, 0x01), 0x01)\n      and\n        /* \"ARY/SwapPro.sol\":4103:4127  userVolume[addresses[i]] */\n      dup4\n      mstore\n      dup3\n      add\n      swap3\n      swap1\n      swap3\n      mstore\n      0x40\n      add\n      swap1\n      keccak256\n      sload\n        /* \"ARY/SwapPro.sol\":4082:4128  Volume(addresses[i], userVolume[addresses[i]]) */\n      swap1\n      mstore\n        /* \"ARY/SwapPro.sol\":4069:4079  volumes[i] */\n      dup3\n      mload\n        /* \"ARY/SwapPro.sol\":4069:4076  volumes */\n      dup4\n      swap1\n        /* \"ARY/SwapPro.sol\":4077:4078  i */\n      dup4\n      swap1\n        /* \"ARY/SwapPro.sol\":4069:4079  volumes[i] */\n      dup2\n      lt\n      tag_258\n      jumpi\n      tag_258\n      tag_161\n      jump\t// in\n    tag_258:\n      0x20\n      mul\n      0x20\n      add\n      add\n        /* \"ARY/SwapPro.sol\":4069:4128  volumes[i] = Volume(addresses[i], userVolume[addresses[i]]) */\n      dup2\n      swap1\n      mstore\n      pop\n        /* \"ARY/SwapPro.sol\":4049:4052  i++ */\n      dup1\n      dup1\n      tag_259\n      swap1\n      tag_198\n      jump\t// in\n    tag_259:\n      swap2\n      pop\n      pop\n        /* \"ARY/SwapPro.sol\":4022:4140  for (uint256 i = 0; i < n; i++) {... */\n      jump(tag_248)\n    tag_249:\n      pop\n        /* \"ARY/SwapPro.sol\":4159:4166  volumes */\n      swap3\n        /* \"ARY/SwapPro.sol\":3809:4174  function getUserVolumes() external view returns (Volume[] memory) {... */\n      swap2\n      pop\n      pop\n      jump\t// out\n        /* \"ARY/SwapPro.sol\":9672:9843  function deposit () public payable {... */\n    tag_116:\n        /* \"ARY/SwapPro.sol\":9757:9761  wcro */\n      sload(0x0d)\n        /* \"ARY/SwapPro.sol\":9757:9787  wcro.deposit{value:amountIn}() */\n      0x40\n      dup1\n      mload\n      shl(0xe4, 0x0d0e30db)\n      dup2\n      mstore\n      swap1\n      mload\n        /* \"ARY/SwapPro.sol\":9737:9746  msg.value */\n      callvalue\n      swap3\n      sub(shl(0xa0, 0x01), 0x01)\n        /* \"ARY/SwapPro.sol\":9757:9761  wcro */\n      and\n      swap2\n        /* \"ARY/SwapPro.sol\":9757:9769  wcro.deposit */\n      0xd0e30db0\n      swap2\n        /* \"ARY/SwapPro.sol\":9737:9746  msg.value */\n      dup5\n      swap2\n        /* \"ARY/SwapPro.sol\":9757:9787  wcro.deposit{value:amountIn}() */\n      0x04\n      dup1\n      dup3\n      add\n      swap3\n        /* \"ARY/SwapPro.sol\":9718:9734  uint256 amountIn */\n      0x00\n      swap3\n        /* \"ARY/SwapPro.sol\":9757:9787  wcro.deposit{value:amountIn}() */\n      swap1\n      swap2\n      swap1\n      dup3\n      swap1\n      sub\n      add\n      dup2\n        /* \"ARY/SwapPro.sol\":9737:9746  msg.value */\n      dup6\n        /* \"ARY/SwapPro.sol\":9757:9761  wcro */\n      dup9\n        /* \"ARY/SwapPro.sol\":9757:9787  wcro.deposit{value:amountIn}() */\n      dup1\n      extcodesize\n      iszero\n      dup1\n      iszero\n      tag_261\n      jumpi\n      0x00\n      dup1\n      revert\n    tag_261:\n      pop\n      gas\n      call\n      iszero\n      dup1\n      iszero\n      tag_263\n      jumpi\n      returndatasize\n      0x00\n      dup1\n      returndatacopy\n      revert(0x00, returndatasize)\n    tag_263:\n      pop\n      pop\n        /* \"ARY/SwapPro.sol\":9798:9802  wcro */\n      sload(0x0d)\n        /* \"ARY/SwapPro.sol\":9798:9835  wcro.transfer( msg.sender, amountIn ) */\n      mload(0x40)\n      shl(0xe0, 0xa9059cbb)\n      dup2\n      mstore\n        /* \"ARY/SwapPro.sol\":9813:9823  msg.sender */\n      caller\n        /* \"ARY/SwapPro.sol\":9798:9835  wcro.transfer( msg.sender, amountIn ) */\n      0x04\n      dup3\n      add\n        /* \"#utility.yul\":7982:8033   */\n      mstore\n        /* \"#utility.yul\":8049:8067   */\n      0x24\n      dup2\n      add\n        /* \"#utility.yul\":8042:8076   */\n      dup7\n      swap1\n      mstore\n      sub(shl(0xa0, 0x01), 0x01)\n        /* \"ARY/SwapPro.sol\":9798:9802  wcro */\n      swap1\n      swap2\n      and\n      swap4\n      pop\n        /* \"ARY/SwapPro.sol\":9798:9811  wcro.transfer */\n      0xa9059cbb\n      swap3\n      pop\n        /* \"#utility.yul\":7955:7973   */\n      0x44\n      add\n      swap1\n      pop\n        /* \"ARY/SwapPro.sol\":9798:9835  wcro.transfer( msg.sender, amountIn ) */\n      0x20\n      mload(0x40)\n      dup1\n      dup4\n      sub\n      dup2\n      0x00\n      dup8\n      gas\n      call\n      iszero\n      dup1\n      iszero\n      tag_267\n      jumpi\n      returndatasize\n      0x00\n      dup1\n      returndatacopy\n      revert(0x00, returndatasize)\n    tag_267:\n      pop\n      pop\n      pop\n      pop\n      mload(0x40)\n      returndatasize\n      not(0x1f)\n      0x1f\n      dup3\n      add\n      and\n      dup3\n      add\n      dup1\n      0x40\n      mstore\n      pop\n      dup2\n      add\n      swap1\n      tag_183\n      swap2\n      swap1\n      tag_148\n      jump\t// in\n        /* \"ARY/SwapPro.sol\":5854:7999  function swapTokenForToken(... */\n    tag_121:\n        /* \"ARY/SwapPro.sol\":6018:6085  IERC20(fromToken).transferFrom(msg.sender, address(this), amountIn) */\n      mload(0x40)\n      shl(0xe0, 0x23b872dd)\n      dup2\n      mstore\n        /* \"ARY/SwapPro.sol\":6049:6059  msg.sender */\n      caller\n        /* \"ARY/SwapPro.sol\":6018:6085  IERC20(fromToken).transferFrom(msg.sender, address(this), amountIn) */\n      0x04\n      dup3\n      add\n        /* \"#utility.yul\":3193:3227   */\n      mstore\n        /* \"ARY/SwapPro.sol\":6069:6073  this */\n      address\n        /* \"#utility.yul\":3243:3261   */\n      0x24\n      dup3\n      add\n        /* \"#utility.yul\":3236:3279   */\n      mstore\n        /* \"#utility.yul\":3295:3313   */\n      0x44\n      dup2\n      add\n        /* \"#utility.yul\":3288:3322   */\n      dup4\n      swap1\n      mstore\n      sub(shl(0xa0, 0x01), 0x01)\n        /* \"ARY/SwapPro.sol\":6018:6048  IERC20(fromToken).transferFrom */\n      dup6\n      and\n      swap1\n      0x23b872dd\n      swap1\n        /* \"#utility.yul\":3128:3146   */\n      0x64\n      add\n        /* \"ARY/SwapPro.sol\":6018:6085  IERC20(fromToken).transferFrom(msg.sender, address(this), amountIn) */\n      0x20\n      mload(0x40)\n      dup1\n      dup4\n      sub\n      dup2\n      0x00\n      dup8\n      gas\n      call\n      iszero\n      dup1\n      iszero\n      tag_272\n      jumpi\n      returndatasize\n      0x00\n      dup1\n      returndatacopy\n      revert(0x00, returndatasize)\n    tag_272:\n      pop\n      pop\n      pop\n      pop\n      mload(0x40)\n      returndatasize\n      not(0x1f)\n      0x1f\n      dup3\n      add\n      and\n      dup3\n      add\n      dup1\n      0x40\n      mstore\n      pop\n      dup2\n      add\n      swap1\n      tag_273\n      swap2\n      swap1\n      tag_148\n      jump\t// in\n    tag_273:\n      pop\n      sub(shl(0xa0, 0x01), 0x01)\n        /* \"ARY/SwapPro.sol\":6117:6133  fromToken == ARY */\n      dup5\n      and\n        /* \"ARY/SwapPro.sol\":2414:2456  0x41bc026dABe978bc2FAfeA1850456511ca4B01bc */\n      0x41bc026dabe978bc2fafea1850456511ca4b01bc\n        /* \"ARY/SwapPro.sol\":6117:6133  fromToken == ARY */\n      eq\n        /* \"ARY/SwapPro.sol\":6117:6156  fromToken == ARY && competition_started */\n      dup1\n      iszero\n      tag_274\n      jumpi\n      pop\n        /* \"ARY/SwapPro.sol\":6137:6156  competition_started */\n      and(0xff, sload(0x03))\n        /* \"ARY/SwapPro.sol\":6117:6156  fromToken == ARY && competition_started */\n    tag_274:\n        /* \"ARY/SwapPro.sol\":6098:6227  if (... */\n      iszero\n      tag_276\n      jumpi\n        /* \"ARY/SwapPro.sol\":6184:6215  addVolume(msg.sender, amountIn) */\n      tag_276\n        /* \"ARY/SwapPro.sol\":6194:6204  msg.sender */\n      caller\n        /* \"ARY/SwapPro.sol\":6206:6214  amountIn */\n      dup4\n        /* \"ARY/SwapPro.sol\":6184:6193  addVolume */\n      tag_142\n        /* \"ARY/SwapPro.sol\":6184:6215  addVolume(msg.sender, amountIn) */\n      jump\t// in\n    tag_276:\n        /* \"ARY/SwapPro.sol\":6239:6256  uint256 feeAmount */\n      0x00\n        /* \"ARY/SwapPro.sol\":6285:6289  1000 */\n      0x03e8\n        /* \"ARY/SwapPro.sol\":6271:6281  feePercent */\n      sload(0x02)\n        /* \"ARY/SwapPro.sol\":6260:6268  amountIn */\n      dup5\n        /* \"ARY/SwapPro.sol\":6260:6281  amountIn * feePercent */\n      tag_277\n      swap2\n      swap1\n      tag_150\n      jump\t// in\n    tag_277:\n        /* \"ARY/SwapPro.sol\":6259:6289  (amountIn * feePercent) / 1000 */\n      tag_278\n      swap2\n      swap1\n      tag_152\n      jump\t// in\n    tag_278:\n        /* \"ARY/SwapPro.sol\":6239:6289  uint256 feeAmount = (amountIn * feePercent) / 1000 */\n      swap1\n      pop\n        /* \"ARY/SwapPro.sol\":6300:6328  getFee(fromToken, feeAmount) */\n      tag_279\n        /* \"ARY/SwapPro.sol\":6307:6316  fromToken */\n      dup6\n        /* \"ARY/SwapPro.sol\":6318:6327  feeAmount */\n      dup3\n        /* \"ARY/SwapPro.sol\":6300:6306  getFee */\n      tag_154\n        /* \"ARY/SwapPro.sol\":6300:6328  getFee(fromToken, feeAmount) */\n      jump\t// in\n    tag_279:\n        /* \"ARY/SwapPro.sol\":6341:6356  uint256 pathLen */\n      0x00\n      sub(shl(0xa0, 0x01), 0x01)\n        /* \"ARY/SwapPro.sol\":6378:6395  fromToken == WCRO */\n      dup7\n      and\n        /* \"ARY/SwapPro.sol\":2335:2377  0x5C7F8A570d578ED84E63fdFA7b1eE72dEae1AE23 */\n      0x5c7f8a570d578ed84e63fdfa7b1ee72deae1ae23\n        /* \"ARY/SwapPro.sol\":6378:6395  fromToken == WCRO */\n      eq\n      dup1\n        /* \"ARY/SwapPro.sol\":6378:6414  fromToken == WCRO || toToken == WCRO */\n      tag_280\n      jumpi\n      pop\n      sub(shl(0xa0, 0x01), 0x01)\n        /* \"ARY/SwapPro.sol\":6399:6414  toToken == WCRO */\n      dup6\n      and\n        /* \"ARY/SwapPro.sol\":2335:2377  0x5C7F8A570d578ED84E63fdFA7b1eE72dEae1AE23 */\n      0x5c7f8a570d578ed84e63fdfa7b1ee72deae1ae23\n        /* \"ARY/SwapPro.sol\":6399:6414  toToken == WCRO */\n      eq\n        /* \"ARY/SwapPro.sol\":6378:6414  fromToken == WCRO || toToken == WCRO */\n    tag_280:\n        /* \"ARY/SwapPro.sol\":6377:6423  (fromToken == WCRO || toToken == WCRO) ? 2 : 3 */\n      tag_281\n      jumpi\n        /* \"ARY/SwapPro.sol\":6422:6423  3 */\n      0x03\n        /* \"ARY/SwapPro.sol\":6377:6423  (fromToken == WCRO || toToken == WCRO) ? 2 : 3 */\n      jump(tag_282)\n    tag_281:\n        /* \"ARY/SwapPro.sol\":6418:6419  2 */\n      0x02\n        /* \"ARY/SwapPro.sol\":6377:6423  (fromToken == WCRO || toToken == WCRO) ? 2 : 3 */\n    tag_282:\n        /* \"ARY/SwapPro.sol\":6367:6423  pathLen = (fromToken == WCRO || toToken == WCRO) ? 2 : 3 */\n      0xff\n      and\n      swap1\n      pop\n        /* \"ARY/SwapPro.sol\":6436:6453  uint256 amountOut */\n      0x00\n        /* \"ARY/SwapPro.sol\":6464:6485  address[] memory path */\n      0x60\n      sub(shl(0xa0, 0x01), 0x01)\n        /* \"ARY/SwapPro.sol\":6500:6517  fromToken == WCRO */\n      dup9\n      and\n        /* \"ARY/SwapPro.sol\":2335:2377  0x5C7F8A570d578ED84E63fdFA7b1eE72dEae1AE23 */\n      0x5c7f8a570d578ed84e63fdfa7b1ee72deae1ae23\n        /* \"ARY/SwapPro.sol\":6500:6517  fromToken == WCRO */\n      eq\n      dup1\n        /* \"ARY/SwapPro.sol\":6500:6536  fromToken == WCRO || toToken == WCRO */\n      tag_283\n      jumpi\n      pop\n      sub(shl(0xa0, 0x01), 0x01)\n        /* \"ARY/SwapPro.sol\":6521:6536  toToken == WCRO */\n      dup8\n      and\n        /* \"ARY/SwapPro.sol\":2335:2377  0x5C7F8A570d578ED84E63fdFA7b1eE72dEae1AE23 */\n      0x5c7f8a570d578ed84e63fdfa7b1ee72deae1ae23\n        /* \"ARY/SwapPro.sol\":6521:6536  toToken == WCRO */\n      eq\n        /* \"ARY/SwapPro.sol\":6500:6536  fromToken == WCRO || toToken == WCRO */\n    tag_283:\n        /* \"ARY/SwapPro.sol\":6496:7594  if (fromToken == WCRO || toToken == WCRO) {... */\n      iszero\n      tag_284\n      jumpi\n        /* \"ARY/SwapPro.sol\":6574:6575  2 */\n      0x02\n        /* \"ARY/SwapPro.sol\":6560:6576  new address[](2) */\n    tag_286:\n      mload(0x40)\n      swap1\n      dup1\n      dup3\n      mstore\n      dup1\n      0x20\n      mul\n      0x20\n      add\n      dup3\n      add\n      0x40\n      mstore\n      dup1\n      iszero\n      tag_287\n      jumpi\n      dup2\n      0x20\n      add\n      0x20\n      dup3\n      mul\n      dup1\n      calldatasize\n      dup4\n      calldatacopy\n      add\n      swap1\n      pop\n    tag_287:\n      pop\n        /* \"ARY/SwapPro.sol\":6553:6576  path = new address[](2) */\n      swap1\n      pop\n        /* \"ARY/SwapPro.sol\":6601:6610  fromToken */\n      dup8\n        /* \"ARY/SwapPro.sol\":6591:6595  path */\n      dup2\n        /* \"ARY/SwapPro.sol\":6596:6597  0 */\n      0x00\n        /* \"ARY/SwapPro.sol\":6591:6598  path[0] */\n      dup2\n      mload\n      dup2\n      lt\n      tag_289\n      jumpi\n      tag_289\n      tag_161\n      jump\t// in\n    tag_289:\n      0x20\n      mul\n      0x20\n      add\n      add\n        /* \"ARY/SwapPro.sol\":6591:6610  path[0] = fromToken */\n      swap1\n      sub(shl(0xa0, 0x01), 0x01)\n      and\n      swap1\n      dup2\n      sub(shl(0xa0, 0x01), 0x01)\n      and\n      dup2\n      mstore\n      pop\n      pop\n        /* \"ARY/SwapPro.sol\":6635:6642  toToken */\n      dup7\n        /* \"ARY/SwapPro.sol\":6625:6629  path */\n      dup2\n        /* \"ARY/SwapPro.sol\":6630:6631  1 */\n      0x01\n        /* \"ARY/SwapPro.sol\":6625:6632  path[1] */\n      dup2\n      mload\n      dup2\n      lt\n      tag_291\n      jumpi\n      tag_291\n      tag_161\n      jump\t// in\n    tag_291:\n      sub(shl(0xa0, 0x01), 0x01)\n        /* \"ARY/SwapPro.sol\":6625:6642  path[1] = toToken */\n      swap3\n      dup4\n      and\n        /* \"ARY/SwapPro.sol\":6625:6632  path[1] */\n      0x20\n      swap2\n      dup3\n      mul\n      swap3\n      swap1\n      swap3\n      add\n      add\n        /* \"ARY/SwapPro.sol\":6625:6642  path[1] = toToken */\n      mstore\n        /* \"ARY/SwapPro.sol\":6687:6693  router */\n      sload(0x08)\n        /* \"ARY/SwapPro.sol\":6657:6684  uint256[] memory amountsOut */\n      0x00\n      swap2\n        /* \"ARY/SwapPro.sol\":6687:6693  router */\n      and\n        /* \"ARY/SwapPro.sol\":6687:6707  router.getAmountsOut */\n      0xd06ca61f\n        /* \"ARY/SwapPro.sol\":6726:6746  amountIn - feeAmount */\n      tag_292\n        /* \"ARY/SwapPro.sol\":6737:6746  feeAmount */\n      dup8\n        /* \"ARY/SwapPro.sol\":6726:6734  amountIn */\n      dup11\n        /* \"ARY/SwapPro.sol\":6726:6746  amountIn - feeAmount */\n      tag_165\n      jump\t// in\n    tag_292:\n        /* \"ARY/SwapPro.sol\":6765:6769  path */\n      dup5\n        /* \"ARY/SwapPro.sol\":6687:6784  router.getAmountsOut(... */\n      mload(0x40)\n      dup4\n      0xffffffff\n      and\n      0xe0\n      shl\n      dup2\n      mstore\n      0x04\n      add\n      tag_293\n      swap3\n      swap2\n      swap1\n      tag_215\n      jump\t// in\n    tag_293:\n      0x00\n      mload(0x40)\n      dup1\n      dup4\n      sub\n      dup2\n      dup7\n      gas\n      staticcall\n      iszero\n      dup1\n      iszero\n      tag_295\n      jumpi\n      returndatasize\n      0x00\n      dup1\n      returndatacopy\n      revert(0x00, returndatasize)\n    tag_295:\n      pop\n      pop\n      pop\n      pop\n      mload(0x40)\n      returndatasize\n      0x00\n      dup3\n      returndatacopy\n      0x1f\n      returndatasize\n      swap1\n      dup2\n      add\n      not(0x1f)\n      and\n      dup3\n      add\n      0x40\n      mstore\n      tag_296\n      swap2\n      swap1\n      dup2\n      add\n      swap1\n      tag_219\n      jump\t// in\n    tag_296:\n        /* \"ARY/SwapPro.sol\":6657:6784  uint256[] memory amountsOut = router.getAmountsOut(... */\n      swap1\n      pop\n        /* \"ARY/SwapPro.sol\":6811:6821  amountsOut */\n      dup1\n        /* \"ARY/SwapPro.sol\":6822:6823  1 */\n      0x01\n        /* \"ARY/SwapPro.sol\":6811:6824  amountsOut[1] */\n      dup2\n      mload\n      dup2\n      lt\n      tag_298\n      jumpi\n      tag_298\n      tag_161\n      jump\t// in\n    tag_298:\n      0x20\n      mul\n      0x20\n      add\n      add\n      mload\n        /* \"ARY/SwapPro.sol\":6799:6824  amountOut = amountsOut[1] */\n      swap3\n      pop\n        /* \"ARY/SwapPro.sol\":6538:6836  {... */\n      pop\n        /* \"ARY/SwapPro.sol\":6496:7594  if (fromToken == WCRO || toToken == WCRO) {... */\n      jump(tag_318)\n    tag_284:\n      sub(shl(0xa0, 0x01), 0x01)\n        /* \"ARY/SwapPro.sol\":6861:6877  fromToken == ARY */\n      dup9\n      and\n        /* \"ARY/SwapPro.sol\":2414:2456  0x41bc026dABe978bc2FAfeA1850456511ca4B01bc */\n      0x41bc026dabe978bc2fafea1850456511ca4b01bc\n        /* \"ARY/SwapPro.sol\":6861:6877  fromToken == ARY */\n      eq\n        /* \"ARY/SwapPro.sol\":6861:6896  fromToken == ARY && toToken == MERY */\n      dup1\n      iszero\n      tag_300\n      jumpi\n      pop\n      sub(shl(0xa0, 0x01), 0x01)\n        /* \"ARY/SwapPro.sol\":6881:6896  toToken == MERY */\n      dup8\n      and\n        /* \"ARY/SwapPro.sol\":2494:2536  0x3b41B27E74Dd366CE27cB389dc7877D4e1516d4d */\n      0x3b41b27e74dd366ce27cb389dc7877d4e1516d4d\n        /* \"ARY/SwapPro.sol\":6881:6896  toToken == MERY */\n      eq\n        /* \"ARY/SwapPro.sol\":6861:6896  fromToken == ARY && toToken == MERY */\n    tag_300:\n        /* \"ARY/SwapPro.sol\":6860:6951  (fromToken == ARY && toToken == MERY) ||... */\n      dup1\n      tag_302\n      jumpi\n      pop\n      sub(shl(0xa0, 0x01), 0x01)\n        /* \"ARY/SwapPro.sol\":6915:6932  fromToken == MERY */\n      dup9\n      and\n        /* \"ARY/SwapPro.sol\":2494:2536  0x3b41B27E74Dd366CE27cB389dc7877D4e1516d4d */\n      0x3b41b27e74dd366ce27cb389dc7877d4e1516d4d\n        /* \"ARY/SwapPro.sol\":6915:6932  fromToken == MERY */\n      eq\n        /* \"ARY/SwapPro.sol\":6915:6950  fromToken == MERY && toToken == ARY */\n      dup1\n      iszero\n      tag_302\n      jumpi\n      pop\n      sub(shl(0xa0, 0x01), 0x01)\n        /* \"ARY/SwapPro.sol\":6936:6950  toToken == ARY */\n      dup8\n      and\n        /* \"ARY/SwapPro.sol\":2414:2456  0x41bc026dABe978bc2FAfeA1850456511ca4B01bc */\n      0x41bc026dabe978bc2fafea1850456511ca4b01bc\n        /* \"ARY/SwapPro.sol\":6936:6950  toToken == ARY */\n      eq\n        /* \"ARY/SwapPro.sol\":6915:6950  fromToken == MERY && toToken == ARY */\n    tag_302:\n        /* \"ARY/SwapPro.sol\":6842:7594  if (... */\n      iszero\n      tag_303\n      jumpi\n        /* \"ARY/SwapPro.sol\":6999:7000  2 */\n      0x02\n        /* \"ARY/SwapPro.sol\":6985:7001  new address[](2) */\n      jump(tag_286)\n        /* \"ARY/SwapPro.sol\":6842:7594  if (... */\n    tag_303:\n        /* \"ARY/SwapPro.sol\":7289:7305  new address[](3) */\n      0x40\n      dup1\n      mload\n        /* \"ARY/SwapPro.sol\":7303:7304  3 */\n      0x03\n        /* \"ARY/SwapPro.sol\":7289:7305  new address[](3) */\n      dup1\n      dup3\n      mstore\n      0x80\n      dup3\n      add\n      swap1\n      swap3\n      mstore\n      swap1\n      0x20\n      dup3\n      add\n      0x60\n      dup1\n      calldatasize\n      dup4\n      calldatacopy\n      add\n      swap1\n      pop\n      pop\n        /* \"ARY/SwapPro.sol\":7282:7305  path = new address[](3) */\n      swap1\n      pop\n        /* \"ARY/SwapPro.sol\":7330:7339  fromToken */\n      dup8\n        /* \"ARY/SwapPro.sol\":7320:7324  path */\n      dup2\n        /* \"ARY/SwapPro.sol\":7325:7326  0 */\n      0x00\n        /* \"ARY/SwapPro.sol\":7320:7327  path[0] */\n      dup2\n      mload\n      dup2\n      lt\n      tag_323\n      jumpi\n      tag_323\n      tag_161\n      jump\t// in\n    tag_323:\n      0x20\n      mul\n      0x20\n      add\n      add\n        /* \"ARY/SwapPro.sol\":7320:7339  path[0] = fromToken */\n      swap1\n      sub(shl(0xa0, 0x01), 0x01)\n      and\n      swap1\n      dup2\n      sub(shl(0xa0, 0x01), 0x01)\n      and\n      dup2\n      mstore\n      pop\n      pop\n        /* \"ARY/SwapPro.sol\":2335:2377  0x5C7F8A570d578ED84E63fdFA7b1eE72dEae1AE23 */\n      0x5c7f8a570d578ed84e63fdfa7b1ee72deae1ae23\n        /* \"ARY/SwapPro.sol\":7354:7358  path */\n      dup2\n        /* \"ARY/SwapPro.sol\":7359:7360  1 */\n      0x01\n        /* \"ARY/SwapPro.sol\":7354:7361  path[1] */\n      dup2\n      mload\n      dup2\n      lt\n      tag_325\n      jumpi\n      tag_325\n      tag_161\n      jump\t// in\n    tag_325:\n      0x20\n      mul\n      0x20\n      add\n      add\n        /* \"ARY/SwapPro.sol\":7354:7368  path[1] = WCRO */\n      swap1\n      sub(shl(0xa0, 0x01), 0x01)\n      and\n      swap1\n      dup2\n      sub(shl(0xa0, 0x01), 0x01)\n      and\n      dup2\n      mstore\n      pop\n      pop\n        /* \"ARY/SwapPro.sol\":7393:7400  toToken */\n      dup7\n        /* \"ARY/SwapPro.sol\":7383:7387  path */\n      dup2\n        /* \"ARY/SwapPro.sol\":7388:7389  2 */\n      0x02\n        /* \"ARY/SwapPro.sol\":7383:7390  path[2] */\n      dup2\n      mload\n      dup2\n      lt\n      tag_327\n      jumpi\n      tag_327\n      tag_161\n      jump\t// in\n    tag_327:\n      sub(shl(0xa0, 0x01), 0x01)\n        /* \"ARY/SwapPro.sol\":7383:7400  path[2] = toToken */\n      swap3\n      dup4\n      and\n        /* \"ARY/SwapPro.sol\":7383:7390  path[2] */\n      0x20\n      swap2\n      dup3\n      mul\n      swap3\n      swap1\n      swap3\n      add\n      add\n        /* \"ARY/SwapPro.sol\":7383:7400  path[2] = toToken */\n      mstore\n        /* \"ARY/SwapPro.sol\":7445:7451  router */\n      sload(0x08)\n        /* \"ARY/SwapPro.sol\":7415:7442  uint256[] memory amountsOut */\n      0x00\n      swap2\n        /* \"ARY/SwapPro.sol\":7445:7451  router */\n      and\n        /* \"ARY/SwapPro.sol\":7445:7465  router.getAmountsOut */\n      0xd06ca61f\n        /* \"ARY/SwapPro.sol\":7484:7504  amountIn - feeAmount */\n      tag_328\n        /* \"ARY/SwapPro.sol\":7495:7504  feeAmount */\n      dup8\n        /* \"ARY/SwapPro.sol\":7484:7492  amountIn */\n      dup11\n        /* \"ARY/SwapPro.sol\":7484:7504  amountIn - feeAmount */\n      tag_165\n      jump\t// in\n    tag_328:\n        /* \"ARY/SwapPro.sol\":7523:7527  path */\n      dup5\n        /* \"ARY/SwapPro.sol\":7445:7542  router.getAmountsOut(... */\n      mload(0x40)\n      dup4\n      0xffffffff\n      and\n      0xe0\n      shl\n      dup2\n      mstore\n      0x04\n      add\n      tag_329\n      swap3\n      swap2\n      swap1\n      tag_215\n      jump\t// in\n    tag_329:\n      0x00\n      mload(0x40)\n      dup1\n      dup4\n      sub\n      dup2\n      dup7\n      gas\n      staticcall\n      iszero\n      dup1\n      iszero\n      tag_331\n      jumpi\n      returndatasize\n      0x00\n      dup1\n      returndatacopy\n      revert(0x00, returndatasize)\n    tag_331:\n      pop\n      pop\n      pop\n      pop\n      mload(0x40)\n      returndatasize\n      0x00\n      dup3\n      returndatacopy\n      0x1f\n      returndatasize\n      swap1\n      dup2\n      add\n      not(0x1f)\n      and\n      dup3\n      add\n      0x40\n      mstore\n      tag_332\n      swap2\n      swap1\n      dup2\n      add\n      swap1\n      tag_219\n      jump\t// in\n    tag_332:\n        /* \"ARY/SwapPro.sol\":7415:7542  uint256[] memory amountsOut = router.getAmountsOut(... */\n      swap1\n      pop\n        /* \"ARY/SwapPro.sol\":7569:7579  amountsOut */\n      dup1\n        /* \"ARY/SwapPro.sol\":7580:7581  2 */\n      0x02\n        /* \"ARY/SwapPro.sol\":7569:7582  amountsOut[2] */\n      dup2\n      mload\n      dup2\n      lt\n      tag_334\n      jumpi\n      tag_334\n      tag_161\n      jump\t// in\n    tag_334:\n      0x20\n      mul\n      0x20\n      add\n      add\n      mload\n        /* \"ARY/SwapPro.sol\":7557:7582  amountOut = amountsOut[2] */\n      swap3\n      pop\n        /* \"ARY/SwapPro.sol\":7267:7594  {... */\n      pop\n        /* \"ARY/SwapPro.sol\":6842:7594  if (... */\n    tag_318:\n        /* \"ARY/SwapPro.sol\":7610:7616  router */\n      and(sub(shl(0xa0, 0x01), 0x01), sload(0x08))\n        /* \"ARY/SwapPro.sol\":7610:7670  router.swapExactTokensForTokensSupportingFeeOnTransferTokens */\n      0x5c11d795\n        /* \"ARY/SwapPro.sol\":7689:7709  amountIn - feeAmount */\n      tag_335\n        /* \"ARY/SwapPro.sol\":7700:7709  feeAmount */\n      dup7\n        /* \"ARY/SwapPro.sol\":7689:7697  amountIn */\n      dup10\n        /* \"ARY/SwapPro.sol\":7689:7709  amountIn - feeAmount */\n      tag_165\n      jump\t// in\n    tag_335:\n        /* \"ARY/SwapPro.sol\":7728:7740  amountOutMin */\n      dup8\n        /* \"ARY/SwapPro.sol\":7759:7763  path */\n      dup5\n        /* \"ARY/SwapPro.sol\":7782:7792  msg.sender */\n      caller\n        /* \"ARY/SwapPro.sol\":7811:7836  block.timestamp + 1 hours */\n      tag_336\n        /* \"ARY/SwapPro.sol\":7811:7826  block.timestamp */\n      timestamp\n        /* \"ARY/SwapPro.sol\":7829:7836  1 hours */\n      0x0e10\n        /* \"ARY/SwapPro.sol\":7811:7836  block.timestamp + 1 hours */\n      tag_167\n      jump\t// in\n    tag_336:\n        /* \"ARY/SwapPro.sol\":7610:7851  router.swapExactTokensForTokensSupportingFeeOnTransferTokens(... */\n      mload(0x40)\n      dup7\n      0xffffffff\n      and\n      0xe0\n      shl\n      dup2\n      mstore\n      0x04\n      add\n      tag_337\n      swap6\n      swap5\n      swap4\n      swap3\n      swap2\n      swap1\n      tag_169\n      jump\t// in\n    tag_337:\n      0x00\n      mload(0x40)\n      dup1\n      dup4\n      sub\n      dup2\n      0x00\n      dup8\n      dup1\n      extcodesize\n      iszero\n      dup1\n      iszero\n      tag_338\n      jumpi\n      0x00\n      dup1\n      revert\n    tag_338:\n      pop\n      gas\n      call\n      iszero\n      dup1\n      iszero\n      tag_340\n      jumpi\n      returndatasize\n      0x00\n      dup1\n      returndatacopy\n      revert(0x00, returndatasize)\n    tag_340:\n      pop\n      pop\n      pop\n      pop\n      sub(shl(0xa0, 0x01), 0x01)\n        /* \"ARY/SwapPro.sol\":7883:7897  toToken == ARY */\n      dup8\n      and\n        /* \"ARY/SwapPro.sol\":2414:2456  0x41bc026dABe978bc2FAfeA1850456511ca4B01bc */\n      0x41bc026dabe978bc2fafea1850456511ca4b01bc\n        /* \"ARY/SwapPro.sol\":7883:7897  toToken == ARY */\n      eq\n        /* \"ARY/SwapPro.sol\":7883:7920  toToken == ARY && competition_started */\n      dup1\n      iszero\n      tag_341\n      jumpi\n      pop\n        /* \"ARY/SwapPro.sol\":7901:7920  competition_started */\n      and(0xff, sload(0x03))\n        /* \"ARY/SwapPro.sol\":7883:7920  toToken == ARY && competition_started */\n    tag_341:\n        /* \"ARY/SwapPro.sol\":7864:7992  if (... */\n      iszero\n      tag_343\n      jumpi\n        /* \"ARY/SwapPro.sol\":7948:7980  addVolume(msg.sender, amountOut) */\n      tag_343\n        /* \"ARY/SwapPro.sol\":7958:7968  msg.sender */\n      caller\n        /* \"ARY/SwapPro.sol\":7970:7979  amountOut */\n      dup4\n        /* \"ARY/SwapPro.sol\":7948:7957  addVolume */\n      tag_142\n        /* \"ARY/SwapPro.sol\":7948:7980  addVolume(msg.sender, amountOut) */\n      jump\t// in\n    tag_343:\n        /* \"ARY/SwapPro.sol\":6007:7999  {... */\n      pop\n      pop\n      pop\n      pop\n        /* \"ARY/SwapPro.sol\":5854:7999  function swapTokenForToken(... */\n      pop\n      pop\n      pop\n      pop\n      jump\t// out\n        /* \"ARY/SwapPro.sol\":4576:4666  function startCompetition() public onlyOwner {... */\n    tag_124:\n        /* \"@openzeppelin/contracts/access/Ownable.sol\":1531:1544  _checkOwner() */\n      tag_345\n        /* \"@openzeppelin/contracts/access/Ownable.sol\":1531:1542  _checkOwner */\n      tag_186\n        /* \"@openzeppelin/contracts/access/Ownable.sol\":1531:1544  _checkOwner() */\n      jump\t// in\n    tag_345:\n        /* \"ARY/SwapPro.sol\":4632:4651  competition_started */\n      0x03\n        /* \"ARY/SwapPro.sol\":4632:4658  competition_started = true */\n      dup1\n      sload\n      not(0xff)\n      and\n        /* \"ARY/SwapPro.sol\":4654:4658  true */\n      0x01\n        /* \"ARY/SwapPro.sol\":4632:4658  competition_started = true */\n      or\n      swap1\n      sstore\n        /* \"ARY/SwapPro.sol\":4576:4666  function startCompetition() public onlyOwner {... */\n      jump\t// out\n        /* \"ARY/SwapPro.sol\":2941:2967  address[] public addresses */\n    tag_132:\n      0x06\n      dup2\n      dup2\n      sload\n      dup2\n      lt\n      tag_347\n      jumpi\n      0x00\n      dup1\n      revert\n    tag_347:\n      0x00\n      swap2\n      dup3\n      mstore\n      0x20\n      swap1\n      swap2\n      keccak256\n      add\n      sload\n      sub(shl(0xa0, 0x01), 0x01)\n      and\n      swap1\n      pop\n      dup2\n      jump\t// out\n        /* \"@openzeppelin/contracts/access/Ownable.sol\":2543:2758  function transferOwnership(address newOwner) public virtual onlyOwner {... */\n    tag_137:\n        /* \"@openzeppelin/contracts/access/Ownable.sol\":1531:1544  _checkOwner() */\n      tag_350\n        /* \"@openzeppelin/contracts/access/Ownable.sol\":1531:1542  _checkOwner */\n      tag_186\n        /* \"@openzeppelin/contracts/access/Ownable.sol\":1531:1544  _checkOwner() */\n      jump\t// in\n    tag_350:\n      sub(shl(0xa0, 0x01), 0x01)\n        /* \"@openzeppelin/contracts/access/Ownable.sol\":2627:2649  newOwner == address(0) */\n      dup2\n      and\n        /* \"@openzeppelin/contracts/access/Ownable.sol\":2623:2714  if (newOwner == address(0)) {... */\n      tag_352\n      jumpi\n        /* \"@openzeppelin/contracts/access/Ownable.sol\":2672:2703  OwnableInvalidOwner(address(0)) */\n      mload(0x40)\n      shl(0xe0, 0x1e4fbdf7)\n      dup2\n      mstore\n        /* \"@openzeppelin/contracts/access/Ownable.sol\":2700:2701  0 */\n      0x00\n        /* \"@openzeppelin/contracts/access/Ownable.sol\":2672:2703  OwnableInvalidOwner(address(0)) */\n      0x04\n      dup3\n      add\n        /* \"#utility.yul\":665:716   */\n      mstore\n        /* \"#utility.yul\":638:656   */\n      0x24\n      add\n        /* \"@openzeppelin/contracts/access/Ownable.sol\":2672:2703  OwnableInvalidOwner(address(0)) */\n    tag_353:\n      mload(0x40)\n      dup1\n      swap2\n      sub\n      swap1\n      revert\n        /* \"@openzeppelin/contracts/access/Ownable.sol\":2623:2714  if (newOwner == address(0)) {... */\n    tag_352:\n        /* \"@openzeppelin/contracts/access/Ownable.sol\":2723:2751  _transferOwnership(newOwner) */\n      tag_354\n        /* \"@openzeppelin/contracts/access/Ownable.sol\":2742:2750  newOwner */\n      dup2\n        /* \"@openzeppelin/contracts/access/Ownable.sol\":2723:2741  _transferOwnership */\n      tag_239\n        /* \"@openzeppelin/contracts/access/Ownable.sol\":2723:2751  _transferOwnership(newOwner) */\n      jump\t// in\n    tag_354:\n        /* \"@openzeppelin/contracts/access/Ownable.sol\":2543:2758  function transferOwnership(address newOwner) public virtual onlyOwner {... */\n      pop\n      jump\t// out\n        /* \"ARY/SwapPro.sol\":5541:5805  function addVolume (... */\n    tag_142:\n      sub(shl(0xa0, 0x01), 0x01)\n        /* \"ARY/SwapPro.sol\":5639:5659  isExistAddress[user] */\n      dup3\n      and\n      0x00\n      swap1\n      dup2\n      mstore\n        /* \"ARY/SwapPro.sol\":5639:5653  isExistAddress */\n      0x05\n        /* \"ARY/SwapPro.sol\":5639:5659  isExistAddress[user] */\n      0x20\n      mstore\n      0x40\n      swap1\n      keccak256\n      sload\n      0xff\n      and\n        /* \"ARY/SwapPro.sol\":5635:5750  if(!isExistAddress[user]) {... */\n      tag_356\n      jumpi\n        /* \"ARY/SwapPro.sol\":5676:5685  addresses */\n      0x06\n        /* \"ARY/SwapPro.sol\":5676:5696  addresses.push(user) */\n      dup1\n      sload\n      0x01\n      dup1\n      dup3\n      add\n      swap1\n      swap3\n      sstore\n      0xf652222313e28459528d920b65115c16c04f3efc82aaedc97be59f3f377c0d3f\n      add\n      dup1\n      sload\n      not(sub(shl(0xa0, 0x01), 0x01))\n      and\n      sub(shl(0xa0, 0x01), 0x01)\n      dup6\n      and\n      swap1\n      dup2\n      or\n      swap1\n      swap2\n      sstore\n      0x00\n        /* \"ARY/SwapPro.sol\":5711:5731  isExistAddress[user] */\n      swap1\n      dup2\n      mstore\n        /* \"ARY/SwapPro.sol\":5711:5725  isExistAddress */\n      0x05\n        /* \"ARY/SwapPro.sol\":5676:5696  addresses.push(user) */\n      0x20\n        /* \"ARY/SwapPro.sol\":5711:5731  isExistAddress[user] */\n      mstore\n      0x40\n      swap1\n      keccak256\n        /* \"ARY/SwapPro.sol\":5711:5738  isExistAddress[user] = true */\n      dup1\n      sload\n      not(0xff)\n      and\n      swap1\n      swap2\n      or\n      swap1\n      sstore\n        /* \"ARY/SwapPro.sol\":5635:5750  if(!isExistAddress[user]) {... */\n    tag_356:\n      sub(shl(0xa0, 0x01), 0x01)\n        /* \"ARY/SwapPro.sol\":5771:5787  userVolume[user] */\n      dup3\n      and\n      0x00\n      swap1\n      dup2\n      mstore\n        /* \"ARY/SwapPro.sol\":5771:5781  userVolume */\n      0x04\n        /* \"ARY/SwapPro.sol\":5771:5787  userVolume[user] */\n      0x20\n      mstore\n      0x40\n      dup2\n      keccak256\n        /* \"ARY/SwapPro.sol\":5771:5797  userVolume[user] += volume */\n      dup1\n      sload\n        /* \"ARY/SwapPro.sol\":5791:5797  volume */\n      dup4\n      swap3\n        /* \"ARY/SwapPro.sol\":5771:5787  userVolume[user] */\n      swap1\n        /* \"ARY/SwapPro.sol\":5771:5797  userVolume[user] += volume */\n      tag_358\n      swap1\n        /* \"ARY/SwapPro.sol\":5791:5797  volume */\n      dup5\n      swap1\n        /* \"ARY/SwapPro.sol\":5771:5797  userVolume[user] += volume */\n      tag_167\n      jump\t// in\n    tag_358:\n      swap1\n      swap2\n      sstore\n      pop\n      pop\n      pop\n      pop\n        /* \"ARY/SwapPro.sol\":5541:5805  function addVolume (... */\n      jump\t// out\n        /* \"ARY/SwapPro.sol\":4940:5533  function getFee(address fromToken, uint256 feeAmount) private {... */\n    tag_154:\n        /* \"ARY/SwapPro.sol\":5013:5028  uint256 pathLen */\n      0x00\n      sub(shl(0xa0, 0x01), 0x01)\n        /* \"ARY/SwapPro.sol\":5031:5048  fromToken == WCRO */\n      dup4\n      and\n        /* \"ARY/SwapPro.sol\":2335:2377  0x5C7F8A570d578ED84E63fdFA7b1eE72dEae1AE23 */\n      0x5c7f8a570d578ed84e63fdfa7b1ee72deae1ae23\n        /* \"ARY/SwapPro.sol\":5031:5048  fromToken == WCRO */\n      eq\n        /* \"ARY/SwapPro.sol\":5031:5056  fromToken == WCRO ? 1 : 2 */\n      tag_360\n      jumpi\n        /* \"ARY/SwapPro.sol\":5055:5056  2 */\n      0x02\n        /* \"ARY/SwapPro.sol\":5031:5056  fromToken == WCRO ? 1 : 2 */\n      jump(tag_361)\n    tag_360:\n        /* \"ARY/SwapPro.sol\":5051:5052  1 */\n      0x01\n        /* \"ARY/SwapPro.sol\":5031:5056  fromToken == WCRO ? 1 : 2 */\n    tag_361:\n        /* \"ARY/SwapPro.sol\":5013:5056  uint256 pathLen = fromToken == WCRO ? 1 : 2 */\n      0xff\n      and\n      swap1\n      pop\n        /* \"ARY/SwapPro.sol\":5070:5077  pathLen */\n      dup1\n        /* \"ARY/SwapPro.sol\":5081:5082  1 */\n      0x01\n        /* \"ARY/SwapPro.sol\":5070:5082  pathLen == 1 */\n      sub\n        /* \"ARY/SwapPro.sol\":5067:5526  if(pathLen == 1){... */\n      tag_362\n      jumpi\n        /* \"ARY/SwapPro.sol\":5098:5102  wcro */\n      sload(0x0d)\n      0x01\n        /* \"ARY/SwapPro.sol\":5112:5123  feeReceiver */\n      sload\n        /* \"ARY/SwapPro.sol\":5098:5135  wcro.transfer(feeReceiver, feeAmount) */\n      mload(0x40)\n      shl(0xe0, 0xa9059cbb)\n      dup2\n      mstore\n      sub(shl(0xa0, 0x01), 0x01)\n        /* \"ARY/SwapPro.sol\":5112:5123  feeReceiver */\n      swap2\n      dup3\n      and\n        /* \"ARY/SwapPro.sol\":5098:5135  wcro.transfer(feeReceiver, feeAmount) */\n      0x04\n      dup3\n      add\n        /* \"#utility.yul\":7982:8033   */\n      mstore\n        /* \"#utility.yul\":8049:8067   */\n      0x24\n      dup2\n      add\n        /* \"#utility.yul\":8042:8076   */\n      dup6\n      swap1\n      mstore\n        /* \"ARY/SwapPro.sol\":5098:5102  wcro */\n      swap2\n      and\n      swap1\n        /* \"ARY/SwapPro.sol\":5098:5111  wcro.transfer */\n      0xa9059cbb\n      swap1\n        /* \"#utility.yul\":7955:7973   */\n      0x44\n      add\n        /* \"ARY/SwapPro.sol\":5098:5135  wcro.transfer(feeReceiver, feeAmount) */\n      0x20\n      mload(0x40)\n      dup1\n      dup4\n      sub\n      dup2\n      0x00\n      dup8\n      gas\n      call\n      iszero\n      dup1\n      iszero\n      tag_365\n      jumpi\n      returndatasize\n      0x00\n      dup1\n      returndatacopy\n      revert(0x00, returndatasize)\n    tag_365:\n      pop\n      pop\n      pop\n      pop\n      mload(0x40)\n      returndatasize\n      not(0x1f)\n      0x1f\n      dup3\n      add\n      and\n      dup3\n      add\n      dup1\n      0x40\n      mstore\n      pop\n      dup2\n      add\n      swap1\n      tag_366\n      swap2\n      swap1\n      tag_148\n      jump\t// in\n    tag_366:\n      pop\n        /* \"ARY/SwapPro.sol\":5002:5533  {... */\n      pop\n        /* \"ARY/SwapPro.sol\":4940:5533  function getFee(address fromToken, uint256 feeAmount) private {... */\n      pop\n      pop\n      jump\t// out\n        /* \"ARY/SwapPro.sol\":5067:5526  if(pathLen == 1){... */\n    tag_362:\n        /* \"ARY/SwapPro.sol\":5168:5189  address[] memory path */\n      0x00\n        /* \"ARY/SwapPro.sol\":5206:5213  pathLen */\n      dup2\n        /* \"ARY/SwapPro.sol\":5192:5214  new address[](pathLen) */\n      0xffffffffffffffff\n      dup2\n      gt\n      iszero\n      tag_369\n      jumpi\n      tag_369\n      tag_157\n      jump\t// in\n    tag_369:\n      mload(0x40)\n      swap1\n      dup1\n      dup3\n      mstore\n      dup1\n      0x20\n      mul\n      0x20\n      add\n      dup3\n      add\n      0x40\n      mstore\n      dup1\n      iszero\n      tag_370\n      jumpi\n      dup2\n      0x20\n      add\n      0x20\n      dup3\n      mul\n      dup1\n      calldatasize\n      dup4\n      calldatacopy\n      add\n      swap1\n      pop\n    tag_370:\n      pop\n        /* \"ARY/SwapPro.sol\":5168:5214  address[] memory path = new address[](pathLen) */\n      swap1\n      pop\n        /* \"ARY/SwapPro.sol\":5239:5248  fromToken */\n      dup4\n        /* \"ARY/SwapPro.sol\":5229:5233  path */\n      dup2\n        /* \"ARY/SwapPro.sol\":5234:5235  0 */\n      0x00\n        /* \"ARY/SwapPro.sol\":5229:5236  path[0] */\n      dup2\n      mload\n      dup2\n      lt\n      tag_372\n      jumpi\n      tag_372\n      tag_161\n      jump\t// in\n    tag_372:\n      0x20\n      mul\n      0x20\n      add\n      add\n        /* \"ARY/SwapPro.sol\":5229:5248  path[0] = fromToken */\n      swap1\n      sub(shl(0xa0, 0x01), 0x01)\n      and\n      swap1\n      dup2\n      sub(shl(0xa0, 0x01), 0x01)\n      and\n      dup2\n      mstore\n      pop\n      pop\n        /* \"ARY/SwapPro.sol\":2335:2377  0x5C7F8A570d578ED84E63fdFA7b1eE72dEae1AE23 */\n      0x5c7f8a570d578ed84e63fdfa7b1ee72deae1ae23\n        /* \"ARY/SwapPro.sol\":5263:5267  path */\n      dup2\n        /* \"ARY/SwapPro.sol\":5268:5269  1 */\n      0x01\n        /* \"ARY/SwapPro.sol\":5263:5270  path[1] */\n      dup2\n      mload\n      dup2\n      lt\n      tag_374\n      jumpi\n      tag_374\n      tag_161\n      jump\t// in\n    tag_374:\n      sub(shl(0xa0, 0x01), 0x01)\n        /* \"ARY/SwapPro.sol\":5263:5277  path[1] = WCRO */\n      swap3\n      dup4\n      and\n        /* \"ARY/SwapPro.sol\":5263:5270  path[1] */\n      0x20\n      swap2\n      dup3\n      mul\n      swap3\n      swap1\n      swap3\n      add\n      add\n        /* \"ARY/SwapPro.sol\":5263:5277  path[1] = WCRO */\n      mstore\n        /* \"ARY/SwapPro.sol\":5294:5300  router */\n      sload(0x08)\n      0x01\n        /* \"ARY/SwapPro.sol\":5444:5455  feeReceiver */\n      sload\n        /* \"ARY/SwapPro.sol\":5294:5300  router */\n      swap1\n      dup3\n      and\n      swap2\n        /* \"ARY/SwapPro.sol\":5294:5354  router.swapExactTokensForTokensSupportingFeeOnTransferTokens */\n      0x5c11d795\n      swap2\n        /* \"ARY/SwapPro.sol\":5373:5382  feeAmount */\n      dup7\n      swap2\n        /* \"ARY/SwapPro.sol\":5294:5300  router */\n      0x00\n      swap2\n        /* \"ARY/SwapPro.sol\":5421:5425  path */\n      dup7\n      swap2\n        /* \"ARY/SwapPro.sol\":5444:5455  feeReceiver */\n      and\n        /* \"ARY/SwapPro.sol\":5474:5499  block.timestamp + 1 hours */\n      tag_375\n        /* \"ARY/SwapPro.sol\":5474:5489  block.timestamp */\n      timestamp\n        /* \"ARY/SwapPro.sol\":5492:5499  1 hours */\n      0x0e10\n        /* \"ARY/SwapPro.sol\":5474:5499  block.timestamp + 1 hours */\n      tag_167\n      jump\t// in\n    tag_375:\n        /* \"ARY/SwapPro.sol\":5294:5514  router.swapExactTokensForTokensSupportingFeeOnTransferTokens(... */\n      mload(0x40)\n      dup7\n      0xffffffff\n      and\n      0xe0\n      shl\n      dup2\n      mstore\n      0x04\n      add\n      tag_376\n      swap6\n      swap5\n      swap4\n      swap3\n      swap2\n      swap1\n      tag_169\n      jump\t// in\n    tag_376:\n      0x00\n      mload(0x40)\n      dup1\n      dup4\n      sub\n      dup2\n      0x00\n      dup8\n      dup1\n      extcodesize\n      iszero\n      dup1\n      iszero\n      tag_378\n      jumpi\n      0x00\n      dup1\n      revert\n    tag_378:\n      pop\n      gas\n      call\n      iszero\n      dup1\n      iszero\n      tag_343\n      jumpi\n      returndatasize\n      0x00\n      dup1\n      returndatacopy\n      revert(0x00, returndatasize)\n        /* \"@openzeppelin/contracts/access/Ownable.sol\":1796:1958  function _checkOwner() internal view virtual {... */\n    tag_186:\n        /* \"@openzeppelin/contracts/access/Ownable.sol\":1684:1691  address */\n      0x00\n        /* \"@openzeppelin/contracts/access/Ownable.sol\":1710:1716  _owner */\n      sload\n      sub(shl(0xa0, 0x01), 0x01)\n      and\n        /* \"@openzeppelin/contracts/utils/Context.sol\":735:745  msg.sender */\n      caller\n        /* \"@openzeppelin/contracts/access/Ownable.sol\":1855:1878  owner() != _msgSender() */\n      eq\n        /* \"@openzeppelin/contracts/access/Ownable.sol\":1851:1952  if (owner() != _msgSender()) {... */\n      tag_238\n      jumpi\n        /* \"@openzeppelin/contracts/access/Ownable.sol\":1901:1941  OwnableUnauthorizedAccount(_msgSender()) */\n      mload(0x40)\n      shl(0xe0, 0x118cdaa7)\n      dup2\n      mstore\n        /* \"@openzeppelin/contracts/utils/Context.sol\":735:745  msg.sender */\n      caller\n        /* \"@openzeppelin/contracts/access/Ownable.sol\":1901:1941  OwnableUnauthorizedAccount(_msgSender()) */\n      0x04\n      dup3\n      add\n        /* \"#utility.yul\":665:716   */\n      mstore\n        /* \"#utility.yul\":638:656   */\n      0x24\n      add\n        /* \"@openzeppelin/contracts/access/Ownable.sol\":1901:1941  OwnableUnauthorizedAccount(_msgSender()) */\n      tag_353\n        /* \"#utility.yul\":519:722   */\n      jump\n        /* \"@openzeppelin/contracts/access/Ownable.sol\":2912:3099  function _transferOwnership(address newOwner) internal virtual {... */\n    tag_239:\n        /* \"@openzeppelin/contracts/access/Ownable.sol\":2985:3001  address oldOwner */\n      0x00\n        /* \"@openzeppelin/contracts/access/Ownable.sol\":3004:3010  _owner */\n      dup1\n      sload\n      sub(shl(0xa0, 0x01), 0x01)\n        /* \"@openzeppelin/contracts/access/Ownable.sol\":3020:3037  _owner = newOwner */\n      dup4\n      dup2\n      and\n      not(sub(shl(0xa0, 0x01), 0x01))\n      dup4\n      and\n      dup2\n      or\n      dup5\n      sstore\n        /* \"@openzeppelin/contracts/access/Ownable.sol\":3052:3092  OwnershipTransferred(oldOwner, newOwner) */\n      mload(0x40)\n        /* \"@openzeppelin/contracts/access/Ownable.sol\":3004:3010  _owner */\n      swap2\n      swap1\n      swap3\n      and\n      swap3\n      dup4\n      swap2\n        /* \"@openzeppelin/contracts/access/Ownable.sol\":3052:3092  OwnershipTransferred(oldOwner, newOwner) */\n      0x8be0079c531659141344cd1fd0a4f28419497f9722a3daafe3b4186f6b6457e0\n      swap2\n        /* \"@openzeppelin/contracts/access/Ownable.sol\":2985:3001  address oldOwner */\n      swap1\n        /* \"@openzeppelin/contracts/access/Ownable.sol\":3052:3092  OwnershipTransferred(oldOwner, newOwner) */\n      log3\n        /* \"@openzeppelin/contracts/access/Ownable.sol\":2975:3099  {... */\n      pop\n        /* \"@openzeppelin/contracts/access/Ownable.sol\":2912:3099  function _transferOwnership(address newOwner) internal virtual {... */\n      pop\n      jump\t// out\n    tag_200:\n      pop\n      dup1\n      sload\n      0x00\n      dup3\n      sstore\n      swap1\n      0x00\n      mstore\n      keccak256(0x00, 0x20)\n      swap1\n      dup2\n      add\n      swap1\n      tag_354\n      swap2\n      swap1\n    tag_393:\n      dup1\n      dup3\n      gt\n      iszero\n      tag_394\n      jumpi\n      0x00\n      dup2\n      sstore\n      0x01\n      add\n      jump(tag_393)\n    tag_394:\n      pop\n      swap1\n      jump\t// out\n        /* \"#utility.yul\":14:187   */\n    tag_395:\n        /* \"#utility.yul\":82:102   */\n      dup1\n      calldataload\n      sub(shl(0xa0, 0x01), 0x01)\n        /* \"#utility.yul\":131:162   */\n      dup2\n      and\n        /* \"#utility.yul\":121:163   */\n      dup2\n      eq\n        /* \"#utility.yul\":111:181   */\n      tag_400\n      jumpi\n        /* \"#utility.yul\":177:178   */\n      0x00\n        /* \"#utility.yul\":174:175   */\n      dup1\n        /* \"#utility.yul\":167:179   */\n      revert\n        /* \"#utility.yul\":111:181   */\n    tag_400:\n        /* \"#utility.yul\":14:187   */\n      swap2\n      swap1\n      pop\n      jump\t// out\n        /* \"#utility.yul\":192:514   */\n    tag_37:\n        /* \"#utility.yul\":269:275   */\n      0x00\n        /* \"#utility.yul\":277:283   */\n      dup1\n        /* \"#utility.yul\":285:291   */\n      0x00\n        /* \"#utility.yul\":338:340   */\n      0x60\n        /* \"#utility.yul\":326:335   */\n      dup5\n        /* \"#utility.yul\":317:324   */\n      dup7\n        /* \"#utility.yul\":313:336   */\n      sub\n        /* \"#utility.yul\":309:341   */\n      slt\n        /* \"#utility.yul\":306:358   */\n      iszero\n      tag_402\n      jumpi\n        /* \"#utility.yul\":354:355   */\n      0x00\n        /* \"#utility.yul\":351:352   */\n      dup1\n        /* \"#utility.yul\":344:356   */\n      revert\n        /* \"#utility.yul\":306:358   */\n    tag_402:\n        /* \"#utility.yul\":377:406   */\n      tag_403\n        /* \"#utility.yul\":396:405   */\n      dup5\n        /* \"#utility.yul\":377:406   */\n      tag_395\n      jump\t// in\n    tag_403:\n        /* \"#utility.yul\":367:406   */\n      swap6\n        /* \"#utility.yul\":453:455   */\n      0x20\n        /* \"#utility.yul\":438:456   */\n      dup6\n      add\n        /* \"#utility.yul\":425:457   */\n      calldataload\n      swap6\n      pop\n        /* \"#utility.yul\":504:506   */\n      0x40\n        /* \"#utility.yul\":489:507   */\n      swap1\n      swap5\n      add\n        /* \"#utility.yul\":476:508   */\n      calldataload\n      swap4\n        /* \"#utility.yul\":192:514   */\n      swap3\n      pop\n      pop\n      pop\n      jump\t// out\n        /* \"#utility.yul\":727:907   */\n    tag_47:\n        /* \"#utility.yul\":786:792   */\n      0x00\n        /* \"#utility.yul\":839:841   */\n      0x20\n        /* \"#utility.yul\":827:836   */\n      dup3\n        /* \"#utility.yul\":818:825   */\n      dup5\n        /* \"#utility.yul\":814:837   */\n      sub\n        /* \"#utility.yul\":810:842   */\n      slt\n        /* \"#utility.yul\":807:859   */\n      iszero\n      tag_406\n      jumpi\n        /* \"#utility.yul\":855:856   */\n      0x00\n        /* \"#utility.yul\":852:853   */\n      dup1\n        /* \"#utility.yul\":845:857   */\n      revert\n        /* \"#utility.yul\":807:859   */\n    tag_406:\n      pop\n        /* \"#utility.yul\":878:901   */\n      calldataload\n      swap2\n        /* \"#utility.yul\":727:907   */\n      swap1\n      pop\n      jump\t// out\n        /* \"#utility.yul\":912:1166   */\n    tag_52:\n        /* \"#utility.yul\":980:986   */\n      0x00\n        /* \"#utility.yul\":988:994   */\n      dup1\n        /* \"#utility.yul\":1041:1043   */\n      0x40\n        /* \"#utility.yul\":1029:1038   */\n      dup4\n        /* \"#utility.yul\":1020:1027   */\n      dup6\n        /* \"#utility.yul\":1016:1039   */\n      sub\n        /* \"#utility.yul\":1012:1044   */\n      slt\n        /* \"#utility.yul\":1009:1061   */\n      iszero\n      tag_408\n      jumpi\n        /* \"#utility.yul\":1057:1058   */\n      0x00\n        /* \"#utility.yul\":1054:1055   */\n      dup1\n        /* \"#utility.yul\":1047:1059   */\n      revert\n        /* \"#utility.yul\":1009:1061   */\n    tag_408:\n        /* \"#utility.yul\":1080:1109   */\n      tag_409\n        /* \"#utility.yul\":1099:1108   */\n      dup4\n        /* \"#utility.yul\":1080:1109   */\n      tag_395\n      jump\t// in\n    tag_409:\n        /* \"#utility.yul\":1070:1109   */\n      swap5\n        /* \"#utility.yul\":1156:1158   */\n      0x20\n        /* \"#utility.yul\":1141:1159   */\n      swap4\n      swap1\n      swap4\n      add\n        /* \"#utility.yul\":1128:1160   */\n      calldataload\n      swap4\n      pop\n      pop\n      pop\n        /* \"#utility.yul\":912:1166   */\n      jump\t// out\n        /* \"#utility.yul\":1353:1539   */\n    tag_90:\n        /* \"#utility.yul\":1412:1418   */\n      0x00\n        /* \"#utility.yul\":1465:1467   */\n      0x20\n        /* \"#utility.yul\":1453:1462   */\n      dup3\n        /* \"#utility.yul\":1444:1451   */\n      dup5\n        /* \"#utility.yul\":1440:1463   */\n      sub\n        /* \"#utility.yul\":1436:1468   */\n      slt\n        /* \"#utility.yul\":1433:1485   */\n      iszero\n      tag_412\n      jumpi\n        /* \"#utility.yul\":1481:1482   */\n      0x00\n        /* \"#utility.yul\":1478:1479   */\n      dup1\n        /* \"#utility.yul\":1471:1483   */\n      revert\n        /* \"#utility.yul\":1433:1485   */\n    tag_412:\n        /* \"#utility.yul\":1504:1533   */\n      tag_413\n        /* \"#utility.yul\":1523:1532   */\n      dup3\n        /* \"#utility.yul\":1504:1533   */\n      tag_395\n      jump\t// in\n    tag_413:\n        /* \"#utility.yul\":1494:1533   */\n      swap4\n        /* \"#utility.yul\":1353:1539   */\n      swap3\n      pop\n      pop\n      pop\n      jump\t// out\n        /* \"#utility.yul\":1736:2546   */\n    tag_102:\n        /* \"#utility.yul\":1953:1955   */\n      0x20\n        /* \"#utility.yul\":2005:2026   */\n      dup1\n      dup3\n      mstore\n        /* \"#utility.yul\":2075:2088   */\n      dup3\n      mload\n        /* \"#utility.yul\":1978:1996   */\n      dup3\n      dup3\n      add\n        /* \"#utility.yul\":2097:2119   */\n      dup2\n      swap1\n      mstore\n        /* \"#utility.yul\":1924:1928   */\n      0x00\n      swap2\n        /* \"#utility.yul\":1953:1955   */\n      swap1\n        /* \"#utility.yul\":2138:2140   */\n      0x40\n      swap1\n        /* \"#utility.yul\":2156:2174   */\n      dup2\n      dup6\n      add\n      swap1\n        /* \"#utility.yul\":2197:2212   */\n      dup7\n      dup5\n      add\n        /* \"#utility.yul\":1924:1928   */\n      dup6\n        /* \"#utility.yul\":2240:2520   */\n    tag_416:\n        /* \"#utility.yul\":2254:2260   */\n      dup3\n        /* \"#utility.yul\":2251:2252   */\n      dup2\n        /* \"#utility.yul\":2248:2261   */\n      lt\n        /* \"#utility.yul\":2240:2520   */\n      iszero\n      tag_418\n      jumpi\n        /* \"#utility.yul\":2313:2326   */\n      dup2\n      mload\n        /* \"#utility.yul\":2355:2364   */\n      dup1\n      mload\n      sub(shl(0xa0, 0x01), 0x01)\n        /* \"#utility.yul\":2351:2386   */\n      and\n        /* \"#utility.yul\":2339:2387   */\n      dup6\n      mstore\n        /* \"#utility.yul\":2427:2438   */\n      dup7\n      add\n        /* \"#utility.yul\":2421:2439   */\n      mload\n        /* \"#utility.yul\":2407:2419   */\n      dup7\n      dup6\n      add\n        /* \"#utility.yul\":2400:2440   */\n      mstore\n        /* \"#utility.yul\":2460:2472   */\n      swap3\n      dup5\n      add\n      swap3\n        /* \"#utility.yul\":2495:2510   */\n      swap1\n      dup6\n      add\n      swap1\n        /* \"#utility.yul\":2383:2384   */\n      0x01\n        /* \"#utility.yul\":2269:2278   */\n      add\n        /* \"#utility.yul\":2240:2520   */\n      jump(tag_416)\n    tag_418:\n      pop\n        /* \"#utility.yul\":2537:2540   */\n      swap2\n      swap8\n        /* \"#utility.yul\":1736:2546   */\n      swap7\n      pop\n      pop\n      pop\n      pop\n      pop\n      pop\n      pop\n      jump\t// out\n        /* \"#utility.yul\":2551:2948   */\n    tag_120:\n        /* \"#utility.yul\":2637:2643   */\n      0x00\n        /* \"#utility.yul\":2645:2651   */\n      dup1\n        /* \"#utility.yul\":2653:2659   */\n      0x00\n        /* \"#utility.yul\":2661:2667   */\n      dup1\n        /* \"#utility.yul\":2714:2717   */\n      0x80\n        /* \"#utility.yul\":2702:2711   */\n      dup6\n        /* \"#utility.yul\":2693:2700   */\n      dup8\n        /* \"#utility.yul\":2689:2712   */\n      sub\n        /* \"#utility.yul\":2685:2718   */\n      slt\n        /* \"#utility.yul\":2682:2735   */\n      iszero\n      tag_420\n      jumpi\n        /* \"#utility.yul\":2731:2732   */\n      0x00\n        /* \"#utility.yul\":2728:2729   */\n      dup1\n        /* \"#utility.yul\":2721:2733   */\n      revert\n        /* \"#utility.yul\":2682:2735   */\n    tag_420:\n        /* \"#utility.yul\":2754:2783   */\n      tag_421\n        /* \"#utility.yul\":2773:2782   */\n      dup6\n        /* \"#utility.yul\":2754:2783   */\n      tag_395\n      jump\t// in\n    tag_421:\n        /* \"#utility.yul\":2744:2783   */\n      swap4\n      pop\n        /* \"#utility.yul\":2802:2840   */\n      tag_422\n        /* \"#utility.yul\":2836:2838   */\n      0x20\n        /* \"#utility.yul\":2825:2834   */\n      dup7\n        /* \"#utility.yul\":2821:2839   */\n      add\n        /* \"#utility.yul\":2802:2840   */\n      tag_395\n      jump\t// in\n    tag_422:\n        /* \"#utility.yul\":2551:2948   */\n      swap4\n      swap7\n        /* \"#utility.yul\":2792:2840   */\n      swap4\n      swap6\n      pop\n      pop\n      pop\n      pop\n        /* \"#utility.yul\":2887:2889   */\n      0x40\n        /* \"#utility.yul\":2872:2890   */\n      dup3\n      add\n        /* \"#utility.yul\":2859:2891   */\n      calldataload\n      swap2\n        /* \"#utility.yul\":2938:2940   */\n      0x60\n        /* \"#utility.yul\":2923:2941   */\n      add\n        /* \"#utility.yul\":2910:2942   */\n      calldataload\n      swap1\n        /* \"#utility.yul\":2551:2948   */\n      jump\t// out\n        /* \"#utility.yul\":3333:3610   */\n    tag_148:\n        /* \"#utility.yul\":3400:3406   */\n      0x00\n        /* \"#utility.yul\":3453:3455   */\n      0x20\n        /* \"#utility.yul\":3441:3450   */\n      dup3\n        /* \"#utility.yul\":3432:3439   */\n      dup5\n        /* \"#utility.yul\":3428:3451   */\n      sub\n        /* \"#utility.yul\":3424:3456   */\n      slt\n        /* \"#utility.yul\":3421:3473   */\n      iszero\n      tag_425\n      jumpi\n        /* \"#utility.yul\":3469:3470   */\n      0x00\n        /* \"#utility.yul\":3466:3467   */\n      dup1\n        /* \"#utility.yul\":3459:3471   */\n      revert\n        /* \"#utility.yul\":3421:3473   */\n    tag_425:\n        /* \"#utility.yul\":3501:3510   */\n      dup2\n        /* \"#utility.yul\":3495:3511   */\n      mload\n        /* \"#utility.yul\":3554:3559   */\n      dup1\n        /* \"#utility.yul\":3547:3560   */\n      iszero\n        /* \"#utility.yul\":3540:3561   */\n      iszero\n        /* \"#utility.yul\":3533:3538   */\n      dup2\n        /* \"#utility.yul\":3530:3562   */\n      eq\n        /* \"#utility.yul\":3520:3580   */\n      tag_413\n      jumpi\n        /* \"#utility.yul\":3576:3577   */\n      0x00\n        /* \"#utility.yul\":3573:3574   */\n      dup1\n        /* \"#utility.yul\":3566:3578   */\n      revert\n        /* \"#utility.yul\":3615:3742   */\n    tag_396:\n        /* \"#utility.yul\":3676:3686   */\n      0x4e487b71\n        /* \"#utility.yul\":3671:3674   */\n      0xe0\n        /* \"#utility.yul\":3667:3687   */\n      shl\n        /* \"#utility.yul\":3664:3665   */\n      0x00\n        /* \"#utility.yul\":3657:3688   */\n      mstore\n        /* \"#utility.yul\":3707:3711   */\n      0x11\n        /* \"#utility.yul\":3704:3705   */\n      0x04\n        /* \"#utility.yul\":3697:3712   */\n      mstore\n        /* \"#utility.yul\":3731:3735   */\n      0x24\n        /* \"#utility.yul\":3728:3729   */\n      0x00\n        /* \"#utility.yul\":3721:3736   */\n      revert\n        /* \"#utility.yul\":3747:3915   */\n    tag_150:\n        /* \"#utility.yul\":3820:3829   */\n      dup1\n      dup3\n      mul\n        /* \"#utility.yul\":3851:3860   */\n      dup2\n      iszero\n        /* \"#utility.yul\":3868:3883   */\n      dup3\n      dup3\n      div\n        /* \"#utility.yul\":3862:3884   */\n      dup5\n      eq\n        /* \"#utility.yul\":3848:3885   */\n      or\n        /* \"#utility.yul\":3838:3909   */\n      tag_430\n      jumpi\n        /* \"#utility.yul\":3889:3907   */\n      tag_430\n      tag_396\n      jump\t// in\n    tag_430:\n        /* \"#utility.yul\":3747:3915   */\n      swap3\n      swap2\n      pop\n      pop\n      jump\t// out\n        /* \"#utility.yul\":3920:4137   */\n    tag_152:\n        /* \"#utility.yul\":3960:3961   */\n      0x00\n        /* \"#utility.yul\":3986:3987   */\n      dup3\n        /* \"#utility.yul\":3976:4108   */\n      tag_432\n      jumpi\n        /* \"#utility.yul\":4030:4040   */\n      0x4e487b71\n        /* \"#utility.yul\":4025:4028   */\n      0xe0\n        /* \"#utility.yul\":4021:4041   */\n      shl\n        /* \"#utility.yul\":4018:4019   */\n      0x00\n        /* \"#utility.yul\":4011:4042   */\n      mstore\n        /* \"#utility.yul\":4065:4069   */\n      0x12\n        /* \"#utility.yul\":4062:4063   */\n      0x04\n        /* \"#utility.yul\":4055:4070   */\n      mstore\n        /* \"#utility.yul\":4093:4097   */\n      0x24\n        /* \"#utility.yul\":4090:4091   */\n      0x00\n        /* \"#utility.yul\":4083:4098   */\n      revert\n        /* \"#utility.yul\":3976:4108   */\n    tag_432:\n      pop\n        /* \"#utility.yul\":4122:4131   */\n      div\n      swap1\n        /* \"#utility.yul\":3920:4137   */\n      jump\t// out\n        /* \"#utility.yul\":4142:4269   */\n    tag_157:\n        /* \"#utility.yul\":4203:4213   */\n      0x4e487b71\n        /* \"#utility.yul\":4198:4201   */\n      0xe0\n        /* \"#utility.yul\":4194:4214   */\n      shl\n        /* \"#utility.yul\":4191:4192   */\n      0x00\n        /* \"#utility.yul\":4184:4215   */\n      mstore\n        /* \"#utility.yul\":4234:4238   */\n      0x41\n        /* \"#utility.yul\":4231:4232   */\n      0x04\n        /* \"#utility.yul\":4224:4239   */\n      mstore\n        /* \"#utility.yul\":4258:4262   */\n      0x24\n        /* \"#utility.yul\":4255:4256   */\n      0x00\n        /* \"#utility.yul\":4248:4263   */\n      revert\n        /* \"#utility.yul\":4274:4401   */\n    tag_161:\n        /* \"#utility.yul\":4335:4345   */\n      0x4e487b71\n        /* \"#utility.yul\":4330:4333   */\n      0xe0\n        /* \"#utility.yul\":4326:4346   */\n      shl\n        /* \"#utility.yul\":4323:4324   */\n      0x00\n        /* \"#utility.yul\":4316:4347   */\n      mstore\n        /* \"#utility.yul\":4366:4370   */\n      0x32\n        /* \"#utility.yul\":4363:4364   */\n      0x04\n        /* \"#utility.yul\":4356:4371   */\n      mstore\n        /* \"#utility.yul\":4390:4394   */\n      0x24\n        /* \"#utility.yul\":4387:4388   */\n      0x00\n        /* \"#utility.yul\":4380:4395   */\n      revert\n        /* \"#utility.yul\":4406:4534   */\n    tag_165:\n        /* \"#utility.yul\":4473:4482   */\n      dup2\n      dup2\n      sub\n        /* \"#utility.yul\":4494:4505   */\n      dup2\n      dup2\n      gt\n        /* \"#utility.yul\":4491:4528   */\n      iszero\n      tag_430\n      jumpi\n        /* \"#utility.yul\":4508:4526   */\n      tag_430\n      tag_396\n      jump\t// in\n        /* \"#utility.yul\":4539:4664   */\n    tag_167:\n        /* \"#utility.yul\":4604:4613   */\n      dup1\n      dup3\n      add\n        /* \"#utility.yul\":4625:4635   */\n      dup1\n      dup3\n      gt\n        /* \"#utility.yul\":4622:4658   */\n      iszero\n      tag_430\n      jumpi\n        /* \"#utility.yul\":4638:4656   */\n      tag_430\n      tag_396\n      jump\t// in\n        /* \"#utility.yul\":4669:5130   */\n    tag_397:\n        /* \"#utility.yul\":4722:4725   */\n      0x00\n        /* \"#utility.yul\":4760:4765   */\n      dup2\n        /* \"#utility.yul\":4754:4766   */\n      mload\n        /* \"#utility.yul\":4787:4793   */\n      dup1\n        /* \"#utility.yul\":4782:4785   */\n      dup5\n        /* \"#utility.yul\":4775:4794   */\n      mstore\n        /* \"#utility.yul\":4813:4817   */\n      0x20\n        /* \"#utility.yul\":4842:4844   */\n      dup1\n        /* \"#utility.yul\":4837:4840   */\n      dup6\n        /* \"#utility.yul\":4833:4845   */\n      add\n        /* \"#utility.yul\":4826:4845   */\n      swap5\n      pop\n        /* \"#utility.yul\":4879:4881   */\n      dup1\n        /* \"#utility.yul\":4872:4877   */\n      dup5\n        /* \"#utility.yul\":4868:4882   */\n      add\n        /* \"#utility.yul\":4900:4901   */\n      0x00\n        /* \"#utility.yul\":4910:5105   */\n    tag_442:\n        /* \"#utility.yul\":4924:4930   */\n      dup4\n        /* \"#utility.yul\":4921:4922   */\n      dup2\n        /* \"#utility.yul\":4918:4931   */\n      lt\n        /* \"#utility.yul\":4910:5105   */\n      iszero\n      tag_444\n      jumpi\n        /* \"#utility.yul\":4989:5002   */\n      dup2\n      mload\n      sub(shl(0xa0, 0x01), 0x01)\n        /* \"#utility.yul\":4985:5024   */\n      and\n        /* \"#utility.yul\":4973:5025   */\n      dup8\n      mstore\n        /* \"#utility.yul\":5045:5057   */\n      swap6\n      dup3\n      add\n      swap6\n        /* \"#utility.yul\":5080:5095   */\n      swap1\n      dup3\n      add\n      swap1\n        /* \"#utility.yul\":5021:5022   */\n      0x01\n        /* \"#utility.yul\":4939:4948   */\n      add\n        /* \"#utility.yul\":4910:5105   */\n      jump(tag_442)\n    tag_444:\n      pop\n        /* \"#utility.yul\":5121:5124   */\n      swap5\n      swap6\n        /* \"#utility.yul\":4669:5130   */\n      swap5\n      pop\n      pop\n      pop\n      pop\n      pop\n      jump\t// out\n        /* \"#utility.yul\":5135:5709   */\n    tag_169:\n        /* \"#utility.yul\":5426:5432   */\n      dup6\n        /* \"#utility.yul\":5415:5424   */\n      dup2\n        /* \"#utility.yul\":5408:5433   */\n      mstore\n        /* \"#utility.yul\":5469:5475   */\n      dup5\n        /* \"#utility.yul\":5464:5466   */\n      0x20\n        /* \"#utility.yul\":5453:5462   */\n      dup3\n        /* \"#utility.yul\":5449:5467   */\n      add\n        /* \"#utility.yul\":5442:5476   */\n      mstore\n        /* \"#utility.yul\":5512:5515   */\n      0xa0\n        /* \"#utility.yul\":5507:5509   */\n      0x40\n        /* \"#utility.yul\":5496:5505   */\n      dup3\n        /* \"#utility.yul\":5492:5510   */\n      add\n        /* \"#utility.yul\":5485:5516   */\n      mstore\n        /* \"#utility.yul\":5389:5393   */\n      0x00\n        /* \"#utility.yul\":5533:5590   */\n      tag_446\n        /* \"#utility.yul\":5585:5588   */\n      0xa0\n        /* \"#utility.yul\":5574:5583   */\n      dup4\n        /* \"#utility.yul\":5570:5589   */\n      add\n        /* \"#utility.yul\":5562:5568   */\n      dup7\n        /* \"#utility.yul\":5533:5590   */\n      tag_397\n      jump\t// in\n    tag_446:\n      sub(shl(0xa0, 0x01), 0x01)\n        /* \"#utility.yul\":5626:5658   */\n      swap5\n      swap1\n      swap5\n      and\n        /* \"#utility.yul\":5621:5623   */\n      0x60\n        /* \"#utility.yul\":5606:5624   */\n      dup4\n      add\n        /* \"#utility.yul\":5599:5659   */\n      mstore\n      pop\n        /* \"#utility.yul\":5690:5693   */\n      0x80\n        /* \"#utility.yul\":5675:5694   */\n      add\n        /* \"#utility.yul\":5668:5703   */\n      mstore\n        /* \"#utility.yul\":5525:5590   */\n      swap4\n        /* \"#utility.yul\":5135:5709   */\n      swap3\n      pop\n      pop\n      pop\n      jump\t// out\n        /* \"#utility.yul\":5714:5849   */\n    tag_198:\n        /* \"#utility.yul\":5753:5756   */\n      0x00\n        /* \"#utility.yul\":5774:5791   */\n      0x01\n      dup3\n      add\n        /* \"#utility.yul\":5771:5814   */\n      tag_449\n      jumpi\n        /* \"#utility.yul\":5794:5812   */\n      tag_449\n      tag_396\n      jump\t// in\n    tag_449:\n      pop\n        /* \"#utility.yul\":5841:5842   */\n      0x01\n        /* \"#utility.yul\":5830:5843   */\n      add\n      swap1\n        /* \"#utility.yul\":5714:5849   */\n      jump\t// out\n        /* \"#utility.yul\":5854:6186   */\n    tag_215:\n        /* \"#utility.yul\":6061:6067   */\n      dup3\n        /* \"#utility.yul\":6050:6059   */\n      dup2\n        /* \"#utility.yul\":6043:6068   */\n      mstore\n        /* \"#utility.yul\":6104:6106   */\n      0x40\n        /* \"#utility.yul\":6099:6101   */\n      0x20\n        /* \"#utility.yul\":6088:6097   */\n      dup3\n        /* \"#utility.yul\":6084:6102   */\n      add\n        /* \"#utility.yul\":6077:6107   */\n      mstore\n        /* \"#utility.yul\":6024:6028   */\n      0x00\n        /* \"#utility.yul\":6124:6180   */\n      tag_451\n        /* \"#utility.yul\":6176:6178   */\n      0x40\n        /* \"#utility.yul\":6165:6174   */\n      dup4\n        /* \"#utility.yul\":6161:6179   */\n      add\n        /* \"#utility.yul\":6153:6159   */\n      dup5\n        /* \"#utility.yul\":6124:6180   */\n      tag_397\n      jump\t// in\n    tag_451:\n        /* \"#utility.yul\":6116:6180   */\n      swap5\n        /* \"#utility.yul\":5854:6186   */\n      swap4\n      pop\n      pop\n      pop\n      pop\n      jump\t// out\n        /* \"#utility.yul\":6191:7296   */\n    tag_219:\n        /* \"#utility.yul\":6286:6292   */\n      0x00\n        /* \"#utility.yul\":6317:6319   */\n      0x20\n        /* \"#utility.yul\":6360:6362   */\n      dup1\n        /* \"#utility.yul\":6348:6357   */\n      dup4\n        /* \"#utility.yul\":6339:6346   */\n      dup6\n        /* \"#utility.yul\":6335:6358   */\n      sub\n        /* \"#utility.yul\":6331:6363   */\n      slt\n        /* \"#utility.yul\":6328:6380   */\n      iszero\n      tag_453\n      jumpi\n        /* \"#utility.yul\":6376:6377   */\n      0x00\n        /* \"#utility.yul\":6373:6374   */\n      dup1\n        /* \"#utility.yul\":6366:6378   */\n      revert\n        /* \"#utility.yul\":6328:6380   */\n    tag_453:\n        /* \"#utility.yul\":6409:6418   */\n      dup3\n        /* \"#utility.yul\":6403:6419   */\n      mload\n        /* \"#utility.yul\":6438:6456   */\n      0xffffffffffffffff\n        /* \"#utility.yul\":6479:6481   */\n      dup1\n        /* \"#utility.yul\":6471:6477   */\n      dup3\n        /* \"#utility.yul\":6468:6482   */\n      gt\n        /* \"#utility.yul\":6465:6499   */\n      iszero\n      tag_454\n      jumpi\n        /* \"#utility.yul\":6495:6496   */\n      0x00\n        /* \"#utility.yul\":6492:6493   */\n      dup1\n        /* \"#utility.yul\":6485:6497   */\n      revert\n        /* \"#utility.yul\":6465:6499   */\n    tag_454:\n        /* \"#utility.yul\":6533:6539   */\n      dup2\n        /* \"#utility.yul\":6522:6531   */\n      dup6\n        /* \"#utility.yul\":6518:6540   */\n      add\n        /* \"#utility.yul\":6508:6540   */\n      swap2\n      pop\n        /* \"#utility.yul\":6578:6585   */\n      dup6\n        /* \"#utility.yul\":6571:6575   */\n      0x1f\n        /* \"#utility.yul\":6567:6569   */\n      dup4\n        /* \"#utility.yul\":6563:6576   */\n      add\n        /* \"#utility.yul\":6559:6586   */\n      slt\n        /* \"#utility.yul\":6549:6604   */\n      tag_455\n      jumpi\n        /* \"#utility.yul\":6600:6601   */\n      0x00\n        /* \"#utility.yul\":6597:6598   */\n      dup1\n        /* \"#utility.yul\":6590:6602   */\n      revert\n        /* \"#utility.yul\":6549:6604   */\n    tag_455:\n        /* \"#utility.yul\":6629:6631   */\n      dup2\n        /* \"#utility.yul\":6623:6632   */\n      mload\n        /* \"#utility.yul\":6651:6653   */\n      dup2\n        /* \"#utility.yul\":6647:6649   */\n      dup2\n        /* \"#utility.yul\":6644:6654   */\n      gt\n        /* \"#utility.yul\":6641:6677   */\n      iszero\n      tag_457\n      jumpi\n        /* \"#utility.yul\":6657:6675   */\n      tag_457\n      tag_157\n      jump\t// in\n    tag_457:\n        /* \"#utility.yul\":6703:6705   */\n      dup1\n        /* \"#utility.yul\":6700:6701   */\n      0x05\n        /* \"#utility.yul\":6696:6706   */\n      shl\n        /* \"#utility.yul\":6735:6737   */\n      0x40\n        /* \"#utility.yul\":6729:6738   */\n      mload\n        /* \"#utility.yul\":6798:6800   */\n      0x1f\n        /* \"#utility.yul\":6794:6801   */\n      not\n        /* \"#utility.yul\":6789:6791   */\n      0x3f\n        /* \"#utility.yul\":6785:6787   */\n      dup4\n        /* \"#utility.yul\":6781:6792   */\n      add\n        /* \"#utility.yul\":6777:6802   */\n      and\n        /* \"#utility.yul\":6769:6775   */\n      dup2\n        /* \"#utility.yul\":6765:6803   */\n      add\n        /* \"#utility.yul\":6853:6859   */\n      dup2\n        /* \"#utility.yul\":6841:6851   */\n      dup2\n        /* \"#utility.yul\":6838:6860   */\n      lt\n        /* \"#utility.yul\":6833:6835   */\n      dup6\n        /* \"#utility.yul\":6821:6831   */\n      dup3\n        /* \"#utility.yul\":6818:6836   */\n      gt\n        /* \"#utility.yul\":6815:6861   */\n      or\n        /* \"#utility.yul\":6812:6884   */\n      iszero\n      tag_459\n      jumpi\n        /* \"#utility.yul\":6864:6882   */\n      tag_459\n      tag_157\n      jump\t// in\n    tag_459:\n        /* \"#utility.yul\":6900:6902   */\n      0x40\n        /* \"#utility.yul\":6893:6915   */\n      mstore\n        /* \"#utility.yul\":6950:6968   */\n      swap2\n      dup3\n      mstore\n        /* \"#utility.yul\":6984:6999   */\n      dup5\n      dup3\n      add\n      swap3\n      pop\n        /* \"#utility.yul\":7026:7037   */\n      dup4\n      dup2\n      add\n        /* \"#utility.yul\":7022:7042   */\n      dup6\n      add\n      swap2\n        /* \"#utility.yul\":7054:7073   */\n      dup9\n      dup4\n      gt\n        /* \"#utility.yul\":7051:7090   */\n      iszero\n      tag_460\n      jumpi\n        /* \"#utility.yul\":7086:7087   */\n      0x00\n        /* \"#utility.yul\":7083:7084   */\n      dup1\n        /* \"#utility.yul\":7076:7088   */\n      revert\n        /* \"#utility.yul\":7051:7090   */\n    tag_460:\n        /* \"#utility.yul\":7110:7121   */\n      swap4\n      dup6\n      add\n      swap4\n        /* \"#utility.yul\":7130:7265   */\n    tag_461:\n        /* \"#utility.yul\":7146:7152   */\n      dup3\n        /* \"#utility.yul\":7141:7144   */\n      dup6\n        /* \"#utility.yul\":7138:7153   */\n      lt\n        /* \"#utility.yul\":7130:7265   */\n      iszero\n      tag_463\n      jumpi\n        /* \"#utility.yul\":7212:7222   */\n      dup5\n      mload\n        /* \"#utility.yul\":7200:7223   */\n      dup5\n      mstore\n        /* \"#utility.yul\":7163:7175   */\n      swap4\n      dup6\n      add\n      swap4\n        /* \"#utility.yul\":7243:7255   */\n      swap3\n      dup6\n      add\n      swap3\n        /* \"#utility.yul\":7130:7265   */\n      jump(tag_461)\n    tag_463:\n        /* \"#utility.yul\":7284:7290   */\n      swap9\n        /* \"#utility.yul\":6191:7296   */\n      swap8\n      pop\n      pop\n      pop\n      pop\n      pop\n      pop\n      pop\n      pop\n      jump\t// out\n        /* \"#utility.yul\":7301:7803   */\n    tag_223:\n        /* \"#utility.yul\":7564:7570   */\n      dup5\n        /* \"#utility.yul\":7553:7562   */\n      dup2\n        /* \"#utility.yul\":7546:7571   */\n      mstore\n        /* \"#utility.yul\":7607:7610   */\n      0x80\n        /* \"#utility.yul\":7602:7604   */\n      0x20\n        /* \"#utility.yul\":7591:7600   */\n      dup3\n        /* \"#utility.yul\":7587:7605   */\n      add\n        /* \"#utility.yul\":7580:7611   */\n      mstore\n        /* \"#utility.yul\":7527:7531   */\n      0x00\n        /* \"#utility.yul\":7628:7685   */\n      tag_465\n        /* \"#utility.yul\":7680:7683   */\n      0x80\n        /* \"#utility.yul\":7669:7678   */\n      dup4\n        /* \"#utility.yul\":7665:7684   */\n      add\n        /* \"#utility.yul\":7657:7663   */\n      dup7\n        /* \"#utility.yul\":7628:7685   */\n      tag_397\n      jump\t// in\n    tag_465:\n      sub(shl(0xa0, 0x01), 0x01)\n        /* \"#utility.yul\":7721:7753   */\n      swap5\n      swap1\n      swap5\n      and\n        /* \"#utility.yul\":7716:7718   */\n      0x40\n        /* \"#utility.yul\":7701:7719   */\n      dup4\n      add\n        /* \"#utility.yul\":7694:7754   */\n      mstore\n      pop\n        /* \"#utility.yul\":7785:7787   */\n      0x60\n        /* \"#utility.yul\":7770:7788   */\n      add\n        /* \"#utility.yul\":7763:7797   */\n      mstore\n        /* \"#utility.yul\":7620:7685   */\n      swap3\n        /* \"#utility.yul\":7301:7803   */\n      swap2\n      pop\n      pop\n      jump\t// out\n\n    auxdata: 0xa264697066735822122099f52f70626d33c76cd5e9c0c8515a1b004e3b9f039b27ed0abd8ecbd8c6ae8264736f6c63430008140033\n}\n",
				"bytecode": {
					"linkReferences": {},
					"object": "60806040526003805460ff191690553480156200001a575f80fd5b5033806200004157604051631e4fbdf760e01b81525f600482015260240160405180910390fd5b6200004c81620003cc565b50600780546001600160a01b0319908116733b44b2a187a7b3824131f8db5a74194d0a42fc15179091556008805482165f8051602062001dbc83398151915290811790915560098054831673c21223249ca28397b4b6541dffaecc539bff0c59908117909155600a805484167366e428c3f67a68878562e79a0234c1f83c208770179055600b805484167341bc026dabe978bc2fafea1850456511ca4b01bc179055600c80548416733b41b27e74dd366ce27cb389dc7877d4e1516d4d179055600d80548416735c7f8a570d578ed84e63fdfa7b1ee72deae1ae23179055600180549093163317909255600360025560405163095ea7b360e01b815263095ea7b39162000172915f19906004016001600160a01b03929092168252602082015260400190565b6020604051808303815f875af11580156200018f573d5f803e3d5ffd5b505050506040513d601f19601f82011682018060405250810190620001b591906200041b565b50600a5460405163095ea7b360e01b81525f8051602062001dbc83398151915260048201525f1960248201526001600160a01b039091169063095ea7b3906044016020604051808303815f875af115801562000213573d5f803e3d5ffd5b505050506040513d601f19601f820116820180604052508101906200023991906200041b565b50600b5460405163095ea7b360e01b81525f8051602062001dbc83398151915260048201525f1960248201526001600160a01b039091169063095ea7b3906044016020604051808303815f875af115801562000297573d5f803e3d5ffd5b505050506040513d601f19601f82011682018060405250810190620002bd91906200041b565b50600d5460405163095ea7b360e01b81525f8051602062001dbc83398151915260048201525f1960248201526001600160a01b039091169063095ea7b3906044016020604051808303815f875af11580156200031b573d5f803e3d5ffd5b505050506040513d601f19601f820116820180604052508101906200034191906200041b565b50600c5460405163095ea7b360e01b81525f8051602062001dbc83398151915260048201525f1960248201526001600160a01b039091169063095ea7b3906044016020604051808303815f875af11580156200039f573d5f803e3d5ffd5b505050506040513d601f19601f82011682018060405250810190620003c591906200041b565b5062000443565b5f80546001600160a01b038381166001600160a01b0319831681178455604051919092169283917f8be0079c531659141344cd1fd0a4f28419497f9722a3daafe3b4186f6b6457e09190a35050565b5f602082840312156200042c575f80fd5b815180151581146200043c575f80fd5b9392505050565b61196b80620004515f395ff3fe608060405260043610610164575f3560e01c8063a37b9e7f116100cd578063b3f0067411610087578063d3e66a9e11610062578063d3e66a9e1461041e578063d7b7d3f314610432578063edf26d9b14610459578063f2fde38b14610478575f80fd5b8063b3f00674146103d8578063d0e30db0146103f7578063d16a4010146103ff575f80fd5b8063a37b9e7f146102ee578063a6769ef814610315578063ac65334f14610340578063ae38a07014610369578063afe43b941461038a578063b0befe63146103b1575f80fd5b80635f0018cd1161011e5780635f0018cd146102395780636504fbad1461024d578063715018a6146102745780637c6f8fae146102885780637fd6f15c146102af5780638da5cb5b146102d2575f80fd5b8063162141201461016f5780631d470cb1146101905780632e1a7d4d146101d45780633977d68d146101f357806339bda01c1461021257806353ac861e14610226575f80fd5b3661016b57005b5f80fd5b34801561017a575f80fd5b5061018e6101893660046115b1565b610497565b005b34801561019b575f80fd5b506101b7735c7f8a570d578ed84e63fdfa7b1ee72deae1ae2381565b6040516001600160a01b0390911681526020015b60405180910390f35b3480156101df575f80fd5b5061018e6101ee3660046115e1565b610678565b3480156101fe575f80fd5b5061018e61020d3660046115f8565b610778565b34801561021d575f80fd5b5061018e6107a6565b61018e6102343660046115f8565b610820565b348015610244575f80fd5b5061018e610a57565b348015610258575f80fd5b506101b77366e428c3f67a68878562e79a0234c1f83c20877081565b34801561027f575f80fd5b5061018e610a6b565b348015610293575f80fd5b506101b7733b44b2a187a7b3824131f8db5a74194d0a42fc1581565b3480156102ba575f80fd5b506102c460025481565b6040519081526020016101cb565b3480156102dd575f80fd5b505f546001600160a01b03166101b7565b3480156102f9575f80fd5b506101b773c21223249ca28397b4b6541dffaecc539bff0c5981565b348015610320575f80fd5b506102c461032f366004611620565b60046020525f908152604090205481565b34801561034b575f80fd5b506003546103599060ff1681565b60405190151581526020016101cb565b348015610374575f80fd5b5061037d610a7e565b6040516101cb9190611640565b348015610395575f80fd5b506101b77341bc026dabe978bc2fafea1850456511ca4b01bc81565b3480156103bc575f80fd5b506101b7733b41b27e74dd366ce27cb389dc7877d4e1516d4d81565b3480156103e3575f80fd5b506001546101b7906001600160a01b031681565b61018e610bab565b34801561040a575f80fd5b5061018e610419366004611697565b610c7b565b348015610429575f80fd5b5061018e6111df565b34801561043d575f80fd5b506101b773145863eb42cf62847a6ca784e6416c1682b1b2ae81565b348015610464575f80fd5b506101b76104733660046115e1565b6111f6565b348015610483575f80fd5b5061018e610492366004611620565b61121e565b6001600160a01b0383167341bc026dabe978bc2fafea1850456511ca4b01bc1480156104c5575060035460ff165b156104d4576104d43383611260565b6040516323b872dd60e01b8152336004820152306024820152604481018390526001600160a01b038416906323b872dd906064016020604051808303815f875af1158015610524573d5f803e3d5ffd5b505050506040513d601f19601f8201168201806040525081019061054891906116d6565b505f6103e86002548461055b9190611709565b6105659190611726565b90506105718482611312565b6040805160028082526060820183525f9260208301908036833701905050905084815f815181106105a4576105a4611759565b60200260200101906001600160a01b031690816001600160a01b031681525050735c7f8a570d578ed84e63fdfa7b1ee72deae1ae23816001815181106105ec576105ec611759565b6001600160a01b0392831660209182029290920101526008541663791ac947610615848761176d565b85843361062442610e10611780565b6040518663ffffffff1660e01b81526004016106449594939291906117d5565b5f604051808303815f87803b15801561065b575f80fd5b505af115801561066d573d5f803e3d5ffd5b505050505050505050565b600d546040516323b872dd60e01b8152336004820152306024820152604481018390526001600160a01b03909116906323b872dd906064016020604051808303815f875af11580156106cc573d5f803e3d5ffd5b505050506040513d601f19601f820116820180604052508101906106f091906116d6565b50600d54604051632e1a7d4d60e01b8152600481018390526001600160a01b0390911690632e1a7d4d906024015f604051808303815f87803b158015610734575f80fd5b505af1158015610746573d5f803e3d5ffd5b505060405133925083156108fc02915083905f818181858888f19350505050158015610774573d5f803e3d5ffd5b5050565b6107806114ed565b600180546001600160a01b0319166001600160a01b039390931692909217909155600255565b6107ae6114ed565b6006545f5b818110156108075760045f600683815481106107d1576107d1611759565b5f9182526020808320909101546001600160a01b03168352820192909252604001812055806107ff81611810565b9150506107b3565b5061081360065f611568565b506003805460ff19169055565b60025434905f906103e8906108359084611709565b61083f9190611726565b6001546040519192506001600160a01b03169082156108fc029083905f818181858888f19350505050158015610877573d5f803e3d5ffd5b506040805160028082526060820183525f92602083019080368337019050509050735c7f8a570d578ed84e63fdfa7b1ee72deae1ae23815f815181106108bf576108bf611759565b60200260200101906001600160a01b031690816001600160a01b03168152505084816001815181106108f3576108f3611759565b6001600160a01b0392831660209182029290920101526008545f911663d06ca61f61091e858761176d565b846040518363ffffffff1660e01b815260040161093c929190611828565b5f60405180830381865afa158015610956573d5f803e3d5ffd5b505050506040513d5f823e601f3d908101601f1916820160405261097d9190810190611848565b6008549091506001600160a01b031663b6f9de9561099b858761176d565b8785336109aa42610e10611780565b6040518663ffffffff1660e01b81526004016109c99493929190611901565b5f604051808303818588803b1580156109e0575f80fd5b505af11580156109f2573d5f803e3d5ffd5b505050506001600160a01b0387167341bc026dabe978bc2fafea1850456511ca4b01bc1490508015610a26575060035460ff165b15610a4f57610a4f3382600181518110610a4257610a42611759565b6020026020010151611260565b505050505050565b610a5f6114ed565b6003805460ff19169055565b610a736114ed565b610a7c5f611519565b565b6006546060905f8167ffffffffffffffff811115610a9e57610a9e611745565b604051908082528060200260200182016040528015610ae257816020015b604080518082019091525f8082526020820152815260200190600190039081610abc5790505b5090505f5b82811015610ba457604051806040016040528060068381548110610b0d57610b0d611759565b905f5260205f20015f9054906101000a90046001600160a01b03166001600160a01b0316815260200160045f60068581548110610b4c57610b4c611759565b5f9182526020808320909101546001600160a01b0316835282019290925260400190205490528251839083908110610b8657610b86611759565b60200260200101819052508080610b9c90611810565b915050610ae7565b5092915050565b600d5460408051630d0e30db60e41b8152905134926001600160a01b03169163d0e30db09184916004808201925f9290919082900301818588803b158015610bf1575f80fd5b505af1158015610c03573d5f803e3d5ffd5b5050600d5460405163a9059cbb60e01b8152336004820152602481018690526001600160a01b03909116935063a9059cbb925060440190506020604051808303815f875af1158015610c57573d5f803e3d5ffd5b505050506040513d601f19601f8201168201806040525081019061077491906116d6565b6040516323b872dd60e01b8152336004820152306024820152604481018390526001600160a01b038516906323b872dd906064016020604051808303815f875af1158015610ccb573d5f803e3d5ffd5b505050506040513d601f19601f82011682018060405250810190610cef91906116d6565b506001600160a01b0384167341bc026dabe978bc2fafea1850456511ca4b01bc148015610d1e575060035460ff165b15610d2d57610d2d3383611260565b5f6103e860025484610d3f9190611709565b610d499190611726565b9050610d558582611312565b5f6001600160a01b038616735c7f8a570d578ed84e63fdfa7b1ee72deae1ae231480610d9d57506001600160a01b038516735c7f8a570d578ed84e63fdfa7b1ee72deae1ae23145b610da8576003610dab565b60025b60ff1690505f60606001600160a01b038816735c7f8a570d578ed84e63fdfa7b1ee72deae1ae231480610dfa57506001600160a01b038716735c7f8a570d578ed84e63fdfa7b1ee72deae1ae23145b15610f245760025b604051908082528060200260200182016040528015610e2b578160200160208202803683370190505b50905087815f81518110610e4157610e41611759565b60200260200101906001600160a01b031690816001600160a01b0316815250508681600181518110610e7557610e75611759565b6001600160a01b0392831660209182029290920101526008545f911663d06ca61f610ea0878a61176d565b846040518363ffffffff1660e01b8152600401610ebe929190611828565b5f60405180830381865afa158015610ed8573d5f803e3d5ffd5b505050506040513d5f823e601f3d908101601f19168201604052610eff9190810190611848565b905080600181518110610f1457610f14611759565b6020026020010151925050611121565b6001600160a01b0388167341bc026dabe978bc2fafea1850456511ca4b01bc148015610f6c57506001600160a01b038716733b41b27e74dd366ce27cb389dc7877d4e1516d4d145b80610fba57506001600160a01b038816733b41b27e74dd366ce27cb389dc7877d4e1516d4d148015610fba57506001600160a01b0387167341bc026dabe978bc2fafea1850456511ca4b01bc145b15610fc6576002610e02565b60408051600380825260808201909252906020820160608036833701905050905087815f81518110610ffa57610ffa611759565b60200260200101906001600160a01b031690816001600160a01b031681525050735c7f8a570d578ed84e63fdfa7b1ee72deae1ae238160018151811061104257611042611759565b60200260200101906001600160a01b031690816001600160a01b031681525050868160028151811061107657611076611759565b6001600160a01b0392831660209182029290920101526008545f911663d06ca61f6110a1878a61176d565b846040518363ffffffff1660e01b81526004016110bf929190611828565b5f60405180830381865afa1580156110d9573d5f803e3d5ffd5b505050506040513d5f823e601f3d908101601f191682016040526111009190810190611848565b90508060028151811061111557611115611759565b60200260200101519250505b6008546001600160a01b0316635c11d79561113c868961176d565b87843361114b42610e10611780565b6040518663ffffffff1660e01b815260040161116b9594939291906117d5565b5f604051808303815f87803b158015611182575f80fd5b505af1158015611194573d5f803e3d5ffd5b505050506001600160a01b0387167341bc026dabe978bc2fafea1850456511ca4b01bc1480156111c6575060035460ff165b156111d5576111d53383611260565b5050505050505050565b6111e76114ed565b6003805460ff19166001179055565b60068181548110611205575f80fd5b5f918252602090912001546001600160a01b0316905081565b6112266114ed565b6001600160a01b03811661125457604051631e4fbdf760e01b81525f60048201526024015b60405180910390fd5b61125d81611519565b50565b6001600160a01b0382165f9081526005602052604090205460ff166112e2576006805460018082019092557ff652222313e28459528d920b65115c16c04f3efc82aaedc97be59f3f377c0d3f0180546001600160a01b0319166001600160a01b0385169081179091555f908152600560205260409020805460ff191690911790555b6001600160a01b0382165f9081526004602052604081208054839290611309908490611780565b90915550505050565b5f6001600160a01b038316735c7f8a570d578ed84e63fdfa7b1ee72deae1ae231461133e576002611341565b60015b60ff169050806001036113ca57600d5460015460405163a9059cbb60e01b81526001600160a01b0391821660048201526024810185905291169063a9059cbb906044016020604051808303815f875af11580156113a0573d5f803e3d5ffd5b505050506040513d601f19601f820116820180604052508101906113c491906116d6565b50505050565b5f8167ffffffffffffffff8111156113e4576113e4611745565b60405190808252806020026020018201604052801561140d578160200160208202803683370190505b50905083815f8151811061142357611423611759565b60200260200101906001600160a01b031690816001600160a01b031681525050735c7f8a570d578ed84e63fdfa7b1ee72deae1ae238160018151811061146b5761146b611759565b6001600160a01b03928316602091820292909201015260085460015490821691635c11d7959186915f918691166114a442610e10611780565b6040518663ffffffff1660e01b81526004016114c49594939291906117d5565b5f604051808303815f87803b1580156114db575f80fd5b505af11580156111d5573d5f803e3d5ffd5b5f546001600160a01b03163314610a7c5760405163118cdaa760e01b815233600482015260240161124b565b5f80546001600160a01b038381166001600160a01b0319831681178455604051919092169283917f8be0079c531659141344cd1fd0a4f28419497f9722a3daafe3b4186f6b6457e09190a35050565b5080545f8255905f5260205f209081019061125d91905b80821115611592575f815560010161157f565b5090565b80356001600160a01b03811681146115ac575f80fd5b919050565b5f805f606084860312156115c3575f80fd5b6115cc84611596565b95602085013595506040909401359392505050565b5f602082840312156115f1575f80fd5b5035919050565b5f8060408385031215611609575f80fd5b61161283611596565b946020939093013593505050565b5f60208284031215611630575f80fd5b61163982611596565b9392505050565b602080825282518282018190525f919060409081850190868401855b8281101561168a57815180516001600160a01b0316855286015186850152928401929085019060010161165c565b5091979650505050505050565b5f805f80608085870312156116aa575f80fd5b6116b385611596565b93506116c160208601611596565b93969395505050506040820135916060013590565b5f602082840312156116e6575f80fd5b81518015158114611639575f80fd5b634e487b7160e01b5f52601160045260245ffd5b8082028115828204841417611720576117206116f5565b92915050565b5f8261174057634e487b7160e01b5f52601260045260245ffd5b500490565b634e487b7160e01b5f52604160045260245ffd5b634e487b7160e01b5f52603260045260245ffd5b81810381811115611720576117206116f5565b80820180821115611720576117206116f5565b5f8151808452602080850194508084015f5b838110156117ca5781516001600160a01b0316875295820195908201906001016117a5565b509495945050505050565b85815284602082015260a060408201525f6117f360a0830186611793565b6001600160a01b0394909416606083015250608001529392505050565b5f60018201611821576118216116f5565b5060010190565b828152604060208201525f6118406040830184611793565b949350505050565b5f6020808385031215611859575f80fd5b825167ffffffffffffffff80821115611870575f80fd5b818501915085601f830112611883575f80fd5b81518181111561189557611895611745565b8060051b604051601f19603f830116810181811085821117156118ba576118ba611745565b6040529182528482019250838101850191888311156118d7575f80fd5b938501935b828510156118f5578451845293850193928501926118dc565b98975050505050505050565b848152608060208201525f6119196080830186611793565b6001600160a01b0394909416604083015250606001529291505056fea264697066735822122099f52f70626d33c76cd5e9c0c8515a1b004e3b9f039b27ed0abd8ecbd8c6ae8264736f6c63430008140033000000000000000000000000145863eb42cf62847a6ca784e6416c1682b1b2ae",
					"opcodes": "PUSH1 0x80 PUSH1 0x40 MSTORE PUSH1 0x3 DUP1 SLOAD PUSH1 0xFF NOT AND SWAP1 SSTORE CALLVALUE DUP1 ISZERO PUSH3 0x1A JUMPI PUSH0 DUP1 REVERT JUMPDEST POP CALLER DUP1 PUSH3 0x41 JUMPI PUSH1 0x40 MLOAD PUSH4 0x1E4FBDF7 PUSH1 0xE0 SHL DUP2 MSTORE PUSH0 PUSH1 0x4 DUP3 ADD MSTORE PUSH1 0x24 ADD PUSH1 0x40 MLOAD DUP1 SWAP2 SUB SWAP1 REVERT JUMPDEST PUSH3 0x4C DUP2 PUSH3 0x3CC JUMP JUMPDEST POP PUSH1 0x7 DUP1 SLOAD PUSH1 0x1 PUSH1 0x1 PUSH1 0xA0 SHL SUB NOT SWAP1 DUP2 AND PUSH20 0x3B44B2A187A7B3824131F8DB5A74194D0A42FC15 OR SWAP1 SWAP2 SSTORE PUSH1 0x8 DUP1 SLOAD DUP3 AND PUSH0 DUP1 MLOAD PUSH1 0x20 PUSH3 0x1DBC DUP4 CODECOPY DUP2 MLOAD SWAP2 MSTORE SWAP1 DUP2 OR SWAP1 SWAP2 SSTORE PUSH1 0x9 DUP1 SLOAD DUP4 AND PUSH20 0xC21223249CA28397B4B6541DFFAECC539BFF0C59 SWAP1 DUP2 OR SWAP1 SWAP2 SSTORE PUSH1 0xA DUP1 SLOAD DUP5 AND PUSH20 0x66E428C3F67A68878562E79A0234C1F83C208770 OR SWAP1 SSTORE PUSH1 0xB DUP1 SLOAD DUP5 AND PUSH20 0x41BC026DABE978BC2FAFEA1850456511CA4B01BC OR SWAP1 SSTORE PUSH1 0xC DUP1 SLOAD DUP5 AND PUSH20 0x3B41B27E74DD366CE27CB389DC7877D4E1516D4D OR SWAP1 SSTORE PUSH1 0xD DUP1 SLOAD DUP5 AND PUSH20 0x5C7F8A570D578ED84E63FDFA7B1EE72DEAE1AE23 OR SWAP1 SSTORE PUSH1 0x1 DUP1 SLOAD SWAP1 SWAP4 AND CALLER OR SWAP1 SWAP3 SSTORE PUSH1 0x3 PUSH1 0x2 SSTORE PUSH1 0x40 MLOAD PUSH4 0x95EA7B3 PUSH1 0xE0 SHL DUP2 MSTORE PUSH4 0x95EA7B3 SWAP2 PUSH3 0x172 SWAP2 PUSH0 NOT SWAP1 PUSH1 0x4 ADD PUSH1 0x1 PUSH1 0x1 PUSH1 0xA0 SHL SUB SWAP3 SWAP1 SWAP3 AND DUP3 MSTORE PUSH1 0x20 DUP3 ADD MSTORE PUSH1 0x40 ADD SWAP1 JUMP JUMPDEST PUSH1 0x20 PUSH1 0x40 MLOAD DUP1 DUP4 SUB DUP2 PUSH0 DUP8 GAS CALL ISZERO DUP1 ISZERO PUSH3 0x18F JUMPI RETURNDATASIZE PUSH0 DUP1 RETURNDATACOPY RETURNDATASIZE PUSH0 REVERT JUMPDEST POP POP POP POP PUSH1 0x40 MLOAD RETURNDATASIZE PUSH1 0x1F NOT PUSH1 0x1F DUP3 ADD AND DUP3 ADD DUP1 PUSH1 0x40 MSTORE POP DUP2 ADD SWAP1 PUSH3 0x1B5 SWAP2 SWAP1 PUSH3 0x41B JUMP JUMPDEST POP PUSH1 0xA SLOAD PUSH1 0x40 MLOAD PUSH4 0x95EA7B3 PUSH1 0xE0 SHL DUP2 MSTORE PUSH0 DUP1 MLOAD PUSH1 0x20 PUSH3 0x1DBC DUP4 CODECOPY DUP2 MLOAD SWAP2 MSTORE PUSH1 0x4 DUP3 ADD MSTORE PUSH0 NOT PUSH1 0x24 DUP3 ADD MSTORE PUSH1 0x1 PUSH1 0x1 PUSH1 0xA0 SHL SUB SWAP1 SWAP2 AND SWAP1 PUSH4 0x95EA7B3 SWAP1 PUSH1 0x44 ADD PUSH1 0x20 PUSH1 0x40 MLOAD DUP1 DUP4 SUB DUP2 PUSH0 DUP8 GAS CALL ISZERO DUP1 ISZERO PUSH3 0x213 JUMPI RETURNDATASIZE PUSH0 DUP1 RETURNDATACOPY RETURNDATASIZE PUSH0 REVERT JUMPDEST POP POP POP POP PUSH1 0x40 MLOAD RETURNDATASIZE PUSH1 0x1F NOT PUSH1 0x1F DUP3 ADD AND DUP3 ADD DUP1 PUSH1 0x40 MSTORE POP DUP2 ADD SWAP1 PUSH3 0x239 SWAP2 SWAP1 PUSH3 0x41B JUMP JUMPDEST POP PUSH1 0xB SLOAD PUSH1 0x40 MLOAD PUSH4 0x95EA7B3 PUSH1 0xE0 SHL DUP2 MSTORE PUSH0 DUP1 MLOAD PUSH1 0x20 PUSH3 0x1DBC DUP4 CODECOPY DUP2 MLOAD SWAP2 MSTORE PUSH1 0x4 DUP3 ADD MSTORE PUSH0 NOT PUSH1 0x24 DUP3 ADD MSTORE PUSH1 0x1 PUSH1 0x1 PUSH1 0xA0 SHL SUB SWAP1 SWAP2 AND SWAP1 PUSH4 0x95EA7B3 SWAP1 PUSH1 0x44 ADD PUSH1 0x20 PUSH1 0x40 MLOAD DUP1 DUP4 SUB DUP2 PUSH0 DUP8 GAS CALL ISZERO DUP1 ISZERO PUSH3 0x297 JUMPI RETURNDATASIZE PUSH0 DUP1 RETURNDATACOPY RETURNDATASIZE PUSH0 REVERT JUMPDEST POP POP POP POP PUSH1 0x40 MLOAD RETURNDATASIZE PUSH1 0x1F NOT PUSH1 0x1F DUP3 ADD AND DUP3 ADD DUP1 PUSH1 0x40 MSTORE POP DUP2 ADD SWAP1 PUSH3 0x2BD SWAP2 SWAP1 PUSH3 0x41B JUMP JUMPDEST POP PUSH1 0xD SLOAD PUSH1 0x40 MLOAD PUSH4 0x95EA7B3 PUSH1 0xE0 SHL DUP2 MSTORE PUSH0 DUP1 MLOAD PUSH1 0x20 PUSH3 0x1DBC DUP4 CODECOPY DUP2 MLOAD SWAP2 MSTORE PUSH1 0x4 DUP3 ADD MSTORE PUSH0 NOT PUSH1 0x24 DUP3 ADD MSTORE PUSH1 0x1 PUSH1 0x1 PUSH1 0xA0 SHL SUB SWAP1 SWAP2 AND SWAP1 PUSH4 0x95EA7B3 SWAP1 PUSH1 0x44 ADD PUSH1 0x20 PUSH1 0x40 MLOAD DUP1 DUP4 SUB DUP2 PUSH0 DUP8 GAS CALL ISZERO DUP1 ISZERO PUSH3 0x31B JUMPI RETURNDATASIZE PUSH0 DUP1 RETURNDATACOPY RETURNDATASIZE PUSH0 REVERT JUMPDEST POP POP POP POP PUSH1 0x40 MLOAD RETURNDATASIZE PUSH1 0x1F NOT PUSH1 0x1F DUP3 ADD AND DUP3 ADD DUP1 PUSH1 0x40 MSTORE POP DUP2 ADD SWAP1 PUSH3 0x341 SWAP2 SWAP1 PUSH3 0x41B JUMP JUMPDEST POP PUSH1 0xC SLOAD PUSH1 0x40 MLOAD PUSH4 0x95EA7B3 PUSH1 0xE0 SHL DUP2 MSTORE PUSH0 DUP1 MLOAD PUSH1 0x20 PUSH3 0x1DBC DUP4 CODECOPY DUP2 MLOAD SWAP2 MSTORE PUSH1 0x4 DUP3 ADD MSTORE PUSH0 NOT PUSH1 0x24 DUP3 ADD MSTORE PUSH1 0x1 PUSH1 0x1 PUSH1 0xA0 SHL SUB SWAP1 SWAP2 AND SWAP1 PUSH4 0x95EA7B3 SWAP1 PUSH1 0x44 ADD PUSH1 0x20 PUSH1 0x40 MLOAD DUP1 DUP4 SUB DUP2 PUSH0 DUP8 GAS CALL ISZERO DUP1 ISZERO PUSH3 0x39F JUMPI RETURNDATASIZE PUSH0 DUP1 RETURNDATACOPY RETURNDATASIZE PUSH0 REVERT JUMPDEST POP POP POP POP PUSH1 0x40 MLOAD RETURNDATASIZE PUSH1 0x1F NOT PUSH1 0x1F DUP3 ADD AND DUP3 ADD DUP1 PUSH1 0x40 MSTORE POP DUP2 ADD SWAP1 PUSH3 0x3C5 SWAP2 SWAP1 PUSH3 0x41B JUMP JUMPDEST POP PUSH3 0x443 JUMP JUMPDEST PUSH0 DUP1 SLOAD PUSH1 0x1 PUSH1 0x1 PUSH1 0xA0 SHL SUB DUP4 DUP2 AND PUSH1 0x1 PUSH1 0x1 PUSH1 0xA0 SHL SUB NOT DUP4 AND DUP2 OR DUP5 SSTORE PUSH1 0x40 MLOAD SWAP2 SWAP1 SWAP3 AND SWAP3 DUP4 SWAP2 PUSH32 0x8BE0079C531659141344CD1FD0A4F28419497F9722A3DAAFE3B4186F6B6457E0 SWAP2 SWAP1 LOG3 POP POP JUMP JUMPDEST PUSH0 PUSH1 0x20 DUP3 DUP5 SUB SLT ISZERO PUSH3 0x42C JUMPI PUSH0 DUP1 REVERT JUMPDEST DUP2 MLOAD DUP1 ISZERO ISZERO DUP2 EQ PUSH3 0x43C JUMPI PUSH0 DUP1 REVERT JUMPDEST SWAP4 SWAP3 POP POP POP JUMP JUMPDEST PUSH2 0x196B DUP1 PUSH3 0x451 PUSH0 CODECOPY PUSH0 RETURN INVALID PUSH1 0x80 PUSH1 0x40 MSTORE PUSH1 0x4 CALLDATASIZE LT PUSH2 0x164 JUMPI PUSH0 CALLDATALOAD PUSH1 0xE0 SHR DUP1 PUSH4 0xA37B9E7F GT PUSH2 0xCD JUMPI DUP1 PUSH4 0xB3F00674 GT PUSH2 0x87 JUMPI DUP1 PUSH4 0xD3E66A9E GT PUSH2 0x62 JUMPI DUP1 PUSH4 0xD3E66A9E EQ PUSH2 0x41E JUMPI DUP1 PUSH4 0xD7B7D3F3 EQ PUSH2 0x432 JUMPI DUP1 PUSH4 0xEDF26D9B EQ PUSH2 0x459 JUMPI DUP1 PUSH4 0xF2FDE38B EQ PUSH2 0x478 JUMPI PUSH0 DUP1 REVERT JUMPDEST DUP1 PUSH4 0xB3F00674 EQ PUSH2 0x3D8 JUMPI DUP1 PUSH4 0xD0E30DB0 EQ PUSH2 0x3F7 JUMPI DUP1 PUSH4 0xD16A4010 EQ PUSH2 0x3FF JUMPI PUSH0 DUP1 REVERT JUMPDEST DUP1 PUSH4 0xA37B9E7F EQ PUSH2 0x2EE JUMPI DUP1 PUSH4 0xA6769EF8 EQ PUSH2 0x315 JUMPI DUP1 PUSH4 0xAC65334F EQ PUSH2 0x340 JUMPI DUP1 PUSH4 0xAE38A070 EQ PUSH2 0x369 JUMPI DUP1 PUSH4 0xAFE43B94 EQ PUSH2 0x38A JUMPI DUP1 PUSH4 0xB0BEFE63 EQ PUSH2 0x3B1 JUMPI PUSH0 DUP1 REVERT JUMPDEST DUP1 PUSH4 0x5F0018CD GT PUSH2 0x11E JUMPI DUP1 PUSH4 0x5F0018CD EQ PUSH2 0x239 JUMPI DUP1 PUSH4 0x6504FBAD EQ PUSH2 0x24D JUMPI DUP1 PUSH4 0x715018A6 EQ PUSH2 0x274 JUMPI DUP1 PUSH4 0x7C6F8FAE EQ PUSH2 0x288 JUMPI DUP1 PUSH4 0x7FD6F15C EQ PUSH2 0x2AF JUMPI DUP1 PUSH4 0x8DA5CB5B EQ PUSH2 0x2D2 JUMPI PUSH0 DUP1 REVERT JUMPDEST DUP1 PUSH4 0x16214120 EQ PUSH2 0x16F JUMPI DUP1 PUSH4 0x1D470CB1 EQ PUSH2 0x190 JUMPI DUP1 PUSH4 0x2E1A7D4D EQ PUSH2 0x1D4 JUMPI DUP1 PUSH4 0x3977D68D EQ PUSH2 0x1F3 JUMPI DUP1 PUSH4 0x39BDA01C EQ PUSH2 0x212 JUMPI DUP1 PUSH4 0x53AC861E EQ PUSH2 0x226 JUMPI PUSH0 DUP1 REVERT JUMPDEST CALLDATASIZE PUSH2 0x16B JUMPI STOP JUMPDEST PUSH0 DUP1 REVERT JUMPDEST CALLVALUE DUP1 ISZERO PUSH2 0x17A JUMPI PUSH0 DUP1 REVERT JUMPDEST POP PUSH2 0x18E PUSH2 0x189 CALLDATASIZE PUSH1 0x4 PUSH2 0x15B1 JUMP JUMPDEST PUSH2 0x497 JUMP JUMPDEST STOP JUMPDEST CALLVALUE DUP1 ISZERO PUSH2 0x19B JUMPI PUSH0 DUP1 REVERT JUMPDEST POP PUSH2 0x1B7 PUSH20 0x5C7F8A570D578ED84E63FDFA7B1EE72DEAE1AE23 DUP2 JUMP JUMPDEST PUSH1 0x40 MLOAD PUSH1 0x1 PUSH1 0x1 PUSH1 0xA0 SHL SUB SWAP1 SWAP2 AND DUP2 MSTORE PUSH1 0x20 ADD JUMPDEST PUSH1 0x40 MLOAD DUP1 SWAP2 SUB SWAP1 RETURN JUMPDEST CALLVALUE DUP1 ISZERO PUSH2 0x1DF JUMPI PUSH0 DUP1 REVERT JUMPDEST POP PUSH2 0x18E PUSH2 0x1EE CALLDATASIZE PUSH1 0x4 PUSH2 0x15E1 JUMP JUMPDEST PUSH2 0x678 JUMP JUMPDEST CALLVALUE DUP1 ISZERO PUSH2 0x1FE JUMPI PUSH0 DUP1 REVERT JUMPDEST POP PUSH2 0x18E PUSH2 0x20D CALLDATASIZE PUSH1 0x4 PUSH2 0x15F8 JUMP JUMPDEST PUSH2 0x778 JUMP JUMPDEST CALLVALUE DUP1 ISZERO PUSH2 0x21D JUMPI PUSH0 DUP1 REVERT JUMPDEST POP PUSH2 0x18E PUSH2 0x7A6 JUMP JUMPDEST PUSH2 0x18E PUSH2 0x234 CALLDATASIZE PUSH1 0x4 PUSH2 0x15F8 JUMP JUMPDEST PUSH2 0x820 JUMP JUMPDEST CALLVALUE DUP1 ISZERO PUSH2 0x244 JUMPI PUSH0 DUP1 REVERT JUMPDEST POP PUSH2 0x18E PUSH2 0xA57 JUMP JUMPDEST CALLVALUE DUP1 ISZERO PUSH2 0x258 JUMPI PUSH0 DUP1 REVERT JUMPDEST POP PUSH2 0x1B7 PUSH20 0x66E428C3F67A68878562E79A0234C1F83C208770 DUP2 JUMP JUMPDEST CALLVALUE DUP1 ISZERO PUSH2 0x27F JUMPI PUSH0 DUP1 REVERT JUMPDEST POP PUSH2 0x18E PUSH2 0xA6B JUMP JUMPDEST CALLVALUE DUP1 ISZERO PUSH2 0x293 JUMPI PUSH0 DUP1 REVERT JUMPDEST POP PUSH2 0x1B7 PUSH20 0x3B44B2A187A7B3824131F8DB5A74194D0A42FC15 DUP2 JUMP JUMPDEST CALLVALUE DUP1 ISZERO PUSH2 0x2BA JUMPI PUSH0 DUP1 REVERT JUMPDEST POP PUSH2 0x2C4 PUSH1 0x2 SLOAD DUP2 JUMP JUMPDEST PUSH1 0x40 MLOAD SWAP1 DUP2 MSTORE PUSH1 0x20 ADD PUSH2 0x1CB JUMP JUMPDEST CALLVALUE DUP1 ISZERO PUSH2 0x2DD JUMPI PUSH0 DUP1 REVERT JUMPDEST POP PUSH0 SLOAD PUSH1 0x1 PUSH1 0x1 PUSH1 0xA0 SHL SUB AND PUSH2 0x1B7 JUMP JUMPDEST CALLVALUE DUP1 ISZERO PUSH2 0x2F9 JUMPI PUSH0 DUP1 REVERT JUMPDEST POP PUSH2 0x1B7 PUSH20 0xC21223249CA28397B4B6541DFFAECC539BFF0C59 DUP2 JUMP JUMPDEST CALLVALUE DUP1 ISZERO PUSH2 0x320 JUMPI PUSH0 DUP1 REVERT JUMPDEST POP PUSH2 0x2C4 PUSH2 0x32F CALLDATASIZE PUSH1 0x4 PUSH2 0x1620 JUMP JUMPDEST PUSH1 0x4 PUSH1 0x20 MSTORE PUSH0 SWAP1 DUP2 MSTORE PUSH1 0x40 SWAP1 KECCAK256 SLOAD DUP2 JUMP JUMPDEST CALLVALUE DUP1 ISZERO PUSH2 0x34B JUMPI PUSH0 DUP1 REVERT JUMPDEST POP PUSH1 0x3 SLOAD PUSH2 0x359 SWAP1 PUSH1 0xFF AND DUP2 JUMP JUMPDEST PUSH1 0x40 MLOAD SWAP1 ISZERO ISZERO DUP2 MSTORE PUSH1 0x20 ADD PUSH2 0x1CB JUMP JUMPDEST CALLVALUE DUP1 ISZERO PUSH2 0x374 JUMPI PUSH0 DUP1 REVERT JUMPDEST POP PUSH2 0x37D PUSH2 0xA7E JUMP JUMPDEST PUSH1 0x40 MLOAD PUSH2 0x1CB SWAP2 SWAP1 PUSH2 0x1640 JUMP JUMPDEST CALLVALUE DUP1 ISZERO PUSH2 0x395 JUMPI PUSH0 DUP1 REVERT JUMPDEST POP PUSH2 0x1B7 PUSH20 0x41BC026DABE978BC2FAFEA1850456511CA4B01BC DUP2 JUMP JUMPDEST CALLVALUE DUP1 ISZERO PUSH2 0x3BC JUMPI PUSH0 DUP1 REVERT JUMPDEST POP PUSH2 0x1B7 PUSH20 0x3B41B27E74DD366CE27CB389DC7877D4E1516D4D DUP2 JUMP JUMPDEST CALLVALUE DUP1 ISZERO PUSH2 0x3E3 JUMPI PUSH0 DUP1 REVERT JUMPDEST POP PUSH1 0x1 SLOAD PUSH2 0x1B7 SWAP1 PUSH1 0x1 PUSH1 0x1 PUSH1 0xA0 SHL SUB AND DUP2 JUMP JUMPDEST PUSH2 0x18E PUSH2 0xBAB JUMP JUMPDEST CALLVALUE DUP1 ISZERO PUSH2 0x40A JUMPI PUSH0 DUP1 REVERT JUMPDEST POP PUSH2 0x18E PUSH2 0x419 CALLDATASIZE PUSH1 0x4 PUSH2 0x1697 JUMP JUMPDEST PUSH2 0xC7B JUMP JUMPDEST CALLVALUE DUP1 ISZERO PUSH2 0x429 JUMPI PUSH0 DUP1 REVERT JUMPDEST POP PUSH2 0x18E PUSH2 0x11DF JUMP JUMPDEST CALLVALUE DUP1 ISZERO PUSH2 0x43D JUMPI PUSH0 DUP1 REVERT JUMPDEST POP PUSH2 0x1B7 PUSH20 0x145863EB42CF62847A6CA784E6416C1682B1B2AE DUP2 JUMP JUMPDEST CALLVALUE DUP1 ISZERO PUSH2 0x464 JUMPI PUSH0 DUP1 REVERT JUMPDEST POP PUSH2 0x1B7 PUSH2 0x473 CALLDATASIZE PUSH1 0x4 PUSH2 0x15E1 JUMP JUMPDEST PUSH2 0x11F6 JUMP JUMPDEST CALLVALUE DUP1 ISZERO PUSH2 0x483 JUMPI PUSH0 DUP1 REVERT JUMPDEST POP PUSH2 0x18E PUSH2 0x492 CALLDATASIZE PUSH1 0x4 PUSH2 0x1620 JUMP JUMPDEST PUSH2 0x121E JUMP JUMPDEST PUSH1 0x1 PUSH1 0x1 PUSH1 0xA0 SHL SUB DUP4 AND PUSH20 0x41BC026DABE978BC2FAFEA1850456511CA4B01BC EQ DUP1 ISZERO PUSH2 0x4C5 JUMPI POP PUSH1 0x3 SLOAD PUSH1 0xFF AND JUMPDEST ISZERO PUSH2 0x4D4 JUMPI PUSH2 0x4D4 CALLER DUP4 PUSH2 0x1260 JUMP JUMPDEST PUSH1 0x40 MLOAD PUSH4 0x23B872DD PUSH1 0xE0 SHL DUP2 MSTORE CALLER PUSH1 0x4 DUP3 ADD MSTORE ADDRESS PUSH1 0x24 DUP3 ADD MSTORE PUSH1 0x44 DUP2 ADD DUP4 SWAP1 MSTORE PUSH1 0x1 PUSH1 0x1 PUSH1 0xA0 SHL SUB DUP5 AND SWAP1 PUSH4 0x23B872DD SWAP1 PUSH1 0x64 ADD PUSH1 0x20 PUSH1 0x40 MLOAD DUP1 DUP4 SUB DUP2 PUSH0 DUP8 GAS CALL ISZERO DUP1 ISZERO PUSH2 0x524 JUMPI RETURNDATASIZE PUSH0 DUP1 RETURNDATACOPY RETURNDATASIZE PUSH0 REVERT JUMPDEST POP POP POP POP PUSH1 0x40 MLOAD RETURNDATASIZE PUSH1 0x1F NOT PUSH1 0x1F DUP3 ADD AND DUP3 ADD DUP1 PUSH1 0x40 MSTORE POP DUP2 ADD SWAP1 PUSH2 0x548 SWAP2 SWAP1 PUSH2 0x16D6 JUMP JUMPDEST POP PUSH0 PUSH2 0x3E8 PUSH1 0x2 SLOAD DUP5 PUSH2 0x55B SWAP2 SWAP1 PUSH2 0x1709 JUMP JUMPDEST PUSH2 0x565 SWAP2 SWAP1 PUSH2 0x1726 JUMP JUMPDEST SWAP1 POP PUSH2 0x571 DUP5 DUP3 PUSH2 0x1312 JUMP JUMPDEST PUSH1 0x40 DUP1 MLOAD PUSH1 0x2 DUP1 DUP3 MSTORE PUSH1 0x60 DUP3 ADD DUP4 MSTORE PUSH0 SWAP3 PUSH1 0x20 DUP4 ADD SWAP1 DUP1 CALLDATASIZE DUP4 CALLDATACOPY ADD SWAP1 POP POP SWAP1 POP DUP5 DUP2 PUSH0 DUP2 MLOAD DUP2 LT PUSH2 0x5A4 JUMPI PUSH2 0x5A4 PUSH2 0x1759 JUMP JUMPDEST PUSH1 0x20 MUL PUSH1 0x20 ADD ADD SWAP1 PUSH1 0x1 PUSH1 0x1 PUSH1 0xA0 SHL SUB AND SWAP1 DUP2 PUSH1 0x1 PUSH1 0x1 PUSH1 0xA0 SHL SUB AND DUP2 MSTORE POP POP PUSH20 0x5C7F8A570D578ED84E63FDFA7B1EE72DEAE1AE23 DUP2 PUSH1 0x1 DUP2 MLOAD DUP2 LT PUSH2 0x5EC JUMPI PUSH2 0x5EC PUSH2 0x1759 JUMP JUMPDEST PUSH1 0x1 PUSH1 0x1 PUSH1 0xA0 SHL SUB SWAP3 DUP4 AND PUSH1 0x20 SWAP2 DUP3 MUL SWAP3 SWAP1 SWAP3 ADD ADD MSTORE PUSH1 0x8 SLOAD AND PUSH4 0x791AC947 PUSH2 0x615 DUP5 DUP8 PUSH2 0x176D JUMP JUMPDEST DUP6 DUP5 CALLER PUSH2 0x624 TIMESTAMP PUSH2 0xE10 PUSH2 0x1780 JUMP JUMPDEST PUSH1 0x40 MLOAD DUP7 PUSH4 0xFFFFFFFF AND PUSH1 0xE0 SHL DUP2 MSTORE PUSH1 0x4 ADD PUSH2 0x644 SWAP6 SWAP5 SWAP4 SWAP3 SWAP2 SWAP1 PUSH2 0x17D5 JUMP JUMPDEST PUSH0 PUSH1 0x40 MLOAD DUP1 DUP4 SUB DUP2 PUSH0 DUP8 DUP1 EXTCODESIZE ISZERO DUP1 ISZERO PUSH2 0x65B JUMPI PUSH0 DUP1 REVERT JUMPDEST POP GAS CALL ISZERO DUP1 ISZERO PUSH2 0x66D JUMPI RETURNDATASIZE PUSH0 DUP1 RETURNDATACOPY RETURNDATASIZE PUSH0 REVERT JUMPDEST POP POP POP POP POP POP POP POP POP JUMP JUMPDEST PUSH1 0xD SLOAD PUSH1 0x40 MLOAD PUSH4 0x23B872DD PUSH1 0xE0 SHL DUP2 MSTORE CALLER PUSH1 0x4 DUP3 ADD MSTORE ADDRESS PUSH1 0x24 DUP3 ADD MSTORE PUSH1 0x44 DUP2 ADD DUP4 SWAP1 MSTORE PUSH1 0x1 PUSH1 0x1 PUSH1 0xA0 SHL SUB SWAP1 SWAP2 AND SWAP1 PUSH4 0x23B872DD SWAP1 PUSH1 0x64 ADD PUSH1 0x20 PUSH1 0x40 MLOAD DUP1 DUP4 SUB DUP2 PUSH0 DUP8 GAS CALL ISZERO DUP1 ISZERO PUSH2 0x6CC JUMPI RETURNDATASIZE PUSH0 DUP1 RETURNDATACOPY RETURNDATASIZE PUSH0 REVERT JUMPDEST POP POP POP POP PUSH1 0x40 MLOAD RETURNDATASIZE PUSH1 0x1F NOT PUSH1 0x1F DUP3 ADD AND DUP3 ADD DUP1 PUSH1 0x40 MSTORE POP DUP2 ADD SWAP1 PUSH2 0x6F0 SWAP2 SWAP1 PUSH2 0x16D6 JUMP JUMPDEST POP PUSH1 0xD SLOAD PUSH1 0x40 MLOAD PUSH4 0x2E1A7D4D PUSH1 0xE0 SHL DUP2 MSTORE PUSH1 0x4 DUP2 ADD DUP4 SWAP1 MSTORE PUSH1 0x1 PUSH1 0x1 PUSH1 0xA0 SHL SUB SWAP1 SWAP2 AND SWAP1 PUSH4 0x2E1A7D4D SWAP1 PUSH1 0x24 ADD PUSH0 PUSH1 0x40 MLOAD DUP1 DUP4 SUB DUP2 PUSH0 DUP8 DUP1 EXTCODESIZE ISZERO DUP1 ISZERO PUSH2 0x734 JUMPI PUSH0 DUP1 REVERT JUMPDEST POP GAS CALL ISZERO DUP1 ISZERO PUSH2 0x746 JUMPI RETURNDATASIZE PUSH0 DUP1 RETURNDATACOPY RETURNDATASIZE PUSH0 REVERT JUMPDEST POP POP PUSH1 0x40 MLOAD CALLER SWAP3 POP DUP4 ISZERO PUSH2 0x8FC MUL SWAP2 POP DUP4 SWAP1 PUSH0 DUP2 DUP2 DUP2 DUP6 DUP9 DUP9 CALL SWAP4 POP POP POP POP ISZERO DUP1 ISZERO PUSH2 0x774 JUMPI RETURNDATASIZE PUSH0 DUP1 RETURNDATACOPY RETURNDATASIZE PUSH0 REVERT JUMPDEST POP POP JUMP JUMPDEST PUSH2 0x780 PUSH2 0x14ED JUMP JUMPDEST PUSH1 0x1 DUP1 SLOAD PUSH1 0x1 PUSH1 0x1 PUSH1 0xA0 SHL SUB NOT AND PUSH1 0x1 PUSH1 0x1 PUSH1 0xA0 SHL SUB SWAP4 SWAP1 SWAP4 AND SWAP3 SWAP1 SWAP3 OR SWAP1 SWAP2 SSTORE PUSH1 0x2 SSTORE JUMP JUMPDEST PUSH2 0x7AE PUSH2 0x14ED JUMP JUMPDEST PUSH1 0x6 SLOAD PUSH0 JUMPDEST DUP2 DUP2 LT ISZERO PUSH2 0x807 JUMPI PUSH1 0x4 PUSH0 PUSH1 0x6 DUP4 DUP2 SLOAD DUP2 LT PUSH2 0x7D1 JUMPI PUSH2 0x7D1 PUSH2 0x1759 JUMP JUMPDEST PUSH0 SWAP2 DUP3 MSTORE PUSH1 0x20 DUP1 DUP4 KECCAK256 SWAP1 SWAP2 ADD SLOAD PUSH1 0x1 PUSH1 0x1 PUSH1 0xA0 SHL SUB AND DUP4 MSTORE DUP3 ADD SWAP3 SWAP1 SWAP3 MSTORE PUSH1 0x40 ADD DUP2 KECCAK256 SSTORE DUP1 PUSH2 0x7FF DUP2 PUSH2 0x1810 JUMP JUMPDEST SWAP2 POP POP PUSH2 0x7B3 JUMP JUMPDEST POP PUSH2 0x813 PUSH1 0x6 PUSH0 PUSH2 0x1568 JUMP JUMPDEST POP PUSH1 0x3 DUP1 SLOAD PUSH1 0xFF NOT AND SWAP1 SSTORE JUMP JUMPDEST PUSH1 0x2 SLOAD CALLVALUE SWAP1 PUSH0 SWAP1 PUSH2 0x3E8 SWAP1 PUSH2 0x835 SWAP1 DUP5 PUSH2 0x1709 JUMP JUMPDEST PUSH2 0x83F SWAP2 SWAP1 PUSH2 0x1726 JUMP JUMPDEST PUSH1 0x1 SLOAD PUSH1 0x40 MLOAD SWAP2 SWAP3 POP PUSH1 0x1 PUSH1 0x1 PUSH1 0xA0 SHL SUB AND SWAP1 DUP3 ISZERO PUSH2 0x8FC MUL SWAP1 DUP4 SWAP1 PUSH0 DUP2 DUP2 DUP2 DUP6 DUP9 DUP9 CALL SWAP4 POP POP POP POP ISZERO DUP1 ISZERO PUSH2 0x877 JUMPI RETURNDATASIZE PUSH0 DUP1 RETURNDATACOPY RETURNDATASIZE PUSH0 REVERT JUMPDEST POP PUSH1 0x40 DUP1 MLOAD PUSH1 0x2 DUP1 DUP3 MSTORE PUSH1 0x60 DUP3 ADD DUP4 MSTORE PUSH0 SWAP3 PUSH1 0x20 DUP4 ADD SWAP1 DUP1 CALLDATASIZE DUP4 CALLDATACOPY ADD SWAP1 POP POP SWAP1 POP PUSH20 0x5C7F8A570D578ED84E63FDFA7B1EE72DEAE1AE23 DUP2 PUSH0 DUP2 MLOAD DUP2 LT PUSH2 0x8BF JUMPI PUSH2 0x8BF PUSH2 0x1759 JUMP JUMPDEST PUSH1 0x20 MUL PUSH1 0x20 ADD ADD SWAP1 PUSH1 0x1 PUSH1 0x1 PUSH1 0xA0 SHL SUB AND SWAP1 DUP2 PUSH1 0x1 PUSH1 0x1 PUSH1 0xA0 SHL SUB AND DUP2 MSTORE POP POP DUP5 DUP2 PUSH1 0x1 DUP2 MLOAD DUP2 LT PUSH2 0x8F3 JUMPI PUSH2 0x8F3 PUSH2 0x1759 JUMP JUMPDEST PUSH1 0x1 PUSH1 0x1 PUSH1 0xA0 SHL SUB SWAP3 DUP4 AND PUSH1 0x20 SWAP2 DUP3 MUL SWAP3 SWAP1 SWAP3 ADD ADD MSTORE PUSH1 0x8 SLOAD PUSH0 SWAP2 AND PUSH4 0xD06CA61F PUSH2 0x91E DUP6 DUP8 PUSH2 0x176D JUMP JUMPDEST DUP5 PUSH1 0x40 MLOAD DUP4 PUSH4 0xFFFFFFFF AND PUSH1 0xE0 SHL DUP2 MSTORE PUSH1 0x4 ADD PUSH2 0x93C SWAP3 SWAP2 SWAP1 PUSH2 0x1828 JUMP JUMPDEST PUSH0 PUSH1 0x40 MLOAD DUP1 DUP4 SUB DUP2 DUP7 GAS STATICCALL ISZERO DUP1 ISZERO PUSH2 0x956 JUMPI RETURNDATASIZE PUSH0 DUP1 RETURNDATACOPY RETURNDATASIZE PUSH0 REVERT JUMPDEST POP POP POP POP PUSH1 0x40 MLOAD RETURNDATASIZE PUSH0 DUP3 RETURNDATACOPY PUSH1 0x1F RETURNDATASIZE SWAP1 DUP2 ADD PUSH1 0x1F NOT AND DUP3 ADD PUSH1 0x40 MSTORE PUSH2 0x97D SWAP2 SWAP1 DUP2 ADD SWAP1 PUSH2 0x1848 JUMP JUMPDEST PUSH1 0x8 SLOAD SWAP1 SWAP2 POP PUSH1 0x1 PUSH1 0x1 PUSH1 0xA0 SHL SUB AND PUSH4 0xB6F9DE95 PUSH2 0x99B DUP6 DUP8 PUSH2 0x176D JUMP JUMPDEST DUP8 DUP6 CALLER PUSH2 0x9AA TIMESTAMP PUSH2 0xE10 PUSH2 0x1780 JUMP JUMPDEST PUSH1 0x40 MLOAD DUP7 PUSH4 0xFFFFFFFF AND PUSH1 0xE0 SHL DUP2 MSTORE PUSH1 0x4 ADD PUSH2 0x9C9 SWAP5 SWAP4 SWAP3 SWAP2 SWAP1 PUSH2 0x1901 JUMP JUMPDEST PUSH0 PUSH1 0x40 MLOAD DUP1 DUP4 SUB DUP2 DUP6 DUP9 DUP1 EXTCODESIZE ISZERO DUP1 ISZERO PUSH2 0x9E0 JUMPI PUSH0 DUP1 REVERT JUMPDEST POP GAS CALL ISZERO DUP1 ISZERO PUSH2 0x9F2 JUMPI RETURNDATASIZE PUSH0 DUP1 RETURNDATACOPY RETURNDATASIZE PUSH0 REVERT JUMPDEST POP POP POP POP PUSH1 0x1 PUSH1 0x1 PUSH1 0xA0 SHL SUB DUP8 AND PUSH20 0x41BC026DABE978BC2FAFEA1850456511CA4B01BC EQ SWAP1 POP DUP1 ISZERO PUSH2 0xA26 JUMPI POP PUSH1 0x3 SLOAD PUSH1 0xFF AND JUMPDEST ISZERO PUSH2 0xA4F JUMPI PUSH2 0xA4F CALLER DUP3 PUSH1 0x1 DUP2 MLOAD DUP2 LT PUSH2 0xA42 JUMPI PUSH2 0xA42 PUSH2 0x1759 JUMP JUMPDEST PUSH1 0x20 MUL PUSH1 0x20 ADD ADD MLOAD PUSH2 0x1260 JUMP JUMPDEST POP POP POP POP POP POP JUMP JUMPDEST PUSH2 0xA5F PUSH2 0x14ED JUMP JUMPDEST PUSH1 0x3 DUP1 SLOAD PUSH1 0xFF NOT AND SWAP1 SSTORE JUMP JUMPDEST PUSH2 0xA73 PUSH2 0x14ED JUMP JUMPDEST PUSH2 0xA7C PUSH0 PUSH2 0x1519 JUMP JUMPDEST JUMP JUMPDEST PUSH1 0x6 SLOAD PUSH1 0x60 SWAP1 PUSH0 DUP2 PUSH8 0xFFFFFFFFFFFFFFFF DUP2 GT ISZERO PUSH2 0xA9E JUMPI PUSH2 0xA9E PUSH2 0x1745 JUMP JUMPDEST PUSH1 0x40 MLOAD SWAP1 DUP1 DUP3 MSTORE DUP1 PUSH1 0x20 MUL PUSH1 0x20 ADD DUP3 ADD PUSH1 0x40 MSTORE DUP1 ISZERO PUSH2 0xAE2 JUMPI DUP2 PUSH1 0x20 ADD JUMPDEST PUSH1 0x40 DUP1 MLOAD DUP1 DUP3 ADD SWAP1 SWAP2 MSTORE PUSH0 DUP1 DUP3 MSTORE PUSH1 0x20 DUP3 ADD MSTORE DUP2 MSTORE PUSH1 0x20 ADD SWAP1 PUSH1 0x1 SWAP1 SUB SWAP1 DUP2 PUSH2 0xABC JUMPI SWAP1 POP JUMPDEST POP SWAP1 POP PUSH0 JUMPDEST DUP3 DUP2 LT ISZERO PUSH2 0xBA4 JUMPI PUSH1 0x40 MLOAD DUP1 PUSH1 0x40 ADD PUSH1 0x40 MSTORE DUP1 PUSH1 0x6 DUP4 DUP2 SLOAD DUP2 LT PUSH2 0xB0D JUMPI PUSH2 0xB0D PUSH2 0x1759 JUMP JUMPDEST SWAP1 PUSH0 MSTORE PUSH1 0x20 PUSH0 KECCAK256 ADD PUSH0 SWAP1 SLOAD SWAP1 PUSH2 0x100 EXP SWAP1 DIV PUSH1 0x1 PUSH1 0x1 PUSH1 0xA0 SHL SUB AND PUSH1 0x1 PUSH1 0x1 PUSH1 0xA0 SHL SUB AND DUP2 MSTORE PUSH1 0x20 ADD PUSH1 0x4 PUSH0 PUSH1 0x6 DUP6 DUP2 SLOAD DUP2 LT PUSH2 0xB4C JUMPI PUSH2 0xB4C PUSH2 0x1759 JUMP JUMPDEST PUSH0 SWAP2 DUP3 MSTORE PUSH1 0x20 DUP1 DUP4 KECCAK256 SWAP1 SWAP2 ADD SLOAD PUSH1 0x1 PUSH1 0x1 PUSH1 0xA0 SHL SUB AND DUP4 MSTORE DUP3 ADD SWAP3 SWAP1 SWAP3 MSTORE PUSH1 0x40 ADD SWAP1 KECCAK256 SLOAD SWAP1 MSTORE DUP3 MLOAD DUP4 SWAP1 DUP4 SWAP1 DUP2 LT PUSH2 0xB86 JUMPI PUSH2 0xB86 PUSH2 0x1759 JUMP JUMPDEST PUSH1 0x20 MUL PUSH1 0x20 ADD ADD DUP2 SWAP1 MSTORE POP DUP1 DUP1 PUSH2 0xB9C SWAP1 PUSH2 0x1810 JUMP JUMPDEST SWAP2 POP POP PUSH2 0xAE7 JUMP JUMPDEST POP SWAP3 SWAP2 POP POP JUMP JUMPDEST PUSH1 0xD SLOAD PUSH1 0x40 DUP1 MLOAD PUSH4 0xD0E30DB PUSH1 0xE4 SHL DUP2 MSTORE SWAP1 MLOAD CALLVALUE SWAP3 PUSH1 0x1 PUSH1 0x1 PUSH1 0xA0 SHL SUB AND SWAP2 PUSH4 0xD0E30DB0 SWAP2 DUP5 SWAP2 PUSH1 0x4 DUP1 DUP3 ADD SWAP3 PUSH0 SWAP3 SWAP1 SWAP2 SWAP1 DUP3 SWAP1 SUB ADD DUP2 DUP6 DUP9 DUP1 EXTCODESIZE ISZERO DUP1 ISZERO PUSH2 0xBF1 JUMPI PUSH0 DUP1 REVERT JUMPDEST POP GAS CALL ISZERO DUP1 ISZERO PUSH2 0xC03 JUMPI RETURNDATASIZE PUSH0 DUP1 RETURNDATACOPY RETURNDATASIZE PUSH0 REVERT JUMPDEST POP POP PUSH1 0xD SLOAD PUSH1 0x40 MLOAD PUSH4 0xA9059CBB PUSH1 0xE0 SHL DUP2 MSTORE CALLER PUSH1 0x4 DUP3 ADD MSTORE PUSH1 0x24 DUP2 ADD DUP7 SWAP1 MSTORE PUSH1 0x1 PUSH1 0x1 PUSH1 0xA0 SHL SUB SWAP1 SWAP2 AND SWAP4 POP PUSH4 0xA9059CBB SWAP3 POP PUSH1 0x44 ADD SWAP1 POP PUSH1 0x20 PUSH1 0x40 MLOAD DUP1 DUP4 SUB DUP2 PUSH0 DUP8 GAS CALL ISZERO DUP1 ISZERO PUSH2 0xC57 JUMPI RETURNDATASIZE PUSH0 DUP1 RETURNDATACOPY RETURNDATASIZE PUSH0 REVERT JUMPDEST POP POP POP POP PUSH1 0x40 MLOAD RETURNDATASIZE PUSH1 0x1F NOT PUSH1 0x1F DUP3 ADD AND DUP3 ADD DUP1 PUSH1 0x40 MSTORE POP DUP2 ADD SWAP1 PUSH2 0x774 SWAP2 SWAP1 PUSH2 0x16D6 JUMP JUMPDEST PUSH1 0x40 MLOAD PUSH4 0x23B872DD PUSH1 0xE0 SHL DUP2 MSTORE CALLER PUSH1 0x4 DUP3 ADD MSTORE ADDRESS PUSH1 0x24 DUP3 ADD MSTORE PUSH1 0x44 DUP2 ADD DUP4 SWAP1 MSTORE PUSH1 0x1 PUSH1 0x1 PUSH1 0xA0 SHL SUB DUP6 AND SWAP1 PUSH4 0x23B872DD SWAP1 PUSH1 0x64 ADD PUSH1 0x20 PUSH1 0x40 MLOAD DUP1 DUP4 SUB DUP2 PUSH0 DUP8 GAS CALL ISZERO DUP1 ISZERO PUSH2 0xCCB JUMPI RETURNDATASIZE PUSH0 DUP1 RETURNDATACOPY RETURNDATASIZE PUSH0 REVERT JUMPDEST POP POP POP POP PUSH1 0x40 MLOAD RETURNDATASIZE PUSH1 0x1F NOT PUSH1 0x1F DUP3 ADD AND DUP3 ADD DUP1 PUSH1 0x40 MSTORE POP DUP2 ADD SWAP1 PUSH2 0xCEF SWAP2 SWAP1 PUSH2 0x16D6 JUMP JUMPDEST POP PUSH1 0x1 PUSH1 0x1 PUSH1 0xA0 SHL SUB DUP5 AND PUSH20 0x41BC026DABE978BC2FAFEA1850456511CA4B01BC EQ DUP1 ISZERO PUSH2 0xD1E JUMPI POP PUSH1 0x3 SLOAD PUSH1 0xFF AND JUMPDEST ISZERO PUSH2 0xD2D JUMPI PUSH2 0xD2D CALLER DUP4 PUSH2 0x1260 JUMP JUMPDEST PUSH0 PUSH2 0x3E8 PUSH1 0x2 SLOAD DUP5 PUSH2 0xD3F SWAP2 SWAP1 PUSH2 0x1709 JUMP JUMPDEST PUSH2 0xD49 SWAP2 SWAP1 PUSH2 0x1726 JUMP JUMPDEST SWAP1 POP PUSH2 0xD55 DUP6 DUP3 PUSH2 0x1312 JUMP JUMPDEST PUSH0 PUSH1 0x1 PUSH1 0x1 PUSH1 0xA0 SHL SUB DUP7 AND PUSH20 0x5C7F8A570D578ED84E63FDFA7B1EE72DEAE1AE23 EQ DUP1 PUSH2 0xD9D JUMPI POP PUSH1 0x1 PUSH1 0x1 PUSH1 0xA0 SHL SUB DUP6 AND PUSH20 0x5C7F8A570D578ED84E63FDFA7B1EE72DEAE1AE23 EQ JUMPDEST PUSH2 0xDA8 JUMPI PUSH1 0x3 PUSH2 0xDAB JUMP JUMPDEST PUSH1 0x2 JUMPDEST PUSH1 0xFF AND SWAP1 POP PUSH0 PUSH1 0x60 PUSH1 0x1 PUSH1 0x1 PUSH1 0xA0 SHL SUB DUP9 AND PUSH20 0x5C7F8A570D578ED84E63FDFA7B1EE72DEAE1AE23 EQ DUP1 PUSH2 0xDFA JUMPI POP PUSH1 0x1 PUSH1 0x1 PUSH1 0xA0 SHL SUB DUP8 AND PUSH20 0x5C7F8A570D578ED84E63FDFA7B1EE72DEAE1AE23 EQ JUMPDEST ISZERO PUSH2 0xF24 JUMPI PUSH1 0x2 JUMPDEST PUSH1 0x40 MLOAD SWAP1 DUP1 DUP3 MSTORE DUP1 PUSH1 0x20 MUL PUSH1 0x20 ADD DUP3 ADD PUSH1 0x40 MSTORE DUP1 ISZERO PUSH2 0xE2B JUMPI DUP2 PUSH1 0x20 ADD PUSH1 0x20 DUP3 MUL DUP1 CALLDATASIZE DUP4 CALLDATACOPY ADD SWAP1 POP JUMPDEST POP SWAP1 POP DUP8 DUP2 PUSH0 DUP2 MLOAD DUP2 LT PUSH2 0xE41 JUMPI PUSH2 0xE41 PUSH2 0x1759 JUMP JUMPDEST PUSH1 0x20 MUL PUSH1 0x20 ADD ADD SWAP1 PUSH1 0x1 PUSH1 0x1 PUSH1 0xA0 SHL SUB AND SWAP1 DUP2 PUSH1 0x1 PUSH1 0x1 PUSH1 0xA0 SHL SUB AND DUP2 MSTORE POP POP DUP7 DUP2 PUSH1 0x1 DUP2 MLOAD DUP2 LT PUSH2 0xE75 JUMPI PUSH2 0xE75 PUSH2 0x1759 JUMP JUMPDEST PUSH1 0x1 PUSH1 0x1 PUSH1 0xA0 SHL SUB SWAP3 DUP4 AND PUSH1 0x20 SWAP2 DUP3 MUL SWAP3 SWAP1 SWAP3 ADD ADD MSTORE PUSH1 0x8 SLOAD PUSH0 SWAP2 AND PUSH4 0xD06CA61F PUSH2 0xEA0 DUP8 DUP11 PUSH2 0x176D JUMP JUMPDEST DUP5 PUSH1 0x40 MLOAD DUP4 PUSH4 0xFFFFFFFF AND PUSH1 0xE0 SHL DUP2 MSTORE PUSH1 0x4 ADD PUSH2 0xEBE SWAP3 SWAP2 SWAP1 PUSH2 0x1828 JUMP JUMPDEST PUSH0 PUSH1 0x40 MLOAD DUP1 DUP4 SUB DUP2 DUP7 GAS STATICCALL ISZERO DUP1 ISZERO PUSH2 0xED8 JUMPI RETURNDATASIZE PUSH0 DUP1 RETURNDATACOPY RETURNDATASIZE PUSH0 REVERT JUMPDEST POP POP POP POP PUSH1 0x40 MLOAD RETURNDATASIZE PUSH0 DUP3 RETURNDATACOPY PUSH1 0x1F RETURNDATASIZE SWAP1 DUP2 ADD PUSH1 0x1F NOT AND DUP3 ADD PUSH1 0x40 MSTORE PUSH2 0xEFF SWAP2 SWAP1 DUP2 ADD SWAP1 PUSH2 0x1848 JUMP JUMPDEST SWAP1 POP DUP1 PUSH1 0x1 DUP2 MLOAD DUP2 LT PUSH2 0xF14 JUMPI PUSH2 0xF14 PUSH2 0x1759 JUMP JUMPDEST PUSH1 0x20 MUL PUSH1 0x20 ADD ADD MLOAD SWAP3 POP POP PUSH2 0x1121 JUMP JUMPDEST PUSH1 0x1 PUSH1 0x1 PUSH1 0xA0 SHL SUB DUP9 AND PUSH20 0x41BC026DABE978BC2FAFEA1850456511CA4B01BC EQ DUP1 ISZERO PUSH2 0xF6C JUMPI POP PUSH1 0x1 PUSH1 0x1 PUSH1 0xA0 SHL SUB DUP8 AND PUSH20 0x3B41B27E74DD366CE27CB389DC7877D4E1516D4D EQ JUMPDEST DUP1 PUSH2 0xFBA JUMPI POP PUSH1 0x1 PUSH1 0x1 PUSH1 0xA0 SHL SUB DUP9 AND PUSH20 0x3B41B27E74DD366CE27CB389DC7877D4E1516D4D EQ DUP1 ISZERO PUSH2 0xFBA JUMPI POP PUSH1 0x1 PUSH1 0x1 PUSH1 0xA0 SHL SUB DUP8 AND PUSH20 0x41BC026DABE978BC2FAFEA1850456511CA4B01BC EQ JUMPDEST ISZERO PUSH2 0xFC6 JUMPI PUSH1 0x2 PUSH2 0xE02 JUMP JUMPDEST PUSH1 0x40 DUP1 MLOAD PUSH1 0x3 DUP1 DUP3 MSTORE PUSH1 0x80 DUP3 ADD SWAP1 SWAP3 MSTORE SWAP1 PUSH1 0x20 DUP3 ADD PUSH1 0x60 DUP1 CALLDATASIZE DUP4 CALLDATACOPY ADD SWAP1 POP POP SWAP1 POP DUP8 DUP2 PUSH0 DUP2 MLOAD DUP2 LT PUSH2 0xFFA JUMPI PUSH2 0xFFA PUSH2 0x1759 JUMP JUMPDEST PUSH1 0x20 MUL PUSH1 0x20 ADD ADD SWAP1 PUSH1 0x1 PUSH1 0x1 PUSH1 0xA0 SHL SUB AND SWAP1 DUP2 PUSH1 0x1 PUSH1 0x1 PUSH1 0xA0 SHL SUB AND DUP2 MSTORE POP POP PUSH20 0x5C7F8A570D578ED84E63FDFA7B1EE72DEAE1AE23 DUP2 PUSH1 0x1 DUP2 MLOAD DUP2 LT PUSH2 0x1042 JUMPI PUSH2 0x1042 PUSH2 0x1759 JUMP JUMPDEST PUSH1 0x20 MUL PUSH1 0x20 ADD ADD SWAP1 PUSH1 0x1 PUSH1 0x1 PUSH1 0xA0 SHL SUB AND SWAP1 DUP2 PUSH1 0x1 PUSH1 0x1 PUSH1 0xA0 SHL SUB AND DUP2 MSTORE POP POP DUP7 DUP2 PUSH1 0x2 DUP2 MLOAD DUP2 LT PUSH2 0x1076 JUMPI PUSH2 0x1076 PUSH2 0x1759 JUMP JUMPDEST PUSH1 0x1 PUSH1 0x1 PUSH1 0xA0 SHL SUB SWAP3 DUP4 AND PUSH1 0x20 SWAP2 DUP3 MUL SWAP3 SWAP1 SWAP3 ADD ADD MSTORE PUSH1 0x8 SLOAD PUSH0 SWAP2 AND PUSH4 0xD06CA61F PUSH2 0x10A1 DUP8 DUP11 PUSH2 0x176D JUMP JUMPDEST DUP5 PUSH1 0x40 MLOAD DUP4 PUSH4 0xFFFFFFFF AND PUSH1 0xE0 SHL DUP2 MSTORE PUSH1 0x4 ADD PUSH2 0x10BF SWAP3 SWAP2 SWAP1 PUSH2 0x1828 JUMP JUMPDEST PUSH0 PUSH1 0x40 MLOAD DUP1 DUP4 SUB DUP2 DUP7 GAS STATICCALL ISZERO DUP1 ISZERO PUSH2 0x10D9 JUMPI RETURNDATASIZE PUSH0 DUP1 RETURNDATACOPY RETURNDATASIZE PUSH0 REVERT JUMPDEST POP POP POP POP PUSH1 0x40 MLOAD RETURNDATASIZE PUSH0 DUP3 RETURNDATACOPY PUSH1 0x1F RETURNDATASIZE SWAP1 DUP2 ADD PUSH1 0x1F NOT AND DUP3 ADD PUSH1 0x40 MSTORE PUSH2 0x1100 SWAP2 SWAP1 DUP2 ADD SWAP1 PUSH2 0x1848 JUMP JUMPDEST SWAP1 POP DUP1 PUSH1 0x2 DUP2 MLOAD DUP2 LT PUSH2 0x1115 JUMPI PUSH2 0x1115 PUSH2 0x1759 JUMP JUMPDEST PUSH1 0x20 MUL PUSH1 0x20 ADD ADD MLOAD SWAP3 POP POP JUMPDEST PUSH1 0x8 SLOAD PUSH1 0x1 PUSH1 0x1 PUSH1 0xA0 SHL SUB AND PUSH4 0x5C11D795 PUSH2 0x113C DUP7 DUP10 PUSH2 0x176D JUMP JUMPDEST DUP8 DUP5 CALLER PUSH2 0x114B TIMESTAMP PUSH2 0xE10 PUSH2 0x1780 JUMP JUMPDEST PUSH1 0x40 MLOAD DUP7 PUSH4 0xFFFFFFFF AND PUSH1 0xE0 SHL DUP2 MSTORE PUSH1 0x4 ADD PUSH2 0x116B SWAP6 SWAP5 SWAP4 SWAP3 SWAP2 SWAP1 PUSH2 0x17D5 JUMP JUMPDEST PUSH0 PUSH1 0x40 MLOAD DUP1 DUP4 SUB DUP2 PUSH0 DUP8 DUP1 EXTCODESIZE ISZERO DUP1 ISZERO PUSH2 0x1182 JUMPI PUSH0 DUP1 REVERT JUMPDEST POP GAS CALL ISZERO DUP1 ISZERO PUSH2 0x1194 JUMPI RETURNDATASIZE PUSH0 DUP1 RETURNDATACOPY RETURNDATASIZE PUSH0 REVERT JUMPDEST POP POP POP POP PUSH1 0x1 PUSH1 0x1 PUSH1 0xA0 SHL SUB DUP8 AND PUSH20 0x41BC026DABE978BC2FAFEA1850456511CA4B01BC EQ DUP1 ISZERO PUSH2 0x11C6 JUMPI POP PUSH1 0x3 SLOAD PUSH1 0xFF AND JUMPDEST ISZERO PUSH2 0x11D5 JUMPI PUSH2 0x11D5 CALLER DUP4 PUSH2 0x1260 JUMP JUMPDEST POP POP POP POP POP POP POP POP JUMP JUMPDEST PUSH2 0x11E7 PUSH2 0x14ED JUMP JUMPDEST PUSH1 0x3 DUP1 SLOAD PUSH1 0xFF NOT AND PUSH1 0x1 OR SWAP1 SSTORE JUMP JUMPDEST PUSH1 0x6 DUP2 DUP2 SLOAD DUP2 LT PUSH2 0x1205 JUMPI PUSH0 DUP1 REVERT JUMPDEST PUSH0 SWAP2 DUP3 MSTORE PUSH1 0x20 SWAP1 SWAP2 KECCAK256 ADD SLOAD PUSH1 0x1 PUSH1 0x1 PUSH1 0xA0 SHL SUB AND SWAP1 POP DUP2 JUMP JUMPDEST PUSH2 0x1226 PUSH2 0x14ED JUMP JUMPDEST PUSH1 0x1 PUSH1 0x1 PUSH1 0xA0 SHL SUB DUP2 AND PUSH2 0x1254 JUMPI PUSH1 0x40 MLOAD PUSH4 0x1E4FBDF7 PUSH1 0xE0 SHL DUP2 MSTORE PUSH0 PUSH1 0x4 DUP3 ADD MSTORE PUSH1 0x24 ADD JUMPDEST PUSH1 0x40 MLOAD DUP1 SWAP2 SUB SWAP1 REVERT JUMPDEST PUSH2 0x125D DUP2 PUSH2 0x1519 JUMP JUMPDEST POP JUMP JUMPDEST PUSH1 0x1 PUSH1 0x1 PUSH1 0xA0 SHL SUB DUP3 AND PUSH0 SWAP1 DUP2 MSTORE PUSH1 0x5 PUSH1 0x20 MSTORE PUSH1 0x40 SWAP1 KECCAK256 SLOAD PUSH1 0xFF AND PUSH2 0x12E2 JUMPI PUSH1 0x6 DUP1 SLOAD PUSH1 0x1 DUP1 DUP3 ADD SWAP1 SWAP3 SSTORE PUSH32 0xF652222313E28459528D920B65115C16C04F3EFC82AAEDC97BE59F3F377C0D3F ADD DUP1 SLOAD PUSH1 0x1 PUSH1 0x1 PUSH1 0xA0 SHL SUB NOT AND PUSH1 0x1 PUSH1 0x1 PUSH1 0xA0 SHL SUB DUP6 AND SWAP1 DUP2 OR SWAP1 SWAP2 SSTORE PUSH0 SWAP1 DUP2 MSTORE PUSH1 0x5 PUSH1 0x20 MSTORE PUSH1 0x40 SWAP1 KECCAK256 DUP1 SLOAD PUSH1 0xFF NOT AND SWAP1 SWAP2 OR SWAP1 SSTORE JUMPDEST PUSH1 0x1 PUSH1 0x1 PUSH1 0xA0 SHL SUB DUP3 AND PUSH0 SWAP1 DUP2 MSTORE PUSH1 0x4 PUSH1 0x20 MSTORE PUSH1 0x40 DUP2 KECCAK256 DUP1 SLOAD DUP4 SWAP3 SWAP1 PUSH2 0x1309 SWAP1 DUP5 SWAP1 PUSH2 0x1780 JUMP JUMPDEST SWAP1 SWAP2 SSTORE POP POP POP POP JUMP JUMPDEST PUSH0 PUSH1 0x1 PUSH1 0x1 PUSH1 0xA0 SHL SUB DUP4 AND PUSH20 0x5C7F8A570D578ED84E63FDFA7B1EE72DEAE1AE23 EQ PUSH2 0x133E JUMPI PUSH1 0x2 PUSH2 0x1341 JUMP JUMPDEST PUSH1 0x1 JUMPDEST PUSH1 0xFF AND SWAP1 POP DUP1 PUSH1 0x1 SUB PUSH2 0x13CA JUMPI PUSH1 0xD SLOAD PUSH1 0x1 SLOAD PUSH1 0x40 MLOAD PUSH4 0xA9059CBB PUSH1 0xE0 SHL DUP2 MSTORE PUSH1 0x1 PUSH1 0x1 PUSH1 0xA0 SHL SUB SWAP2 DUP3 AND PUSH1 0x4 DUP3 ADD MSTORE PUSH1 0x24 DUP2 ADD DUP6 SWAP1 MSTORE SWAP2 AND SWAP1 PUSH4 0xA9059CBB SWAP1 PUSH1 0x44 ADD PUSH1 0x20 PUSH1 0x40 MLOAD DUP1 DUP4 SUB DUP2 PUSH0 DUP8 GAS CALL ISZERO DUP1 ISZERO PUSH2 0x13A0 JUMPI RETURNDATASIZE PUSH0 DUP1 RETURNDATACOPY RETURNDATASIZE PUSH0 REVERT JUMPDEST POP POP POP POP PUSH1 0x40 MLOAD RETURNDATASIZE PUSH1 0x1F NOT PUSH1 0x1F DUP3 ADD AND DUP3 ADD DUP1 PUSH1 0x40 MSTORE POP DUP2 ADD SWAP1 PUSH2 0x13C4 SWAP2 SWAP1 PUSH2 0x16D6 JUMP JUMPDEST POP POP POP POP JUMP JUMPDEST PUSH0 DUP2 PUSH8 0xFFFFFFFFFFFFFFFF DUP2 GT ISZERO PUSH2 0x13E4 JUMPI PUSH2 0x13E4 PUSH2 0x1745 JUMP JUMPDEST PUSH1 0x40 MLOAD SWAP1 DUP1 DUP3 MSTORE DUP1 PUSH1 0x20 MUL PUSH1 0x20 ADD DUP3 ADD PUSH1 0x40 MSTORE DUP1 ISZERO PUSH2 0x140D JUMPI DUP2 PUSH1 0x20 ADD PUSH1 0x20 DUP3 MUL DUP1 CALLDATASIZE DUP4 CALLDATACOPY ADD SWAP1 POP JUMPDEST POP SWAP1 POP DUP4 DUP2 PUSH0 DUP2 MLOAD DUP2 LT PUSH2 0x1423 JUMPI PUSH2 0x1423 PUSH2 0x1759 JUMP JUMPDEST PUSH1 0x20 MUL PUSH1 0x20 ADD ADD SWAP1 PUSH1 0x1 PUSH1 0x1 PUSH1 0xA0 SHL SUB AND SWAP1 DUP2 PUSH1 0x1 PUSH1 0x1 PUSH1 0xA0 SHL SUB AND DUP2 MSTORE POP POP PUSH20 0x5C7F8A570D578ED84E63FDFA7B1EE72DEAE1AE23 DUP2 PUSH1 0x1 DUP2 MLOAD DUP2 LT PUSH2 0x146B JUMPI PUSH2 0x146B PUSH2 0x1759 JUMP JUMPDEST PUSH1 0x1 PUSH1 0x1 PUSH1 0xA0 SHL SUB SWAP3 DUP4 AND PUSH1 0x20 SWAP2 DUP3 MUL SWAP3 SWAP1 SWAP3 ADD ADD MSTORE PUSH1 0x8 SLOAD PUSH1 0x1 SLOAD SWAP1 DUP3 AND SWAP2 PUSH4 0x5C11D795 SWAP2 DUP7 SWAP2 PUSH0 SWAP2 DUP7 SWAP2 AND PUSH2 0x14A4 TIMESTAMP PUSH2 0xE10 PUSH2 0x1780 JUMP JUMPDEST PUSH1 0x40 MLOAD DUP7 PUSH4 0xFFFFFFFF AND PUSH1 0xE0 SHL DUP2 MSTORE PUSH1 0x4 ADD PUSH2 0x14C4 SWAP6 SWAP5 SWAP4 SWAP3 SWAP2 SWAP1 PUSH2 0x17D5 JUMP JUMPDEST PUSH0 PUSH1 0x40 MLOAD DUP1 DUP4 SUB DUP2 PUSH0 DUP8 DUP1 EXTCODESIZE ISZERO DUP1 ISZERO PUSH2 0x14DB JUMPI PUSH0 DUP1 REVERT JUMPDEST POP GAS CALL ISZERO DUP1 ISZERO PUSH2 0x11D5 JUMPI RETURNDATASIZE PUSH0 DUP1 RETURNDATACOPY RETURNDATASIZE PUSH0 REVERT JUMPDEST PUSH0 SLOAD PUSH1 0x1 PUSH1 0x1 PUSH1 0xA0 SHL SUB AND CALLER EQ PUSH2 0xA7C JUMPI PUSH1 0x40 MLOAD PUSH4 0x118CDAA7 PUSH1 0xE0 SHL DUP2 MSTORE CALLER PUSH1 0x4 DUP3 ADD MSTORE PUSH1 0x24 ADD PUSH2 0x124B JUMP JUMPDEST PUSH0 DUP1 SLOAD PUSH1 0x1 PUSH1 0x1 PUSH1 0xA0 SHL SUB DUP4 DUP2 AND PUSH1 0x1 PUSH1 0x1 PUSH1 0xA0 SHL SUB NOT DUP4 AND DUP2 OR DUP5 SSTORE PUSH1 0x40 MLOAD SWAP2 SWAP1 SWAP3 AND SWAP3 DUP4 SWAP2 PUSH32 0x8BE0079C531659141344CD1FD0A4F28419497F9722A3DAAFE3B4186F6B6457E0 SWAP2 SWAP1 LOG3 POP POP JUMP JUMPDEST POP DUP1 SLOAD PUSH0 DUP3 SSTORE SWAP1 PUSH0 MSTORE PUSH1 0x20 PUSH0 KECCAK256 SWAP1 DUP2 ADD SWAP1 PUSH2 0x125D SWAP2 SWAP1 JUMPDEST DUP1 DUP3 GT ISZERO PUSH2 0x1592 JUMPI PUSH0 DUP2 SSTORE PUSH1 0x1 ADD PUSH2 0x157F JUMP JUMPDEST POP SWAP1 JUMP JUMPDEST DUP1 CALLDATALOAD PUSH1 0x1 PUSH1 0x1 PUSH1 0xA0 SHL SUB DUP2 AND DUP2 EQ PUSH2 0x15AC JUMPI PUSH0 DUP1 REVERT JUMPDEST SWAP2 SWAP1 POP JUMP JUMPDEST PUSH0 DUP1 PUSH0 PUSH1 0x60 DUP5 DUP7 SUB SLT ISZERO PUSH2 0x15C3 JUMPI PUSH0 DUP1 REVERT JUMPDEST PUSH2 0x15CC DUP5 PUSH2 0x1596 JUMP JUMPDEST SWAP6 PUSH1 0x20 DUP6 ADD CALLDATALOAD SWAP6 POP PUSH1 0x40 SWAP1 SWAP5 ADD CALLDATALOAD SWAP4 SWAP3 POP POP POP JUMP JUMPDEST PUSH0 PUSH1 0x20 DUP3 DUP5 SUB SLT ISZERO PUSH2 0x15F1 JUMPI PUSH0 DUP1 REVERT JUMPDEST POP CALLDATALOAD SWAP2 SWAP1 POP JUMP JUMPDEST PUSH0 DUP1 PUSH1 0x40 DUP4 DUP6 SUB SLT ISZERO PUSH2 0x1609 JUMPI PUSH0 DUP1 REVERT JUMPDEST PUSH2 0x1612 DUP4 PUSH2 0x1596 JUMP JUMPDEST SWAP5 PUSH1 0x20 SWAP4 SWAP1 SWAP4 ADD CALLDATALOAD SWAP4 POP POP POP JUMP JUMPDEST PUSH0 PUSH1 0x20 DUP3 DUP5 SUB SLT ISZERO PUSH2 0x1630 JUMPI PUSH0 DUP1 REVERT JUMPDEST PUSH2 0x1639 DUP3 PUSH2 0x1596 JUMP JUMPDEST SWAP4 SWAP3 POP POP POP JUMP JUMPDEST PUSH1 0x20 DUP1 DUP3 MSTORE DUP3 MLOAD DUP3 DUP3 ADD DUP2 SWAP1 MSTORE PUSH0 SWAP2 SWAP1 PUSH1 0x40 SWAP1 DUP2 DUP6 ADD SWAP1 DUP7 DUP5 ADD DUP6 JUMPDEST DUP3 DUP2 LT ISZERO PUSH2 0x168A JUMPI DUP2 MLOAD DUP1 MLOAD PUSH1 0x1 PUSH1 0x1 PUSH1 0xA0 SHL SUB AND DUP6 MSTORE DUP7 ADD MLOAD DUP7 DUP6 ADD MSTORE SWAP3 DUP5 ADD SWAP3 SWAP1 DUP6 ADD SWAP1 PUSH1 0x1 ADD PUSH2 0x165C JUMP JUMPDEST POP SWAP2 SWAP8 SWAP7 POP POP POP POP POP POP POP JUMP JUMPDEST PUSH0 DUP1 PUSH0 DUP1 PUSH1 0x80 DUP6 DUP8 SUB SLT ISZERO PUSH2 0x16AA JUMPI PUSH0 DUP1 REVERT JUMPDEST PUSH2 0x16B3 DUP6 PUSH2 0x1596 JUMP JUMPDEST SWAP4 POP PUSH2 0x16C1 PUSH1 0x20 DUP7 ADD PUSH2 0x1596 JUMP JUMPDEST SWAP4 SWAP7 SWAP4 SWAP6 POP POP POP POP PUSH1 0x40 DUP3 ADD CALLDATALOAD SWAP2 PUSH1 0x60 ADD CALLDATALOAD SWAP1 JUMP JUMPDEST PUSH0 PUSH1 0x20 DUP3 DUP5 SUB SLT ISZERO PUSH2 0x16E6 JUMPI PUSH0 DUP1 REVERT JUMPDEST DUP2 MLOAD DUP1 ISZERO ISZERO DUP2 EQ PUSH2 0x1639 JUMPI PUSH0 DUP1 REVERT JUMPDEST PUSH4 0x4E487B71 PUSH1 0xE0 SHL PUSH0 MSTORE PUSH1 0x11 PUSH1 0x4 MSTORE PUSH1 0x24 PUSH0 REVERT JUMPDEST DUP1 DUP3 MUL DUP2 ISZERO DUP3 DUP3 DIV DUP5 EQ OR PUSH2 0x1720 JUMPI PUSH2 0x1720 PUSH2 0x16F5 JUMP JUMPDEST SWAP3 SWAP2 POP POP JUMP JUMPDEST PUSH0 DUP3 PUSH2 0x1740 JUMPI PUSH4 0x4E487B71 PUSH1 0xE0 SHL PUSH0 MSTORE PUSH1 0x12 PUSH1 0x4 MSTORE PUSH1 0x24 PUSH0 REVERT JUMPDEST POP DIV SWAP1 JUMP JUMPDEST PUSH4 0x4E487B71 PUSH1 0xE0 SHL PUSH0 MSTORE PUSH1 0x41 PUSH1 0x4 MSTORE PUSH1 0x24 PUSH0 REVERT JUMPDEST PUSH4 0x4E487B71 PUSH1 0xE0 SHL PUSH0 MSTORE PUSH1 0x32 PUSH1 0x4 MSTORE PUSH1 0x24 PUSH0 REVERT JUMPDEST DUP2 DUP2 SUB DUP2 DUP2 GT ISZERO PUSH2 0x1720 JUMPI PUSH2 0x1720 PUSH2 0x16F5 JUMP JUMPDEST DUP1 DUP3 ADD DUP1 DUP3 GT ISZERO PUSH2 0x1720 JUMPI PUSH2 0x1720 PUSH2 0x16F5 JUMP JUMPDEST PUSH0 DUP2 MLOAD DUP1 DUP5 MSTORE PUSH1 0x20 DUP1 DUP6 ADD SWAP5 POP DUP1 DUP5 ADD PUSH0 JUMPDEST DUP4 DUP2 LT ISZERO PUSH2 0x17CA JUMPI DUP2 MLOAD PUSH1 0x1 PUSH1 0x1 PUSH1 0xA0 SHL SUB AND DUP8 MSTORE SWAP6 DUP3 ADD SWAP6 SWAP1 DUP3 ADD SWAP1 PUSH1 0x1 ADD PUSH2 0x17A5 JUMP JUMPDEST POP SWAP5 SWAP6 SWAP5 POP POP POP POP POP JUMP JUMPDEST DUP6 DUP2 MSTORE DUP5 PUSH1 0x20 DUP3 ADD MSTORE PUSH1 0xA0 PUSH1 0x40 DUP3 ADD MSTORE PUSH0 PUSH2 0x17F3 PUSH1 0xA0 DUP4 ADD DUP7 PUSH2 0x1793 JUMP JUMPDEST PUSH1 0x1 PUSH1 0x1 PUSH1 0xA0 SHL SUB SWAP5 SWAP1 SWAP5 AND PUSH1 0x60 DUP4 ADD MSTORE POP PUSH1 0x80 ADD MSTORE SWAP4 SWAP3 POP POP POP JUMP JUMPDEST PUSH0 PUSH1 0x1 DUP3 ADD PUSH2 0x1821 JUMPI PUSH2 0x1821 PUSH2 0x16F5 JUMP JUMPDEST POP PUSH1 0x1 ADD SWAP1 JUMP JUMPDEST DUP3 DUP2 MSTORE PUSH1 0x40 PUSH1 0x20 DUP3 ADD MSTORE PUSH0 PUSH2 0x1840 PUSH1 0x40 DUP4 ADD DUP5 PUSH2 0x1793 JUMP JUMPDEST SWAP5 SWAP4 POP POP POP POP JUMP JUMPDEST PUSH0 PUSH1 0x20 DUP1 DUP4 DUP6 SUB SLT ISZERO PUSH2 0x1859 JUMPI PUSH0 DUP1 REVERT JUMPDEST DUP3 MLOAD PUSH8 0xFFFFFFFFFFFFFFFF DUP1 DUP3 GT ISZERO PUSH2 0x1870 JUMPI PUSH0 DUP1 REVERT JUMPDEST DUP2 DUP6 ADD SWAP2 POP DUP6 PUSH1 0x1F DUP4 ADD SLT PUSH2 0x1883 JUMPI PUSH0 DUP1 REVERT JUMPDEST DUP2 MLOAD DUP2 DUP2 GT ISZERO PUSH2 0x1895 JUMPI PUSH2 0x1895 PUSH2 0x1745 JUMP JUMPDEST DUP1 PUSH1 0x5 SHL PUSH1 0x40 MLOAD PUSH1 0x1F NOT PUSH1 0x3F DUP4 ADD AND DUP2 ADD DUP2 DUP2 LT DUP6 DUP3 GT OR ISZERO PUSH2 0x18BA JUMPI PUSH2 0x18BA PUSH2 0x1745 JUMP JUMPDEST PUSH1 0x40 MSTORE SWAP2 DUP3 MSTORE DUP5 DUP3 ADD SWAP3 POP DUP4 DUP2 ADD DUP6 ADD SWAP2 DUP9 DUP4 GT ISZERO PUSH2 0x18D7 JUMPI PUSH0 DUP1 REVERT JUMPDEST SWAP4 DUP6 ADD SWAP4 JUMPDEST DUP3 DUP6 LT ISZERO PUSH2 0x18F5 JUMPI DUP5 MLOAD DUP5 MSTORE SWAP4 DUP6 ADD SWAP4 SWAP3 DUP6 ADD SWAP3 PUSH2 0x18DC JUMP JUMPDEST SWAP9 SWAP8 POP POP POP POP POP POP POP POP JUMP JUMPDEST DUP5 DUP2 MSTORE PUSH1 0x80 PUSH1 0x20 DUP3 ADD MSTORE PUSH0 PUSH2 0x1919 PUSH1 0x80 DUP4 ADD DUP7 PUSH2 0x1793 JUMP JUMPDEST PUSH1 0x1 PUSH1 0x1 PUSH1 0xA0 SHL SUB SWAP5 SWAP1 SWAP5 AND PUSH1 0x40 DUP4 ADD MSTORE POP PUSH1 0x60 ADD MSTORE SWAP3 SWAP2 POP POP JUMP INVALID LOG2 PUSH5 0x6970667358 0x22 SLT KECCAK256 SWAP10 CREATE2 0x2F PUSH17 0x626D33C76CD5E9C0C8515A1B004E3B9F03 SWAP12 0x27 0xED EXP 0xBD DUP15 0xCB 0xD8 0xC6 0xAE DUP3 PUSH5 0x736F6C6343 STOP ADDMOD EQ STOP CALLER STOP STOP STOP STOP STOP STOP STOP STOP STOP STOP STOP STOP EQ PC PUSH4 0xEB42CF62 DUP5 PUSH27 0x6CA784E6416C1682B1B2AE00000000000000000000000000000000 "
				},
				"gasEstimates": {
					"creation": {
						"codeDepositCost": "1301400",
						"executionCost": "infinite",
						"totalCost": "infinite"
					},
					"external": {
						"ARY()": "315",
						"CUSDC()": "227",
						"CUSDT()": "249",
						"DEXFACTORY()": "293",
						"DEXROUTER()": "270",
						"MERY()": "337",
						"WCRO()": "250",
						"addresses(uint256)": "4688",
						"clearVolume()": "infinite",
						"competition_started()": "2376",
						"deposit()": "infinite",
						"feePercent()": "2405",
						"feeReceiver()": "2370",
						"getUserVolumes()": "infinite",
						"owner()": "2451",
						"renounceOwnership()": "infinite",
						"setFeeData(address,uint256)": "48949",
						"startCompetition()": "26574",
						"stopCompetition()": "26547",
						"swapCROForToken(address,uint256)": "infinite",
						"swapTokenForCRO(address,uint256,uint256)": "infinite",
						"swapTokenForToken(address,address,uint256,uint256)": "infinite",
						"transferOwnership(address)": "28439",
						"userVolume(address)": "2561",
						"withdraw(uint256)": "infinite"
					},
					"internal": {
						"addVolume(address,uint256)": "99399",
						"getFee(address,uint256)": "infinite"
					}
				},
				"methodIdentifiers": {
					"ARY()": "afe43b94",
					"CUSDC()": "a37b9e7f",
					"CUSDT()": "6504fbad",
					"DEXFACTORY()": "7c6f8fae",
					"DEXROUTER()": "d7b7d3f3",
					"MERY()": "b0befe63",
					"WCRO()": "1d470cb1",
					"addresses(uint256)": "edf26d9b",
					"clearVolume()": "39bda01c",
					"competition_started()": "ac65334f",
					"deposit()": "d0e30db0",
					"feePercent()": "7fd6f15c",
					"feeReceiver()": "b3f00674",
					"getUserVolumes()": "ae38a070",
					"owner()": "8da5cb5b",
					"renounceOwnership()": "715018a6",
					"setFeeData(address,uint256)": "3977d68d",
					"startCompetition()": "d3e66a9e",
					"stopCompetition()": "5f0018cd",
					"swapCROForToken(address,uint256)": "53ac861e",
					"swapTokenForCRO(address,uint256,uint256)": "16214120",
					"swapTokenForToken(address,address,uint256,uint256)": "d16a4010",
					"transferOwnership(address)": "f2fde38b",
					"userVolume(address)": "a6769ef8",
					"withdraw(uint256)": "2e1a7d4d"
				}
			},
			"storageLayout": {
				"storage": [
					{
						"astId": 8,
						"contract": "ARY/SwapPro.sol:SwapPro",
						"label": "_owner",
						"offset": 0,
						"slot": "0",
						"type": "t_address"
					},
					{
						"astId": 423,
						"contract": "ARY/SwapPro.sol:SwapPro",
						"label": "feeReceiver",
						"offset": 0,
						"slot": "1",
						"type": "t_address"
					},
					{
						"astId": 425,
						"contract": "ARY/SwapPro.sol:SwapPro",
						"label": "feePercent",
						"offset": 0,
						"slot": "2",
						"type": "t_uint256"
					},
					{
						"astId": 428,
						"contract": "ARY/SwapPro.sol:SwapPro",
						"label": "competition_started",
						"offset": 0,
						"slot": "3",
						"type": "t_bool"
					},
					{
						"astId": 432,
						"contract": "ARY/SwapPro.sol:SwapPro",
						"label": "userVolume",
						"offset": 0,
						"slot": "4",
						"type": "t_mapping(t_address,t_uint256)"
					},
					{
						"astId": 436,
						"contract": "ARY/SwapPro.sol:SwapPro",
						"label": "isExistAddress",
						"offset": 0,
						"slot": "5",
						"type": "t_mapping(t_address,t_bool)"
					},
					{
						"astId": 439,
						"contract": "ARY/SwapPro.sol:SwapPro",
						"label": "addresses",
						"offset": 0,
						"slot": "6",
						"type": "t_array(t_address)dyn_storage"
					},
					{
						"astId": 442,
						"contract": "ARY/SwapPro.sol:SwapPro",
						"label": "factory",
						"offset": 0,
						"slot": "7",
						"type": "t_contract(IDEXFactory)278"
					},
					{
						"astId": 445,
						"contract": "ARY/SwapPro.sol:SwapPro",
						"label": "router",
						"offset": 0,
						"slot": "8",
						"type": "t_contract(IDEXRouter)382"
					},
					{
						"astId": 448,
						"contract": "ARY/SwapPro.sol:SwapPro",
						"label": "cusdc",
						"offset": 0,
						"slot": "9",
						"type": "t_contract(IERC20)225"
					},
					{
						"astId": 451,
						"contract": "ARY/SwapPro.sol:SwapPro",
						"label": "cusdt",
						"offset": 0,
						"slot": "10",
						"type": "t_contract(IERC20)225"
					},
					{
						"astId": 454,
						"contract": "ARY/SwapPro.sol:SwapPro",
						"label": "ary",
						"offset": 0,
						"slot": "11",
						"type": "t_contract(IERC20)225"
					},
					{
						"astId": 457,
						"contract": "ARY/SwapPro.sol:SwapPro",
						"label": "mery",
						"offset": 0,
						"slot": "12",
						"type": "t_contract(IERC20)225"
					},
					{
						"astId": 460,
						"contract": "ARY/SwapPro.sol:SwapPro",
						"label": "wcro",
						"offset": 0,
						"slot": "13",
						"type": "t_contract(IWCRO)393"
					}
				],
				"types": {
					"t_address": {
						"encoding": "inplace",
						"label": "address",
						"numberOfBytes": "20"
					},
					"t_array(t_address)dyn_storage": {
						"base": "t_address",
						"encoding": "dynamic_array",
						"label": "address[]",
						"numberOfBytes": "32"
					},
					"t_bool": {
						"encoding": "inplace",
						"label": "bool",
						"numberOfBytes": "1"
					},
					"t_contract(IDEXFactory)278": {
						"encoding": "inplace",
						"label": "contract IDEXFactory",
						"numberOfBytes": "20"
					},
					"t_contract(IDEXRouter)382": {
						"encoding": "inplace",
						"label": "contract IDEXRouter",
						"numberOfBytes": "20"
					},
					"t_contract(IERC20)225": {
						"encoding": "inplace",
						"label": "contract IERC20",
						"numberOfBytes": "20"
					},
					"t_contract(IWCRO)393": {
						"encoding": "inplace",
						"label": "contract IWCRO",
						"numberOfBytes": "20"
					},
					"t_mapping(t_address,t_bool)": {
						"encoding": "mapping",
						"key": "t_address",
						"label": "mapping(address => bool)",
						"numberOfBytes": "32",
						"value": "t_bool"
					},
					"t_mapping(t_address,t_uint256)": {
						"encoding": "mapping",
						"key": "t_address",
						"label": "mapping(address => uint256)",
						"numberOfBytes": "32",
						"value": "t_uint256"
					},
					"t_uint256": {
						"encoding": "inplace",
						"label": "uint256",
						"numberOfBytes": "32"
					}
				}
			},
			"userdoc": {
				"kind": "user",
				"methods": {},
				"version": 1
			}
		}
	}
}