{
	"ARY/HardStake.sol": {
		"HardStake": {
			"abi": [
				{
					"inputs": [
						{
							"internalType": "address",
							"name": "_stakingToken",
							"type": "address"
						},
						{
							"internalType": "address payable",
							"name": "_swapContract",
							"type": "address"
						},
						{
							"internalType": "uint256",
							"name": "_minimumVolumeRequired",
							"type": "uint256"
						}
					],
					"stateMutability": "nonpayable",
					"type": "constructor"
				},
				{
					"inputs": [
						{
							"internalType": "address",
							"name": "owner",
							"type": "address"
						}
					],
					"name": "OwnableInvalidOwner",
					"type": "error"
				},
				{
					"inputs": [
						{
							"internalType": "address",
							"name": "account",
							"type": "address"
						}
					],
					"name": "OwnableUnauthorizedAccount",
					"type": "error"
				},
				{
					"inputs": [
						{
							"internalType": "address",
							"name": "token",
							"type": "address"
						}
					],
					"name": "SafeERC20FailedOperation",
					"type": "error"
				},
				{
					"anonymous": false,
					"inputs": [
						{
							"indexed": true,
							"internalType": "address",
							"name": "user",
							"type": "address"
						},
						{
							"indexed": false,
							"internalType": "uint256",
							"name": "amount",
							"type": "uint256"
						}
					],
					"name": "Claim",
					"type": "event"
				},
				{
					"anonymous": false,
					"inputs": [
						{
							"indexed": true,
							"internalType": "address",
							"name": "user",
							"type": "address"
						},
						{
							"indexed": false,
							"internalType": "uint256",
							"name": "amount",
							"type": "uint256"
						}
					],
					"name": "Deposit",
					"type": "event"
				},
				{
					"anonymous": false,
					"inputs": [
						{
							"indexed": true,
							"internalType": "address",
							"name": "previousOwner",
							"type": "address"
						},
						{
							"indexed": true,
							"internalType": "address",
							"name": "newOwner",
							"type": "address"
						}
					],
					"name": "OwnershipTransferred",
					"type": "event"
				},
				{
					"anonymous": false,
					"inputs": [
						{
							"indexed": false,
							"internalType": "uint256",
							"name": "amount",
							"type": "uint256"
						}
					],
					"name": "RewardAdded",
					"type": "event"
				},
				{
					"anonymous": false,
					"inputs": [
						{
							"indexed": true,
							"internalType": "address",
							"name": "user",
							"type": "address"
						},
						{
							"indexed": false,
							"internalType": "uint256",
							"name": "amount",
							"type": "uint256"
						}
					],
					"name": "Withdraw",
					"type": "event"
				},
				{
					"inputs": [],
					"name": "accTokensPerShare",
					"outputs": [
						{
							"internalType": "uint256",
							"name": "",
							"type": "uint256"
						}
					],
					"stateMutability": "view",
					"type": "function"
				},
				{
					"inputs": [],
					"name": "claimRewards",
					"outputs": [],
					"stateMutability": "nonpayable",
					"type": "function"
				},
				{
					"inputs": [
						{
							"internalType": "uint256",
							"name": "_amount",
							"type": "uint256"
						}
					],
					"name": "deposit",
					"outputs": [],
					"stateMutability": "nonpayable",
					"type": "function"
				},
				{
					"inputs": [],
					"name": "emergencyWithdraw",
					"outputs": [],
					"stateMutability": "nonpayable",
					"type": "function"
				},
				{
					"inputs": [],
					"name": "minimumVolumeRequired",
					"outputs": [
						{
							"internalType": "uint256",
							"name": "",
							"type": "uint256"
						}
					],
					"stateMutability": "view",
					"type": "function"
				},
				{
					"inputs": [
						{
							"internalType": "uint256",
							"name": "reward",
							"type": "uint256"
						}
					],
					"name": "notifyRewardAmount",
					"outputs": [],
					"stateMutability": "nonpayable",
					"type": "function"
				},
				{
					"inputs": [],
					"name": "owner",
					"outputs": [
						{
							"internalType": "address",
							"name": "",
							"type": "address"
						}
					],
					"stateMutability": "view",
					"type": "function"
				},
				{
					"inputs": [
						{
							"internalType": "address",
							"name": "_user",
							"type": "address"
						}
					],
					"name": "pendingReward",
					"outputs": [
						{
							"internalType": "uint256",
							"name": "",
							"type": "uint256"
						}
					],
					"stateMutability": "view",
					"type": "function"
				},
				{
					"inputs": [
						{
							"internalType": "address",
							"name": "tokenAddress",
							"type": "address"
						},
						{
							"internalType": "uint256",
							"name": "tokenAmount",
							"type": "uint256"
						}
					],
					"name": "recoverERC20",
					"outputs": [],
					"stateMutability": "nonpayable",
					"type": "function"
				},
				{
					"inputs": [],
					"name": "renounceOwnership",
					"outputs": [],
					"stateMutability": "nonpayable",
					"type": "function"
				},
				{
					"inputs": [],
					"name": "rewardToken",
					"outputs": [
						{
							"internalType": "contract IERC20",
							"name": "",
							"type": "address"
						}
					],
					"stateMutability": "view",
					"type": "function"
				},
				{
					"inputs": [],
					"name": "stakingToken",
					"outputs": [
						{
							"internalType": "contract IERC20",
							"name": "",
							"type": "address"
						}
					],
					"stateMutability": "view",
					"type": "function"
				},
				{
					"inputs": [],
					"name": "swapContract",
					"outputs": [
						{
							"internalType": "contract SwapPro",
							"name": "",
							"type": "address"
						}
					],
					"stateMutability": "view",
					"type": "function"
				},
				{
					"inputs": [],
					"name": "totalRewards",
					"outputs": [
						{
							"internalType": "uint256",
							"name": "",
							"type": "uint256"
						}
					],
					"stateMutability": "view",
					"type": "function"
				},
				{
					"inputs": [],
					"name": "totalStaked",
					"outputs": [
						{
							"internalType": "uint256",
							"name": "",
							"type": "uint256"
						}
					],
					"stateMutability": "view",
					"type": "function"
				},
				{
					"inputs": [
						{
							"internalType": "address",
							"name": "newOwner",
							"type": "address"
						}
					],
					"name": "transferOwnership",
					"outputs": [],
					"stateMutability": "nonpayable",
					"type": "function"
				},
				{
					"inputs": [
						{
							"internalType": "uint256",
							"name": "_newVolume",
							"type": "uint256"
						}
					],
					"name": "updateMinimumVolumeRequired",
					"outputs": [],
					"stateMutability": "nonpayable",
					"type": "function"
				},
				{
					"inputs": [
						{
							"internalType": "address",
							"name": "",
							"type": "address"
						}
					],
					"name": "userInfo",
					"outputs": [
						{
							"internalType": "uint256",
							"name": "amount",
							"type": "uint256"
						},
						{
							"internalType": "uint256",
							"name": "rewardDebt",
							"type": "uint256"
						}
					],
					"stateMutability": "view",
					"type": "function"
				},
				{
					"inputs": [
						{
							"internalType": "uint256",
							"name": "_amount",
							"type": "uint256"
						}
					],
					"name": "withdraw",
					"outputs": [],
					"stateMutability": "nonpayable",
					"type": "function"
				}
			],
			"devdoc": {
				"errors": {
					"OwnableInvalidOwner(address)": [
						{
							"details": "The owner is not a valid owner account. (eg. `address(0)`)"
						}
					],
					"OwnableUnauthorizedAccount(address)": [
						{
							"details": "The caller account is not authorized to perform an operation."
						}
					],
					"SafeERC20FailedOperation(address)": [
						{
							"details": "An operation with an ERC-20 token failed."
						}
					]
				},
				"kind": "dev",
				"methods": {
					"owner()": {
						"details": "Returns the address of the current owner."
					},
					"renounceOwnership()": {
						"details": "Leaves the contract without owner. It will not be possible to call `onlyOwner` functions. Can only be called by the current owner. NOTE: Renouncing ownership will leave the contract without an owner, thereby disabling any functionality that is only available to the owner."
					},
					"transferOwnership(address)": {
						"details": "Transfers ownership of the contract to a new account (`newOwner`). Can only be called by the current owner."
					}
				},
				"version": 1
			},
			"evm": {
				"assembly": "    /* \"ARY/HardStake.sol\":301:5914  contract HardStake is Ownable, ReentrancyGuard {... */\n  mstore(0x40, 0xc0)\n    /* \"ARY/HardStake.sol\":1385:1832  constructor(... */\n  callvalue\n  dup1\n  iszero\n  tag_1\n  jumpi\n  0x00\n  dup1\n  revert\ntag_1:\n  pop\n  mload(0x40)\n  sub(codesize, bytecodeSize)\n  dup1\n  bytecodeSize\n  dup4\n  codecopy\n  dup2\n  add\n  0x40\n  dup2\n  swap1\n  mstore\n  tag_2\n  swap2\n  tag_3\n  jump\t// in\ntag_2:\n    /* \"ARY/HardStake.sol\":1525:1535  msg.sender */\n  caller\n  dup1\n    /* \"@openzeppelin/contracts/access/Ownable.sol\":1269:1364  if (initialOwner == address(0)) {... */\n  tag_8\n  jumpi\n    /* \"@openzeppelin/contracts/access/Ownable.sol\":1322:1353  OwnableInvalidOwner(address(0)) */\n  mload(0x40)\n  shl(0xe0, 0x1e4fbdf7)\n  dup2\n  mstore\n    /* \"@openzeppelin/contracts/access/Ownable.sol\":1350:1351  0 */\n  0x00\n    /* \"@openzeppelin/contracts/access/Ownable.sol\":1322:1353  OwnableInvalidOwner(address(0)) */\n  0x04\n  dup3\n  add\n    /* \"#utility.yul\":755:806   */\n  mstore\n    /* \"#utility.yul\":728:746   */\n  0x24\n  add\n    /* \"@openzeppelin/contracts/access/Ownable.sol\":1322:1353  OwnableInvalidOwner(address(0)) */\n  mload(0x40)\n  dup1\n  swap2\n  sub\n  swap1\n  revert\n    /* \"@openzeppelin/contracts/access/Ownable.sol\":1269:1364  if (initialOwner == address(0)) {... */\ntag_8:\n    /* \"@openzeppelin/contracts/access/Ownable.sol\":1373:1405  _transferOwnership(initialOwner) */\n  tag_11\n    /* \"@openzeppelin/contracts/access/Ownable.sol\":1392:1404  initialOwner */\n  dup2\n    /* \"@openzeppelin/contracts/access/Ownable.sol\":1373:1391  _transferOwnership */\n  tag_12\n    /* \"@openzeppelin/contracts/access/Ownable.sol\":1373:1405  _transferOwnership(initialOwner) */\n  jump\t// in\ntag_11:\n  pop\n    /* \"@openzeppelin/contracts/security/ReentrancyGuard.sol\":1716:1717  1 */\n  0x01\n    /* \"@openzeppelin/contracts/security/ReentrancyGuard.sol\":1821:1843  _status = _NOT_ENTERED */\n  dup1\n  sstore\n  sub(shl(0xa0, 0x01), 0x01)\n    /* \"ARY/HardStake.sol\":1595:1631  stakingToken = IERC20(_stakingToken) */\n  swap3\n  dup4\n  and\n  0x80\n  dup2\n  swap1\n  mstore\n    /* \"ARY/HardStake.sol\":1642:1677  rewardToken = IERC20(_stakingToken) */\n  0xa0\n  mstore\n    /* \"ARY/HardStake.sol\":1730:1742  swapContract */\n  0x02\n    /* \"ARY/HardStake.sol\":1730:1767  swapContract = SwapPro(_swapContract) */\n  dup1\n  sload\n  not(sub(shl(0xa0, 0x01), 0x01))\n  and\n  swap3\n  swap1\n  swap4\n  and\n  swap2\n  swap1\n  swap2\n  or\n  swap1\n  swap2\n  sstore\n    /* \"ARY/HardStake.sol\":1778:1799  minimumVolumeRequired */\n  0x07\n    /* \"ARY/HardStake.sol\":1778:1824  minimumVolumeRequired = _minimumVolumeRequired */\n  sstore\n    /* \"ARY/HardStake.sol\":301:5914  contract HardStake is Ownable, ReentrancyGuard {... */\n  jump(tag_18)\n    /* \"@openzeppelin/contracts/access/Ownable.sol\":2912:3099  function _transferOwnership(address newOwner) internal virtual {... */\ntag_12:\n    /* \"@openzeppelin/contracts/access/Ownable.sol\":2985:3001  address oldOwner */\n  0x00\n    /* \"@openzeppelin/contracts/access/Ownable.sol\":3004:3010  _owner */\n  dup1\n  sload\n  sub(shl(0xa0, 0x01), 0x01)\n    /* \"@openzeppelin/contracts/access/Ownable.sol\":3020:3037  _owner = newOwner */\n  dup4\n  dup2\n  and\n  not(sub(shl(0xa0, 0x01), 0x01))\n  dup4\n  and\n  dup2\n  or\n  dup5\n  sstore\n    /* \"@openzeppelin/contracts/access/Ownable.sol\":3052:3092  OwnershipTransferred(oldOwner, newOwner) */\n  mload(0x40)\n    /* \"@openzeppelin/contracts/access/Ownable.sol\":3004:3010  _owner */\n  swap2\n  swap1\n  swap3\n  and\n  swap3\n  dup4\n  swap2\n    /* \"@openzeppelin/contracts/access/Ownable.sol\":3052:3092  OwnershipTransferred(oldOwner, newOwner) */\n  0x8be0079c531659141344cd1fd0a4f28419497f9722a3daafe3b4186f6b6457e0\n  swap2\n    /* \"@openzeppelin/contracts/access/Ownable.sol\":2985:3001  address oldOwner */\n  swap1\n    /* \"@openzeppelin/contracts/access/Ownable.sol\":3052:3092  OwnershipTransferred(oldOwner, newOwner) */\n  log3\n    /* \"@openzeppelin/contracts/access/Ownable.sol\":2975:3099  {... */\n  pop\n    /* \"@openzeppelin/contracts/access/Ownable.sol\":2912:3099  function _transferOwnership(address newOwner) internal virtual {... */\n  pop\n  jump\t// out\n    /* \"#utility.yul\":14:145   */\ntag_17:\n  sub(shl(0xa0, 0x01), 0x01)\n    /* \"#utility.yul\":89:120   */\n  dup2\n  and\n    /* \"#utility.yul\":79:121   */\n  dup2\n  eq\n    /* \"#utility.yul\":69:139   */\n  tag_20\n  jumpi\n    /* \"#utility.yul\":135:136   */\n  0x00\n    /* \"#utility.yul\":132:133   */\n  dup1\n    /* \"#utility.yul\":125:137   */\n  revert\n    /* \"#utility.yul\":69:139   */\ntag_20:\n    /* \"#utility.yul\":14:145   */\n  pop\n  jump\t// out\n    /* \"#utility.yul\":150:604   */\ntag_3:\n    /* \"#utility.yul\":246:252   */\n  0x00\n    /* \"#utility.yul\":254:260   */\n  dup1\n    /* \"#utility.yul\":262:268   */\n  0x00\n    /* \"#utility.yul\":315:317   */\n  0x60\n    /* \"#utility.yul\":303:312   */\n  dup5\n    /* \"#utility.yul\":294:301   */\n  dup7\n    /* \"#utility.yul\":290:313   */\n  sub\n    /* \"#utility.yul\":286:318   */\n  slt\n    /* \"#utility.yul\":283:335   */\n  iszero\n  tag_22\n  jumpi\n    /* \"#utility.yul\":331:332   */\n  0x00\n    /* \"#utility.yul\":328:329   */\n  dup1\n    /* \"#utility.yul\":321:333   */\n  revert\n    /* \"#utility.yul\":283:335   */\ntag_22:\n    /* \"#utility.yul\":363:372   */\n  dup4\n    /* \"#utility.yul\":357:373   */\n  mload\n    /* \"#utility.yul\":382:413   */\n  tag_23\n    /* \"#utility.yul\":407:412   */\n  dup2\n    /* \"#utility.yul\":382:413   */\n  tag_17\n  jump\t// in\ntag_23:\n    /* \"#utility.yul\":482:484   */\n  0x20\n    /* \"#utility.yul\":467:485   */\n  dup6\n  add\n    /* \"#utility.yul\":461:486   */\n  mload\n    /* \"#utility.yul\":432:437   */\n  swap1\n  swap4\n  pop\n    /* \"#utility.yul\":495:528   */\n  tag_24\n    /* \"#utility.yul\":461:486   */\n  dup2\n    /* \"#utility.yul\":495:528   */\n  tag_17\n  jump\t// in\ntag_24:\n    /* \"#utility.yul\":547:554   */\n  dup1\n    /* \"#utility.yul\":537:554   */\n  swap3\n  pop\n  pop\n    /* \"#utility.yul\":594:596   */\n  0x40\n    /* \"#utility.yul\":583:592   */\n  dup5\n    /* \"#utility.yul\":579:597   */\n  add\n    /* \"#utility.yul\":573:598   */\n  mload\n    /* \"#utility.yul\":563:598   */\n  swap1\n  pop\n    /* \"#utility.yul\":150:604   */\n  swap3\n  pop\n  swap3\n  pop\n  swap3\n  jump\t// out\n    /* \"#utility.yul\":609:812   */\ntag_18:\n    /* \"ARY/HardStake.sol\":301:5914  contract HardStake is Ownable, ReentrancyGuard {... */\n  mload(0x80)\n  mload(0xa0)\n  codecopy(0x00, dataOffset(sub_0), dataSize(sub_0))\n  0x00\n  assignImmutable(\"0x2f376be2da13ceb7f7d4d291fdf0ead4b1285423c32c5412ff3af6625953248f\")\n  0x00\n  assignImmutable(\"0x0a2c56019ccb5f08608c3b05b18a6137874ce411ef59ecc21ab7d289712eec9f\")\n  return(0x00, dataSize(sub_0))\nstop\n\nsub_0: assembly {\n        /* \"ARY/HardStake.sol\":301:5914  contract HardStake is Ownable, ReentrancyGuard {... */\n      mstore(0x40, 0x80)\n      callvalue\n      dup1\n      iszero\n      tag_1\n      jumpi\n      0x00\n      dup1\n      revert\n    tag_1:\n      pop\n      jumpi(tag_2, lt(calldatasize, 0x04))\n      shr(0xe0, calldataload(0x00))\n      dup1\n      0x72f702f3\n      gt\n      tag_22\n      jumpi\n      dup1\n      0xb6b55f25\n      gt\n      tag_23\n      jumpi\n      dup1\n      0xb6b55f25\n      eq\n      tag_17\n      jumpi\n      dup1\n      0xdb2e21bc\n      eq\n      tag_18\n      jumpi\n      dup1\n      0xf2fde38b\n      eq\n      tag_19\n      jumpi\n      dup1\n      0xf40f0f52\n      eq\n      tag_20\n      jumpi\n      dup1\n      0xf7c618c1\n      eq\n      tag_21\n      jumpi\n      0x00\n      dup1\n      revert\n    tag_23:\n      dup1\n      0x72f702f3\n      eq\n      tag_12\n      jumpi\n      dup1\n      0x817b1cd2\n      eq\n      tag_13\n      jumpi\n      dup1\n      0x8980f11f\n      eq\n      tag_14\n      jumpi\n      dup1\n      0x8da5cb5b\n      eq\n      tag_15\n      jumpi\n      dup1\n      0x8ea83031\n      eq\n      tag_16\n      jumpi\n      0x00\n      dup1\n      revert\n    tag_22:\n      dup1\n      0x2f3c9a4f\n      gt\n      tag_24\n      jumpi\n      dup1\n      0x2f3c9a4f\n      eq\n      tag_7\n      jumpi\n      dup1\n      0x372500ab\n      eq\n      tag_8\n      jumpi\n      dup1\n      0x3c6b16ab\n      eq\n      tag_9\n      jumpi\n      dup1\n      0x644f362d\n      eq\n      tag_10\n      jumpi\n      dup1\n      0x715018a6\n      eq\n      tag_11\n      jumpi\n      0x00\n      dup1\n      revert\n    tag_24:\n      dup1\n      0x0e15561a\n      eq\n      tag_3\n      jumpi\n      dup1\n      0x1959a002\n      eq\n      tag_4\n      jumpi\n      dup1\n      0x2277d7e1\n      eq\n      tag_5\n      jumpi\n      dup1\n      0x2e1a7d4d\n      eq\n      tag_6\n      jumpi\n    tag_2:\n      0x00\n      dup1\n      revert\n        /* \"ARY/HardStake.sol\":1015:1042  uint256 public totalRewards */\n    tag_3:\n      tag_25\n      sload(0x06)\n      dup2\n      jump\n    tag_25:\n      mload(0x40)\n        /* \"#utility.yul\":160:185   */\n      swap1\n      dup2\n      mstore\n        /* \"#utility.yul\":148:150   */\n      0x20\n        /* \"#utility.yul\":133:151   */\n      add\n        /* \"ARY/HardStake.sol\":1015:1042  uint256 public totalRewards */\n    tag_27:\n      mload(0x40)\n      dup1\n      swap2\n      sub\n      swap1\n      return\n        /* \"ARY/HardStake.sol\":835:880  mapping (address => UserInfo) public userInfo */\n    tag_4:\n      tag_29\n      tag_30\n      calldatasize\n      0x04\n      tag_31\n      jump\t// in\n    tag_30:\n      mstore(0x20, 0x04)\n      0x00\n      swap1\n      dup2\n      mstore\n      0x40\n      swap1\n      keccak256\n      dup1\n      sload\n      0x01\n      swap1\n      swap2\n      add\n      sload\n      dup3\n      jump\n    tag_29:\n      0x40\n      dup1\n      mload\n        /* \"#utility.yul\":739:764   */\n      swap3\n      dup4\n      mstore\n        /* \"#utility.yul\":795:797   */\n      0x20\n        /* \"#utility.yul\":780:798   */\n      dup4\n      add\n        /* \"#utility.yul\":773:807   */\n      swap2\n      swap1\n      swap2\n      mstore\n        /* \"#utility.yul\":712:730   */\n      add\n        /* \"ARY/HardStake.sol\":835:880  mapping (address => UserInfo) public userInfo */\n      tag_27\n        /* \"#utility.yul\":565:813   */\n      jump\n        /* \"ARY/HardStake.sol\":5464:5593  function updateMinimumVolumeRequired(uint256 _newVolume) external onlyOwner {... */\n    tag_5:\n      tag_35\n      tag_36\n      calldatasize\n      0x04\n      tag_37\n      jump\t// in\n    tag_36:\n      tag_38\n      jump\t// in\n    tag_35:\n      stop\n        /* \"ARY/HardStake.sol\":3655:4443  function withdraw(uint256 _amount) external nonReentrant {... */\n    tag_6:\n      tag_35\n      tag_40\n      calldatasize\n      0x04\n      tag_37\n      jump\t// in\n    tag_40:\n      tag_41\n      jump\t// in\n        /* \"ARY/HardStake.sol\":940:972  uint256 public accTokensPerShare */\n    tag_7:\n      tag_25\n      sload(0x05)\n      dup2\n      jump\n        /* \"ARY/HardStake.sol\":4507:4924  function claimRewards() external nonReentrant {... */\n    tag_8:\n      tag_35\n      tag_46\n      jump\t// in\n        /* \"ARY/HardStake.sol\":1911:2340  function notifyRewardAmount(uint256 reward) external {... */\n    tag_9:\n      tag_35\n      tag_48\n      calldatasize\n      0x04\n      tag_37\n      jump\t// in\n    tag_48:\n      tag_49\n      jump\t// in\n        /* \"ARY/HardStake.sol\":1098:1134  uint256 public minimumVolumeRequired */\n    tag_10:\n      tag_25\n      sload(0x07)\n      dup2\n      jump\n        /* \"@openzeppelin/contracts/access/Ownable.sol\":2293:2394  function renounceOwnership() public virtual onlyOwner {... */\n    tag_11:\n      tag_35\n      tag_54\n      jump\t// in\n        /* \"ARY/HardStake.sol\":639:675  IERC20 public immutable stakingToken */\n    tag_12:\n      tag_55\n      immutable(\"0x0a2c56019ccb5f08608c3b05b18a6137874ce411ef59ecc21ab7d289712eec9f\")\n      dup2\n      jump\n    tag_55:\n      mload(0x40)\n      sub(shl(0xa0, 0x01), 0x01)\n        /* \"#utility.yul\":1181:1213   */\n      swap1\n      swap2\n      and\n        /* \"#utility.yul\":1163:1214   */\n      dup2\n      mstore\n        /* \"#utility.yul\":1151:1153   */\n      0x20\n        /* \"#utility.yul\":1136:1154   */\n      add\n        /* \"ARY/HardStake.sol\":639:675  IERC20 public immutable stakingToken */\n      tag_27\n        /* \"#utility.yul\":1003:1220   */\n      jump\n        /* \"ARY/HardStake.sol\":754:780  uint256 public totalStaked */\n    tag_13:\n      tag_25\n      sload(0x03)\n      dup2\n      jump\n        /* \"ARY/HardStake.sol\":5664:5911  function recoverERC20(address tokenAddress, uint256 tokenAmount) external onlyOwner {... */\n    tag_14:\n      tag_35\n      tag_63\n      calldatasize\n      0x04\n      tag_64\n      jump\t// in\n    tag_63:\n      tag_65\n      jump\t// in\n        /* \"@openzeppelin/contracts/access/Ownable.sol\":1638:1723  function owner() public view virtual returns (address) {... */\n    tag_15:\n        /* \"@openzeppelin/contracts/access/Ownable.sol\":1684:1691  address */\n      0x00\n        /* \"@openzeppelin/contracts/access/Ownable.sol\":1710:1716  _owner */\n      sload\n      sub(shl(0xa0, 0x01), 0x01)\n      and\n        /* \"@openzeppelin/contracts/access/Ownable.sol\":1638:1723  function owner() public view virtual returns (address) {... */\n      jump(tag_55)\n        /* \"ARY/HardStake.sol\":430:457  SwapPro public swapContract */\n    tag_16:\n      sload(0x02)\n      tag_55\n      swap1\n      sub(shl(0xa0, 0x01), 0x01)\n      and\n      dup2\n      jump\n        /* \"ARY/HardStake.sol\":2674:3616  function deposit(uint256 _amount) external nonReentrant {... */\n    tag_17:\n      tag_35\n      tag_75\n      calldatasize\n      0x04\n      tag_37\n      jump\t// in\n    tag_75:\n      tag_76\n      jump\t// in\n        /* \"ARY/HardStake.sol\":5007:5401  function emergencyWithdraw() external nonReentrant {... */\n    tag_18:\n      tag_35\n      tag_78\n      jump\t// in\n        /* \"@openzeppelin/contracts/access/Ownable.sol\":2543:2758  function transferOwnership(address newOwner) public virtual onlyOwner {... */\n    tag_19:\n      tag_35\n      tag_80\n      calldatasize\n      0x04\n      tag_31\n      jump\t// in\n    tag_80:\n      tag_81\n      jump\t// in\n        /* \"ARY/HardStake.sol\":2405:2645  function pendingReward(address _user) external view returns (uint256) {... */\n    tag_20:\n      tag_25\n      tag_83\n      calldatasize\n      0x04\n      tag_31\n      jump\t// in\n    tag_83:\n      tag_84\n      jump\t// in\n        /* \"ARY/HardStake.sol\":682:717  IERC20 public immutable rewardToken */\n    tag_21:\n      tag_55\n      immutable(\"0x2f376be2da13ceb7f7d4d291fdf0ead4b1285423c32c5412ff3af6625953248f\")\n      dup2\n      jump\n        /* \"ARY/HardStake.sol\":5464:5593  function updateMinimumVolumeRequired(uint256 _newVolume) external onlyOwner {... */\n    tag_38:\n        /* \"@openzeppelin/contracts/access/Ownable.sol\":1531:1544  _checkOwner() */\n      tag_90\n        /* \"@openzeppelin/contracts/access/Ownable.sol\":1531:1542  _checkOwner */\n      tag_91\n        /* \"@openzeppelin/contracts/access/Ownable.sol\":1531:1544  _checkOwner() */\n      jump\t// in\n    tag_90:\n        /* \"ARY/HardStake.sol\":5551:5572  minimumVolumeRequired */\n      0x07\n        /* \"ARY/HardStake.sol\":5551:5585  minimumVolumeRequired = _newVolume */\n      sstore\n        /* \"ARY/HardStake.sol\":5464:5593  function updateMinimumVolumeRequired(uint256 _newVolume) external onlyOwner {... */\n      jump\t// out\n        /* \"ARY/HardStake.sol\":3655:4443  function withdraw(uint256 _amount) external nonReentrant {... */\n    tag_41:\n        /* \"@openzeppelin/contracts/security/ReentrancyGuard.sol\":2261:2282  _nonReentrantBefore() */\n      tag_94\n        /* \"@openzeppelin/contracts/security/ReentrancyGuard.sol\":2261:2280  _nonReentrantBefore */\n      tag_95\n        /* \"@openzeppelin/contracts/security/ReentrancyGuard.sol\":2261:2282  _nonReentrantBefore() */\n      jump\t// in\n    tag_94:\n        /* \"ARY/HardStake.sol\":3756:3766  msg.sender */\n      caller\n        /* \"ARY/HardStake.sol\":3723:3744  UserInfo storage user */\n      0x00\n        /* \"ARY/HardStake.sol\":3747:3767  userInfo[msg.sender] */\n      swap1\n      dup2\n      mstore\n        /* \"ARY/HardStake.sol\":3747:3755  userInfo */\n      0x04\n        /* \"ARY/HardStake.sol\":3747:3767  userInfo[msg.sender] */\n      0x20\n      mstore\n      0x40\n      swap1\n      keccak256\n        /* \"ARY/HardStake.sol\":3786:3797  user.amount */\n      dup1\n      sload\n        /* \"ARY/HardStake.sol\":3786:3808  user.amount >= _amount */\n      dup3\n      gt\n      iszero\n        /* \"ARY/HardStake.sol\":3778:3844  require(user.amount >= _amount, \"Withdraw amount exceeds balance\") */\n      tag_97\n      jumpi\n      mload(0x40)\n      shl(0xe5, 0x461bcd)\n      dup2\n      mstore\n        /* \"#utility.yul\":2126:2128   */\n      0x20\n        /* \"ARY/HardStake.sol\":3778:3844  require(user.amount >= _amount, \"Withdraw amount exceeds balance\") */\n      0x04\n      dup3\n      add\n        /* \"#utility.yul\":2108:2129   */\n      mstore\n        /* \"#utility.yul\":2165:2167   */\n      0x1f\n        /* \"#utility.yul\":2145:2163   */\n      0x24\n      dup3\n      add\n        /* \"#utility.yul\":2138:2168   */\n      mstore\n        /* \"#utility.yul\":2204:2237   */\n      0x576974686472617720616d6f756e7420657863656564732062616c616e636500\n        /* \"#utility.yul\":2184:2202   */\n      0x44\n      dup3\n      add\n        /* \"#utility.yul\":2177:2238   */\n      mstore\n        /* \"#utility.yul\":2255:2273   */\n      0x64\n      add\n        /* \"ARY/HardStake.sol\":3778:3844  require(user.amount >= _amount, \"Withdraw amount exceeds balance\") */\n    tag_98:\n      mload(0x40)\n      dup1\n      swap2\n      sub\n      swap1\n      revert\n    tag_97:\n        /* \"ARY/HardStake.sol\":3918:3933  uint256 pending */\n      0x00\n        /* \"ARY/HardStake.sol\":3979:3983  user */\n      dup2\n        /* \"ARY/HardStake.sol\":3979:3994  user.rewardDebt */\n      0x01\n      add\n      sload\n        /* \"ARY/HardStake.sol\":3972:3976  1e12 */\n      0xe8d4a51000\n        /* \"ARY/HardStake.sol\":3951:3968  accTokensPerShare */\n      sload(0x05)\n        /* \"ARY/HardStake.sol\":3937:3941  user */\n      dup5\n        /* \"ARY/HardStake.sol\":3937:3948  user.amount */\n      0x00\n      add\n      sload\n        /* \"ARY/HardStake.sol\":3937:3968  user.amount * accTokensPerShare */\n      tag_100\n      swap2\n      swap1\n      tag_101\n      jump\t// in\n    tag_100:\n        /* \"ARY/HardStake.sol\":3936:3976  (user.amount * accTokensPerShare) / 1e12 */\n      tag_102\n      swap2\n      swap1\n      tag_103\n      jump\t// in\n    tag_102:\n        /* \"ARY/HardStake.sol\":3936:3994  (user.amount * accTokensPerShare) / 1e12 - user.rewardDebt */\n      tag_104\n      swap2\n      swap1\n      tag_105\n      jump\t// in\n    tag_104:\n        /* \"ARY/HardStake.sol\":3918:3994  uint256 pending = (user.amount * accTokensPerShare) / 1e12 - user.rewardDebt */\n      swap1\n      pop\n        /* \"ARY/HardStake.sol\":4009:4020  pending > 0 */\n      dup1\n      iszero\n        /* \"ARY/HardStake.sol\":4005:4140  if (pending > 0) {... */\n      tag_106\n      jumpi\n        /* \"ARY/HardStake.sol\":4037:4082  rewardToken.safeTransfer(msg.sender, pending) */\n      tag_107\n      sub(shl(0xa0, 0x01), 0x01)\n        /* \"ARY/HardStake.sol\":4037:4048  rewardToken */\n      immutable(\"0x2f376be2da13ceb7f7d4d291fdf0ead4b1285423c32c5412ff3af6625953248f\")\n        /* \"ARY/HardStake.sol\":4037:4061  rewardToken.safeTransfer */\n      and\n        /* \"ARY/HardStake.sol\":4062:4072  msg.sender */\n      caller\n        /* \"ARY/HardStake.sol\":4074:4081  pending */\n      dup4\n        /* \"ARY/HardStake.sol\":4037:4061  rewardToken.safeTransfer */\n      tag_108\n        /* \"ARY/HardStake.sol\":4037:4082  rewardToken.safeTransfer(msg.sender, pending) */\n      jump\t// in\n    tag_107:\n        /* \"ARY/HardStake.sol\":4102:4128  Claim(msg.sender, pending) */\n      mload(0x40)\n        /* \"#utility.yul\":160:185   */\n      dup2\n      dup2\n      mstore\n        /* \"ARY/HardStake.sol\":4108:4118  msg.sender */\n      caller\n      swap1\n        /* \"ARY/HardStake.sol\":4102:4128  Claim(msg.sender, pending) */\n      0x47cee97cb7acd717b3c0aa1435d004cd5b3c8c57d70dbceb4e4458bbd60e39d4\n      swap1\n        /* \"#utility.yul\":148:150   */\n      0x20\n        /* \"#utility.yul\":133:151   */\n      add\n        /* \"ARY/HardStake.sol\":4102:4128  Claim(msg.sender, pending) */\n      mload(0x40)\n      dup1\n      swap2\n      sub\n      swap1\n      log2\n        /* \"ARY/HardStake.sol\":4005:4140  if (pending > 0) {... */\n    tag_106:\n        /* \"ARY/HardStake.sol\":4156:4167  _amount > 0 */\n      dup3\n      iszero\n        /* \"ARY/HardStake.sol\":4152:4365  if (_amount > 0) {... */\n      tag_110\n      jumpi\n        /* \"ARY/HardStake.sol\":4199:4206  _amount */\n      dup3\n        /* \"ARY/HardStake.sol\":4184:4188  user */\n      dup3\n        /* \"ARY/HardStake.sol\":4184:4195  user.amount */\n      0x00\n      add\n      0x00\n        /* \"ARY/HardStake.sol\":4184:4206  user.amount -= _amount */\n      dup3\n      dup3\n      sload\n      tag_111\n      swap2\n      swap1\n      tag_105\n      jump\t// in\n    tag_111:\n      swap3\n      pop\n      pop\n      dup2\n      swap1\n      sstore\n      pop\n        /* \"ARY/HardStake.sol\":4236:4243  _amount */\n      dup3\n        /* \"ARY/HardStake.sol\":4221:4232  totalStaked */\n      0x03\n      0x00\n        /* \"ARY/HardStake.sol\":4221:4243  totalStaked -= _amount */\n      dup3\n      dup3\n      sload\n      tag_112\n      swap2\n      swap1\n      tag_105\n      jump\t// in\n    tag_112:\n      swap1\n      swap2\n      sstore\n      pop\n        /* \"ARY/HardStake.sol\":4258:4304  stakingToken.safeTransfer(msg.sender, _amount) */\n      tag_113\n      swap1\n      pop\n      sub(shl(0xa0, 0x01), 0x01)\n        /* \"ARY/HardStake.sol\":4258:4270  stakingToken */\n      immutable(\"0x0a2c56019ccb5f08608c3b05b18a6137874ce411ef59ecc21ab7d289712eec9f\")\n        /* \"ARY/HardStake.sol\":4258:4283  stakingToken.safeTransfer */\n      and\n        /* \"ARY/HardStake.sol\":4284:4294  msg.sender */\n      caller\n        /* \"ARY/HardStake.sol\":4296:4303  _amount */\n      dup6\n        /* \"ARY/HardStake.sol\":4258:4283  stakingToken.safeTransfer */\n      tag_108\n        /* \"ARY/HardStake.sol\":4258:4304  stakingToken.safeTransfer(msg.sender, _amount) */\n      jump\t// in\n    tag_113:\n        /* \"ARY/HardStake.sol\":4324:4353  Withdraw(msg.sender, _amount) */\n      mload(0x40)\n        /* \"#utility.yul\":160:185   */\n      dup4\n      dup2\n      mstore\n        /* \"ARY/HardStake.sol\":4333:4343  msg.sender */\n      caller\n      swap1\n        /* \"ARY/HardStake.sol\":4324:4353  Withdraw(msg.sender, _amount) */\n      0x884edad9ce6fa2440d8a54cc123490eb96d2768479d49ff9c7366125a9424364\n      swap1\n        /* \"#utility.yul\":148:150   */\n      0x20\n        /* \"#utility.yul\":133:151   */\n      add\n        /* \"ARY/HardStake.sol\":4324:4353  Withdraw(msg.sender, _amount) */\n      mload(0x40)\n      dup1\n      swap2\n      sub\n      swap1\n      log2\n        /* \"ARY/HardStake.sol\":4152:4365  if (_amount > 0) {... */\n    tag_110:\n        /* \"ARY/HardStake.sol\":4410:4427  accTokensPerShare */\n      sload(0x05)\n        /* \"ARY/HardStake.sol\":4396:4407  user.amount */\n      dup3\n      sload\n        /* \"ARY/HardStake.sol\":4431:4435  1e12 */\n      0xe8d4a51000\n      swap2\n        /* \"ARY/HardStake.sol\":4396:4427  user.amount * accTokensPerShare */\n      tag_115\n      swap2\n      tag_101\n      jump\t// in\n    tag_115:\n        /* \"ARY/HardStake.sol\":4395:4435  (user.amount * accTokensPerShare) / 1e12 */\n      tag_116\n      swap2\n      swap1\n      tag_103\n      jump\t// in\n    tag_116:\n        /* \"ARY/HardStake.sol\":4377:4392  user.rewardDebt */\n      0x01\n      swap3\n      dup4\n      add\n        /* \"ARY/HardStake.sol\":4377:4435  user.rewardDebt = (user.amount * accTokensPerShare) / 1e12 */\n      sstore\n      pop\n        /* \"@openzeppelin/contracts/security/ReentrancyGuard.sol\":2809:2831  _status = _NOT_ENTERED */\n      dup1\n      sstore\n        /* \"ARY/HardStake.sol\":3655:4443  function withdraw(uint256 _amount) external nonReentrant {... */\n      pop\n      jump\t// out\n        /* \"@openzeppelin/contracts/security/ReentrancyGuard.sol\":2303:2323  _nonReentrantAfter() */\n    tag_117:\n        /* \"ARY/HardStake.sol\":3655:4443  function withdraw(uint256 _amount) external nonReentrant {... */\n      pop\n      jump\t// out\n        /* \"ARY/HardStake.sol\":4507:4924  function claimRewards() external nonReentrant {... */\n    tag_46:\n        /* \"@openzeppelin/contracts/security/ReentrancyGuard.sol\":2261:2282  _nonReentrantBefore() */\n      tag_120\n        /* \"@openzeppelin/contracts/security/ReentrancyGuard.sol\":2261:2280  _nonReentrantBefore */\n      tag_95\n        /* \"@openzeppelin/contracts/security/ReentrancyGuard.sol\":2261:2282  _nonReentrantBefore() */\n      jump\t// in\n    tag_120:\n        /* \"ARY/HardStake.sol\":4597:4607  msg.sender */\n      caller\n        /* \"ARY/HardStake.sol\":4564:4585  UserInfo storage user */\n      0x00\n        /* \"ARY/HardStake.sol\":4588:4608  userInfo[msg.sender] */\n      swap1\n      dup2\n      mstore\n        /* \"ARY/HardStake.sol\":4588:4596  userInfo */\n      0x04\n        /* \"ARY/HardStake.sol\":4588:4608  userInfo[msg.sender] */\n      0x20\n      mstore\n      0x40\n      dup2\n      keccak256\n        /* \"ARY/HardStake.sol\":4680:4695  user.rewardDebt */\n      0x01\n      dup2\n      add\n      sload\n        /* \"ARY/HardStake.sol\":4652:4669  accTokensPerShare */\n      sload(0x05)\n        /* \"ARY/HardStake.sol\":4638:4649  user.amount */\n      dup3\n      sload\n        /* \"ARY/HardStake.sol\":4588:4608  userInfo[msg.sender] */\n      swap3\n      swap4\n        /* \"ARY/HardStake.sol\":4564:4585  UserInfo storage user */\n      swap3\n        /* \"ARY/HardStake.sol\":4673:4677  1e12 */\n      0xe8d4a51000\n      swap2\n        /* \"ARY/HardStake.sol\":4638:4669  user.amount * accTokensPerShare */\n      tag_122\n      swap2\n      tag_101\n      jump\t// in\n    tag_122:\n        /* \"ARY/HardStake.sol\":4637:4677  (user.amount * accTokensPerShare) / 1e12 */\n      tag_123\n      swap2\n      swap1\n      tag_103\n      jump\t// in\n    tag_123:\n        /* \"ARY/HardStake.sol\":4637:4695  (user.amount * accTokensPerShare) / 1e12 - user.rewardDebt */\n      tag_124\n      swap2\n      swap1\n      tag_105\n      jump\t// in\n    tag_124:\n        /* \"ARY/HardStake.sol\":4619:4695  uint256 pending = (user.amount * accTokensPerShare) / 1e12 - user.rewardDebt */\n      swap1\n      pop\n        /* \"ARY/HardStake.sol\":4724:4725  0 */\n      0x00\n        /* \"ARY/HardStake.sol\":4714:4721  pending */\n      dup2\n        /* \"ARY/HardStake.sol\":4714:4725  pending > 0 */\n      gt\n        /* \"ARY/HardStake.sol\":4706:4749  require(pending > 0, \"No rewards to claim\") */\n      tag_125\n      jumpi\n      mload(0x40)\n      shl(0xe5, 0x461bcd)\n      dup2\n      mstore\n        /* \"#utility.yul\":3146:3148   */\n      0x20\n        /* \"ARY/HardStake.sol\":4706:4749  require(pending > 0, \"No rewards to claim\") */\n      0x04\n      dup3\n      add\n        /* \"#utility.yul\":3128:3149   */\n      mstore\n        /* \"#utility.yul\":3185:3187   */\n      0x13\n        /* \"#utility.yul\":3165:3183   */\n      0x24\n      dup3\n      add\n        /* \"#utility.yul\":3158:3188   */\n      mstore\n      shl(0x68, 0x4e6f207265776172647320746f20636c61696d)\n        /* \"#utility.yul\":3204:3222   */\n      0x44\n      dup3\n      add\n        /* \"#utility.yul\":3197:3246   */\n      mstore\n        /* \"#utility.yul\":3263:3281   */\n      0x64\n      add\n        /* \"ARY/HardStake.sol\":4706:4749  require(pending > 0, \"No rewards to claim\") */\n      tag_98\n        /* \"#utility.yul\":2944:3287   */\n      jump\n        /* \"ARY/HardStake.sol\":4706:4749  require(pending > 0, \"No rewards to claim\") */\n    tag_125:\n        /* \"ARY/HardStake.sol\":4760:4805  rewardToken.safeTransfer(msg.sender, pending) */\n      tag_128\n      sub(shl(0xa0, 0x01), 0x01)\n        /* \"ARY/HardStake.sol\":4760:4771  rewardToken */\n      immutable(\"0x2f376be2da13ceb7f7d4d291fdf0ead4b1285423c32c5412ff3af6625953248f\")\n        /* \"ARY/HardStake.sol\":4760:4784  rewardToken.safeTransfer */\n      and\n        /* \"ARY/HardStake.sol\":4785:4795  msg.sender */\n      caller\n        /* \"ARY/HardStake.sol\":4797:4804  pending */\n      dup4\n        /* \"ARY/HardStake.sol\":4760:4784  rewardToken.safeTransfer */\n      tag_108\n        /* \"ARY/HardStake.sol\":4760:4805  rewardToken.safeTransfer(msg.sender, pending) */\n      jump\t// in\n    tag_128:\n        /* \"ARY/HardStake.sol\":4849:4866  accTokensPerShare */\n      sload(0x05)\n        /* \"ARY/HardStake.sol\":4835:4846  user.amount */\n      dup3\n      sload\n        /* \"ARY/HardStake.sol\":4870:4874  1e12 */\n      0xe8d4a51000\n      swap2\n        /* \"ARY/HardStake.sol\":4835:4866  user.amount * accTokensPerShare */\n      tag_129\n      swap2\n      tag_101\n      jump\t// in\n    tag_129:\n        /* \"ARY/HardStake.sol\":4834:4874  (user.amount * accTokensPerShare) / 1e12 */\n      tag_130\n      swap2\n      swap1\n      tag_103\n      jump\t// in\n    tag_130:\n        /* \"ARY/HardStake.sol\":4816:4831  user.rewardDebt */\n      0x01\n      dup4\n      add\n        /* \"ARY/HardStake.sol\":4816:4874  user.rewardDebt = (user.amount * accTokensPerShare) / 1e12 */\n      sstore\n        /* \"ARY/HardStake.sol\":4890:4916  Claim(msg.sender, pending) */\n      mload(0x40)\n        /* \"#utility.yul\":160:185   */\n      dup2\n      dup2\n      mstore\n        /* \"ARY/HardStake.sol\":4896:4906  msg.sender */\n      caller\n      swap1\n        /* \"ARY/HardStake.sol\":4890:4916  Claim(msg.sender, pending) */\n      0x47cee97cb7acd717b3c0aa1435d004cd5b3c8c57d70dbceb4e4458bbd60e39d4\n      swap1\n        /* \"#utility.yul\":148:150   */\n      0x20\n        /* \"#utility.yul\":133:151   */\n      add\n        /* \"ARY/HardStake.sol\":4890:4916  Claim(msg.sender, pending) */\n    tag_131:\n      mload(0x40)\n      dup1\n      swap2\n      sub\n      swap1\n      log2\n        /* \"ARY/HardStake.sol\":4553:4924  {... */\n      pop\n      pop\n        /* \"@openzeppelin/contracts/security/ReentrancyGuard.sol\":2303:2323  _nonReentrantAfter() */\n      tag_132\n        /* \"@openzeppelin/contracts/security/ReentrancyGuard.sol\":1716:1717  1 */\n      0x01\n        /* \"@openzeppelin/contracts/security/ReentrancyGuard.sol\":2809:2831  _status = _NOT_ENTERED */\n      dup1\n      sstore\n        /* \"@openzeppelin/contracts/security/ReentrancyGuard.sol\":2629:2838  function _nonReentrantAfter() private {... */\n      jump\n        /* \"@openzeppelin/contracts/security/ReentrancyGuard.sol\":2303:2323  _nonReentrantAfter() */\n    tag_132:\n        /* \"ARY/HardStake.sol\":4507:4924  function claimRewards() external nonReentrant {... */\n      jump\t// out\n        /* \"ARY/HardStake.sol\":1911:2340  function notifyRewardAmount(uint256 reward) external {... */\n    tag_49:\n        /* \"ARY/HardStake.sol\":2005:2017  swapContract */\n      and(sub(shl(0xa0, 0x01), 0x01), sload(0x02))\n        /* \"ARY/HardStake.sol\":1983:1993  msg.sender */\n      caller\n        /* \"ARY/HardStake.sol\":1983:2018  msg.sender == address(swapContract) */\n      eq\n      dup1\n        /* \"ARY/HardStake.sol\":1983:2043  msg.sender == address(swapContract) || msg.sender == owner() */\n      tag_134\n      jumpi\n      pop\n        /* \"@openzeppelin/contracts/access/Ownable.sol\":1684:1691  address */\n      0x00\n        /* \"@openzeppelin/contracts/access/Ownable.sol\":1710:1716  _owner */\n      sload\n      sub(shl(0xa0, 0x01), 0x01)\n      and\n        /* \"ARY/HardStake.sol\":2022:2032  msg.sender */\n      caller\n        /* \"ARY/HardStake.sol\":2022:2043  msg.sender == owner() */\n      eq\n        /* \"ARY/HardStake.sol\":1983:2043  msg.sender == address(swapContract) || msg.sender == owner() */\n    tag_134:\n        /* \"ARY/HardStake.sol\":1975:2062  require(msg.sender == address(swapContract) || msg.sender == owner(), \"Not authorized\") */\n      tag_136\n      jumpi\n      mload(0x40)\n      shl(0xe5, 0x461bcd)\n      dup2\n      mstore\n        /* \"#utility.yul\":3494:3496   */\n      0x20\n        /* \"ARY/HardStake.sol\":1975:2062  require(msg.sender == address(swapContract) || msg.sender == owner(), \"Not authorized\") */\n      0x04\n      dup3\n      add\n        /* \"#utility.yul\":3476:3497   */\n      mstore\n        /* \"#utility.yul\":3533:3535   */\n      0x0e\n        /* \"#utility.yul\":3513:3531   */\n      0x24\n      dup3\n      add\n        /* \"#utility.yul\":3506:3536   */\n      mstore\n      shl(0x92, 0x139bdd08185d5d1a1bdc9a5e9959)\n        /* \"#utility.yul\":3552:3570   */\n      0x44\n      dup3\n      add\n        /* \"#utility.yul\":3545:3589   */\n      mstore\n        /* \"#utility.yul\":3606:3624   */\n      0x64\n      add\n        /* \"ARY/HardStake.sol\":1975:2062  require(msg.sender == address(swapContract) || msg.sender == owner(), \"Not authorized\") */\n      tag_98\n        /* \"#utility.yul\":3292:3630   */\n      jump\n        /* \"ARY/HardStake.sol\":1975:2062  require(msg.sender == address(swapContract) || msg.sender == owner(), \"Not authorized\") */\n    tag_136:\n        /* \"ARY/HardStake.sol\":2077:2088  totalStaked */\n      sload(0x03)\n        /* \"ARY/HardStake.sol\":2092:2093  0 */\n      0x00\n        /* \"ARY/HardStake.sol\":2077:2093  totalStaked == 0 */\n      sub\n        /* \"ARY/HardStake.sol\":2073:2167  if (totalStaked == 0) {... */\n      tag_139\n      jumpi\n        /* \"ARY/HardStake.sol\":1911:2340  function notifyRewardAmount(uint256 reward) external {... */\n      pop\n      jump\t// out\n        /* \"ARY/HardStake.sol\":2073:2167  if (totalStaked == 0) {... */\n    tag_139:\n        /* \"ARY/HardStake.sol\":2253:2264  totalStaked */\n      sload(0x03)\n        /* \"ARY/HardStake.sol\":2236:2249  reward * 1e12 */\n      tag_140\n        /* \"ARY/HardStake.sol\":2236:2242  reward */\n      dup3\n        /* \"ARY/HardStake.sol\":2245:2249  1e12 */\n      0xe8d4a51000\n        /* \"ARY/HardStake.sol\":2236:2249  reward * 1e12 */\n      tag_101\n      jump\t// in\n    tag_140:\n        /* \"ARY/HardStake.sol\":2235:2264  (reward * 1e12) / totalStaked */\n      tag_141\n      swap2\n      swap1\n      tag_103\n      jump\t// in\n    tag_141:\n        /* \"ARY/HardStake.sol\":2214:2231  accTokensPerShare */\n      0x05\n      0x00\n        /* \"ARY/HardStake.sol\":2214:2264  accTokensPerShare += (reward * 1e12) / totalStaked */\n      dup3\n      dup3\n      sload\n      tag_142\n      swap2\n      swap1\n      tag_143\n      jump\t// in\n    tag_142:\n      swap3\n      pop\n      pop\n      dup2\n      swap1\n      sstore\n      pop\n        /* \"ARY/HardStake.sol\":2291:2297  reward */\n      dup1\n        /* \"ARY/HardStake.sol\":2275:2287  totalRewards */\n      0x06\n      0x00\n        /* \"ARY/HardStake.sol\":2275:2297  totalRewards += reward */\n      dup3\n      dup3\n      sload\n      tag_144\n      swap2\n      swap1\n      tag_143\n      jump\t// in\n    tag_144:\n      swap1\n      swap2\n      sstore\n      pop\n      pop\n        /* \"ARY/HardStake.sol\":2313:2332  RewardAdded(reward) */\n      mload(0x40)\n        /* \"#utility.yul\":160:185   */\n      dup2\n      dup2\n      mstore\n        /* \"ARY/HardStake.sol\":2313:2332  RewardAdded(reward) */\n      0xde88a922e0d3b88b24e9623efeb464919c6bf9f66857a65e2bfcf2ce87a9433d\n      swap1\n        /* \"#utility.yul\":148:150   */\n      0x20\n        /* \"#utility.yul\":133:151   */\n      add\n        /* \"ARY/HardStake.sol\":2313:2332  RewardAdded(reward) */\n      mload(0x40)\n      dup1\n      swap2\n      sub\n      swap1\n      log1\n        /* \"ARY/HardStake.sol\":1911:2340  function notifyRewardAmount(uint256 reward) external {... */\n      pop\n      jump\t// out\n        /* \"@openzeppelin/contracts/access/Ownable.sol\":2293:2394  function renounceOwnership() public virtual onlyOwner {... */\n    tag_54:\n        /* \"@openzeppelin/contracts/access/Ownable.sol\":1531:1544  _checkOwner() */\n      tag_147\n        /* \"@openzeppelin/contracts/access/Ownable.sol\":1531:1542  _checkOwner */\n      tag_91\n        /* \"@openzeppelin/contracts/access/Ownable.sol\":1531:1544  _checkOwner() */\n      jump\t// in\n    tag_147:\n        /* \"@openzeppelin/contracts/access/Ownable.sol\":2357:2387  _transferOwnership(address(0)) */\n      tag_132\n        /* \"@openzeppelin/contracts/access/Ownable.sol\":2384:2385  0 */\n      0x00\n        /* \"@openzeppelin/contracts/access/Ownable.sol\":2357:2375  _transferOwnership */\n      tag_150\n        /* \"@openzeppelin/contracts/access/Ownable.sol\":2357:2387  _transferOwnership(address(0)) */\n      jump\t// in\n        /* \"ARY/HardStake.sol\":5664:5911  function recoverERC20(address tokenAddress, uint256 tokenAmount) external onlyOwner {... */\n    tag_65:\n        /* \"@openzeppelin/contracts/access/Ownable.sol\":1531:1544  _checkOwner() */\n      tag_152\n        /* \"@openzeppelin/contracts/access/Ownable.sol\":1531:1542  _checkOwner */\n      tag_91\n        /* \"@openzeppelin/contracts/access/Ownable.sol\":1531:1544  _checkOwner() */\n      jump\t// in\n    tag_152:\n        /* \"ARY/HardStake.sol\":5791:5803  stakingToken */\n      immutable(\"0x0a2c56019ccb5f08608c3b05b18a6137874ce411ef59ecc21ab7d289712eec9f\")\n      sub(shl(0xa0, 0x01), 0x01)\n        /* \"ARY/HardStake.sol\":5767:5804  tokenAddress != address(stakingToken) */\n      and\n        /* \"ARY/HardStake.sol\":5767:5779  tokenAddress */\n      dup3\n      sub(shl(0xa0, 0x01), 0x01)\n        /* \"ARY/HardStake.sol\":5767:5804  tokenAddress != address(stakingToken) */\n      and\n      sub\n        /* \"ARY/HardStake.sol\":5759:5837  require(tokenAddress != address(stakingToken), \"Cannot recover staking token\") */\n      tag_154\n      jumpi\n      mload(0x40)\n      shl(0xe5, 0x461bcd)\n      dup2\n      mstore\n        /* \"#utility.yul\":3967:3969   */\n      0x20\n        /* \"ARY/HardStake.sol\":5759:5837  require(tokenAddress != address(stakingToken), \"Cannot recover staking token\") */\n      0x04\n      dup3\n      add\n        /* \"#utility.yul\":3949:3970   */\n      mstore\n        /* \"#utility.yul\":4006:4008   */\n      0x1c\n        /* \"#utility.yul\":3986:4004   */\n      0x24\n      dup3\n      add\n        /* \"#utility.yul\":3979:4009   */\n      mstore\n        /* \"#utility.yul\":4045:4075   */\n      0x43616e6e6f74207265636f766572207374616b696e6720746f6b656e00000000\n        /* \"#utility.yul\":4025:4043   */\n      0x44\n      dup3\n      add\n        /* \"#utility.yul\":4018:4076   */\n      mstore\n        /* \"#utility.yul\":4093:4111   */\n      0x64\n      add\n        /* \"ARY/HardStake.sol\":5759:5837  require(tokenAddress != address(stakingToken), \"Cannot recover staking token\") */\n      tag_98\n        /* \"#utility.yul\":3765:4117   */\n      jump\n        /* \"ARY/HardStake.sol\":5759:5837  require(tokenAddress != address(stakingToken), \"Cannot recover staking token\") */\n    tag_154:\n        /* \"ARY/HardStake.sol\":5848:5903  IERC20(tokenAddress).safeTransfer(owner(), tokenAmount) */\n      tag_157\n        /* \"ARY/HardStake.sol\":5882:5889  owner() */\n      tag_158\n        /* \"@openzeppelin/contracts/access/Ownable.sol\":1684:1691  address */\n      0x00\n        /* \"@openzeppelin/contracts/access/Ownable.sol\":1710:1716  _owner */\n      sload\n      sub(shl(0xa0, 0x01), 0x01)\n      and\n      swap1\n        /* \"@openzeppelin/contracts/access/Ownable.sol\":1638:1723  function owner() public view virtual returns (address) {... */\n      jump\n        /* \"ARY/HardStake.sol\":5882:5889  owner() */\n    tag_158:\n      sub(shl(0xa0, 0x01), 0x01)\n        /* \"ARY/HardStake.sol\":5848:5881  IERC20(tokenAddress).safeTransfer */\n      dup5\n      and\n      swap1\n        /* \"ARY/HardStake.sol\":5891:5902  tokenAmount */\n      dup4\n        /* \"ARY/HardStake.sol\":5848:5881  IERC20(tokenAddress).safeTransfer */\n      tag_108\n        /* \"ARY/HardStake.sol\":5848:5903  IERC20(tokenAddress).safeTransfer(owner(), tokenAmount) */\n      jump\t// in\n    tag_157:\n        /* \"ARY/HardStake.sol\":5664:5911  function recoverERC20(address tokenAddress, uint256 tokenAmount) external onlyOwner {... */\n      pop\n      pop\n      jump\t// out\n        /* \"ARY/HardStake.sol\":2674:3616  function deposit(uint256 _amount) external nonReentrant {... */\n    tag_76:\n        /* \"@openzeppelin/contracts/security/ReentrancyGuard.sol\":2261:2282  _nonReentrantBefore() */\n      tag_161\n        /* \"@openzeppelin/contracts/security/ReentrancyGuard.sol\":2261:2280  _nonReentrantBefore */\n      tag_95\n        /* \"@openzeppelin/contracts/security/ReentrancyGuard.sol\":2261:2282  _nonReentrantBefore() */\n      jump\t// in\n    tag_161:\n        /* \"ARY/HardStake.sol\":2759:2771  swapContract */\n      sload(0x02)\n        /* \"ARY/HardStake.sol\":2759:2794  swapContract.userVolume(msg.sender) */\n      mload(0x40)\n      shl(0xe3, 0x14ced3df)\n      dup2\n      mstore\n        /* \"ARY/HardStake.sol\":2783:2793  msg.sender */\n      caller\n        /* \"ARY/HardStake.sol\":2759:2794  swapContract.userVolume(msg.sender) */\n      0x04\n      dup3\n      add\n        /* \"#utility.yul\":1163:1214   */\n      mstore\n        /* \"ARY/HardStake.sol\":2741:2756  uint256 userVol */\n      0x00\n      swap2\n      sub(shl(0xa0, 0x01), 0x01)\n        /* \"ARY/HardStake.sol\":2759:2771  swapContract */\n      and\n      swap1\n        /* \"ARY/HardStake.sol\":2759:2782  swapContract.userVolume */\n      0xa6769ef8\n      swap1\n        /* \"#utility.yul\":1136:1154   */\n      0x24\n      add\n        /* \"ARY/HardStake.sol\":2759:2794  swapContract.userVolume(msg.sender) */\n      0x20\n      mload(0x40)\n      dup1\n      dup4\n      sub\n      dup2\n      dup7\n      gas\n      staticcall\n      iszero\n      dup1\n      iszero\n      tag_165\n      jumpi\n      returndatasize\n      0x00\n      dup1\n      returndatacopy\n      revert(0x00, returndatasize)\n    tag_165:\n      pop\n      pop\n      pop\n      pop\n      mload(0x40)\n      returndatasize\n      not(0x1f)\n      0x1f\n      dup3\n      add\n      and\n      dup3\n      add\n      dup1\n      0x40\n      mstore\n      pop\n      dup2\n      add\n      swap1\n      tag_166\n      swap2\n      swap1\n      tag_167\n      jump\t// in\n    tag_166:\n        /* \"ARY/HardStake.sol\":2741:2794  uint256 userVol = swapContract.userVolume(msg.sender) */\n      swap1\n      pop\n        /* \"ARY/HardStake.sol\":2824:2845  minimumVolumeRequired */\n      sload(0x07)\n        /* \"ARY/HardStake.sol\":2813:2820  userVol */\n      dup2\n        /* \"ARY/HardStake.sol\":2813:2845  userVol >= minimumVolumeRequired */\n      lt\n      iszero\n        /* \"ARY/HardStake.sol\":2805:2883  require(userVol >= minimumVolumeRequired, \"Insufficient DApp volume to stake\") */\n      tag_168\n      jumpi\n      mload(0x40)\n      shl(0xe5, 0x461bcd)\n      dup2\n      mstore\n        /* \"#utility.yul\":4513:4515   */\n      0x20\n        /* \"ARY/HardStake.sol\":2805:2883  require(userVol >= minimumVolumeRequired, \"Insufficient DApp volume to stake\") */\n      0x04\n      dup3\n      add\n        /* \"#utility.yul\":4495:4516   */\n      mstore\n        /* \"#utility.yul\":4552:4554   */\n      0x21\n        /* \"#utility.yul\":4532:4550   */\n      0x24\n      dup3\n      add\n        /* \"#utility.yul\":4525:4555   */\n      mstore\n        /* \"#utility.yul\":4591:4625   */\n      0x496e73756666696369656e74204441707020766f6c756d6520746f207374616b\n        /* \"#utility.yul\":4571:4589   */\n      0x44\n      dup3\n      add\n        /* \"#utility.yul\":4564:4626   */\n      mstore\n      shl(0xf8, 0x65)\n        /* \"#utility.yul\":4642:4660   */\n      0x64\n      dup3\n      add\n        /* \"#utility.yul\":4635:4666   */\n      mstore\n        /* \"#utility.yul\":4683:4702   */\n      0x84\n      add\n        /* \"ARY/HardStake.sol\":2805:2883  require(userVol >= minimumVolumeRequired, \"Insufficient DApp volume to stake\") */\n      tag_98\n        /* \"#utility.yul\":4311:4708   */\n      jump\n        /* \"ARY/HardStake.sol\":2805:2883  require(userVol >= minimumVolumeRequired, \"Insufficient DApp volume to stake\") */\n    tag_168:\n        /* \"ARY/HardStake.sol\":2929:2939  msg.sender */\n      caller\n        /* \"ARY/HardStake.sol\":2896:2917  UserInfo storage user */\n      0x00\n        /* \"ARY/HardStake.sol\":2920:2940  userInfo[msg.sender] */\n      swap1\n      dup2\n      mstore\n        /* \"ARY/HardStake.sol\":2920:2928  userInfo */\n      0x04\n        /* \"ARY/HardStake.sol\":2920:2940  userInfo[msg.sender] */\n      0x20\n      mstore\n      0x40\n      swap1\n      keccak256\n        /* \"ARY/HardStake.sol\":3018:3029  user.amount */\n      dup1\n      sload\n        /* \"ARY/HardStake.sol\":3018:3033  user.amount > 0 */\n      iszero\n        /* \"ARY/HardStake.sol\":3014:3299  if (user.amount > 0) {... */\n      tag_171\n      jumpi\n        /* \"ARY/HardStake.sol\":3050:3065  uint256 pending */\n      0x00\n        /* \"ARY/HardStake.sol\":3111:3115  user */\n      dup2\n        /* \"ARY/HardStake.sol\":3111:3126  user.rewardDebt */\n      0x01\n      add\n      sload\n        /* \"ARY/HardStake.sol\":3104:3108  1e12 */\n      0xe8d4a51000\n        /* \"ARY/HardStake.sol\":3083:3100  accTokensPerShare */\n      sload(0x05)\n        /* \"ARY/HardStake.sol\":3069:3073  user */\n      dup5\n        /* \"ARY/HardStake.sol\":3069:3080  user.amount */\n      0x00\n      add\n      sload\n        /* \"ARY/HardStake.sol\":3069:3100  user.amount * accTokensPerShare */\n      tag_172\n      swap2\n      swap1\n      tag_101\n      jump\t// in\n    tag_172:\n        /* \"ARY/HardStake.sol\":3068:3108  (user.amount * accTokensPerShare) / 1e12 */\n      tag_173\n      swap2\n      swap1\n      tag_103\n      jump\t// in\n    tag_173:\n        /* \"ARY/HardStake.sol\":3068:3126  (user.amount * accTokensPerShare) / 1e12 - user.rewardDebt */\n      tag_174\n      swap2\n      swap1\n      tag_105\n      jump\t// in\n    tag_174:\n        /* \"ARY/HardStake.sol\":3050:3126  uint256 pending = (user.amount * accTokensPerShare) / 1e12 - user.rewardDebt */\n      swap1\n      pop\n        /* \"ARY/HardStake.sol\":3145:3156  pending > 0 */\n      dup1\n      iszero\n        /* \"ARY/HardStake.sol\":3141:3288  if (pending > 0) {... */\n      tag_175\n      jumpi\n        /* \"ARY/HardStake.sol\":3177:3222  rewardToken.safeTransfer(msg.sender, pending) */\n      tag_176\n      sub(shl(0xa0, 0x01), 0x01)\n        /* \"ARY/HardStake.sol\":3177:3188  rewardToken */\n      immutable(\"0x2f376be2da13ceb7f7d4d291fdf0ead4b1285423c32c5412ff3af6625953248f\")\n        /* \"ARY/HardStake.sol\":3177:3201  rewardToken.safeTransfer */\n      and\n        /* \"ARY/HardStake.sol\":3202:3212  msg.sender */\n      caller\n        /* \"ARY/HardStake.sol\":3214:3221  pending */\n      dup4\n        /* \"ARY/HardStake.sol\":3177:3201  rewardToken.safeTransfer */\n      tag_108\n        /* \"ARY/HardStake.sol\":3177:3222  rewardToken.safeTransfer(msg.sender, pending) */\n      jump\t// in\n    tag_176:\n        /* \"ARY/HardStake.sol\":3246:3272  Claim(msg.sender, pending) */\n      mload(0x40)\n        /* \"#utility.yul\":160:185   */\n      dup2\n      dup2\n      mstore\n        /* \"ARY/HardStake.sol\":3252:3262  msg.sender */\n      caller\n      swap1\n        /* \"ARY/HardStake.sol\":3246:3272  Claim(msg.sender, pending) */\n      0x47cee97cb7acd717b3c0aa1435d004cd5b3c8c57d70dbceb4e4458bbd60e39d4\n      swap1\n        /* \"#utility.yul\":148:150   */\n      0x20\n        /* \"#utility.yul\":133:151   */\n      add\n        /* \"ARY/HardStake.sol\":3246:3272  Claim(msg.sender, pending) */\n      mload(0x40)\n      dup1\n      swap2\n      sub\n      swap1\n      log2\n        /* \"ARY/HardStake.sol\":3141:3288  if (pending > 0) {... */\n    tag_175:\n        /* \"ARY/HardStake.sol\":3035:3299  {... */\n      pop\n        /* \"ARY/HardStake.sol\":3014:3299  if (user.amount > 0) {... */\n    tag_171:\n        /* \"ARY/HardStake.sol\":3315:3326  _amount > 0 */\n      dup3\n      iszero\n        /* \"ARY/HardStake.sol\":3311:3494  if (_amount > 0) {... */\n      tag_178\n      jumpi\n        /* \"ARY/HardStake.sol\":3343:3408  stakingToken.safeTransferFrom(msg.sender, address(this), _amount) */\n      tag_179\n      sub(shl(0xa0, 0x01), 0x01)\n        /* \"ARY/HardStake.sol\":3343:3355  stakingToken */\n      immutable(\"0x0a2c56019ccb5f08608c3b05b18a6137874ce411ef59ecc21ab7d289712eec9f\")\n        /* \"ARY/HardStake.sol\":3343:3372  stakingToken.safeTransferFrom */\n      and\n        /* \"ARY/HardStake.sol\":3373:3383  msg.sender */\n      caller\n        /* \"ARY/HardStake.sol\":3393:3397  this */\n      address\n        /* \"ARY/HardStake.sol\":3400:3407  _amount */\n      dup7\n        /* \"ARY/HardStake.sol\":3343:3372  stakingToken.safeTransferFrom */\n      tag_180\n        /* \"ARY/HardStake.sol\":3343:3408  stakingToken.safeTransferFrom(msg.sender, address(this), _amount) */\n      jump\t// in\n    tag_179:\n        /* \"ARY/HardStake.sol\":3438:3445  _amount */\n      dup3\n        /* \"ARY/HardStake.sol\":3423:3427  user */\n      dup2\n        /* \"ARY/HardStake.sol\":3423:3434  user.amount */\n      0x00\n      add\n      0x00\n        /* \"ARY/HardStake.sol\":3423:3445  user.amount += _amount */\n      dup3\n      dup3\n      sload\n      tag_181\n      swap2\n      swap1\n      tag_143\n      jump\t// in\n    tag_181:\n      swap3\n      pop\n      pop\n      dup2\n      swap1\n      sstore\n      pop\n        /* \"ARY/HardStake.sol\":3475:3482  _amount */\n      dup3\n        /* \"ARY/HardStake.sol\":3460:3471  totalStaked */\n      0x03\n      0x00\n        /* \"ARY/HardStake.sol\":3460:3482  totalStaked += _amount */\n      dup3\n      dup3\n      sload\n      tag_182\n      swap2\n      swap1\n      tag_143\n      jump\t// in\n    tag_182:\n      swap1\n      swap2\n      sstore\n      pop\n      pop\n        /* \"ARY/HardStake.sol\":3311:3494  if (_amount > 0) {... */\n    tag_178:\n        /* \"ARY/HardStake.sol\":3539:3556  accTokensPerShare */\n      sload(0x05)\n        /* \"ARY/HardStake.sol\":3525:3536  user.amount */\n      dup2\n      sload\n        /* \"ARY/HardStake.sol\":3560:3564  1e12 */\n      0xe8d4a51000\n      swap2\n        /* \"ARY/HardStake.sol\":3525:3556  user.amount * accTokensPerShare */\n      tag_183\n      swap2\n      tag_101\n      jump\t// in\n    tag_183:\n        /* \"ARY/HardStake.sol\":3524:3564  (user.amount * accTokensPerShare) / 1e12 */\n      tag_184\n      swap2\n      swap1\n      tag_103\n      jump\t// in\n    tag_184:\n        /* \"ARY/HardStake.sol\":3506:3521  user.rewardDebt */\n      0x01\n      dup3\n      add\n        /* \"ARY/HardStake.sol\":3506:3564  user.rewardDebt = (user.amount * accTokensPerShare) / 1e12 */\n      sstore\n        /* \"ARY/HardStake.sol\":3580:3608  Deposit(msg.sender, _amount) */\n      mload(0x40)\n        /* \"#utility.yul\":160:185   */\n      dup4\n      dup2\n      mstore\n        /* \"ARY/HardStake.sol\":3588:3598  msg.sender */\n      caller\n      swap1\n        /* \"ARY/HardStake.sol\":3580:3608  Deposit(msg.sender, _amount) */\n      0xe1fffcc4923d04b559f4d29a8bfc6cda04eb5b0d3c460751c2402c5c5cc9109c\n      swap1\n        /* \"#utility.yul\":148:150   */\n      0x20\n        /* \"#utility.yul\":133:151   */\n      add\n        /* \"ARY/HardStake.sol\":3580:3608  Deposit(msg.sender, _amount) */\n      mload(0x40)\n      dup1\n      swap2\n      sub\n      swap1\n      log2\n        /* \"ARY/HardStake.sol\":2730:3616  {... */\n      pop\n      pop\n        /* \"@openzeppelin/contracts/security/ReentrancyGuard.sol\":2303:2323  _nonReentrantAfter() */\n      tag_117\n        /* \"@openzeppelin/contracts/security/ReentrancyGuard.sol\":1716:1717  1 */\n      0x01\n        /* \"@openzeppelin/contracts/security/ReentrancyGuard.sol\":2809:2831  _status = _NOT_ENTERED */\n      dup1\n      sstore\n        /* \"@openzeppelin/contracts/security/ReentrancyGuard.sol\":2629:2838  function _nonReentrantAfter() private {... */\n      jump\n        /* \"ARY/HardStake.sol\":5007:5401  function emergencyWithdraw() external nonReentrant {... */\n    tag_78:\n        /* \"@openzeppelin/contracts/security/ReentrancyGuard.sol\":2261:2282  _nonReentrantBefore() */\n      tag_188\n        /* \"@openzeppelin/contracts/security/ReentrancyGuard.sol\":2261:2280  _nonReentrantBefore */\n      tag_95\n        /* \"@openzeppelin/contracts/security/ReentrancyGuard.sol\":2261:2282  _nonReentrantBefore() */\n      jump\t// in\n    tag_188:\n        /* \"ARY/HardStake.sol\":5102:5112  msg.sender */\n      caller\n        /* \"ARY/HardStake.sol\":5069:5090  UserInfo storage user */\n      0x00\n        /* \"ARY/HardStake.sol\":5093:5113  userInfo[msg.sender] */\n      swap1\n      dup2\n      mstore\n        /* \"ARY/HardStake.sol\":5093:5101  userInfo */\n      0x04\n        /* \"ARY/HardStake.sol\":5093:5113  userInfo[msg.sender] */\n      0x20\n      mstore\n      0x40\n      swap1\n      keccak256\n        /* \"ARY/HardStake.sol\":5141:5152  user.amount */\n      dup1\n      sload\n        /* \"ARY/HardStake.sol\":5171:5181  amount > 0 */\n      dup1\n        /* \"ARY/HardStake.sol\":5163:5205  require(amount > 0, \"Nothing to withdraw\") */\n      tag_190\n      jumpi\n      mload(0x40)\n      shl(0xe5, 0x461bcd)\n      dup2\n      mstore\n        /* \"#utility.yul\":4915:4917   */\n      0x20\n        /* \"ARY/HardStake.sol\":5163:5205  require(amount > 0, \"Nothing to withdraw\") */\n      0x04\n      dup3\n      add\n        /* \"#utility.yul\":4897:4918   */\n      mstore\n        /* \"#utility.yul\":4954:4956   */\n      0x13\n        /* \"#utility.yul\":4934:4952   */\n      0x24\n      dup3\n      add\n        /* \"#utility.yul\":4927:4957   */\n      mstore\n      shl(0x68, 0x4e6f7468696e6720746f207769746864726177)\n        /* \"#utility.yul\":4973:4991   */\n      0x44\n      dup3\n      add\n        /* \"#utility.yul\":4966:5015   */\n      mstore\n        /* \"#utility.yul\":5032:5050   */\n      0x64\n      add\n        /* \"ARY/HardStake.sol\":5163:5205  require(amount > 0, \"Nothing to withdraw\") */\n      tag_98\n        /* \"#utility.yul\":4713:5056   */\n      jump\n        /* \"ARY/HardStake.sol\":5163:5205  require(amount > 0, \"Nothing to withdraw\") */\n    tag_190:\n        /* \"ARY/HardStake.sol\":5231:5237  amount */\n      dup1\n        /* \"ARY/HardStake.sol\":5216:5227  totalStaked */\n      0x03\n      0x00\n        /* \"ARY/HardStake.sol\":5216:5237  totalStaked -= amount */\n      dup3\n      dup3\n      sload\n      tag_193\n      swap2\n      swap1\n      tag_105\n      jump\t// in\n    tag_193:\n      swap1\n      swap2\n      sstore\n      pop\n      pop\n        /* \"ARY/HardStake.sol\":5262:5263  0 */\n      0x00\n        /* \"ARY/HardStake.sol\":5248:5263  user.amount = 0 */\n      dup1\n      dup4\n      sstore\n        /* \"ARY/HardStake.sol\":5274:5289  user.rewardDebt */\n      0x01\n      dup4\n      add\n        /* \"ARY/HardStake.sol\":5274:5293  user.rewardDebt = 0 */\n      sstore\n        /* \"ARY/HardStake.sol\":5304:5349  stakingToken.safeTransfer(msg.sender, amount) */\n      tag_194\n      sub(shl(0xa0, 0x01), 0x01)\n        /* \"ARY/HardStake.sol\":5304:5316  stakingToken */\n      immutable(\"0x0a2c56019ccb5f08608c3b05b18a6137874ce411ef59ecc21ab7d289712eec9f\")\n        /* \"ARY/HardStake.sol\":5304:5329  stakingToken.safeTransfer */\n      and\n        /* \"ARY/HardStake.sol\":5330:5340  msg.sender */\n      caller\n        /* \"ARY/HardStake.sol\":5342:5348  amount */\n      dup4\n        /* \"ARY/HardStake.sol\":5304:5329  stakingToken.safeTransfer */\n      tag_108\n        /* \"ARY/HardStake.sol\":5304:5349  stakingToken.safeTransfer(msg.sender, amount) */\n      jump\t// in\n    tag_194:\n        /* \"ARY/HardStake.sol\":5365:5393  Withdraw(msg.sender, amount) */\n      mload(0x40)\n        /* \"#utility.yul\":160:185   */\n      dup2\n      dup2\n      mstore\n        /* \"ARY/HardStake.sol\":5374:5384  msg.sender */\n      caller\n      swap1\n        /* \"ARY/HardStake.sol\":5365:5393  Withdraw(msg.sender, amount) */\n      0x884edad9ce6fa2440d8a54cc123490eb96d2768479d49ff9c7366125a9424364\n      swap1\n        /* \"#utility.yul\":148:150   */\n      0x20\n        /* \"#utility.yul\":133:151   */\n      add\n        /* \"ARY/HardStake.sol\":5365:5393  Withdraw(msg.sender, amount) */\n      tag_131\n        /* \"#utility.yul\":14:191   */\n      jump\n        /* \"@openzeppelin/contracts/access/Ownable.sol\":2543:2758  function transferOwnership(address newOwner) public virtual onlyOwner {... */\n    tag_81:\n        /* \"@openzeppelin/contracts/access/Ownable.sol\":1531:1544  _checkOwner() */\n      tag_198\n        /* \"@openzeppelin/contracts/access/Ownable.sol\":1531:1542  _checkOwner */\n      tag_91\n        /* \"@openzeppelin/contracts/access/Ownable.sol\":1531:1544  _checkOwner() */\n      jump\t// in\n    tag_198:\n      sub(shl(0xa0, 0x01), 0x01)\n        /* \"@openzeppelin/contracts/access/Ownable.sol\":2627:2649  newOwner == address(0) */\n      dup2\n      and\n        /* \"@openzeppelin/contracts/access/Ownable.sol\":2623:2714  if (newOwner == address(0)) {... */\n      tag_200\n      jumpi\n        /* \"@openzeppelin/contracts/access/Ownable.sol\":2672:2703  OwnableInvalidOwner(address(0)) */\n      mload(0x40)\n      shl(0xe0, 0x1e4fbdf7)\n      dup2\n      mstore\n        /* \"@openzeppelin/contracts/access/Ownable.sol\":2700:2701  0 */\n      0x00\n        /* \"@openzeppelin/contracts/access/Ownable.sol\":2672:2703  OwnableInvalidOwner(address(0)) */\n      0x04\n      dup3\n      add\n        /* \"#utility.yul\":1163:1214   */\n      mstore\n        /* \"#utility.yul\":1136:1154   */\n      0x24\n      add\n        /* \"@openzeppelin/contracts/access/Ownable.sol\":2672:2703  OwnableInvalidOwner(address(0)) */\n      tag_98\n        /* \"#utility.yul\":1003:1220   */\n      jump\n        /* \"@openzeppelin/contracts/access/Ownable.sol\":2623:2714  if (newOwner == address(0)) {... */\n    tag_200:\n        /* \"@openzeppelin/contracts/access/Ownable.sol\":2723:2751  _transferOwnership(newOwner) */\n      tag_117\n        /* \"@openzeppelin/contracts/access/Ownable.sol\":2742:2750  newOwner */\n      dup2\n        /* \"@openzeppelin/contracts/access/Ownable.sol\":2723:2741  _transferOwnership */\n      tag_150\n        /* \"@openzeppelin/contracts/access/Ownable.sol\":2723:2751  _transferOwnership(newOwner) */\n      jump\t// in\n        /* \"ARY/HardStake.sol\":2405:2645  function pendingReward(address _user) external view returns (uint256) {... */\n    tag_84:\n      sub(shl(0xa0, 0x01), 0x01)\n        /* \"ARY/HardStake.sol\":2510:2525  userInfo[_user] */\n      dup2\n      and\n        /* \"ARY/HardStake.sol\":2466:2473  uint256 */\n      0x00\n        /* \"ARY/HardStake.sol\":2510:2525  userInfo[_user] */\n      swap1\n      dup2\n      mstore\n        /* \"ARY/HardStake.sol\":2510:2518  userInfo */\n      0x04\n        /* \"ARY/HardStake.sol\":2510:2525  userInfo[_user] */\n      0x20\n      mstore\n      0x40\n      dup2\n      keccak256\n        /* \"ARY/HardStake.sol\":2597:2612  user.rewardDebt */\n      0x01\n      dup2\n      add\n      sload\n        /* \"ARY/HardStake.sol\":2569:2586  accTokensPerShare */\n      sload(0x05)\n        /* \"ARY/HardStake.sol\":2555:2566  user.amount */\n      dup3\n      sload\n        /* \"ARY/HardStake.sol\":2466:2473  uint256 */\n      dup5\n      swap3\n        /* \"ARY/HardStake.sol\":2597:2612  user.rewardDebt */\n      swap2\n        /* \"ARY/HardStake.sol\":2590:2594  1e12 */\n      0xe8d4a51000\n      swap2\n        /* \"ARY/HardStake.sol\":2555:2586  user.amount * accTokensPerShare */\n      tag_204\n      swap2\n        /* \"ARY/HardStake.sol\":2569:2586  accTokensPerShare */\n      swap1\n        /* \"ARY/HardStake.sol\":2555:2586  user.amount * accTokensPerShare */\n      tag_101\n      jump\t// in\n    tag_204:\n        /* \"ARY/HardStake.sol\":2554:2594  (user.amount * accTokensPerShare) / 1e12 */\n      tag_205\n      swap2\n      swap1\n      tag_103\n      jump\t// in\n    tag_205:\n        /* \"ARY/HardStake.sol\":2554:2612  (user.amount * accTokensPerShare) / 1e12 - user.rewardDebt */\n      tag_206\n      swap2\n      swap1\n      tag_105\n      jump\t// in\n    tag_206:\n        /* \"ARY/HardStake.sol\":2536:2612  uint256 pending = (user.amount * accTokensPerShare) / 1e12 - user.rewardDebt */\n      swap5\n        /* \"ARY/HardStake.sol\":2405:2645  function pendingReward(address _user) external view returns (uint256) {... */\n      swap4\n      pop\n      pop\n      pop\n      pop\n      jump\t// out\n        /* \"@openzeppelin/contracts/access/Ownable.sol\":1796:1958  function _checkOwner() internal view virtual {... */\n    tag_91:\n        /* \"@openzeppelin/contracts/access/Ownable.sol\":1684:1691  address */\n      0x00\n        /* \"@openzeppelin/contracts/access/Ownable.sol\":1710:1716  _owner */\n      sload\n      sub(shl(0xa0, 0x01), 0x01)\n      and\n        /* \"@openzeppelin/contracts/utils/Context.sol\":735:745  msg.sender */\n      caller\n        /* \"@openzeppelin/contracts/access/Ownable.sol\":1855:1878  owner() != _msgSender() */\n      eq\n        /* \"@openzeppelin/contracts/access/Ownable.sol\":1851:1952  if (owner() != _msgSender()) {... */\n      tag_132\n      jumpi\n        /* \"@openzeppelin/contracts/access/Ownable.sol\":1901:1941  OwnableUnauthorizedAccount(_msgSender()) */\n      mload(0x40)\n      shl(0xe0, 0x118cdaa7)\n      dup2\n      mstore\n        /* \"@openzeppelin/contracts/utils/Context.sol\":735:745  msg.sender */\n      caller\n        /* \"@openzeppelin/contracts/access/Ownable.sol\":1901:1941  OwnableUnauthorizedAccount(_msgSender()) */\n      0x04\n      dup3\n      add\n        /* \"#utility.yul\":1163:1214   */\n      mstore\n        /* \"#utility.yul\":1136:1154   */\n      0x24\n      add\n        /* \"@openzeppelin/contracts/access/Ownable.sol\":1901:1941  OwnableUnauthorizedAccount(_msgSender()) */\n      tag_98\n        /* \"#utility.yul\":1003:1220   */\n      jump\n        /* \"@openzeppelin/contracts/security/ReentrancyGuard.sol\":2336:2623  function _nonReentrantBefore() private {... */\n    tag_95:\n        /* \"@openzeppelin/contracts/security/ReentrancyGuard.sol\":1759:1760  2 */\n      0x02\n        /* \"@openzeppelin/contracts/security/ReentrancyGuard.sol\":2468:2475  _status */\n      sload(0x01)\n        /* \"@openzeppelin/contracts/security/ReentrancyGuard.sol\":2468:2487  _status != _ENTERED */\n      sub\n        /* \"@openzeppelin/contracts/security/ReentrancyGuard.sol\":2460:2523  require(_status != _ENTERED, \"ReentrancyGuard: reentrant call\") */\n      tag_215\n      jumpi\n      mload(0x40)\n      shl(0xe5, 0x461bcd)\n      dup2\n      mstore\n        /* \"#utility.yul\":5263:5265   */\n      0x20\n        /* \"@openzeppelin/contracts/security/ReentrancyGuard.sol\":2460:2523  require(_status != _ENTERED, \"ReentrancyGuard: reentrant call\") */\n      0x04\n      dup3\n      add\n        /* \"#utility.yul\":5245:5266   */\n      mstore\n        /* \"#utility.yul\":5302:5304   */\n      0x1f\n        /* \"#utility.yul\":5282:5300   */\n      0x24\n      dup3\n      add\n        /* \"#utility.yul\":5275:5305   */\n      mstore\n        /* \"#utility.yul\":5341:5374   */\n      0x5265656e7472616e637947756172643a207265656e7472616e742063616c6c00\n        /* \"#utility.yul\":5321:5339   */\n      0x44\n      dup3\n      add\n        /* \"#utility.yul\":5314:5375   */\n      mstore\n        /* \"#utility.yul\":5392:5410   */\n      0x64\n      add\n        /* \"@openzeppelin/contracts/security/ReentrancyGuard.sol\":2460:2523  require(_status != _ENTERED, \"ReentrancyGuard: reentrant call\") */\n      tag_98\n        /* \"#utility.yul\":5061:5416   */\n      jump\n        /* \"@openzeppelin/contracts/security/ReentrancyGuard.sol\":2460:2523  require(_status != _ENTERED, \"ReentrancyGuard: reentrant call\") */\n    tag_215:\n        /* \"@openzeppelin/contracts/security/ReentrancyGuard.sol\":1759:1760  2 */\n      0x02\n        /* \"@openzeppelin/contracts/security/ReentrancyGuard.sol\":2598:2605  _status */\n      0x01\n        /* \"@openzeppelin/contracts/security/ReentrancyGuard.sol\":2598:2616  _status = _ENTERED */\n      sstore\n        /* \"@openzeppelin/contracts/security/ReentrancyGuard.sol\":2336:2623  function _nonReentrantBefore() private {... */\n      jump\t// out\n        /* \"@openzeppelin/contracts/token/ERC20/utils/SafeERC20.sol\":1271:1431  function safeTransfer(IERC20 token, address to, uint256 value) internal {... */\n    tag_108:\n        /* \"@openzeppelin/contracts/token/ERC20/utils/SafeERC20.sol\":1380:1423  abi.encodeCall(token.transfer, (to, value)) */\n      mload(0x40)\n      sub(shl(0xa0, 0x01), 0x01)\n        /* \"#utility.yul\":5613:5645   */\n      dup4\n      dup2\n      and\n        /* \"@openzeppelin/contracts/token/ERC20/utils/SafeERC20.sol\":1380:1423  abi.encodeCall(token.transfer, (to, value)) */\n      0x24\n      dup4\n      add\n        /* \"#utility.yul\":5595:5646   */\n      mstore\n        /* \"#utility.yul\":5662:5680   */\n      0x44\n      dup3\n      add\n        /* \"#utility.yul\":5655:5689   */\n      dup4\n      swap1\n      mstore\n        /* \"@openzeppelin/contracts/token/ERC20/utils/SafeERC20.sol\":1353:1424  _callOptionalReturn(token, abi.encodeCall(token.transfer, (to, value))) */\n      tag_219\n      swap2\n        /* \"@openzeppelin/contracts/token/ERC20/utils/SafeERC20.sol\":1373:1378  token */\n      dup6\n      swap2\n        /* \"@openzeppelin/contracts/token/ERC20/utils/SafeERC20.sol\":1395:1409  token.transfer */\n      dup3\n      and\n      swap1\n      0xa9059cbb\n      swap1\n        /* \"#utility.yul\":5568:5586   */\n      0x64\n      add\n        /* \"@openzeppelin/contracts/token/ERC20/utils/SafeERC20.sol\":1380:1423  abi.encodeCall(token.transfer, (to, value)) */\n    tag_220:\n      mload(0x40)\n      0x20\n      dup2\n      dup4\n      sub\n      sub\n      dup2\n      mstore\n      swap1\n      0x40\n      mstore\n      swap2\n      pop\n      0xe0\n      shl\n      0x20\n      dup3\n      add\n      dup1\n      mload\n      sub(shl(0xe0, 0x01), 0x01)\n      dup4\n      dup2\n      dup4\n      and\n      or\n      dup4\n      mstore\n      pop\n      pop\n      pop\n      pop\n        /* \"@openzeppelin/contracts/token/ERC20/utils/SafeERC20.sol\":1353:1372  _callOptionalReturn */\n      tag_222\n        /* \"@openzeppelin/contracts/token/ERC20/utils/SafeERC20.sol\":1353:1424  _callOptionalReturn(token, abi.encodeCall(token.transfer, (to, value))) */\n      jump\t// in\n    tag_219:\n        /* \"@openzeppelin/contracts/token/ERC20/utils/SafeERC20.sol\":1271:1431  function safeTransfer(IERC20 token, address to, uint256 value) internal {... */\n      pop\n      pop\n      pop\n      jump\t// out\n        /* \"@openzeppelin/contracts/access/Ownable.sol\":2912:3099  function _transferOwnership(address newOwner) internal virtual {... */\n    tag_150:\n        /* \"@openzeppelin/contracts/access/Ownable.sol\":2985:3001  address oldOwner */\n      0x00\n        /* \"@openzeppelin/contracts/access/Ownable.sol\":3004:3010  _owner */\n      dup1\n      sload\n      sub(shl(0xa0, 0x01), 0x01)\n        /* \"@openzeppelin/contracts/access/Ownable.sol\":3020:3037  _owner = newOwner */\n      dup4\n      dup2\n      and\n      not(sub(shl(0xa0, 0x01), 0x01))\n      dup4\n      and\n      dup2\n      or\n      dup5\n      sstore\n        /* \"@openzeppelin/contracts/access/Ownable.sol\":3052:3092  OwnershipTransferred(oldOwner, newOwner) */\n      mload(0x40)\n        /* \"@openzeppelin/contracts/access/Ownable.sol\":3004:3010  _owner */\n      swap2\n      swap1\n      swap3\n      and\n      swap3\n      dup4\n      swap2\n        /* \"@openzeppelin/contracts/access/Ownable.sol\":3052:3092  OwnershipTransferred(oldOwner, newOwner) */\n      0x8be0079c531659141344cd1fd0a4f28419497f9722a3daafe3b4186f6b6457e0\n      swap2\n        /* \"@openzeppelin/contracts/access/Ownable.sol\":2985:3001  address oldOwner */\n      swap1\n        /* \"@openzeppelin/contracts/access/Ownable.sol\":3052:3092  OwnershipTransferred(oldOwner, newOwner) */\n      log3\n        /* \"@openzeppelin/contracts/access/Ownable.sol\":2975:3099  {... */\n      pop\n        /* \"@openzeppelin/contracts/access/Ownable.sol\":2912:3099  function _transferOwnership(address newOwner) internal virtual {... */\n      pop\n      jump\t// out\n        /* \"@openzeppelin/contracts/token/ERC20/utils/SafeERC20.sol\":1670:1858  function safeTransferFrom(IERC20 token, address from, address to, uint256 value) internal {... */\n    tag_180:\n        /* \"@openzeppelin/contracts/token/ERC20/utils/SafeERC20.sol\":1797:1850  abi.encodeCall(token.transferFrom, (from, to, value)) */\n      mload(0x40)\n      sub(shl(0xa0, 0x01), 0x01)\n        /* \"#utility.yul\":5958:5973   */\n      dup5\n      dup2\n      and\n        /* \"@openzeppelin/contracts/token/ERC20/utils/SafeERC20.sol\":1797:1850  abi.encodeCall(token.transferFrom, (from, to, value)) */\n      0x24\n      dup4\n      add\n        /* \"#utility.yul\":5940:5974   */\n      mstore\n        /* \"#utility.yul\":6010:6025   */\n      dup4\n      dup2\n      and\n        /* \"#utility.yul\":5990:6008   */\n      0x44\n      dup4\n      add\n        /* \"#utility.yul\":5983:6026   */\n      mstore\n        /* \"#utility.yul\":6042:6060   */\n      0x64\n      dup3\n      add\n        /* \"#utility.yul\":6035:6069   */\n      dup4\n      swap1\n      mstore\n        /* \"@openzeppelin/contracts/token/ERC20/utils/SafeERC20.sol\":1770:1851  _callOptionalReturn(token, abi.encodeCall(token.transferFrom, (from, to, value))) */\n      tag_226\n      swap2\n        /* \"@openzeppelin/contracts/token/ERC20/utils/SafeERC20.sol\":1790:1795  token */\n      dup7\n      swap2\n        /* \"@openzeppelin/contracts/token/ERC20/utils/SafeERC20.sol\":1812:1830  token.transferFrom */\n      dup3\n      and\n      swap1\n      0x23b872dd\n      swap1\n        /* \"#utility.yul\":5875:5893   */\n      0x84\n      add\n        /* \"@openzeppelin/contracts/token/ERC20/utils/SafeERC20.sol\":1797:1850  abi.encodeCall(token.transferFrom, (from, to, value)) */\n      tag_220\n        /* \"#utility.yul\":5700:6075   */\n      jump\n        /* \"@openzeppelin/contracts/token/ERC20/utils/SafeERC20.sol\":1770:1851  _callOptionalReturn(token, abi.encodeCall(token.transferFrom, (from, to, value))) */\n    tag_226:\n        /* \"@openzeppelin/contracts/token/ERC20/utils/SafeERC20.sol\":1670:1858  function safeTransferFrom(IERC20 token, address from, address to, uint256 value) internal {... */\n      pop\n      pop\n      pop\n      pop\n      jump\t// out\n        /* \"@openzeppelin/contracts/token/ERC20/utils/SafeERC20.sol\":7738:8458  function _callOptionalReturn(IERC20 token, bytes memory data) private {... */\n    tag_222:\n        /* \"@openzeppelin/contracts/token/ERC20/utils/SafeERC20.sol\":7818:7836  uint256 returnSize */\n      0x00\n        /* \"@openzeppelin/contracts/token/ERC20/utils/SafeERC20.sol\":7846:7865  uint256 returnValue */\n      dup1\n        /* \"@openzeppelin/contracts/token/ERC20/utils/SafeERC20.sol\":7984:7988  0x20 */\n      0x20\n        /* \"@openzeppelin/contracts/token/ERC20/utils/SafeERC20.sol\":7981:7982  0 */\n      0x00\n        /* \"@openzeppelin/contracts/token/ERC20/utils/SafeERC20.sol\":7974:7978  data */\n      dup5\n        /* \"@openzeppelin/contracts/token/ERC20/utils/SafeERC20.sol\":7968:7979  mload(data) */\n      mload\n        /* \"@openzeppelin/contracts/token/ERC20/utils/SafeERC20.sol\":7961:7965  0x20 */\n      0x20\n        /* \"@openzeppelin/contracts/token/ERC20/utils/SafeERC20.sol\":7955:7959  data */\n      dup7\n        /* \"@openzeppelin/contracts/token/ERC20/utils/SafeERC20.sol\":7951:7966  add(data, 0x20) */\n      add\n        /* \"@openzeppelin/contracts/token/ERC20/utils/SafeERC20.sol\":7948:7949  0 */\n      0x00\n        /* \"@openzeppelin/contracts/token/ERC20/utils/SafeERC20.sol\":7941:7946  token */\n      dup9\n        /* \"@openzeppelin/contracts/token/ERC20/utils/SafeERC20.sol\":7934:7939  gas() */\n      gas\n        /* \"@openzeppelin/contracts/token/ERC20/utils/SafeERC20.sol\":7929:7989  call(gas(), token, 0, add(data, 0x20), mload(data), 0, 0x20) */\n      call\n        /* \"@openzeppelin/contracts/token/ERC20/utils/SafeERC20.sol\":8041:8048  success */\n      dup1\n        /* \"@openzeppelin/contracts/token/ERC20/utils/SafeERC20.sol\":8031:8207  if iszero(success) {... */\n      tag_231\n      jumpi\n        /* \"@openzeppelin/contracts/token/ERC20/utils/SafeERC20.sol\":8085:8089  0x40 */\n      0x40\n        /* \"@openzeppelin/contracts/token/ERC20/utils/SafeERC20.sol\":8079:8090  mload(0x40) */\n      mload\n        /* \"@openzeppelin/contracts/token/ERC20/utils/SafeERC20.sol\":8130:8146  returndatasize() */\n      returndatasize\n        /* \"@openzeppelin/contracts/token/ERC20/utils/SafeERC20.sol\":8127:8128  0 */\n      0x00\n        /* \"@openzeppelin/contracts/token/ERC20/utils/SafeERC20.sol\":8122:8125  ptr */\n      dup3\n        /* \"@openzeppelin/contracts/token/ERC20/utils/SafeERC20.sol\":8107:8147  returndatacopy(ptr, 0, returndatasize()) */\n      returndatacopy\n        /* \"@openzeppelin/contracts/token/ERC20/utils/SafeERC20.sol\":8176:8192  returndatasize() */\n      returndatasize\n        /* \"@openzeppelin/contracts/token/ERC20/utils/SafeERC20.sol\":8171:8174  ptr */\n      dup2\n        /* \"@openzeppelin/contracts/token/ERC20/utils/SafeERC20.sol\":8164:8193  revert(ptr, returndatasize()) */\n      revert\n        /* \"@openzeppelin/contracts/token/ERC20/utils/SafeERC20.sol\":8031:8207  if iszero(success) {... */\n    tag_231:\n      pop\n      pop\n        /* \"@openzeppelin/contracts/token/ERC20/utils/SafeERC20.sol\":8284:8285  0 */\n      0x00\n        /* \"@openzeppelin/contracts/token/ERC20/utils/SafeERC20.sol\":8278:8286  mload(0) */\n      mload\n        /* \"@openzeppelin/contracts/token/ERC20/utils/SafeERC20.sol\":8234:8250  returndatasize() */\n      returndatasize\n      swap2\n      pop\n        /* \"@openzeppelin/contracts/token/ERC20/utils/SafeERC20.sol\":8310:8325  returnSize == 0 */\n      dup2\n      iszero\n        /* \"@openzeppelin/contracts/token/ERC20/utils/SafeERC20.sol\":8310:8378  returnSize == 0 ? address(token).code.length == 0 : returnValue != 1 */\n      tag_232\n      jumpi\n        /* \"@openzeppelin/contracts/token/ERC20/utils/SafeERC20.sol\":8362:8373  returnValue */\n      dup1\n        /* \"@openzeppelin/contracts/token/ERC20/utils/SafeERC20.sol\":8377:8378  1 */\n      0x01\n        /* \"@openzeppelin/contracts/token/ERC20/utils/SafeERC20.sol\":8362:8378  returnValue != 1 */\n      eq\n      iszero\n        /* \"@openzeppelin/contracts/token/ERC20/utils/SafeERC20.sol\":8310:8378  returnSize == 0 ? address(token).code.length == 0 : returnValue != 1 */\n      jump(tag_233)\n    tag_232:\n      sub(shl(0xa0, 0x01), 0x01)\n        /* \"@openzeppelin/contracts/token/ERC20/utils/SafeERC20.sol\":8328:8354  address(token).code.length */\n      dup5\n      and\n      extcodesize\n        /* \"@openzeppelin/contracts/token/ERC20/utils/SafeERC20.sol\":8328:8359  address(token).code.length == 0 */\n      iszero\n        /* \"@openzeppelin/contracts/token/ERC20/utils/SafeERC20.sol\":8310:8378  returnSize == 0 ? address(token).code.length == 0 : returnValue != 1 */\n    tag_233:\n        /* \"@openzeppelin/contracts/token/ERC20/utils/SafeERC20.sol\":8306:8452  if (returnSize == 0 ? address(token).code.length == 0 : returnValue != 1) {... */\n      iszero\n      tag_226\n      jumpi\n        /* \"@openzeppelin/contracts/token/ERC20/utils/SafeERC20.sol\":8401:8441  SafeERC20FailedOperation(address(token)) */\n      mload(0x40)\n      shl(0xe0, 0x5274afe7)\n      dup2\n      mstore\n      sub(shl(0xa0, 0x01), 0x01)\n        /* \"#utility.yul\":1181:1213   */\n      dup6\n      and\n        /* \"@openzeppelin/contracts/token/ERC20/utils/SafeERC20.sol\":8401:8441  SafeERC20FailedOperation(address(token)) */\n      0x04\n      dup3\n      add\n        /* \"#utility.yul\":1163:1214   */\n      mstore\n        /* \"#utility.yul\":1136:1154   */\n      0x24\n      add\n        /* \"@openzeppelin/contracts/token/ERC20/utils/SafeERC20.sol\":8401:8441  SafeERC20FailedOperation(address(token)) */\n      tag_98\n        /* \"#utility.yul\":1003:1220   */\n      jump\n        /* \"#utility.yul\":196:369   */\n    tag_236:\n        /* \"#utility.yul\":264:284   */\n      dup1\n      calldataload\n      sub(shl(0xa0, 0x01), 0x01)\n        /* \"#utility.yul\":313:344   */\n      dup2\n      and\n        /* \"#utility.yul\":303:345   */\n      dup2\n      eq\n        /* \"#utility.yul\":293:363   */\n      tag_241\n      jumpi\n        /* \"#utility.yul\":359:360   */\n      0x00\n        /* \"#utility.yul\":356:357   */\n      dup1\n        /* \"#utility.yul\":349:361   */\n      revert\n        /* \"#utility.yul\":293:363   */\n    tag_241:\n        /* \"#utility.yul\":196:369   */\n      swap2\n      swap1\n      pop\n      jump\t// out\n        /* \"#utility.yul\":374:560   */\n    tag_31:\n        /* \"#utility.yul\":433:439   */\n      0x00\n        /* \"#utility.yul\":486:488   */\n      0x20\n        /* \"#utility.yul\":474:483   */\n      dup3\n        /* \"#utility.yul\":465:472   */\n      dup5\n        /* \"#utility.yul\":461:484   */\n      sub\n        /* \"#utility.yul\":457:489   */\n      slt\n        /* \"#utility.yul\":454:506   */\n      iszero\n      tag_243\n      jumpi\n        /* \"#utility.yul\":502:503   */\n      0x00\n        /* \"#utility.yul\":499:500   */\n      dup1\n        /* \"#utility.yul\":492:504   */\n      revert\n        /* \"#utility.yul\":454:506   */\n    tag_243:\n        /* \"#utility.yul\":525:554   */\n      tag_244\n        /* \"#utility.yul\":544:553   */\n      dup3\n        /* \"#utility.yul\":525:554   */\n      tag_236\n      jump\t// in\n    tag_244:\n        /* \"#utility.yul\":515:554   */\n      swap4\n        /* \"#utility.yul\":374:560   */\n      swap3\n      pop\n      pop\n      pop\n      jump\t// out\n        /* \"#utility.yul\":818:998   */\n    tag_37:\n        /* \"#utility.yul\":877:883   */\n      0x00\n        /* \"#utility.yul\":930:932   */\n      0x20\n        /* \"#utility.yul\":918:927   */\n      dup3\n        /* \"#utility.yul\":909:916   */\n      dup5\n        /* \"#utility.yul\":905:928   */\n      sub\n        /* \"#utility.yul\":901:933   */\n      slt\n        /* \"#utility.yul\":898:950   */\n      iszero\n      tag_247\n      jumpi\n        /* \"#utility.yul\":946:947   */\n      0x00\n        /* \"#utility.yul\":943:944   */\n      dup1\n        /* \"#utility.yul\":936:948   */\n      revert\n        /* \"#utility.yul\":898:950   */\n    tag_247:\n      pop\n        /* \"#utility.yul\":969:992   */\n      calldataload\n      swap2\n        /* \"#utility.yul\":818:998   */\n      swap1\n      pop\n      jump\t// out\n        /* \"#utility.yul\":1225:1479   */\n    tag_64:\n        /* \"#utility.yul\":1293:1299   */\n      0x00\n        /* \"#utility.yul\":1301:1307   */\n      dup1\n        /* \"#utility.yul\":1354:1356   */\n      0x40\n        /* \"#utility.yul\":1342:1351   */\n      dup4\n        /* \"#utility.yul\":1333:1340   */\n      dup6\n        /* \"#utility.yul\":1329:1352   */\n      sub\n        /* \"#utility.yul\":1325:1357   */\n      slt\n        /* \"#utility.yul\":1322:1374   */\n      iszero\n      tag_250\n      jumpi\n        /* \"#utility.yul\":1370:1371   */\n      0x00\n        /* \"#utility.yul\":1367:1368   */\n      dup1\n        /* \"#utility.yul\":1360:1372   */\n      revert\n        /* \"#utility.yul\":1322:1374   */\n    tag_250:\n        /* \"#utility.yul\":1393:1422   */\n      tag_251\n        /* \"#utility.yul\":1412:1421   */\n      dup4\n        /* \"#utility.yul\":1393:1422   */\n      tag_236\n      jump\t// in\n    tag_251:\n        /* \"#utility.yul\":1383:1422   */\n      swap5\n        /* \"#utility.yul\":1469:1471   */\n      0x20\n        /* \"#utility.yul\":1454:1472   */\n      swap4\n      swap1\n      swap4\n      add\n        /* \"#utility.yul\":1441:1473   */\n      calldataload\n      swap4\n      pop\n      pop\n      pop\n        /* \"#utility.yul\":1225:1479   */\n      jump\t// out\n        /* \"#utility.yul\":2284:2411   */\n    tag_237:\n        /* \"#utility.yul\":2345:2355   */\n      0x4e487b71\n        /* \"#utility.yul\":2340:2343   */\n      0xe0\n        /* \"#utility.yul\":2336:2356   */\n      shl\n        /* \"#utility.yul\":2333:2334   */\n      0x00\n        /* \"#utility.yul\":2326:2357   */\n      mstore\n        /* \"#utility.yul\":2376:2380   */\n      0x11\n        /* \"#utility.yul\":2373:2374   */\n      0x04\n        /* \"#utility.yul\":2366:2381   */\n      mstore\n        /* \"#utility.yul\":2400:2404   */\n      0x24\n        /* \"#utility.yul\":2397:2398   */\n      0x00\n        /* \"#utility.yul\":2390:2405   */\n      revert\n        /* \"#utility.yul\":2416:2584   */\n    tag_101:\n        /* \"#utility.yul\":2489:2498   */\n      dup1\n      dup3\n      mul\n        /* \"#utility.yul\":2520:2529   */\n      dup2\n      iszero\n        /* \"#utility.yul\":2537:2552   */\n      dup3\n      dup3\n      div\n        /* \"#utility.yul\":2531:2553   */\n      dup5\n      eq\n        /* \"#utility.yul\":2517:2554   */\n      or\n        /* \"#utility.yul\":2507:2578   */\n      tag_258\n      jumpi\n        /* \"#utility.yul\":2558:2576   */\n      tag_258\n      tag_237\n      jump\t// in\n    tag_258:\n        /* \"#utility.yul\":2416:2584   */\n      swap3\n      swap2\n      pop\n      pop\n      jump\t// out\n        /* \"#utility.yul\":2589:2806   */\n    tag_103:\n        /* \"#utility.yul\":2629:2630   */\n      0x00\n        /* \"#utility.yul\":2655:2656   */\n      dup3\n        /* \"#utility.yul\":2645:2777   */\n      tag_260\n      jumpi\n        /* \"#utility.yul\":2699:2709   */\n      0x4e487b71\n        /* \"#utility.yul\":2694:2697   */\n      0xe0\n        /* \"#utility.yul\":2690:2710   */\n      shl\n        /* \"#utility.yul\":2687:2688   */\n      0x00\n        /* \"#utility.yul\":2680:2711   */\n      mstore\n        /* \"#utility.yul\":2734:2738   */\n      0x12\n        /* \"#utility.yul\":2731:2732   */\n      0x04\n        /* \"#utility.yul\":2724:2739   */\n      mstore\n        /* \"#utility.yul\":2762:2766   */\n      0x24\n        /* \"#utility.yul\":2759:2760   */\n      0x00\n        /* \"#utility.yul\":2752:2767   */\n      revert\n        /* \"#utility.yul\":2645:2777   */\n    tag_260:\n      pop\n        /* \"#utility.yul\":2791:2800   */\n      div\n      swap1\n        /* \"#utility.yul\":2589:2806   */\n      jump\t// out\n        /* \"#utility.yul\":2811:2939   */\n    tag_105:\n        /* \"#utility.yul\":2878:2887   */\n      dup2\n      dup2\n      sub\n        /* \"#utility.yul\":2899:2910   */\n      dup2\n      dup2\n      gt\n        /* \"#utility.yul\":2896:2933   */\n      iszero\n      tag_258\n      jumpi\n        /* \"#utility.yul\":2913:2931   */\n      tag_258\n      tag_237\n      jump\t// in\n        /* \"#utility.yul\":3635:3760   */\n    tag_143:\n        /* \"#utility.yul\":3700:3709   */\n      dup1\n      dup3\n      add\n        /* \"#utility.yul\":3721:3731   */\n      dup1\n      dup3\n      gt\n        /* \"#utility.yul\":3718:3754   */\n      iszero\n      tag_258\n      jumpi\n        /* \"#utility.yul\":3734:3752   */\n      tag_258\n      tag_237\n      jump\t// in\n        /* \"#utility.yul\":4122:4306   */\n    tag_167:\n        /* \"#utility.yul\":4192:4198   */\n      0x00\n        /* \"#utility.yul\":4245:4247   */\n      0x20\n        /* \"#utility.yul\":4233:4242   */\n      dup3\n        /* \"#utility.yul\":4224:4231   */\n      dup5\n        /* \"#utility.yul\":4220:4243   */\n      sub\n        /* \"#utility.yul\":4216:4248   */\n      slt\n        /* \"#utility.yul\":4213:4265   */\n      iszero\n      tag_271\n      jumpi\n        /* \"#utility.yul\":4261:4262   */\n      0x00\n        /* \"#utility.yul\":4258:4259   */\n      dup1\n        /* \"#utility.yul\":4251:4263   */\n      revert\n        /* \"#utility.yul\":4213:4265   */\n    tag_271:\n      pop\n        /* \"#utility.yul\":4284:4300   */\n      mload\n      swap2\n        /* \"#utility.yul\":4122:4306   */\n      swap1\n      pop\n      jump\t// out\n\n    auxdata: 0xa264697066735822122073a50a5456ec59df7e185f848fbb6b7fb5c43ef413c8980cbbc3f7ddb42098fb64736f6c63430008140033\n}\n",
				"bytecode": {
					"linkReferences": {},
					"object": "60c060405234801561000f575f80fd5b50604051610feb380380610feb83398101604081905261002e916100fb565b338061005357604051631e4fbdf760e01b81525f600482015260240160405180910390fd5b61005c81610095565b50600180556001600160a01b03928316608081905260a052600280546001600160a01b031916929093169190911790915560075561013b565b5f80546001600160a01b038381166001600160a01b0319831681178455604051919092169283917f8be0079c531659141344cd1fd0a4f28419497f9722a3daafe3b4186f6b6457e09190a35050565b6001600160a01b03811681146100f8575f80fd5b50565b5f805f6060848603121561010d575f80fd5b8351610118816100e4565b6020850151909350610129816100e4565b80925050604084015190509250925092565b60805160a051610e5e61018d5f395f8181610298015281816103790152818161053f01526108a501525f81816101d901528181610419015281816106d2015281816109170152610a5a0152610e5e5ff3fe608060405234801561000f575f80fd5b506004361061011c575f3560e01c806372f702f3116100a9578063b6b55f251161006e578063b6b55f2514610252578063db2e21bc14610265578063f2fde38b1461026d578063f40f0f5214610280578063f7c618c114610293575f80fd5b806372f702f3146101d4578063817b1cd2146102135780638980f11f1461021c5780638da5cb5b1461022f5780638ea830311461023f575f80fd5b80632f3c9a4f116100ef5780632f3c9a4f1461019f578063372500ab146101a85780633c6b16ab146101b0578063644f362d146101c3578063715018a6146101cc575f80fd5b80630e15561a146101205780631959a0021461013c5780632277d7e1146101775780632e1a7d4d1461018c575b5f80fd5b61012960065481565b6040519081526020015b60405180910390f35b61016261014a366004610d3c565b60046020525f90815260409020805460019091015482565b60408051928352602083019190915201610133565b61018a610185366004610d5c565b6102ba565b005b61018a61019a366004610d5c565b6102c7565b61012960055481565b61018a6104a4565b61018a6101be366004610d5c565b6105cd565b61012960075481565b61018a6106b7565b6101fb7f000000000000000000000000000000000000000000000000000000000000000081565b6040516001600160a01b039091168152602001610133565b61012960035481565b61018a61022a366004610d73565b6106c8565b5f546001600160a01b03166101fb565b6002546101fb906001600160a01b031681565b61018a610260366004610d5c565b61077a565b61018a6109d3565b61018a61027b366004610d3c565b610ab3565b61012961028e366004610d3c565b610aed565b6101fb7f000000000000000000000000000000000000000000000000000000000000000081565b6102c2610b3e565b600755565b6102cf610b6a565b335f90815260046020526040902080548211156103335760405162461bcd60e51b815260206004820152601f60248201527f576974686472617720616d6f756e7420657863656564732062616c616e63650060448201526064015b60405180910390fd5b5f816001015464e8d4a51000600554845f01546103509190610daf565b61035a9190610dcc565b6103649190610deb565b905080156103d6576103a06001600160a01b037f0000000000000000000000000000000000000000000000000000000000000000163383610bc3565b60405181815233907f47cee97cb7acd717b3c0aa1435d004cd5b3c8c57d70dbceb4e4458bbd60e39d49060200160405180910390a25b82156104765782825f015f8282546103ee9190610deb565b925050819055508260035f8282546104069190610deb565b9091555061044090506001600160a01b037f0000000000000000000000000000000000000000000000000000000000000000163385610bc3565b60405183815233907f884edad9ce6fa2440d8a54cc123490eb96d2768479d49ff9c7366125a94243649060200160405180910390a25b600554825464e8d4a510009161048b91610daf565b6104959190610dcc565b60019283015550805550565b50565b6104ac610b6a565b335f9081526004602052604081206001810154600554825492939264e8d4a51000916104d791610daf565b6104e19190610dcc565b6104eb9190610deb565b90505f81116105325760405162461bcd60e51b81526020600482015260136024820152724e6f207265776172647320746f20636c61696d60681b604482015260640161032a565b6105666001600160a01b037f0000000000000000000000000000000000000000000000000000000000000000163383610bc3565b600554825464e8d4a510009161057b91610daf565b6105859190610dcc565b600183015560405181815233907f47cee97cb7acd717b3c0aa1435d004cd5b3c8c57d70dbceb4e4458bbd60e39d4906020015b60405180910390a250506105cb60018055565b565b6002546001600160a01b03163314806105ef57505f546001600160a01b031633145b61062c5760405162461bcd60e51b815260206004820152600e60248201526d139bdd08185d5d1a1bdc9a5e995960921b604482015260640161032a565b6003545f036106385750565b60035461064a8264e8d4a51000610daf565b6106549190610dcc565b60055f8282546106649190610dfe565b925050819055508060065f82825461067c9190610dfe565b90915550506040518181527fde88a922e0d3b88b24e9623efeb464919c6bf9f66857a65e2bfcf2ce87a9433d9060200160405180910390a150565b6106bf610b3e565b6105cb5f610c27565b6106d0610b3e565b7f00000000000000000000000000000000000000000000000000000000000000006001600160a01b0316826001600160a01b0316036107515760405162461bcd60e51b815260206004820152601c60248201527f43616e6e6f74207265636f766572207374616b696e6720746f6b656e00000000604482015260640161032a565b6107766107655f546001600160a01b031690565b6001600160a01b0384169083610bc3565b5050565b610782610b6a565b6002546040516314ced3df60e31b81523360048201525f916001600160a01b03169063a6769ef890602401602060405180830381865afa1580156107c8573d5f803e3d5ffd5b505050506040513d601f19601f820116820180604052508101906107ec9190610e11565b905060075481101561084a5760405162461bcd60e51b815260206004820152602160248201527f496e73756666696369656e74204441707020766f6c756d6520746f207374616b6044820152606560f81b606482015260840161032a565b335f908152600460205260409020805415610904575f816001015464e8d4a51000600554845f015461087c9190610daf565b6108869190610dcc565b6108909190610deb565b90508015610902576108cc6001600160a01b037f0000000000000000000000000000000000000000000000000000000000000000163383610bc3565b60405181815233907f47cee97cb7acd717b3c0aa1435d004cd5b3c8c57d70dbceb4e4458bbd60e39d49060200160405180910390a25b505b821561096f5761093f6001600160a01b037f000000000000000000000000000000000000000000000000000000000000000016333086610c76565b82815f015f8282546109519190610dfe565b925050819055508260035f8282546109699190610dfe565b90915550505b600554815464e8d4a510009161098491610daf565b61098e9190610dcc565b600182015560405183815233907fe1fffcc4923d04b559f4d29a8bfc6cda04eb5b0d3c460751c2402c5c5cc9109c9060200160405180910390a250506104a160018055565b6109db610b6a565b335f908152600460205260409020805480610a2e5760405162461bcd60e51b81526020600482015260136024820152724e6f7468696e6720746f20776974686472617760681b604482015260640161032a565b8060035f828254610a3f9190610deb565b90915550505f8083556001830155610a816001600160a01b037f0000000000000000000000000000000000000000000000000000000000000000163383610bc3565b60405181815233907f884edad9ce6fa2440d8a54cc123490eb96d2768479d49ff9c7366125a9424364906020016105b8565b610abb610b3e565b6001600160a01b038116610ae457604051631e4fbdf760e01b81525f600482015260240161032a565b6104a181610c27565b6001600160a01b0381165f9081526004602052604081206001810154600554825484929164e8d4a5100091610b229190610daf565b610b2c9190610dcc565b610b369190610deb565b949350505050565b5f546001600160a01b031633146105cb5760405163118cdaa760e01b815233600482015260240161032a565b600260015403610bbc5760405162461bcd60e51b815260206004820152601f60248201527f5265656e7472616e637947756172643a207265656e7472616e742063616c6c00604482015260640161032a565b6002600155565b6040516001600160a01b03838116602483015260448201839052610c2291859182169063a9059cbb906064015b604051602081830303815290604052915060e01b6020820180516001600160e01b038381831617835250505050610cb5565b505050565b5f80546001600160a01b038381166001600160a01b0319831681178455604051919092169283917f8be0079c531659141344cd1fd0a4f28419497f9722a3daafe3b4186f6b6457e09190a35050565b6040516001600160a01b038481166024830152838116604483015260648201839052610caf9186918216906323b872dd90608401610bf0565b50505050565b5f8060205f8451602086015f885af180610cd4576040513d5f823e3d81fd5b50505f513d91508115610ceb578060011415610cf8565b6001600160a01b0384163b155b15610caf57604051635274afe760e01b81526001600160a01b038516600482015260240161032a565b80356001600160a01b0381168114610d37575f80fd5b919050565b5f60208284031215610d4c575f80fd5b610d5582610d21565b9392505050565b5f60208284031215610d6c575f80fd5b5035919050565b5f8060408385031215610d84575f80fd5b610d8d83610d21565b946020939093013593505050565b634e487b7160e01b5f52601160045260245ffd5b8082028115828204841417610dc657610dc6610d9b565b92915050565b5f82610de657634e487b7160e01b5f52601260045260245ffd5b500490565b81810381811115610dc657610dc6610d9b565b80820180821115610dc657610dc6610d9b565b5f60208284031215610e21575f80fd5b505191905056fea264697066735822122073a50a5456ec59df7e185f848fbb6b7fb5c43ef413c8980cbbc3f7ddb42098fb64736f6c63430008140033",
					"opcodes": "PUSH1 0xC0 PUSH1 0x40 MSTORE CALLVALUE DUP1 ISZERO PUSH2 0xF JUMPI PUSH0 DUP1 REVERT JUMPDEST POP PUSH1 0x40 MLOAD PUSH2 0xFEB CODESIZE SUB DUP1 PUSH2 0xFEB DUP4 CODECOPY DUP2 ADD PUSH1 0x40 DUP2 SWAP1 MSTORE PUSH2 0x2E SWAP2 PUSH2 0xFB JUMP JUMPDEST CALLER DUP1 PUSH2 0x53 JUMPI PUSH1 0x40 MLOAD PUSH4 0x1E4FBDF7 PUSH1 0xE0 SHL DUP2 MSTORE PUSH0 PUSH1 0x4 DUP3 ADD MSTORE PUSH1 0x24 ADD PUSH1 0x40 MLOAD DUP1 SWAP2 SUB SWAP1 REVERT JUMPDEST PUSH2 0x5C DUP2 PUSH2 0x95 JUMP JUMPDEST POP PUSH1 0x1 DUP1 SSTORE PUSH1 0x1 PUSH1 0x1 PUSH1 0xA0 SHL SUB SWAP3 DUP4 AND PUSH1 0x80 DUP2 SWAP1 MSTORE PUSH1 0xA0 MSTORE PUSH1 0x2 DUP1 SLOAD PUSH1 0x1 PUSH1 0x1 PUSH1 0xA0 SHL SUB NOT AND SWAP3 SWAP1 SWAP4 AND SWAP2 SWAP1 SWAP2 OR SWAP1 SWAP2 SSTORE PUSH1 0x7 SSTORE PUSH2 0x13B JUMP JUMPDEST PUSH0 DUP1 SLOAD PUSH1 0x1 PUSH1 0x1 PUSH1 0xA0 SHL SUB DUP4 DUP2 AND PUSH1 0x1 PUSH1 0x1 PUSH1 0xA0 SHL SUB NOT DUP4 AND DUP2 OR DUP5 SSTORE PUSH1 0x40 MLOAD SWAP2 SWAP1 SWAP3 AND SWAP3 DUP4 SWAP2 PUSH32 0x8BE0079C531659141344CD1FD0A4F28419497F9722A3DAAFE3B4186F6B6457E0 SWAP2 SWAP1 LOG3 POP POP JUMP JUMPDEST PUSH1 0x1 PUSH1 0x1 PUSH1 0xA0 SHL SUB DUP2 AND DUP2 EQ PUSH2 0xF8 JUMPI PUSH0 DUP1 REVERT JUMPDEST POP JUMP JUMPDEST PUSH0 DUP1 PUSH0 PUSH1 0x60 DUP5 DUP7 SUB SLT ISZERO PUSH2 0x10D JUMPI PUSH0 DUP1 REVERT JUMPDEST DUP4 MLOAD PUSH2 0x118 DUP2 PUSH2 0xE4 JUMP JUMPDEST PUSH1 0x20 DUP6 ADD MLOAD SWAP1 SWAP4 POP PUSH2 0x129 DUP2 PUSH2 0xE4 JUMP JUMPDEST DUP1 SWAP3 POP POP PUSH1 0x40 DUP5 ADD MLOAD SWAP1 POP SWAP3 POP SWAP3 POP SWAP3 JUMP JUMPDEST PUSH1 0x80 MLOAD PUSH1 0xA0 MLOAD PUSH2 0xE5E PUSH2 0x18D PUSH0 CODECOPY PUSH0 DUP2 DUP2 PUSH2 0x298 ADD MSTORE DUP2 DUP2 PUSH2 0x379 ADD MSTORE DUP2 DUP2 PUSH2 0x53F ADD MSTORE PUSH2 0x8A5 ADD MSTORE PUSH0 DUP2 DUP2 PUSH2 0x1D9 ADD MSTORE DUP2 DUP2 PUSH2 0x419 ADD MSTORE DUP2 DUP2 PUSH2 0x6D2 ADD MSTORE DUP2 DUP2 PUSH2 0x917 ADD MSTORE PUSH2 0xA5A ADD MSTORE PUSH2 0xE5E PUSH0 RETURN INVALID PUSH1 0x80 PUSH1 0x40 MSTORE CALLVALUE DUP1 ISZERO PUSH2 0xF JUMPI PUSH0 DUP1 REVERT JUMPDEST POP PUSH1 0x4 CALLDATASIZE LT PUSH2 0x11C JUMPI PUSH0 CALLDATALOAD PUSH1 0xE0 SHR DUP1 PUSH4 0x72F702F3 GT PUSH2 0xA9 JUMPI DUP1 PUSH4 0xB6B55F25 GT PUSH2 0x6E JUMPI DUP1 PUSH4 0xB6B55F25 EQ PUSH2 0x252 JUMPI DUP1 PUSH4 0xDB2E21BC EQ PUSH2 0x265 JUMPI DUP1 PUSH4 0xF2FDE38B EQ PUSH2 0x26D JUMPI DUP1 PUSH4 0xF40F0F52 EQ PUSH2 0x280 JUMPI DUP1 PUSH4 0xF7C618C1 EQ PUSH2 0x293 JUMPI PUSH0 DUP1 REVERT JUMPDEST DUP1 PUSH4 0x72F702F3 EQ PUSH2 0x1D4 JUMPI DUP1 PUSH4 0x817B1CD2 EQ PUSH2 0x213 JUMPI DUP1 PUSH4 0x8980F11F EQ PUSH2 0x21C JUMPI DUP1 PUSH4 0x8DA5CB5B EQ PUSH2 0x22F JUMPI DUP1 PUSH4 0x8EA83031 EQ PUSH2 0x23F JUMPI PUSH0 DUP1 REVERT JUMPDEST DUP1 PUSH4 0x2F3C9A4F GT PUSH2 0xEF JUMPI DUP1 PUSH4 0x2F3C9A4F EQ PUSH2 0x19F JUMPI DUP1 PUSH4 0x372500AB EQ PUSH2 0x1A8 JUMPI DUP1 PUSH4 0x3C6B16AB EQ PUSH2 0x1B0 JUMPI DUP1 PUSH4 0x644F362D EQ PUSH2 0x1C3 JUMPI DUP1 PUSH4 0x715018A6 EQ PUSH2 0x1CC JUMPI PUSH0 DUP1 REVERT JUMPDEST DUP1 PUSH4 0xE15561A EQ PUSH2 0x120 JUMPI DUP1 PUSH4 0x1959A002 EQ PUSH2 0x13C JUMPI DUP1 PUSH4 0x2277D7E1 EQ PUSH2 0x177 JUMPI DUP1 PUSH4 0x2E1A7D4D EQ PUSH2 0x18C JUMPI JUMPDEST PUSH0 DUP1 REVERT JUMPDEST PUSH2 0x129 PUSH1 0x6 SLOAD DUP2 JUMP JUMPDEST PUSH1 0x40 MLOAD SWAP1 DUP2 MSTORE PUSH1 0x20 ADD JUMPDEST PUSH1 0x40 MLOAD DUP1 SWAP2 SUB SWAP1 RETURN JUMPDEST PUSH2 0x162 PUSH2 0x14A CALLDATASIZE PUSH1 0x4 PUSH2 0xD3C JUMP JUMPDEST PUSH1 0x4 PUSH1 0x20 MSTORE PUSH0 SWAP1 DUP2 MSTORE PUSH1 0x40 SWAP1 KECCAK256 DUP1 SLOAD PUSH1 0x1 SWAP1 SWAP2 ADD SLOAD DUP3 JUMP JUMPDEST PUSH1 0x40 DUP1 MLOAD SWAP3 DUP4 MSTORE PUSH1 0x20 DUP4 ADD SWAP2 SWAP1 SWAP2 MSTORE ADD PUSH2 0x133 JUMP JUMPDEST PUSH2 0x18A PUSH2 0x185 CALLDATASIZE PUSH1 0x4 PUSH2 0xD5C JUMP JUMPDEST PUSH2 0x2BA JUMP JUMPDEST STOP JUMPDEST PUSH2 0x18A PUSH2 0x19A CALLDATASIZE PUSH1 0x4 PUSH2 0xD5C JUMP JUMPDEST PUSH2 0x2C7 JUMP JUMPDEST PUSH2 0x129 PUSH1 0x5 SLOAD DUP2 JUMP JUMPDEST PUSH2 0x18A PUSH2 0x4A4 JUMP JUMPDEST PUSH2 0x18A PUSH2 0x1BE CALLDATASIZE PUSH1 0x4 PUSH2 0xD5C JUMP JUMPDEST PUSH2 0x5CD JUMP JUMPDEST PUSH2 0x129 PUSH1 0x7 SLOAD DUP2 JUMP JUMPDEST PUSH2 0x18A PUSH2 0x6B7 JUMP JUMPDEST PUSH2 0x1FB PUSH32 0x0 DUP2 JUMP JUMPDEST PUSH1 0x40 MLOAD PUSH1 0x1 PUSH1 0x1 PUSH1 0xA0 SHL SUB SWAP1 SWAP2 AND DUP2 MSTORE PUSH1 0x20 ADD PUSH2 0x133 JUMP JUMPDEST PUSH2 0x129 PUSH1 0x3 SLOAD DUP2 JUMP JUMPDEST PUSH2 0x18A PUSH2 0x22A CALLDATASIZE PUSH1 0x4 PUSH2 0xD73 JUMP JUMPDEST PUSH2 0x6C8 JUMP JUMPDEST PUSH0 SLOAD PUSH1 0x1 PUSH1 0x1 PUSH1 0xA0 SHL SUB AND PUSH2 0x1FB JUMP JUMPDEST PUSH1 0x2 SLOAD PUSH2 0x1FB SWAP1 PUSH1 0x1 PUSH1 0x1 PUSH1 0xA0 SHL SUB AND DUP2 JUMP JUMPDEST PUSH2 0x18A PUSH2 0x260 CALLDATASIZE PUSH1 0x4 PUSH2 0xD5C JUMP JUMPDEST PUSH2 0x77A JUMP JUMPDEST PUSH2 0x18A PUSH2 0x9D3 JUMP JUMPDEST PUSH2 0x18A PUSH2 0x27B CALLDATASIZE PUSH1 0x4 PUSH2 0xD3C JUMP JUMPDEST PUSH2 0xAB3 JUMP JUMPDEST PUSH2 0x129 PUSH2 0x28E CALLDATASIZE PUSH1 0x4 PUSH2 0xD3C JUMP JUMPDEST PUSH2 0xAED JUMP JUMPDEST PUSH2 0x1FB PUSH32 0x0 DUP2 JUMP JUMPDEST PUSH2 0x2C2 PUSH2 0xB3E JUMP JUMPDEST PUSH1 0x7 SSTORE JUMP JUMPDEST PUSH2 0x2CF PUSH2 0xB6A JUMP JUMPDEST CALLER PUSH0 SWAP1 DUP2 MSTORE PUSH1 0x4 PUSH1 0x20 MSTORE PUSH1 0x40 SWAP1 KECCAK256 DUP1 SLOAD DUP3 GT ISZERO PUSH2 0x333 JUMPI PUSH1 0x40 MLOAD PUSH3 0x461BCD PUSH1 0xE5 SHL DUP2 MSTORE PUSH1 0x20 PUSH1 0x4 DUP3 ADD MSTORE PUSH1 0x1F PUSH1 0x24 DUP3 ADD MSTORE PUSH32 0x576974686472617720616D6F756E7420657863656564732062616C616E636500 PUSH1 0x44 DUP3 ADD MSTORE PUSH1 0x64 ADD JUMPDEST PUSH1 0x40 MLOAD DUP1 SWAP2 SUB SWAP1 REVERT JUMPDEST PUSH0 DUP2 PUSH1 0x1 ADD SLOAD PUSH5 0xE8D4A51000 PUSH1 0x5 SLOAD DUP5 PUSH0 ADD SLOAD PUSH2 0x350 SWAP2 SWAP1 PUSH2 0xDAF JUMP JUMPDEST PUSH2 0x35A SWAP2 SWAP1 PUSH2 0xDCC JUMP JUMPDEST PUSH2 0x364 SWAP2 SWAP1 PUSH2 0xDEB JUMP JUMPDEST SWAP1 POP DUP1 ISZERO PUSH2 0x3D6 JUMPI PUSH2 0x3A0 PUSH1 0x1 PUSH1 0x1 PUSH1 0xA0 SHL SUB PUSH32 0x0 AND CALLER DUP4 PUSH2 0xBC3 JUMP JUMPDEST PUSH1 0x40 MLOAD DUP2 DUP2 MSTORE CALLER SWAP1 PUSH32 0x47CEE97CB7ACD717B3C0AA1435D004CD5B3C8C57D70DBCEB4E4458BBD60E39D4 SWAP1 PUSH1 0x20 ADD PUSH1 0x40 MLOAD DUP1 SWAP2 SUB SWAP1 LOG2 JUMPDEST DUP3 ISZERO PUSH2 0x476 JUMPI DUP3 DUP3 PUSH0 ADD PUSH0 DUP3 DUP3 SLOAD PUSH2 0x3EE SWAP2 SWAP1 PUSH2 0xDEB JUMP JUMPDEST SWAP3 POP POP DUP2 SWAP1 SSTORE POP DUP3 PUSH1 0x3 PUSH0 DUP3 DUP3 SLOAD PUSH2 0x406 SWAP2 SWAP1 PUSH2 0xDEB JUMP JUMPDEST SWAP1 SWAP2 SSTORE POP PUSH2 0x440 SWAP1 POP PUSH1 0x1 PUSH1 0x1 PUSH1 0xA0 SHL SUB PUSH32 0x0 AND CALLER DUP6 PUSH2 0xBC3 JUMP JUMPDEST PUSH1 0x40 MLOAD DUP4 DUP2 MSTORE CALLER SWAP1 PUSH32 0x884EDAD9CE6FA2440D8A54CC123490EB96D2768479D49FF9C7366125A9424364 SWAP1 PUSH1 0x20 ADD PUSH1 0x40 MLOAD DUP1 SWAP2 SUB SWAP1 LOG2 JUMPDEST PUSH1 0x5 SLOAD DUP3 SLOAD PUSH5 0xE8D4A51000 SWAP2 PUSH2 0x48B SWAP2 PUSH2 0xDAF JUMP JUMPDEST PUSH2 0x495 SWAP2 SWAP1 PUSH2 0xDCC JUMP JUMPDEST PUSH1 0x1 SWAP3 DUP4 ADD SSTORE POP DUP1 SSTORE POP JUMP JUMPDEST POP JUMP JUMPDEST PUSH2 0x4AC PUSH2 0xB6A JUMP JUMPDEST CALLER PUSH0 SWAP1 DUP2 MSTORE PUSH1 0x4 PUSH1 0x20 MSTORE PUSH1 0x40 DUP2 KECCAK256 PUSH1 0x1 DUP2 ADD SLOAD PUSH1 0x5 SLOAD DUP3 SLOAD SWAP3 SWAP4 SWAP3 PUSH5 0xE8D4A51000 SWAP2 PUSH2 0x4D7 SWAP2 PUSH2 0xDAF JUMP JUMPDEST PUSH2 0x4E1 SWAP2 SWAP1 PUSH2 0xDCC JUMP JUMPDEST PUSH2 0x4EB SWAP2 SWAP1 PUSH2 0xDEB JUMP JUMPDEST SWAP1 POP PUSH0 DUP2 GT PUSH2 0x532 JUMPI PUSH1 0x40 MLOAD PUSH3 0x461BCD PUSH1 0xE5 SHL DUP2 MSTORE PUSH1 0x20 PUSH1 0x4 DUP3 ADD MSTORE PUSH1 0x13 PUSH1 0x24 DUP3 ADD MSTORE PUSH19 0x4E6F207265776172647320746F20636C61696D PUSH1 0x68 SHL PUSH1 0x44 DUP3 ADD MSTORE PUSH1 0x64 ADD PUSH2 0x32A JUMP JUMPDEST PUSH2 0x566 PUSH1 0x1 PUSH1 0x1 PUSH1 0xA0 SHL SUB PUSH32 0x0 AND CALLER DUP4 PUSH2 0xBC3 JUMP JUMPDEST PUSH1 0x5 SLOAD DUP3 SLOAD PUSH5 0xE8D4A51000 SWAP2 PUSH2 0x57B SWAP2 PUSH2 0xDAF JUMP JUMPDEST PUSH2 0x585 SWAP2 SWAP1 PUSH2 0xDCC JUMP JUMPDEST PUSH1 0x1 DUP4 ADD SSTORE PUSH1 0x40 MLOAD DUP2 DUP2 MSTORE CALLER SWAP1 PUSH32 0x47CEE97CB7ACD717B3C0AA1435D004CD5B3C8C57D70DBCEB4E4458BBD60E39D4 SWAP1 PUSH1 0x20 ADD JUMPDEST PUSH1 0x40 MLOAD DUP1 SWAP2 SUB SWAP1 LOG2 POP POP PUSH2 0x5CB PUSH1 0x1 DUP1 SSTORE JUMP JUMPDEST JUMP JUMPDEST PUSH1 0x2 SLOAD PUSH1 0x1 PUSH1 0x1 PUSH1 0xA0 SHL SUB AND CALLER EQ DUP1 PUSH2 0x5EF JUMPI POP PUSH0 SLOAD PUSH1 0x1 PUSH1 0x1 PUSH1 0xA0 SHL SUB AND CALLER EQ JUMPDEST PUSH2 0x62C JUMPI PUSH1 0x40 MLOAD PUSH3 0x461BCD PUSH1 0xE5 SHL DUP2 MSTORE PUSH1 0x20 PUSH1 0x4 DUP3 ADD MSTORE PUSH1 0xE PUSH1 0x24 DUP3 ADD MSTORE PUSH14 0x139BDD08185D5D1A1BDC9A5E9959 PUSH1 0x92 SHL PUSH1 0x44 DUP3 ADD MSTORE PUSH1 0x64 ADD PUSH2 0x32A JUMP JUMPDEST PUSH1 0x3 SLOAD PUSH0 SUB PUSH2 0x638 JUMPI POP JUMP JUMPDEST PUSH1 0x3 SLOAD PUSH2 0x64A DUP3 PUSH5 0xE8D4A51000 PUSH2 0xDAF JUMP JUMPDEST PUSH2 0x654 SWAP2 SWAP1 PUSH2 0xDCC JUMP JUMPDEST PUSH1 0x5 PUSH0 DUP3 DUP3 SLOAD PUSH2 0x664 SWAP2 SWAP1 PUSH2 0xDFE JUMP JUMPDEST SWAP3 POP POP DUP2 SWAP1 SSTORE POP DUP1 PUSH1 0x6 PUSH0 DUP3 DUP3 SLOAD PUSH2 0x67C SWAP2 SWAP1 PUSH2 0xDFE JUMP JUMPDEST SWAP1 SWAP2 SSTORE POP POP PUSH1 0x40 MLOAD DUP2 DUP2 MSTORE PUSH32 0xDE88A922E0D3B88B24E9623EFEB464919C6BF9F66857A65E2BFCF2CE87A9433D SWAP1 PUSH1 0x20 ADD PUSH1 0x40 MLOAD DUP1 SWAP2 SUB SWAP1 LOG1 POP JUMP JUMPDEST PUSH2 0x6BF PUSH2 0xB3E JUMP JUMPDEST PUSH2 0x5CB PUSH0 PUSH2 0xC27 JUMP JUMPDEST PUSH2 0x6D0 PUSH2 0xB3E JUMP JUMPDEST PUSH32 0x0 PUSH1 0x1 PUSH1 0x1 PUSH1 0xA0 SHL SUB AND DUP3 PUSH1 0x1 PUSH1 0x1 PUSH1 0xA0 SHL SUB AND SUB PUSH2 0x751 JUMPI PUSH1 0x40 MLOAD PUSH3 0x461BCD PUSH1 0xE5 SHL DUP2 MSTORE PUSH1 0x20 PUSH1 0x4 DUP3 ADD MSTORE PUSH1 0x1C PUSH1 0x24 DUP3 ADD MSTORE PUSH32 0x43616E6E6F74207265636F766572207374616B696E6720746F6B656E00000000 PUSH1 0x44 DUP3 ADD MSTORE PUSH1 0x64 ADD PUSH2 0x32A JUMP JUMPDEST PUSH2 0x776 PUSH2 0x765 PUSH0 SLOAD PUSH1 0x1 PUSH1 0x1 PUSH1 0xA0 SHL SUB AND SWAP1 JUMP JUMPDEST PUSH1 0x1 PUSH1 0x1 PUSH1 0xA0 SHL SUB DUP5 AND SWAP1 DUP4 PUSH2 0xBC3 JUMP JUMPDEST POP POP JUMP JUMPDEST PUSH2 0x782 PUSH2 0xB6A JUMP JUMPDEST PUSH1 0x2 SLOAD PUSH1 0x40 MLOAD PUSH4 0x14CED3DF PUSH1 0xE3 SHL DUP2 MSTORE CALLER PUSH1 0x4 DUP3 ADD MSTORE PUSH0 SWAP2 PUSH1 0x1 PUSH1 0x1 PUSH1 0xA0 SHL SUB AND SWAP1 PUSH4 0xA6769EF8 SWAP1 PUSH1 0x24 ADD PUSH1 0x20 PUSH1 0x40 MLOAD DUP1 DUP4 SUB DUP2 DUP7 GAS STATICCALL ISZERO DUP1 ISZERO PUSH2 0x7C8 JUMPI RETURNDATASIZE PUSH0 DUP1 RETURNDATACOPY RETURNDATASIZE PUSH0 REVERT JUMPDEST POP POP POP POP PUSH1 0x40 MLOAD RETURNDATASIZE PUSH1 0x1F NOT PUSH1 0x1F DUP3 ADD AND DUP3 ADD DUP1 PUSH1 0x40 MSTORE POP DUP2 ADD SWAP1 PUSH2 0x7EC SWAP2 SWAP1 PUSH2 0xE11 JUMP JUMPDEST SWAP1 POP PUSH1 0x7 SLOAD DUP2 LT ISZERO PUSH2 0x84A JUMPI PUSH1 0x40 MLOAD PUSH3 0x461BCD PUSH1 0xE5 SHL DUP2 MSTORE PUSH1 0x20 PUSH1 0x4 DUP3 ADD MSTORE PUSH1 0x21 PUSH1 0x24 DUP3 ADD MSTORE PUSH32 0x496E73756666696369656E74204441707020766F6C756D6520746F207374616B PUSH1 0x44 DUP3 ADD MSTORE PUSH1 0x65 PUSH1 0xF8 SHL PUSH1 0x64 DUP3 ADD MSTORE PUSH1 0x84 ADD PUSH2 0x32A JUMP JUMPDEST CALLER PUSH0 SWAP1 DUP2 MSTORE PUSH1 0x4 PUSH1 0x20 MSTORE PUSH1 0x40 SWAP1 KECCAK256 DUP1 SLOAD ISZERO PUSH2 0x904 JUMPI PUSH0 DUP2 PUSH1 0x1 ADD SLOAD PUSH5 0xE8D4A51000 PUSH1 0x5 SLOAD DUP5 PUSH0 ADD SLOAD PUSH2 0x87C SWAP2 SWAP1 PUSH2 0xDAF JUMP JUMPDEST PUSH2 0x886 SWAP2 SWAP1 PUSH2 0xDCC JUMP JUMPDEST PUSH2 0x890 SWAP2 SWAP1 PUSH2 0xDEB JUMP JUMPDEST SWAP1 POP DUP1 ISZERO PUSH2 0x902 JUMPI PUSH2 0x8CC PUSH1 0x1 PUSH1 0x1 PUSH1 0xA0 SHL SUB PUSH32 0x0 AND CALLER DUP4 PUSH2 0xBC3 JUMP JUMPDEST PUSH1 0x40 MLOAD DUP2 DUP2 MSTORE CALLER SWAP1 PUSH32 0x47CEE97CB7ACD717B3C0AA1435D004CD5B3C8C57D70DBCEB4E4458BBD60E39D4 SWAP1 PUSH1 0x20 ADD PUSH1 0x40 MLOAD DUP1 SWAP2 SUB SWAP1 LOG2 JUMPDEST POP JUMPDEST DUP3 ISZERO PUSH2 0x96F JUMPI PUSH2 0x93F PUSH1 0x1 PUSH1 0x1 PUSH1 0xA0 SHL SUB PUSH32 0x0 AND CALLER ADDRESS DUP7 PUSH2 0xC76 JUMP JUMPDEST DUP3 DUP2 PUSH0 ADD PUSH0 DUP3 DUP3 SLOAD PUSH2 0x951 SWAP2 SWAP1 PUSH2 0xDFE JUMP JUMPDEST SWAP3 POP POP DUP2 SWAP1 SSTORE POP DUP3 PUSH1 0x3 PUSH0 DUP3 DUP3 SLOAD PUSH2 0x969 SWAP2 SWAP1 PUSH2 0xDFE JUMP JUMPDEST SWAP1 SWAP2 SSTORE POP POP JUMPDEST PUSH1 0x5 SLOAD DUP2 SLOAD PUSH5 0xE8D4A51000 SWAP2 PUSH2 0x984 SWAP2 PUSH2 0xDAF JUMP JUMPDEST PUSH2 0x98E SWAP2 SWAP1 PUSH2 0xDCC JUMP JUMPDEST PUSH1 0x1 DUP3 ADD SSTORE PUSH1 0x40 MLOAD DUP4 DUP2 MSTORE CALLER SWAP1 PUSH32 0xE1FFFCC4923D04B559F4D29A8BFC6CDA04EB5B0D3C460751C2402C5C5CC9109C SWAP1 PUSH1 0x20 ADD PUSH1 0x40 MLOAD DUP1 SWAP2 SUB SWAP1 LOG2 POP POP PUSH2 0x4A1 PUSH1 0x1 DUP1 SSTORE JUMP JUMPDEST PUSH2 0x9DB PUSH2 0xB6A JUMP JUMPDEST CALLER PUSH0 SWAP1 DUP2 MSTORE PUSH1 0x4 PUSH1 0x20 MSTORE PUSH1 0x40 SWAP1 KECCAK256 DUP1 SLOAD DUP1 PUSH2 0xA2E JUMPI PUSH1 0x40 MLOAD PUSH3 0x461BCD PUSH1 0xE5 SHL DUP2 MSTORE PUSH1 0x20 PUSH1 0x4 DUP3 ADD MSTORE PUSH1 0x13 PUSH1 0x24 DUP3 ADD MSTORE PUSH19 0x4E6F7468696E6720746F207769746864726177 PUSH1 0x68 SHL PUSH1 0x44 DUP3 ADD MSTORE PUSH1 0x64 ADD PUSH2 0x32A JUMP JUMPDEST DUP1 PUSH1 0x3 PUSH0 DUP3 DUP3 SLOAD PUSH2 0xA3F SWAP2 SWAP1 PUSH2 0xDEB JUMP JUMPDEST SWAP1 SWAP2 SSTORE POP POP PUSH0 DUP1 DUP4 SSTORE PUSH1 0x1 DUP4 ADD SSTORE PUSH2 0xA81 PUSH1 0x1 PUSH1 0x1 PUSH1 0xA0 SHL SUB PUSH32 0x0 AND CALLER DUP4 PUSH2 0xBC3 JUMP JUMPDEST PUSH1 0x40 MLOAD DUP2 DUP2 MSTORE CALLER SWAP1 PUSH32 0x884EDAD9CE6FA2440D8A54CC123490EB96D2768479D49FF9C7366125A9424364 SWAP1 PUSH1 0x20 ADD PUSH2 0x5B8 JUMP JUMPDEST PUSH2 0xABB PUSH2 0xB3E JUMP JUMPDEST PUSH1 0x1 PUSH1 0x1 PUSH1 0xA0 SHL SUB DUP2 AND PUSH2 0xAE4 JUMPI PUSH1 0x40 MLOAD PUSH4 0x1E4FBDF7 PUSH1 0xE0 SHL DUP2 MSTORE PUSH0 PUSH1 0x4 DUP3 ADD MSTORE PUSH1 0x24 ADD PUSH2 0x32A JUMP JUMPDEST PUSH2 0x4A1 DUP2 PUSH2 0xC27 JUMP JUMPDEST PUSH1 0x1 PUSH1 0x1 PUSH1 0xA0 SHL SUB DUP2 AND PUSH0 SWAP1 DUP2 MSTORE PUSH1 0x4 PUSH1 0x20 MSTORE PUSH1 0x40 DUP2 KECCAK256 PUSH1 0x1 DUP2 ADD SLOAD PUSH1 0x5 SLOAD DUP3 SLOAD DUP5 SWAP3 SWAP2 PUSH5 0xE8D4A51000 SWAP2 PUSH2 0xB22 SWAP2 SWAP1 PUSH2 0xDAF JUMP JUMPDEST PUSH2 0xB2C SWAP2 SWAP1 PUSH2 0xDCC JUMP JUMPDEST PUSH2 0xB36 SWAP2 SWAP1 PUSH2 0xDEB JUMP JUMPDEST SWAP5 SWAP4 POP POP POP POP JUMP JUMPDEST PUSH0 SLOAD PUSH1 0x1 PUSH1 0x1 PUSH1 0xA0 SHL SUB AND CALLER EQ PUSH2 0x5CB JUMPI PUSH1 0x40 MLOAD PUSH4 0x118CDAA7 PUSH1 0xE0 SHL DUP2 MSTORE CALLER PUSH1 0x4 DUP3 ADD MSTORE PUSH1 0x24 ADD PUSH2 0x32A JUMP JUMPDEST PUSH1 0x2 PUSH1 0x1 SLOAD SUB PUSH2 0xBBC JUMPI PUSH1 0x40 MLOAD PUSH3 0x461BCD PUSH1 0xE5 SHL DUP2 MSTORE PUSH1 0x20 PUSH1 0x4 DUP3 ADD MSTORE PUSH1 0x1F PUSH1 0x24 DUP3 ADD MSTORE PUSH32 0x5265656E7472616E637947756172643A207265656E7472616E742063616C6C00 PUSH1 0x44 DUP3 ADD MSTORE PUSH1 0x64 ADD PUSH2 0x32A JUMP JUMPDEST PUSH1 0x2 PUSH1 0x1 SSTORE JUMP JUMPDEST PUSH1 0x40 MLOAD PUSH1 0x1 PUSH1 0x1 PUSH1 0xA0 SHL SUB DUP4 DUP2 AND PUSH1 0x24 DUP4 ADD MSTORE PUSH1 0x44 DUP3 ADD DUP4 SWAP1 MSTORE PUSH2 0xC22 SWAP2 DUP6 SWAP2 DUP3 AND SWAP1 PUSH4 0xA9059CBB SWAP1 PUSH1 0x64 ADD JUMPDEST PUSH1 0x40 MLOAD PUSH1 0x20 DUP2 DUP4 SUB SUB DUP2 MSTORE SWAP1 PUSH1 0x40 MSTORE SWAP2 POP PUSH1 0xE0 SHL PUSH1 0x20 DUP3 ADD DUP1 MLOAD PUSH1 0x1 PUSH1 0x1 PUSH1 0xE0 SHL SUB DUP4 DUP2 DUP4 AND OR DUP4 MSTORE POP POP POP POP PUSH2 0xCB5 JUMP JUMPDEST POP POP POP JUMP JUMPDEST PUSH0 DUP1 SLOAD PUSH1 0x1 PUSH1 0x1 PUSH1 0xA0 SHL SUB DUP4 DUP2 AND PUSH1 0x1 PUSH1 0x1 PUSH1 0xA0 SHL SUB NOT DUP4 AND DUP2 OR DUP5 SSTORE PUSH1 0x40 MLOAD SWAP2 SWAP1 SWAP3 AND SWAP3 DUP4 SWAP2 PUSH32 0x8BE0079C531659141344CD1FD0A4F28419497F9722A3DAAFE3B4186F6B6457E0 SWAP2 SWAP1 LOG3 POP POP JUMP JUMPDEST PUSH1 0x40 MLOAD PUSH1 0x1 PUSH1 0x1 PUSH1 0xA0 SHL SUB DUP5 DUP2 AND PUSH1 0x24 DUP4 ADD MSTORE DUP4 DUP2 AND PUSH1 0x44 DUP4 ADD MSTORE PUSH1 0x64 DUP3 ADD DUP4 SWAP1 MSTORE PUSH2 0xCAF SWAP2 DUP7 SWAP2 DUP3 AND SWAP1 PUSH4 0x23B872DD SWAP1 PUSH1 0x84 ADD PUSH2 0xBF0 JUMP JUMPDEST POP POP POP POP JUMP JUMPDEST PUSH0 DUP1 PUSH1 0x20 PUSH0 DUP5 MLOAD PUSH1 0x20 DUP7 ADD PUSH0 DUP9 GAS CALL DUP1 PUSH2 0xCD4 JUMPI PUSH1 0x40 MLOAD RETURNDATASIZE PUSH0 DUP3 RETURNDATACOPY RETURNDATASIZE DUP2 REVERT JUMPDEST POP POP PUSH0 MLOAD RETURNDATASIZE SWAP2 POP DUP2 ISZERO PUSH2 0xCEB JUMPI DUP1 PUSH1 0x1 EQ ISZERO PUSH2 0xCF8 JUMP JUMPDEST PUSH1 0x1 PUSH1 0x1 PUSH1 0xA0 SHL SUB DUP5 AND EXTCODESIZE ISZERO JUMPDEST ISZERO PUSH2 0xCAF JUMPI PUSH1 0x40 MLOAD PUSH4 0x5274AFE7 PUSH1 0xE0 SHL DUP2 MSTORE PUSH1 0x1 PUSH1 0x1 PUSH1 0xA0 SHL SUB DUP6 AND PUSH1 0x4 DUP3 ADD MSTORE PUSH1 0x24 ADD PUSH2 0x32A JUMP JUMPDEST DUP1 CALLDATALOAD PUSH1 0x1 PUSH1 0x1 PUSH1 0xA0 SHL SUB DUP2 AND DUP2 EQ PUSH2 0xD37 JUMPI PUSH0 DUP1 REVERT JUMPDEST SWAP2 SWAP1 POP JUMP JUMPDEST PUSH0 PUSH1 0x20 DUP3 DUP5 SUB SLT ISZERO PUSH2 0xD4C JUMPI PUSH0 DUP1 REVERT JUMPDEST PUSH2 0xD55 DUP3 PUSH2 0xD21 JUMP JUMPDEST SWAP4 SWAP3 POP POP POP JUMP JUMPDEST PUSH0 PUSH1 0x20 DUP3 DUP5 SUB SLT ISZERO PUSH2 0xD6C JUMPI PUSH0 DUP1 REVERT JUMPDEST POP CALLDATALOAD SWAP2 SWAP1 POP JUMP JUMPDEST PUSH0 DUP1 PUSH1 0x40 DUP4 DUP6 SUB SLT ISZERO PUSH2 0xD84 JUMPI PUSH0 DUP1 REVERT JUMPDEST PUSH2 0xD8D DUP4 PUSH2 0xD21 JUMP JUMPDEST SWAP5 PUSH1 0x20 SWAP4 SWAP1 SWAP4 ADD CALLDATALOAD SWAP4 POP POP POP JUMP JUMPDEST PUSH4 0x4E487B71 PUSH1 0xE0 SHL PUSH0 MSTORE PUSH1 0x11 PUSH1 0x4 MSTORE PUSH1 0x24 PUSH0 REVERT JUMPDEST DUP1 DUP3 MUL DUP2 ISZERO DUP3 DUP3 DIV DUP5 EQ OR PUSH2 0xDC6 JUMPI PUSH2 0xDC6 PUSH2 0xD9B JUMP JUMPDEST SWAP3 SWAP2 POP POP JUMP JUMPDEST PUSH0 DUP3 PUSH2 0xDE6 JUMPI PUSH4 0x4E487B71 PUSH1 0xE0 SHL PUSH0 MSTORE PUSH1 0x12 PUSH1 0x4 MSTORE PUSH1 0x24 PUSH0 REVERT JUMPDEST POP DIV SWAP1 JUMP JUMPDEST DUP2 DUP2 SUB DUP2 DUP2 GT ISZERO PUSH2 0xDC6 JUMPI PUSH2 0xDC6 PUSH2 0xD9B JUMP JUMPDEST DUP1 DUP3 ADD DUP1 DUP3 GT ISZERO PUSH2 0xDC6 JUMPI PUSH2 0xDC6 PUSH2 0xD9B JUMP JUMPDEST PUSH0 PUSH1 0x20 DUP3 DUP5 SUB SLT ISZERO PUSH2 0xE21 JUMPI PUSH0 DUP1 REVERT JUMPDEST POP MLOAD SWAP2 SWAP1 POP JUMP INVALID LOG2 PUSH5 0x6970667358 0x22 SLT KECCAK256 PUSH20 0xA50A5456EC59DF7E185F848FBB6B7FB5C43EF413 0xC8 SWAP9 0xC 0xBB 0xC3 0xF7 0xDD 0xB4 KECCAK256 SWAP9 0xFB PUSH5 0x736F6C6343 STOP ADDMOD EQ STOP CALLER "
				},
				"gasEstimates": {
					"creation": {
						"codeDepositCost": "735600",
						"executionCost": "infinite",
						"totalCost": "infinite"
					},
					"external": {
						"accTokensPerShare()": "2306",
						"claimRewards()": "infinite",
						"deposit(uint256)": "infinite",
						"emergencyWithdraw()": "infinite",
						"minimumVolumeRequired()": "2372",
						"notifyRewardAmount(uint256)": "infinite",
						"owner()": "2418",
						"pendingReward(address)": "infinite",
						"recoverERC20(address,uint256)": "infinite",
						"renounceOwnership()": "infinite",
						"rewardToken()": "infinite",
						"stakingToken()": "infinite",
						"swapContract()": "2447",
						"totalRewards()": "2307",
						"totalStaked()": "2328",
						"transferOwnership(address)": "28395",
						"updateMinimumVolumeRequired(uint256)": "24553",
						"userInfo(address)": "4701",
						"withdraw(uint256)": "infinite"
					}
				},
				"methodIdentifiers": {
					"accTokensPerShare()": "2f3c9a4f",
					"claimRewards()": "372500ab",
					"deposit(uint256)": "b6b55f25",
					"emergencyWithdraw()": "db2e21bc",
					"minimumVolumeRequired()": "644f362d",
					"notifyRewardAmount(uint256)": "3c6b16ab",
					"owner()": "8da5cb5b",
					"pendingReward(address)": "f40f0f52",
					"recoverERC20(address,uint256)": "8980f11f",
					"renounceOwnership()": "715018a6",
					"rewardToken()": "f7c618c1",
					"stakingToken()": "72f702f3",
					"swapContract()": "8ea83031",
					"totalRewards()": "0e15561a",
					"totalStaked()": "817b1cd2",
					"transferOwnership(address)": "f2fde38b",
					"updateMinimumVolumeRequired(uint256)": "2277d7e1",
					"userInfo(address)": "1959a002",
					"withdraw(uint256)": "2e1a7d4d"
				}
			},
			"storageLayout": {
				"storage": [
					{
						"astId": 8,
						"contract": "ARY/HardStake.sol:HardStake",
						"label": "_owner",
						"offset": 0,
						"slot": "0",
						"type": "t_address"
					},
					{
						"astId": 248,
						"contract": "ARY/HardStake.sol:HardStake",
						"label": "_status",
						"offset": 0,
						"slot": "1",
						"type": "t_uint256"
					},
					{
						"astId": 1131,
						"contract": "ARY/HardStake.sol:HardStake",
						"label": "swapContract",
						"offset": 0,
						"slot": "2",
						"type": "t_contract(SwapPro)2711"
					},
					{
						"astId": 1144,
						"contract": "ARY/HardStake.sol:HardStake",
						"label": "totalStaked",
						"offset": 0,
						"slot": "3",
						"type": "t_uint256"
					},
					{
						"astId": 1149,
						"contract": "ARY/HardStake.sol:HardStake",
						"label": "userInfo",
						"offset": 0,
						"slot": "4",
						"type": "t_mapping(t_address,t_struct(UserInfo)1136_storage)"
					},
					{
						"astId": 1151,
						"contract": "ARY/HardStake.sol:HardStake",
						"label": "accTokensPerShare",
						"offset": 0,
						"slot": "5",
						"type": "t_uint256"
					},
					{
						"astId": 1153,
						"contract": "ARY/HardStake.sol:HardStake",
						"label": "totalRewards",
						"offset": 0,
						"slot": "6",
						"type": "t_uint256"
					},
					{
						"astId": 1155,
						"contract": "ARY/HardStake.sol:HardStake",
						"label": "minimumVolumeRequired",
						"offset": 0,
						"slot": "7",
						"type": "t_uint256"
					}
				],
				"types": {
					"t_address": {
						"encoding": "inplace",
						"label": "address",
						"numberOfBytes": "20"
					},
					"t_contract(SwapPro)2711": {
						"encoding": "inplace",
						"label": "contract SwapPro",
						"numberOfBytes": "20"
					},
					"t_mapping(t_address,t_struct(UserInfo)1136_storage)": {
						"encoding": "mapping",
						"key": "t_address",
						"label": "mapping(address => struct HardStake.UserInfo)",
						"numberOfBytes": "32",
						"value": "t_struct(UserInfo)1136_storage"
					},
					"t_struct(UserInfo)1136_storage": {
						"encoding": "inplace",
						"label": "struct HardStake.UserInfo",
						"members": [
							{
								"astId": 1133,
								"contract": "ARY/HardStake.sol:HardStake",
								"label": "amount",
								"offset": 0,
								"slot": "0",
								"type": "t_uint256"
							},
							{
								"astId": 1135,
								"contract": "ARY/HardStake.sol:HardStake",
								"label": "rewardDebt",
								"offset": 0,
								"slot": "1",
								"type": "t_uint256"
							}
						],
						"numberOfBytes": "64"
					},
					"t_uint256": {
						"encoding": "inplace",
						"label": "uint256",
						"numberOfBytes": "32"
					}
				}
			},
			"userdoc": {
				"kind": "user",
				"methods": {},
				"version": 1
			}
		}
	}
}