{
	"data": {
		"bytecode": {
			"linkReferences": {},
			"object": "60c060405234801561000f575f80fd5b50604051610feb380380610feb83398101604081905261002e916100fb565b338061005357604051631e4fbdf760e01b81525f600482015260240160405180910390fd5b61005c81610095565b50600180556001600160a01b03928316608081905260a052600280546001600160a01b031916929093169190911790915560075561013b565b5f80546001600160a01b038381166001600160a01b0319831681178455604051919092169283917f8be0079c531659141344cd1fd0a4f28419497f9722a3daafe3b4186f6b6457e09190a35050565b6001600160a01b03811681146100f8575f80fd5b50565b5f805f6060848603121561010d575f80fd5b8351610118816100e4565b6020850151909350610129816100e4565b80925050604084015190509250925092565b60805160a051610e5e61018d5f395f8181610298015281816103790152818161053f01526108a501525f81816101d901528181610419015281816106d2015281816109170152610a5a0152610e5e5ff3fe608060405234801561000f575f80fd5b506004361061011c575f3560e01c806372f702f3116100a9578063b6b55f251161006e578063b6b55f2514610252578063db2e21bc14610265578063f2fde38b1461026d578063f40f0f5214610280578063f7c618c114610293575f80fd5b806372f702f3146101d4578063817b1cd2146102135780638980f11f1461021c5780638da5cb5b1461022f5780638ea830311461023f575f80fd5b80632f3c9a4f116100ef5780632f3c9a4f1461019f578063372500ab146101a85780633c6b16ab146101b0578063644f362d146101c3578063715018a6146101cc575f80fd5b80630e15561a146101205780631959a0021461013c5780632277d7e1146101775780632e1a7d4d1461018c575b5f80fd5b61012960065481565b6040519081526020015b60405180910390f35b61016261014a366004610d3c565b60046020525f90815260409020805460019091015482565b60408051928352602083019190915201610133565b61018a610185366004610d5c565b6102ba565b005b61018a61019a366004610d5c565b6102c7565b61012960055481565b61018a6104a4565b61018a6101be366004610d5c565b6105cd565b61012960075481565b61018a6106b7565b6101fb7f000000000000000000000000000000000000000000000000000000000000000081565b6040516001600160a01b039091168152602001610133565b61012960035481565b61018a61022a366004610d73565b6106c8565b5f546001600160a01b03166101fb565b6002546101fb906001600160a01b031681565b61018a610260366004610d5c565b61077a565b61018a6109d3565b61018a61027b366004610d3c565b610ab3565b61012961028e366004610d3c565b610aed565b6101fb7f000000000000000000000000000000000000000000000000000000000000000081565b6102c2610b3e565b600755565b6102cf610b6a565b335f90815260046020526040902080548211156103335760405162461bcd60e51b815260206004820152601f60248201527f576974686472617720616d6f756e7420657863656564732062616c616e63650060448201526064015b60405180910390fd5b5f816001015464e8d4a51000600554845f01546103509190610daf565b61035a9190610dcc565b6103649190610deb565b905080156103d6576103a06001600160a01b037f0000000000000000000000000000000000000000000000000000000000000000163383610bc3565b60405181815233907f47cee97cb7acd717b3c0aa1435d004cd5b3c8c57d70dbceb4e4458bbd60e39d49060200160405180910390a25b82156104765782825f015f8282546103ee9190610deb565b925050819055508260035f8282546104069190610deb565b9091555061044090506001600160a01b037f0000000000000000000000000000000000000000000000000000000000000000163385610bc3565b60405183815233907f884edad9ce6fa2440d8a54cc123490eb96d2768479d49ff9c7366125a94243649060200160405180910390a25b600554825464e8d4a510009161048b91610daf565b6104959190610dcc565b60019283015550805550565b50565b6104ac610b6a565b335f9081526004602052604081206001810154600554825492939264e8d4a51000916104d791610daf565b6104e19190610dcc565b6104eb9190610deb565b90505f81116105325760405162461bcd60e51b81526020600482015260136024820152724e6f207265776172647320746f20636c61696d60681b604482015260640161032a565b6105666001600160a01b037f0000000000000000000000000000000000000000000000000000000000000000163383610bc3565b600554825464e8d4a510009161057b91610daf565b6105859190610dcc565b600183015560405181815233907f47cee97cb7acd717b3c0aa1435d004cd5b3c8c57d70dbceb4e4458bbd60e39d4906020015b60405180910390a250506105cb60018055565b565b6002546001600160a01b03163314806105ef57505f546001600160a01b031633145b61062c5760405162461bcd60e51b815260206004820152600e60248201526d139bdd08185d5d1a1bdc9a5e995960921b604482015260640161032a565b6003545f036106385750565b60035461064a8264e8d4a51000610daf565b6106549190610dcc565b60055f8282546106649190610dfe565b925050819055508060065f82825461067c9190610dfe565b90915550506040518181527fde88a922e0d3b88b24e9623efeb464919c6bf9f66857a65e2bfcf2ce87a9433d9060200160405180910390a150565b6106bf610b3e565b6105cb5f610c27565b6106d0610b3e565b7f00000000000000000000000000000000000000000000000000000000000000006001600160a01b0316826001600160a01b0316036107515760405162461bcd60e51b815260206004820152601c60248201527f43616e6e6f74207265636f766572207374616b696e6720746f6b656e00000000604482015260640161032a565b6107766107655f546001600160a01b031690565b6001600160a01b0384169083610bc3565b5050565b610782610b6a565b6002546040516314ced3df60e31b81523360048201525f916001600160a01b03169063a6769ef890602401602060405180830381865afa1580156107c8573d5f803e3d5ffd5b505050506040513d601f19601f820116820180604052508101906107ec9190610e11565b905060075481101561084a5760405162461bcd60e51b815260206004820152602160248201527f496e73756666696369656e74204441707020766f6c756d6520746f207374616b6044820152606560f81b606482015260840161032a565b335f908152600460205260409020805415610904575f816001015464e8d4a51000600554845f015461087c9190610daf565b6108869190610dcc565b6108909190610deb565b90508015610902576108cc6001600160a01b037f0000000000000000000000000000000000000000000000000000000000000000163383610bc3565b60405181815233907f47cee97cb7acd717b3c0aa1435d004cd5b3c8c57d70dbceb4e4458bbd60e39d49060200160405180910390a25b505b821561096f5761093f6001600160a01b037f000000000000000000000000000000000000000000000000000000000000000016333086610c76565b82815f015f8282546109519190610dfe565b925050819055508260035f8282546109699190610dfe565b90915550505b600554815464e8d4a510009161098491610daf565b61098e9190610dcc565b600182015560405183815233907fe1fffcc4923d04b559f4d29a8bfc6cda04eb5b0d3c460751c2402c5c5cc9109c9060200160405180910390a250506104a160018055565b6109db610b6a565b335f908152600460205260409020805480610a2e5760405162461bcd60e51b81526020600482015260136024820152724e6f7468696e6720746f20776974686472617760681b604482015260640161032a565b8060035f828254610a3f9190610deb565b90915550505f8083556001830155610a816001600160a01b037f0000000000000000000000000000000000000000000000000000000000000000163383610bc3565b60405181815233907f884edad9ce6fa2440d8a54cc123490eb96d2768479d49ff9c7366125a9424364906020016105b8565b610abb610b3e565b6001600160a01b038116610ae457604051631e4fbdf760e01b81525f600482015260240161032a565b6104a181610c27565b6001600160a01b0381165f9081526004602052604081206001810154600554825484929164e8d4a5100091610b229190610daf565b610b2c9190610dcc565b610b369190610deb565b949350505050565b5f546001600160a01b031633146105cb5760405163118cdaa760e01b815233600482015260240161032a565b600260015403610bbc5760405162461bcd60e51b815260206004820152601f60248201527f5265656e7472616e637947756172643a207265656e7472616e742063616c6c00604482015260640161032a565b6002600155565b6040516001600160a01b03838116602483015260448201839052610c2291859182169063a9059cbb906064015b604051602081830303815290604052915060e01b6020820180516001600160e01b038381831617835250505050610cb5565b505050565b5f80546001600160a01b038381166001600160a01b0319831681178455604051919092169283917f8be0079c531659141344cd1fd0a4f28419497f9722a3daafe3b4186f6b6457e09190a35050565b6040516001600160a01b038481166024830152838116604483015260648201839052610caf9186918216906323b872dd90608401610bf0565b50505050565b5f8060205f8451602086015f885af180610cd4576040513d5f823e3d81fd5b50505f513d91508115610ceb578060011415610cf8565b6001600160a01b0384163b155b15610caf57604051635274afe760e01b81526001600160a01b038516600482015260240161032a565b80356001600160a01b0381168114610d37575f80fd5b919050565b5f60208284031215610d4c575f80fd5b610d5582610d21565b9392505050565b5f60208284031215610d6c575f80fd5b5035919050565b5f8060408385031215610d84575f80fd5b610d8d83610d21565b946020939093013593505050565b634e487b7160e01b5f52601160045260245ffd5b8082028115828204841417610dc657610dc6610d9b565b92915050565b5f82610de657634e487b7160e01b5f52601260045260245ffd5b500490565b81810381811115610dc657610dc6610d9b565b80820180821115610dc657610dc6610d9b565b5f60208284031215610e21575f80fd5b505191905056fea264697066735822122073a50a5456ec59df7e185f848fbb6b7fb5c43ef413c8980cbbc3f7ddb42098fb64736f6c63430008140033",
			"opcodes": "PUSH1 0xC0 PUSH1 0x40 MSTORE CALLVALUE DUP1 ISZERO PUSH2 0xF JUMPI PUSH0 DUP1 REVERT JUMPDEST POP PUSH1 0x40 MLOAD PUSH2 0xFEB CODESIZE SUB DUP1 PUSH2 0xFEB DUP4 CODECOPY DUP2 ADD PUSH1 0x40 DUP2 SWAP1 MSTORE PUSH2 0x2E SWAP2 PUSH2 0xFB JUMP JUMPDEST CALLER DUP1 PUSH2 0x53 JUMPI PUSH1 0x40 MLOAD PUSH4 0x1E4FBDF7 PUSH1 0xE0 SHL DUP2 MSTORE PUSH0 PUSH1 0x4 DUP3 ADD MSTORE PUSH1 0x24 ADD PUSH1 0x40 MLOAD DUP1 SWAP2 SUB SWAP1 REVERT JUMPDEST PUSH2 0x5C DUP2 PUSH2 0x95 JUMP JUMPDEST POP PUSH1 0x1 DUP1 SSTORE PUSH1 0x1 PUSH1 0x1 PUSH1 0xA0 SHL SUB SWAP3 DUP4 AND PUSH1 0x80 DUP2 SWAP1 MSTORE PUSH1 0xA0 MSTORE PUSH1 0x2 DUP1 SLOAD PUSH1 0x1 PUSH1 0x1 PUSH1 0xA0 SHL SUB NOT AND SWAP3 SWAP1 SWAP4 AND SWAP2 SWAP1 SWAP2 OR SWAP1 SWAP2 SSTORE PUSH1 0x7 SSTORE PUSH2 0x13B JUMP JUMPDEST PUSH0 DUP1 SLOAD PUSH1 0x1 PUSH1 0x1 PUSH1 0xA0 SHL SUB DUP4 DUP2 AND PUSH1 0x1 PUSH1 0x1 PUSH1 0xA0 SHL SUB NOT DUP4 AND DUP2 OR DUP5 SSTORE PUSH1 0x40 MLOAD SWAP2 SWAP1 SWAP3 AND SWAP3 DUP4 SWAP2 PUSH32 0x8BE0079C531659141344CD1FD0A4F28419497F9722A3DAAFE3B4186F6B6457E0 SWAP2 SWAP1 LOG3 POP POP JUMP JUMPDEST PUSH1 0x1 PUSH1 0x1 PUSH1 0xA0 SHL SUB DUP2 AND DUP2 EQ PUSH2 0xF8 JUMPI PUSH0 DUP1 REVERT JUMPDEST POP JUMP JUMPDEST PUSH0 DUP1 PUSH0 PUSH1 0x60 DUP5 DUP7 SUB SLT ISZERO PUSH2 0x10D JUMPI PUSH0 DUP1 REVERT JUMPDEST DUP4 MLOAD PUSH2 0x118 DUP2 PUSH2 0xE4 JUMP JUMPDEST PUSH1 0x20 DUP6 ADD MLOAD SWAP1 SWAP4 POP PUSH2 0x129 DUP2 PUSH2 0xE4 JUMP JUMPDEST DUP1 SWAP3 POP POP PUSH1 0x40 DUP5 ADD MLOAD SWAP1 POP SWAP3 POP SWAP3 POP SWAP3 JUMP JUMPDEST PUSH1 0x80 MLOAD PUSH1 0xA0 MLOAD PUSH2 0xE5E PUSH2 0x18D PUSH0 CODECOPY PUSH0 DUP2 DUP2 PUSH2 0x298 ADD MSTORE DUP2 DUP2 PUSH2 0x379 ADD MSTORE DUP2 DUP2 PUSH2 0x53F ADD MSTORE PUSH2 0x8A5 ADD MSTORE PUSH0 DUP2 DUP2 PUSH2 0x1D9 ADD MSTORE DUP2 DUP2 PUSH2 0x419 ADD MSTORE DUP2 DUP2 PUSH2 0x6D2 ADD MSTORE DUP2 DUP2 PUSH2 0x917 ADD MSTORE PUSH2 0xA5A ADD MSTORE PUSH2 0xE5E PUSH0 RETURN INVALID PUSH1 0x80 PUSH1 0x40 MSTORE CALLVALUE DUP1 ISZERO PUSH2 0xF JUMPI PUSH0 DUP1 REVERT JUMPDEST POP PUSH1 0x4 CALLDATASIZE LT PUSH2 0x11C JUMPI PUSH0 CALLDATALOAD PUSH1 0xE0 SHR DUP1 PUSH4 0x72F702F3 GT PUSH2 0xA9 JUMPI DUP1 PUSH4 0xB6B55F25 GT PUSH2 0x6E JUMPI DUP1 PUSH4 0xB6B55F25 EQ PUSH2 0x252 JUMPI DUP1 PUSH4 0xDB2E21BC EQ PUSH2 0x265 JUMPI DUP1 PUSH4 0xF2FDE38B EQ PUSH2 0x26D JUMPI DUP1 PUSH4 0xF40F0F52 EQ PUSH2 0x280 JUMPI DUP1 PUSH4 0xF7C618C1 EQ PUSH2 0x293 JUMPI PUSH0 DUP1 REVERT JUMPDEST DUP1 PUSH4 0x72F702F3 EQ PUSH2 0x1D4 JUMPI DUP1 PUSH4 0x817B1CD2 EQ PUSH2 0x213 JUMPI DUP1 PUSH4 0x8980F11F EQ PUSH2 0x21C JUMPI DUP1 PUSH4 0x8DA5CB5B EQ PUSH2 0x22F JUMPI DUP1 PUSH4 0x8EA83031 EQ PUSH2 0x23F JUMPI PUSH0 DUP1 REVERT JUMPDEST DUP1 PUSH4 0x2F3C9A4F GT PUSH2 0xEF JUMPI DUP1 PUSH4 0x2F3C9A4F EQ PUSH2 0x19F JUMPI DUP1 PUSH4 0x372500AB EQ PUSH2 0x1A8 JUMPI DUP1 PUSH4 0x3C6B16AB EQ PUSH2 0x1B0 JUMPI DUP1 PUSH4 0x644F362D EQ PUSH2 0x1C3 JUMPI DUP1 PUSH4 0x715018A6 EQ PUSH2 0x1CC JUMPI PUSH0 DUP1 REVERT JUMPDEST DUP1 PUSH4 0xE15561A EQ PUSH2 0x120 JUMPI DUP1 PUSH4 0x1959A002 EQ PUSH2 0x13C JUMPI DUP1 PUSH4 0x2277D7E1 EQ PUSH2 0x177 JUMPI DUP1 PUSH4 0x2E1A7D4D EQ PUSH2 0x18C JUMPI JUMPDEST PUSH0 DUP1 REVERT JUMPDEST PUSH2 0x129 PUSH1 0x6 SLOAD DUP2 JUMP JUMPDEST PUSH1 0x40 MLOAD SWAP1 DUP2 MSTORE PUSH1 0x20 ADD JUMPDEST PUSH1 0x40 MLOAD DUP1 SWAP2 SUB SWAP1 RETURN JUMPDEST PUSH2 0x162 PUSH2 0x14A CALLDATASIZE PUSH1 0x4 PUSH2 0xD3C JUMP JUMPDEST PUSH1 0x4 PUSH1 0x20 MSTORE PUSH0 SWAP1 DUP2 MSTORE PUSH1 0x40 SWAP1 KECCAK256 DUP1 SLOAD PUSH1 0x1 SWAP1 SWAP2 ADD SLOAD DUP3 JUMP JUMPDEST PUSH1 0x40 DUP1 MLOAD SWAP3 DUP4 MSTORE PUSH1 0x20 DUP4 ADD SWAP2 SWAP1 SWAP2 MSTORE ADD PUSH2 0x133 JUMP JUMPDEST PUSH2 0x18A PUSH2 0x185 CALLDATASIZE PUSH1 0x4 PUSH2 0xD5C JUMP JUMPDEST PUSH2 0x2BA JUMP JUMPDEST STOP JUMPDEST PUSH2 0x18A PUSH2 0x19A CALLDATASIZE PUSH1 0x4 PUSH2 0xD5C JUMP JUMPDEST PUSH2 0x2C7 JUMP JUMPDEST PUSH2 0x129 PUSH1 0x5 SLOAD DUP2 JUMP JUMPDEST PUSH2 0x18A PUSH2 0x4A4 JUMP JUMPDEST PUSH2 0x18A PUSH2 0x1BE CALLDATASIZE PUSH1 0x4 PUSH2 0xD5C JUMP JUMPDEST PUSH2 0x5CD JUMP JUMPDEST PUSH2 0x129 PUSH1 0x7 SLOAD DUP2 JUMP JUMPDEST PUSH2 0x18A PUSH2 0x6B7 JUMP JUMPDEST PUSH2 0x1FB PUSH32 0x0 DUP2 JUMP JUMPDEST PUSH1 0x40 MLOAD PUSH1 0x1 PUSH1 0x1 PUSH1 0xA0 SHL SUB SWAP1 SWAP2 AND DUP2 MSTORE PUSH1 0x20 ADD PUSH2 0x133 JUMP JUMPDEST PUSH2 0x129 PUSH1 0x3 SLOAD DUP2 JUMP JUMPDEST PUSH2 0x18A PUSH2 0x22A CALLDATASIZE PUSH1 0x4 PUSH2 0xD73 JUMP JUMPDEST PUSH2 0x6C8 JUMP JUMPDEST PUSH0 SLOAD PUSH1 0x1 PUSH1 0x1 PUSH1 0xA0 SHL SUB AND PUSH2 0x1FB JUMP JUMPDEST PUSH1 0x2 SLOAD PUSH2 0x1FB SWAP1 PUSH1 0x1 PUSH1 0x1 PUSH1 0xA0 SHL SUB AND DUP2 JUMP JUMPDEST PUSH2 0x18A PUSH2 0x260 CALLDATASIZE PUSH1 0x4 PUSH2 0xD5C JUMP JUMPDEST PUSH2 0x77A JUMP JUMPDEST PUSH2 0x18A PUSH2 0x9D3 JUMP JUMPDEST PUSH2 0x18A PUSH2 0x27B CALLDATASIZE PUSH1 0x4 PUSH2 0xD3C JUMP JUMPDEST PUSH2 0xAB3 JUMP JUMPDEST PUSH2 0x129 PUSH2 0x28E CALLDATASIZE PUSH1 0x4 PUSH2 0xD3C JUMP JUMPDEST PUSH2 0xAED JUMP JUMPDEST PUSH2 0x1FB PUSH32 0x0 DUP2 JUMP JUMPDEST PUSH2 0x2C2 PUSH2 0xB3E JUMP JUMPDEST PUSH1 0x7 SSTORE JUMP JUMPDEST PUSH2 0x2CF PUSH2 0xB6A JUMP JUMPDEST CALLER PUSH0 SWAP1 DUP2 MSTORE PUSH1 0x4 PUSH1 0x20 MSTORE PUSH1 0x40 SWAP1 KECCAK256 DUP1 SLOAD DUP3 GT ISZERO PUSH2 0x333 JUMPI PUSH1 0x40 MLOAD PUSH3 0x461BCD PUSH1 0xE5 SHL DUP2 MSTORE PUSH1 0x20 PUSH1 0x4 DUP3 ADD MSTORE PUSH1 0x1F PUSH1 0x24 DUP3 ADD MSTORE PUSH32 0x576974686472617720616D6F756E7420657863656564732062616C616E636500 PUSH1 0x44 DUP3 ADD MSTORE PUSH1 0x64 ADD JUMPDEST PUSH1 0x40 MLOAD DUP1 SWAP2 SUB SWAP1 REVERT JUMPDEST PUSH0 DUP2 PUSH1 0x1 ADD SLOAD PUSH5 0xE8D4A51000 PUSH1 0x5 SLOAD DUP5 PUSH0 ADD SLOAD PUSH2 0x350 SWAP2 SWAP1 PUSH2 0xDAF JUMP JUMPDEST PUSH2 0x35A SWAP2 SWAP1 PUSH2 0xDCC JUMP JUMPDEST PUSH2 0x364 SWAP2 SWAP1 PUSH2 0xDEB JUMP JUMPDEST SWAP1 POP DUP1 ISZERO PUSH2 0x3D6 JUMPI PUSH2 0x3A0 PUSH1 0x1 PUSH1 0x1 PUSH1 0xA0 SHL SUB PUSH32 0x0 AND CALLER DUP4 PUSH2 0xBC3 JUMP JUMPDEST PUSH1 0x40 MLOAD DUP2 DUP2 MSTORE CALLER SWAP1 PUSH32 0x47CEE97CB7ACD717B3C0AA1435D004CD5B3C8C57D70DBCEB4E4458BBD60E39D4 SWAP1 PUSH1 0x20 ADD PUSH1 0x40 MLOAD DUP1 SWAP2 SUB SWAP1 LOG2 JUMPDEST DUP3 ISZERO PUSH2 0x476 JUMPI DUP3 DUP3 PUSH0 ADD PUSH0 DUP3 DUP3 SLOAD PUSH2 0x3EE SWAP2 SWAP1 PUSH2 0xDEB JUMP JUMPDEST SWAP3 POP POP DUP2 SWAP1 SSTORE POP DUP3 PUSH1 0x3 PUSH0 DUP3 DUP3 SLOAD PUSH2 0x406 SWAP2 SWAP1 PUSH2 0xDEB JUMP JUMPDEST SWAP1 SWAP2 SSTORE POP PUSH2 0x440 SWAP1 POP PUSH1 0x1 PUSH1 0x1 PUSH1 0xA0 SHL SUB PUSH32 0x0 AND CALLER DUP6 PUSH2 0xBC3 JUMP JUMPDEST PUSH1 0x40 MLOAD DUP4 DUP2 MSTORE CALLER SWAP1 PUSH32 0x884EDAD9CE6FA2440D8A54CC123490EB96D2768479D49FF9C7366125A9424364 SWAP1 PUSH1 0x20 ADD PUSH1 0x40 MLOAD DUP1 SWAP2 SUB SWAP1 LOG2 JUMPDEST PUSH1 0x5 SLOAD DUP3 SLOAD PUSH5 0xE8D4A51000 SWAP2 PUSH2 0x48B SWAP2 PUSH2 0xDAF JUMP JUMPDEST PUSH2 0x495 SWAP2 SWAP1 PUSH2 0xDCC JUMP JUMPDEST PUSH1 0x1 SWAP3 DUP4 ADD SSTORE POP DUP1 SSTORE POP JUMP JUMPDEST POP JUMP JUMPDEST PUSH2 0x4AC PUSH2 0xB6A JUMP JUMPDEST CALLER PUSH0 SWAP1 DUP2 MSTORE PUSH1 0x4 PUSH1 0x20 MSTORE PUSH1 0x40 DUP2 KECCAK256 PUSH1 0x1 DUP2 ADD SLOAD PUSH1 0x5 SLOAD DUP3 SLOAD SWAP3 SWAP4 SWAP3 PUSH5 0xE8D4A51000 SWAP2 PUSH2 0x4D7 SWAP2 PUSH2 0xDAF JUMP JUMPDEST PUSH2 0x4E1 SWAP2 SWAP1 PUSH2 0xDCC JUMP JUMPDEST PUSH2 0x4EB SWAP2 SWAP1 PUSH2 0xDEB JUMP JUMPDEST SWAP1 POP PUSH0 DUP2 GT PUSH2 0x532 JUMPI PUSH1 0x40 MLOAD PUSH3 0x461BCD PUSH1 0xE5 SHL DUP2 MSTORE PUSH1 0x20 PUSH1 0x4 DUP3 ADD MSTORE PUSH1 0x13 PUSH1 0x24 DUP3 ADD MSTORE PUSH19 0x4E6F207265776172647320746F20636C61696D PUSH1 0x68 SHL PUSH1 0x44 DUP3 ADD MSTORE PUSH1 0x64 ADD PUSH2 0x32A JUMP JUMPDEST PUSH2 0x566 PUSH1 0x1 PUSH1 0x1 PUSH1 0xA0 SHL SUB PUSH32 0x0 AND CALLER DUP4 PUSH2 0xBC3 JUMP JUMPDEST PUSH1 0x5 SLOAD DUP3 SLOAD PUSH5 0xE8D4A51000 SWAP2 PUSH2 0x57B SWAP2 PUSH2 0xDAF JUMP JUMPDEST PUSH2 0x585 SWAP2 SWAP1 PUSH2 0xDCC JUMP JUMPDEST PUSH1 0x1 DUP4 ADD SSTORE PUSH1 0x40 MLOAD DUP2 DUP2 MSTORE CALLER SWAP1 PUSH32 0x47CEE97CB7ACD717B3C0AA1435D004CD5B3C8C57D70DBCEB4E4458BBD60E39D4 SWAP1 PUSH1 0x20 ADD JUMPDEST PUSH1 0x40 MLOAD DUP1 SWAP2 SUB SWAP1 LOG2 POP POP PUSH2 0x5CB PUSH1 0x1 DUP1 SSTORE JUMP JUMPDEST JUMP JUMPDEST PUSH1 0x2 SLOAD PUSH1 0x1 PUSH1 0x1 PUSH1 0xA0 SHL SUB AND CALLER EQ DUP1 PUSH2 0x5EF JUMPI POP PUSH0 SLOAD PUSH1 0x1 PUSH1 0x1 PUSH1 0xA0 SHL SUB AND CALLER EQ JUMPDEST PUSH2 0x62C JUMPI PUSH1 0x40 MLOAD PUSH3 0x461BCD PUSH1 0xE5 SHL DUP2 MSTORE PUSH1 0x20 PUSH1 0x4 DUP3 ADD MSTORE PUSH1 0xE PUSH1 0x24 DUP3 ADD MSTORE PUSH14 0x139BDD08185D5D1A1BDC9A5E9959 PUSH1 0x92 SHL PUSH1 0x44 DUP3 ADD MSTORE PUSH1 0x64 ADD PUSH2 0x32A JUMP JUMPDEST PUSH1 0x3 SLOAD PUSH0 SUB PUSH2 0x638 JUMPI POP JUMP JUMPDEST PUSH1 0x3 SLOAD PUSH2 0x64A DUP3 PUSH5 0xE8D4A51000 PUSH2 0xDAF JUMP JUMPDEST PUSH2 0x654 SWAP2 SWAP1 PUSH2 0xDCC JUMP JUMPDEST PUSH1 0x5 PUSH0 DUP3 DUP3 SLOAD PUSH2 0x664 SWAP2 SWAP1 PUSH2 0xDFE JUMP JUMPDEST SWAP3 POP POP DUP2 SWAP1 SSTORE POP DUP1 PUSH1 0x6 PUSH0 DUP3 DUP3 SLOAD PUSH2 0x67C SWAP2 SWAP1 PUSH2 0xDFE JUMP JUMPDEST SWAP1 SWAP2 SSTORE POP POP PUSH1 0x40 MLOAD DUP2 DUP2 MSTORE PUSH32 0xDE88A922E0D3B88B24E9623EFEB464919C6BF9F66857A65E2BFCF2CE87A9433D SWAP1 PUSH1 0x20 ADD PUSH1 0x40 MLOAD DUP1 SWAP2 SUB SWAP1 LOG1 POP JUMP JUMPDEST PUSH2 0x6BF PUSH2 0xB3E JUMP JUMPDEST PUSH2 0x5CB PUSH0 PUSH2 0xC27 JUMP JUMPDEST PUSH2 0x6D0 PUSH2 0xB3E JUMP JUMPDEST PUSH32 0x0 PUSH1 0x1 PUSH1 0x1 PUSH1 0xA0 SHL SUB AND DUP3 PUSH1 0x1 PUSH1 0x1 PUSH1 0xA0 SHL SUB AND SUB PUSH2 0x751 JUMPI PUSH1 0x40 MLOAD PUSH3 0x461BCD PUSH1 0xE5 SHL DUP2 MSTORE PUSH1 0x20 PUSH1 0x4 DUP3 ADD MSTORE PUSH1 0x1C PUSH1 0x24 DUP3 ADD MSTORE PUSH32 0x43616E6E6F74207265636F766572207374616B696E6720746F6B656E00000000 PUSH1 0x44 DUP3 ADD MSTORE PUSH1 0x64 ADD PUSH2 0x32A JUMP JUMPDEST PUSH2 0x776 PUSH2 0x765 PUSH0 SLOAD PUSH1 0x1 PUSH1 0x1 PUSH1 0xA0 SHL SUB AND SWAP1 JUMP JUMPDEST PUSH1 0x1 PUSH1 0x1 PUSH1 0xA0 SHL SUB DUP5 AND SWAP1 DUP4 PUSH2 0xBC3 JUMP JUMPDEST POP POP JUMP JUMPDEST PUSH2 0x782 PUSH2 0xB6A JUMP JUMPDEST PUSH1 0x2 SLOAD PUSH1 0x40 MLOAD PUSH4 0x14CED3DF PUSH1 0xE3 SHL DUP2 MSTORE CALLER PUSH1 0x4 DUP3 ADD MSTORE PUSH0 SWAP2 PUSH1 0x1 PUSH1 0x1 PUSH1 0xA0 SHL SUB AND SWAP1 PUSH4 0xA6769EF8 SWAP1 PUSH1 0x24 ADD PUSH1 0x20 PUSH1 0x40 MLOAD DUP1 DUP4 SUB DUP2 DUP7 GAS STATICCALL ISZERO DUP1 ISZERO PUSH2 0x7C8 JUMPI RETURNDATASIZE PUSH0 DUP1 RETURNDATACOPY RETURNDATASIZE PUSH0 REVERT JUMPDEST POP POP POP POP PUSH1 0x40 MLOAD RETURNDATASIZE PUSH1 0x1F NOT PUSH1 0x1F DUP3 ADD AND DUP3 ADD DUP1 PUSH1 0x40 MSTORE POP DUP2 ADD SWAP1 PUSH2 0x7EC SWAP2 SWAP1 PUSH2 0xE11 JUMP JUMPDEST SWAP1 POP PUSH1 0x7 SLOAD DUP2 LT ISZERO PUSH2 0x84A JUMPI PUSH1 0x40 MLOAD PUSH3 0x461BCD PUSH1 0xE5 SHL DUP2 MSTORE PUSH1 0x20 PUSH1 0x4 DUP3 ADD MSTORE PUSH1 0x21 PUSH1 0x24 DUP3 ADD MSTORE PUSH32 0x496E73756666696369656E74204441707020766F6C756D6520746F207374616B PUSH1 0x44 DUP3 ADD MSTORE PUSH1 0x65 PUSH1 0xF8 SHL PUSH1 0x64 DUP3 ADD MSTORE PUSH1 0x84 ADD PUSH2 0x32A JUMP JUMPDEST CALLER PUSH0 SWAP1 DUP2 MSTORE PUSH1 0x4 PUSH1 0x20 MSTORE PUSH1 0x40 SWAP1 KECCAK256 DUP1 SLOAD ISZERO PUSH2 0x904 JUMPI PUSH0 DUP2 PUSH1 0x1 ADD SLOAD PUSH5 0xE8D4A51000 PUSH1 0x5 SLOAD DUP5 PUSH0 ADD SLOAD PUSH2 0x87C SWAP2 SWAP1 PUSH2 0xDAF JUMP JUMPDEST PUSH2 0x886 SWAP2 SWAP1 PUSH2 0xDCC JUMP JUMPDEST PUSH2 0x890 SWAP2 SWAP1 PUSH2 0xDEB JUMP JUMPDEST SWAP1 POP DUP1 ISZERO PUSH2 0x902 JUMPI PUSH2 0x8CC PUSH1 0x1 PUSH1 0x1 PUSH1 0xA0 SHL SUB PUSH32 0x0 AND CALLER DUP4 PUSH2 0xBC3 JUMP JUMPDEST PUSH1 0x40 MLOAD DUP2 DUP2 MSTORE CALLER SWAP1 PUSH32 0x47CEE97CB7ACD717B3C0AA1435D004CD5B3C8C57D70DBCEB4E4458BBD60E39D4 SWAP1 PUSH1 0x20 ADD PUSH1 0x40 MLOAD DUP1 SWAP2 SUB SWAP1 LOG2 JUMPDEST POP JUMPDEST DUP3 ISZERO PUSH2 0x96F JUMPI PUSH2 0x93F PUSH1 0x1 PUSH1 0x1 PUSH1 0xA0 SHL SUB PUSH32 0x0 AND CALLER ADDRESS DUP7 PUSH2 0xC76 JUMP JUMPDEST DUP3 DUP2 PUSH0 ADD PUSH0 DUP3 DUP3 SLOAD PUSH2 0x951 SWAP2 SWAP1 PUSH2 0xDFE JUMP JUMPDEST SWAP3 POP POP DUP2 SWAP1 SSTORE POP DUP3 PUSH1 0x3 PUSH0 DUP3 DUP3 SLOAD PUSH2 0x969 SWAP2 SWAP1 PUSH2 0xDFE JUMP JUMPDEST SWAP1 SWAP2 SSTORE POP POP JUMPDEST PUSH1 0x5 SLOAD DUP2 SLOAD PUSH5 0xE8D4A51000 SWAP2 PUSH2 0x984 SWAP2 PUSH2 0xDAF JUMP JUMPDEST PUSH2 0x98E SWAP2 SWAP1 PUSH2 0xDCC JUMP JUMPDEST PUSH1 0x1 DUP3 ADD SSTORE PUSH1 0x40 MLOAD DUP4 DUP2 MSTORE CALLER SWAP1 PUSH32 0xE1FFFCC4923D04B559F4D29A8BFC6CDA04EB5B0D3C460751C2402C5C5CC9109C SWAP1 PUSH1 0x20 ADD PUSH1 0x40 MLOAD DUP1 SWAP2 SUB SWAP1 LOG2 POP POP PUSH2 0x4A1 PUSH1 0x1 DUP1 SSTORE JUMP JUMPDEST PUSH2 0x9DB PUSH2 0xB6A JUMP JUMPDEST CALLER PUSH0 SWAP1 DUP2 MSTORE PUSH1 0x4 PUSH1 0x20 MSTORE PUSH1 0x40 SWAP1 KECCAK256 DUP1 SLOAD DUP1 PUSH2 0xA2E JUMPI PUSH1 0x40 MLOAD PUSH3 0x461BCD PUSH1 0xE5 SHL DUP2 MSTORE PUSH1 0x20 PUSH1 0x4 DUP3 ADD MSTORE PUSH1 0x13 PUSH1 0x24 DUP3 ADD MSTORE PUSH19 0x4E6F7468696E6720746F207769746864726177 PUSH1 0x68 SHL PUSH1 0x44 DUP3 ADD MSTORE PUSH1 0x64 ADD PUSH2 0x32A JUMP JUMPDEST DUP1 PUSH1 0x3 PUSH0 DUP3 DUP3 SLOAD PUSH2 0xA3F SWAP2 SWAP1 PUSH2 0xDEB JUMP JUMPDEST SWAP1 SWAP2 SSTORE POP POP PUSH0 DUP1 DUP4 SSTORE PUSH1 0x1 DUP4 ADD SSTORE PUSH2 0xA81 PUSH1 0x1 PUSH1 0x1 PUSH1 0xA0 SHL SUB PUSH32 0x0 AND CALLER DUP4 PUSH2 0xBC3 JUMP JUMPDEST PUSH1 0x40 MLOAD DUP2 DUP2 MSTORE CALLER SWAP1 PUSH32 0x884EDAD9CE6FA2440D8A54CC123490EB96D2768479D49FF9C7366125A9424364 SWAP1 PUSH1 0x20 ADD PUSH2 0x5B8 JUMP JUMPDEST PUSH2 0xABB PUSH2 0xB3E JUMP JUMPDEST PUSH1 0x1 PUSH1 0x1 PUSH1 0xA0 SHL SUB DUP2 AND PUSH2 0xAE4 JUMPI PUSH1 0x40 MLOAD PUSH4 0x1E4FBDF7 PUSH1 0xE0 SHL DUP2 MSTORE PUSH0 PUSH1 0x4 DUP3 ADD MSTORE PUSH1 0x24 ADD PUSH2 0x32A JUMP JUMPDEST PUSH2 0x4A1 DUP2 PUSH2 0xC27 JUMP JUMPDEST PUSH1 0x1 PUSH1 0x1 PUSH1 0xA0 SHL SUB DUP2 AND PUSH0 SWAP1 DUP2 MSTORE PUSH1 0x4 PUSH1 0x20 MSTORE PUSH1 0x40 DUP2 KECCAK256 PUSH1 0x1 DUP2 ADD SLOAD PUSH1 0x5 SLOAD DUP3 SLOAD DUP5 SWAP3 SWAP2 PUSH5 0xE8D4A51000 SWAP2 PUSH2 0xB22 SWAP2 SWAP1 PUSH2 0xDAF JUMP JUMPDEST PUSH2 0xB2C SWAP2 SWAP1 PUSH2 0xDCC JUMP JUMPDEST PUSH2 0xB36 SWAP2 SWAP1 PUSH2 0xDEB JUMP JUMPDEST SWAP5 SWAP4 POP POP POP POP JUMP JUMPDEST PUSH0 SLOAD PUSH1 0x1 PUSH1 0x1 PUSH1 0xA0 SHL SUB AND CALLER EQ PUSH2 0x5CB JUMPI PUSH1 0x40 MLOAD PUSH4 0x118CDAA7 PUSH1 0xE0 SHL DUP2 MSTORE CALLER PUSH1 0x4 DUP3 ADD MSTORE PUSH1 0x24 ADD PUSH2 0x32A JUMP JUMPDEST PUSH1 0x2 PUSH1 0x1 SLOAD SUB PUSH2 0xBBC JUMPI PUSH1 0x40 MLOAD PUSH3 0x461BCD PUSH1 0xE5 SHL DUP2 MSTORE PUSH1 0x20 PUSH1 0x4 DUP3 ADD MSTORE PUSH1 0x1F PUSH1 0x24 DUP3 ADD MSTORE PUSH32 0x5265656E7472616E637947756172643A207265656E7472616E742063616C6C00 PUSH1 0x44 DUP3 ADD MSTORE PUSH1 0x64 ADD PUSH2 0x32A JUMP JUMPDEST PUSH1 0x2 PUSH1 0x1 SSTORE JUMP JUMPDEST PUSH1 0x40 MLOAD PUSH1 0x1 PUSH1 0x1 PUSH1 0xA0 SHL SUB DUP4 DUP2 AND PUSH1 0x24 DUP4 ADD MSTORE PUSH1 0x44 DUP3 ADD DUP4 SWAP1 MSTORE PUSH2 0xC22 SWAP2 DUP6 SWAP2 DUP3 AND SWAP1 PUSH4 0xA9059CBB SWAP1 PUSH1 0x64 ADD JUMPDEST PUSH1 0x40 MLOAD PUSH1 0x20 DUP2 DUP4 SUB SUB DUP2 MSTORE SWAP1 PUSH1 0x40 MSTORE SWAP2 POP PUSH1 0xE0 SHL PUSH1 0x20 DUP3 ADD DUP1 MLOAD PUSH1 0x1 PUSH1 0x1 PUSH1 0xE0 SHL SUB DUP4 DUP2 DUP4 AND OR DUP4 MSTORE POP POP POP POP PUSH2 0xCB5 JUMP JUMPDEST POP POP POP JUMP JUMPDEST PUSH0 DUP1 SLOAD PUSH1 0x1 PUSH1 0x1 PUSH1 0xA0 SHL SUB DUP4 DUP2 AND PUSH1 0x1 PUSH1 0x1 PUSH1 0xA0 SHL SUB NOT DUP4 AND DUP2 OR DUP5 SSTORE PUSH1 0x40 MLOAD SWAP2 SWAP1 SWAP3 AND SWAP3 DUP4 SWAP2 PUSH32 0x8BE0079C531659141344CD1FD0A4F28419497F9722A3DAAFE3B4186F6B6457E0 SWAP2 SWAP1 LOG3 POP POP JUMP JUMPDEST PUSH1 0x40 MLOAD PUSH1 0x1 PUSH1 0x1 PUSH1 0xA0 SHL SUB DUP5 DUP2 AND PUSH1 0x24 DUP4 ADD MSTORE DUP4 DUP2 AND PUSH1 0x44 DUP4 ADD MSTORE PUSH1 0x64 DUP3 ADD DUP4 SWAP1 MSTORE PUSH2 0xCAF SWAP2 DUP7 SWAP2 DUP3 AND SWAP1 PUSH4 0x23B872DD SWAP1 PUSH1 0x84 ADD PUSH2 0xBF0 JUMP JUMPDEST POP POP POP POP JUMP JUMPDEST PUSH0 DUP1 PUSH1 0x20 PUSH0 DUP5 MLOAD PUSH1 0x20 DUP7 ADD PUSH0 DUP9 GAS CALL DUP1 PUSH2 0xCD4 JUMPI PUSH1 0x40 MLOAD RETURNDATASIZE PUSH0 DUP3 RETURNDATACOPY RETURNDATASIZE DUP2 REVERT JUMPDEST POP POP PUSH0 MLOAD RETURNDATASIZE SWAP2 POP DUP2 ISZERO PUSH2 0xCEB JUMPI DUP1 PUSH1 0x1 EQ ISZERO PUSH2 0xCF8 JUMP JUMPDEST PUSH1 0x1 PUSH1 0x1 PUSH1 0xA0 SHL SUB DUP5 AND EXTCODESIZE ISZERO JUMPDEST ISZERO PUSH2 0xCAF JUMPI PUSH1 0x40 MLOAD PUSH4 0x5274AFE7 PUSH1 0xE0 SHL DUP2 MSTORE PUSH1 0x1 PUSH1 0x1 PUSH1 0xA0 SHL SUB DUP6 AND PUSH1 0x4 DUP3 ADD MSTORE PUSH1 0x24 ADD PUSH2 0x32A JUMP JUMPDEST DUP1 CALLDATALOAD PUSH1 0x1 PUSH1 0x1 PUSH1 0xA0 SHL SUB DUP2 AND DUP2 EQ PUSH2 0xD37 JUMPI PUSH0 DUP1 REVERT JUMPDEST SWAP2 SWAP1 POP JUMP JUMPDEST PUSH0 PUSH1 0x20 DUP3 DUP5 SUB SLT ISZERO PUSH2 0xD4C JUMPI PUSH0 DUP1 REVERT JUMPDEST PUSH2 0xD55 DUP3 PUSH2 0xD21 JUMP JUMPDEST SWAP4 SWAP3 POP POP POP JUMP JUMPDEST PUSH0 PUSH1 0x20 DUP3 DUP5 SUB SLT ISZERO PUSH2 0xD6C JUMPI PUSH0 DUP1 REVERT JUMPDEST POP CALLDATALOAD SWAP2 SWAP1 POP JUMP JUMPDEST PUSH0 DUP1 PUSH1 0x40 DUP4 DUP6 SUB SLT ISZERO PUSH2 0xD84 JUMPI PUSH0 DUP1 REVERT JUMPDEST PUSH2 0xD8D DUP4 PUSH2 0xD21 JUMP JUMPDEST SWAP5 PUSH1 0x20 SWAP4 SWAP1 SWAP4 ADD CALLDATALOAD SWAP4 POP POP POP JUMP JUMPDEST PUSH4 0x4E487B71 PUSH1 0xE0 SHL PUSH0 MSTORE PUSH1 0x11 PUSH1 0x4 MSTORE PUSH1 0x24 PUSH0 REVERT JUMPDEST DUP1 DUP3 MUL DUP2 ISZERO DUP3 DUP3 DIV DUP5 EQ OR PUSH2 0xDC6 JUMPI PUSH2 0xDC6 PUSH2 0xD9B JUMP JUMPDEST SWAP3 SWAP2 POP POP JUMP JUMPDEST PUSH0 DUP3 PUSH2 0xDE6 JUMPI PUSH4 0x4E487B71 PUSH1 0xE0 SHL PUSH0 MSTORE PUSH1 0x12 PUSH1 0x4 MSTORE PUSH1 0x24 PUSH0 REVERT JUMPDEST POP DIV SWAP1 JUMP JUMPDEST DUP2 DUP2 SUB DUP2 DUP2 GT ISZERO PUSH2 0xDC6 JUMPI PUSH2 0xDC6 PUSH2 0xD9B JUMP JUMPDEST DUP1 DUP3 ADD DUP1 DUP3 GT ISZERO PUSH2 0xDC6 JUMPI PUSH2 0xDC6 PUSH2 0xD9B JUMP JUMPDEST PUSH0 PUSH1 0x20 DUP3 DUP5 SUB SLT ISZERO PUSH2 0xE21 JUMPI PUSH0 DUP1 REVERT JUMPDEST POP MLOAD SWAP2 SWAP1 POP JUMP INVALID LOG2 PUSH5 0x6970667358 0x22 SLT KECCAK256 PUSH20 0xA50A5456EC59DF7E185F848FBB6B7FB5C43EF413 0xC8 SWAP9 0xC 0xBB 0xC3 0xF7 0xDD 0xB4 KECCAK256 SWAP9 0xFB PUSH5 0x736F6C6343 STOP ADDMOD EQ STOP CALLER "
		},
		"gasEstimates": {
			"creation": {
				"codeDepositCost": "735600",
				"executionCost": "infinite",
				"totalCost": "infinite"
			},
			"external": {
				"accTokensPerShare()": "2306",
				"claimRewards()": "infinite",
				"deposit(uint256)": "infinite",
				"emergencyWithdraw()": "infinite",
				"minimumVolumeRequired()": "2372",
				"notifyRewardAmount(uint256)": "infinite",
				"owner()": "2418",
				"pendingReward(address)": "infinite",
				"recoverERC20(address,uint256)": "infinite",
				"renounceOwnership()": "infinite",
				"rewardToken()": "infinite",
				"stakingToken()": "infinite",
				"swapContract()": "2447",
				"totalRewards()": "2307",
				"totalStaked()": "2328",
				"transferOwnership(address)": "28395",
				"updateMinimumVolumeRequired(uint256)": "24553",
				"userInfo(address)": "4701",
				"withdraw(uint256)": "infinite"
			}
		},
		"methodIdentifiers": {
			"accTokensPerShare()": "2f3c9a4f",
			"claimRewards()": "372500ab",
			"deposit(uint256)": "b6b55f25",
			"emergencyWithdraw()": "db2e21bc",
			"minimumVolumeRequired()": "644f362d",
			"notifyRewardAmount(uint256)": "3c6b16ab",
			"owner()": "8da5cb5b",
			"pendingReward(address)": "f40f0f52",
			"recoverERC20(address,uint256)": "8980f11f",
			"renounceOwnership()": "715018a6",
			"rewardToken()": "f7c618c1",
			"stakingToken()": "72f702f3",
			"swapContract()": "8ea83031",
			"totalRewards()": "0e15561a",
			"totalStaked()": "817b1cd2",
			"transferOwnership(address)": "f2fde38b",
			"updateMinimumVolumeRequired(uint256)": "2277d7e1",
			"userInfo(address)": "1959a002",
			"withdraw(uint256)": "2e1a7d4d"
		}
	},
	"abi": [
		{
			"inputs": [
				{
					"internalType": "address",
					"name": "_stakingToken",
					"type": "address"
				},
				{
					"internalType": "address payable",
					"name": "_swapContract",
					"type": "address"
				},
				{
					"internalType": "uint256",
					"name": "_minimumVolumeRequired",
					"type": "uint256"
				}
			],
			"stateMutability": "nonpayable",
			"type": "constructor"
		},
		{
			"inputs": [
				{
					"internalType": "address",
					"name": "owner",
					"type": "address"
				}
			],
			"name": "OwnableInvalidOwner",
			"type": "error"
		},
		{
			"inputs": [
				{
					"internalType": "address",
					"name": "account",
					"type": "address"
				}
			],
			"name": "OwnableUnauthorizedAccount",
			"type": "error"
		},
		{
			"inputs": [
				{
					"internalType": "address",
					"name": "token",
					"type": "address"
				}
			],
			"name": "SafeERC20FailedOperation",
			"type": "error"
		},
		{
			"anonymous": false,
			"inputs": [
				{
					"indexed": true,
					"internalType": "address",
					"name": "user",
					"type": "address"
				},
				{
					"indexed": false,
					"internalType": "uint256",
					"name": "amount",
					"type": "uint256"
				}
			],
			"name": "Claim",
			"type": "event"
		},
		{
			"anonymous": false,
			"inputs": [
				{
					"indexed": true,
					"internalType": "address",
					"name": "user",
					"type": "address"
				},
				{
					"indexed": false,
					"internalType": "uint256",
					"name": "amount",
					"type": "uint256"
				}
			],
			"name": "Deposit",
			"type": "event"
		},
		{
			"anonymous": false,
			"inputs": [
				{
					"indexed": true,
					"internalType": "address",
					"name": "previousOwner",
					"type": "address"
				},
				{
					"indexed": true,
					"internalType": "address",
					"name": "newOwner",
					"type": "address"
				}
			],
			"name": "OwnershipTransferred",
			"type": "event"
		},
		{
			"anonymous": false,
			"inputs": [
				{
					"indexed": false,
					"internalType": "uint256",
					"name": "amount",
					"type": "uint256"
				}
			],
			"name": "RewardAdded",
			"type": "event"
		},
		{
			"anonymous": false,
			"inputs": [
				{
					"indexed": true,
					"internalType": "address",
					"name": "user",
					"type": "address"
				},
				{
					"indexed": false,
					"internalType": "uint256",
					"name": "amount",
					"type": "uint256"
				}
			],
			"name": "Withdraw",
			"type": "event"
		},
		{
			"inputs": [],
			"name": "accTokensPerShare",
			"outputs": [
				{
					"internalType": "uint256",
					"name": "",
					"type": "uint256"
				}
			],
			"stateMutability": "view",
			"type": "function"
		},
		{
			"inputs": [],
			"name": "claimRewards",
			"outputs": [],
			"stateMutability": "nonpayable",
			"type": "function"
		},
		{
			"inputs": [
				{
					"internalType": "uint256",
					"name": "_amount",
					"type": "uint256"
				}
			],
			"name": "deposit",
			"outputs": [],
			"stateMutability": "nonpayable",
			"type": "function"
		},
		{
			"inputs": [],
			"name": "emergencyWithdraw",
			"outputs": [],
			"stateMutability": "nonpayable",
			"type": "function"
		},
		{
			"inputs": [],
			"name": "minimumVolumeRequired",
			"outputs": [
				{
					"internalType": "uint256",
					"name": "",
					"type": "uint256"
				}
			],
			"stateMutability": "view",
			"type": "function"
		},
		{
			"inputs": [
				{
					"internalType": "uint256",
					"name": "reward",
					"type": "uint256"
				}
			],
			"name": "notifyRewardAmount",
			"outputs": [],
			"stateMutability": "nonpayable",
			"type": "function"
		},
		{
			"inputs": [],
			"name": "owner",
			"outputs": [
				{
					"internalType": "address",
					"name": "",
					"type": "address"
				}
			],
			"stateMutability": "view",
			"type": "function"
		},
		{
			"inputs": [
				{
					"internalType": "address",
					"name": "_user",
					"type": "address"
				}
			],
			"name": "pendingReward",
			"outputs": [
				{
					"internalType": "uint256",
					"name": "",
					"type": "uint256"
				}
			],
			"stateMutability": "view",
			"type": "function"
		},
		{
			"inputs": [
				{
					"internalType": "address",
					"name": "tokenAddress",
					"type": "address"
				},
				{
					"internalType": "uint256",
					"name": "tokenAmount",
					"type": "uint256"
				}
			],
			"name": "recoverERC20",
			"outputs": [],
			"stateMutability": "nonpayable",
			"type": "function"
		},
		{
			"inputs": [],
			"name": "renounceOwnership",
			"outputs": [],
			"stateMutability": "nonpayable",
			"type": "function"
		},
		{
			"inputs": [],
			"name": "rewardToken",
			"outputs": [
				{
					"internalType": "contract IERC20",
					"name": "",
					"type": "address"
				}
			],
			"stateMutability": "view",
			"type": "function"
		},
		{
			"inputs": [],
			"name": "stakingToken",
			"outputs": [
				{
					"internalType": "contract IERC20",
					"name": "",
					"type": "address"
				}
			],
			"stateMutability": "view",
			"type": "function"
		},
		{
			"inputs": [],
			"name": "swapContract",
			"outputs": [
				{
					"internalType": "contract SwapPro",
					"name": "",
					"type": "address"
				}
			],
			"stateMutability": "view",
			"type": "function"
		},
		{
			"inputs": [],
			"name": "totalRewards",
			"outputs": [
				{
					"internalType": "uint256",
					"name": "",
					"type": "uint256"
				}
			],
			"stateMutability": "view",
			"type": "function"
		},
		{
			"inputs": [],
			"name": "totalStaked",
			"outputs": [
				{
					"internalType": "uint256",
					"name": "",
					"type": "uint256"
				}
			],
			"stateMutability": "view",
			"type": "function"
		},
		{
			"inputs": [
				{
					"internalType": "address",
					"name": "newOwner",
					"type": "address"
				}
			],
			"name": "transferOwnership",
			"outputs": [],
			"stateMutability": "nonpayable",
			"type": "function"
		},
		{
			"inputs": [
				{
					"internalType": "uint256",
					"name": "_newVolume",
					"type": "uint256"
				}
			],
			"name": "updateMinimumVolumeRequired",
			"outputs": [],
			"stateMutability": "nonpayable",
			"type": "function"
		},
		{
			"inputs": [
				{
					"internalType": "address",
					"name": "",
					"type": "address"
				}
			],
			"name": "userInfo",
			"outputs": [
				{
					"internalType": "uint256",
					"name": "amount",
					"type": "uint256"
				},
				{
					"internalType": "uint256",
					"name": "rewardDebt",
					"type": "uint256"
				}
			],
			"stateMutability": "view",
			"type": "function"
		},
		{
			"inputs": [
				{
					"internalType": "uint256",
					"name": "_amount",
					"type": "uint256"
				}
			],
			"name": "withdraw",
			"outputs": [],
			"stateMutability": "nonpayable",
			"type": "function"
		}
	]
}